Component: ARM Compiler 5.06 update 7 (build 960) Tool: armlink [4d3601]

==============================================================================

Section Cross References

    stm32f10x_gpio.o(i.GPIO_AFIODeInit) refers to stm32f10x_rcc.o(i.RCC_APB2PeriphResetCmd) for RCC_APB2PeriphResetCmd
    stm32f10x_gpio.o(i.GPIO_DeInit) refers to stm32f10x_rcc.o(i.RCC_APB2PeriphResetCmd) for RCC_APB2PeriphResetCmd
    stm32f10x_rcc.o(i.RCC_GetClocksFreq) refers to stm32f10x_rcc.o(.data) for APBAHBPrescTable
    stm32f10x_rcc.o(i.RCC_WaitForHSEStartUp) refers to stm32f10x_rcc.o(i.RCC_GetFlagStatus) for RCC_GetFlagStatus
    stm32f10x_usart.o(i.USART_DeInit) refers to stm32f10x_rcc.o(i.RCC_APB2PeriphResetCmd) for RCC_APB2PeriphResetCmd
    stm32f10x_usart.o(i.USART_DeInit) refers to stm32f10x_rcc.o(i.RCC_APB1PeriphResetCmd) for RCC_APB1PeriphResetCmd
    stm32f10x_usart.o(i.USART_Init) refers to stm32f10x_rcc.o(i.RCC_GetClocksFreq) for RCC_GetClocksFreq
    stm32f10x_tim.o(i.TIM_DeInit) refers to stm32f10x_rcc.o(i.RCC_APB2PeriphResetCmd) for RCC_APB2PeriphResetCmd
    stm32f10x_tim.o(i.TIM_DeInit) refers to stm32f10x_rcc.o(i.RCC_APB1PeriphResetCmd) for RCC_APB1PeriphResetCmd
    stm32f10x_tim.o(i.TIM_ETRClockMode1Config) refers to stm32f10x_tim.o(i.TIM_ETRConfig) for TIM_ETRConfig
    stm32f10x_tim.o(i.TIM_ETRClockMode2Config) refers to stm32f10x_tim.o(i.TIM_ETRConfig) for TIM_ETRConfig
    stm32f10x_tim.o(i.TIM_ICInit) refers to stm32f10x_tim.o(i.TI1_Config) for TI1_Config
    stm32f10x_tim.o(i.TIM_ICInit) refers to stm32f10x_tim.o(i.TIM_SetIC1Prescaler) for TIM_SetIC1Prescaler
    stm32f10x_tim.o(i.TIM_ICInit) refers to stm32f10x_tim.o(i.TI2_Config) for TI2_Config
    stm32f10x_tim.o(i.TIM_ICInit) refers to stm32f10x_tim.o(i.TIM_SetIC2Prescaler) for TIM_SetIC2Prescaler
    stm32f10x_tim.o(i.TIM_ICInit) refers to stm32f10x_tim.o(i.TI3_Config) for TI3_Config
    stm32f10x_tim.o(i.TIM_ICInit) refers to stm32f10x_tim.o(i.TIM_SetIC3Prescaler) for TIM_SetIC3Prescaler
    stm32f10x_tim.o(i.TIM_ICInit) refers to stm32f10x_tim.o(i.TI4_Config) for TI4_Config
==============================================================================

Removing Unused input sections from the image.

    Removing misc.o(.rev16_text), (4 bytes).
    Removing misc.o(.revsh_text), (4 bytes).
    Removing misc.o(.rrx_text), (6 bytes).
    Removing misc.o(i.NVIC_SetVectorTable), (20 bytes).
    Removing misc.o(i.NVIC_SystemLPConfig), (32 bytes).
    Removing stm32f10x_gpio.o(.rev16_text), (4 bytes).
    Removing stm32f10x_gpio.o(.revsh_text), (4 bytes).
    Removing stm32f10x_gpio.o(.rrx_text), (6 bytes).
    Removing stm32f10x_gpio.o(i.GPIO_AFIODeInit), (20 bytes).
    Removing stm32f10x_gpio.o(i.GPIO_DeInit), (200 bytes).
    Removing stm32f10x_gpio.o(i.GPIO_ETH_MediaInterfaceConfig), (12 bytes).
    Removing stm32f10x_gpio.o(i.GPIO_EventOutputCmd), (12 bytes).
    Removing stm32f10x_gpio.o(i.GPIO_EventOutputConfig), (32 bytes).
    Removing stm32f10x_gpio.o(i.GPIO_PinLockConfig), (18 bytes).
    Removing stm32f10x_gpio.o(i.GPIO_ReadInputData), (8 bytes).
    Removing stm32f10x_gpio.o(i.GPIO_ReadOutputData), (8 bytes).
    Removing stm32f10x_gpio.o(i.GPIO_ReadOutputDataBit), (18 bytes).
    Removing stm32f10x_gpio.o(i.GPIO_ResetBits), (4 bytes).
==============================================================================

Image Symbol Table

    Local Symbols

    Symbol Name                              Value     Ov Type        Size  Object(Section)

    ../clib/../cmprslib/zerorunl2.c          0x00000000   Number         0  __dczerorl2.o ABSOLUTE
    ../clib/microlib/division.c              0x00000000   Number         0  uldiv.o ABSOLUTE
    ../clib/microlib/division.c              0x00000000   Number         0  ldiv.o ABSOLUTE
    ../clib/microlib/division.c              0x00000000   Number         0  uidiv.o ABSOLUTE
    ../clib/microlib/errno.c                 0x00000000   Number         0  errno.o ABSOLUTE
    ../clib/microlib/init/entry.s            0x00000000   Number         0  entry12b.o ABSOLUTE
    ../clib/microlib/init/entry.s            0x00000000   Number         0  entry12a.o ABSOLUTE
    ../clib/microlib/init/entry.s            0x00000000   Number         0  entry2.o ABSOLUTE
    ../clib/microlib/init/entry.s            0x00000000   Number         0  entry7a.o ABSOLUTE
    ../clib/microlib/init/entry.s            0x00000000   Number         0  entry7b.o ABSOLUTE
    ../clib/microlib/init/entry.s            0x00000000   Number         0  entry8a.o ABSOLUTE
    ../clib/microlib/init/entry.s            0x00000000   Number         0  entry8b.o ABSOLUTE
    ../clib/microlib/init/entry.s            0x00000000   Number         0  entry9a.o ABSOLUTE
    ../clib/microlib/init/entry.s            0x00000000   Number         0  entry9b.o ABSOLUTE
    ../clib/microlib/init/entry.s            0x00000000   Number         0  entry11b.o ABSOLUTE
    ../clib/microlib/init/entry.s            0x00000000   Number         0  entry11a.o ABSOLUTE
    ../clib/microlib/init/entry.s            0x00000000   Number         0  entry10b.o ABSOLUTE
    ../clib/microlib/init/entry.s            0x00000000   Number         0  entry10a.o ABSOLUTE
    ../clib/microlib/init/entry.s            0x00000000   Number         0  entry.o ABSOLUTE
    ../clib/microlib/init/entry.s            0x00000000   Number         0  entry5.o ABSOLUTE
    ../clib/microlib/longlong.c              0x00000000   Number         0  llshl.o ABSOLUTE
    ../clib/microlib/longlong.c              0x00000000   Number         0  llsshr.o ABSOLUTE
    ../clib/microlib/longlong.c              0x00000000   Number         0  llushr.o ABSOLUTE
    ../clib/microlib/printf/printf.c         0x00000000   Number         0  printf1.o ABSOLUTE
    ../clib/microlib/printf/printf.c         0x00000000   Number         0  printf5.o ABSOLUTE
    ../clib/microlib/printf/printf.c         0x00000000   Number         0  printf4.o ABSOLUTE
    ../clib/microlib/printf/printf.c         0x00000000   Number         0  printf3.o ABSOLUTE
    ../clib/microlib/printf/printf.c         0x00000000   Number         0  printf2.o ABSOLUTE
    ../clib/microlib/printf/printf.c         0x00000000   Number         0  printf0.o ABSOLUTE
    ../clib/microlib/printf/printf.c         0x00000000   Number         0  printfb.o ABSOLUTE
    ../clib/microlib/printf/printf.c         0x00000000   Number         0  printfa.o ABSOLUTE
    ../clib/microlib/printf/printf.c         0x00000000   Number         0  printf8.o ABSOLUTE
    ../clib/microlib/printf/printf.c         0x00000000   Number         0  printf7.o ABSOLUTE
    ../clib/microlib/printf/printf.c         0x00000000   Number         0  printf6.o ABSOLUTE
    ../clib/microlib/printf/stubs.s          0x00000000   Number         0  stubs.o ABSOLUTE
    ../clib/microlib/string/memcmp.c         0x00000000   Number         0  memcmp.o ABSOLUTE
    ../clib/microlib/string/memcpy.c         0x00000000   Number         0  memcpya.o ABSOLUTE
    ../clib/microlib/string/memcpy.c         0x00000000   Number         0  memcpyb.o ABSOLUTE
    ../clib/microlib/string/memset.c         0x00000000   Number         0  memseta.o ABSOLUTE
    ../clib/microlib/stubs.s                 0x00000000   Number         0  iusefp.o ABSOLUTE
    ../clib/microlib/stubs.s                 0x00000000   Number         0  useno.o ABSOLUTE
    ../fplib/microlib/d2f.c                  0x00000000   Number         0  d2f.o ABSOLUTE
    ../fplib/microlib/f2d.c                  0x00000000   Number         0  f2d.o ABSOLUTE
    ../fplib/microlib/fpadd.c                0x00000000   Number         0  dadd.o ABSOLUTE
    ../fplib/microlib/fpadd.c                0x00000000   Number         0  fadd.o ABSOLUTE
    ../fplib/microlib/fpdiv.c                0x00000000   Number         0  ddiv.o ABSOLUTE
    ../fplib/microlib/fpdiv.c                0x00000000   Number         0  fdiv.o ABSOLUTE
    ../fplib/microlib/fpepilogue.c           0x00000000   Number         0  depilogue.o ABSOLUTE
    ../fplib/microlib/fpepilogue.c           0x00000000   Number         0  fepilogue.o ABSOLUTE
    ../fplib/microlib/fpfix.c                0x00000000   Number         0  ffixui.o ABSOLUTE
    ../fplib/microlib/fpfix.c                0x00000000   Number         0  ffixi.o ABSOLUTE
    ../fplib/microlib/fpfix.c                0x00000000   Number         0  dfixul.o ABSOLUTE
    ../fplib/microlib/fpflt.c                0x00000000   Number         0  dflti.o ABSOLUTE
    ../fplib/microlib/fpflt.c                0x00000000   Number         0  ffltui.o ABSOLUTE
    ../fplib/microlib/fpflt.c                0x00000000   Number         0  fflti.o ABSOLUTE
    ../fplib/microlib/fpmul.c                0x00000000   Number         0  dmul.o ABSOLUTE
    ../fplib/microlib/fpmul.c                0x00000000   Number         0  fmul.o ABSOLUTE
    ../fplib/microlib/fpscalb.c              0x00000000   Number         0  dscalb.o ABSOLUTE
    ../fplib/microlib/fpsqrt.c               0x00000000   Number         0  dsqrt.o ABSOLUTE
    ../mathlib/asin.c                        0x00000000   Number         0  asin_x.o ABSOLUTE
    ../mathlib/asin.c                        0x00000000   Number         0  asin.o ABSOLUTE
    ../mathlib/atan.c                        0x00000000   Number         0  atan_x.o ABSOLUTE
    ../mathlib/atan.c                        0x00000000   Number         0  atan.o ABSOLUTE
    ../mathlib/atan2.c                       0x00000000   Number         0  atan2_x.o ABSOLUTE
    ../mathlib/atan2.c                       0x00000000   Number         0  atan2.o ABSOLUTE
    ../mathlib/dunder.c                      0x00000000   Number         0  dunder.o ABSOLUTE
    ../mathlib/fpclassify.c                  0x00000000   Number         0  fpclassify.o ABSOLUTE
    ../mathlib/poly.c                        0x00000000   Number         0  poly.o ABSOLUTE
    ../mathlib/qnan.c                        0x00000000   Number         0  qnan.o ABSOLUTE
    ../mathlib/sqrt.c                        0x00000000   Number         0  sqrt_x.o ABSOLUTE
    ../mathlib/sqrt.c                        0x00000000   Number         0  sqrt.o ABSOLUTE
    ..\APPLICATION\Application_PID.c         0x00000000   Number         0  application_pid.o ABSOLUTE
    ..\APPLICATION\TaskManage.c              0x00000000   Number         0  taskmanage.o ABSOLUTE
    ..\CORE\core_cm3.c                       0x00000000   Number         0  core_cm3.o ABSOLUTE
    ..\CORE\startup_stm32f10x_md.s           0x00000000   Number         0  startup_stm32f10x_md.o ABSOLUTE
    ..\FreeRTOS\croutine.c                   0x00000000   Number         0  croutine.o ABSOLUTE
    ..\FreeRTOS\event_groups.c               0x00000000   Number         0  event_groups.o ABSOLUTE
    ..\FreeRTOS\list.c                       0x00000000   Number         0  list.o ABSOLUTE
    ..\FreeRTOS\portable\MemMang\heap_4.c    0x00000000   Number         0  heap_4.o ABSOLUTE
    ..\FreeRTOS\portable\RVDS\ARM_CM3\port.c 0x00000000   Number         0  port.o ABSOLUTE
    ..\FreeRTOS\queue.c                      0x00000000   Number         0  queue.o ABSOLUTE
    ..\FreeRTOS\tasks.c                      0x00000000   Number         0  tasks.o ABSOLUTE
    ..\FreeRTOS\timers.c                     0x00000000   Number         0  timers.o ABSOLUTE
    ..\HARDWARE\MPU6050\eMPL\inv_mpu.c       0x00000000   Number         0  inv_mpu.o ABSOLUTE
    ..\HARDWARE\MPU6050\eMPL\inv_mpu_dmp_motion_driver.c 0x00000000   Number         0  inv_mpu_dmp_motion_driver.o ABSOLUTE
    ..\HARDWARE\MPU6050\mpu6050.c            0x00000000   Number         0  mpu6050.o ABSOLUTE
    ..\HARDWARE\MPU6050\mpuiic.c             0x00000000   Number         0  mpuiic.o ABSOLUTE
    ..\HARDWARE\datascope_DP\DataScope_DP.C  0x00000000   Number         0  datascope_dp.o ABSOLUTE
    ..\HARDWARE\encoder\encoder.c            0x00000000   Number         0  encoder.o ABSOLUTE
    ..\HARDWARE\led\led.c                    0x00000000   Number         0  led.o ABSOLUTE
    ..\HARDWARE\motor\motor.c                0x00000000   Number         0  motor.o ABSOLUTE
    ..\HARDWARE\mpu_exti\mpu_exti.c          0x00000000   Number         0  mpu_exti.o ABSOLUTE
    ..\HARDWARE\oled\oled.c                  0x00000000   Number         0  oled.o ABSOLUTE
    ..\HARDWARE\pwm\pwm.c                    0x00000000   Number         0  pwm.o ABSOLUTE
    ..\HARDWARE\timer\timer.c                0x00000000   Number         0  timer.o ABSOLUTE
    ..\HARDWARE\usart2\usart2.c              0x00000000   Number         0  usart2.o ABSOLUTE
    ..\STM32F10x_FWLib\src\misc.c            0x00000000   Number         0  misc.o ABSOLUTE
    ..\STM32F10x_FWLib\src\stm32f10x_dbgmcu.c 0x00000000   Number         0  stm32f10x_dbgmcu.o ABSOLUTE
    ..\STM32F10x_FWLib\src\stm32f10x_exti.c  0x00000000   Number         0  stm32f10x_exti.o ABSOLUTE
    ..\STM32F10x_FWLib\src\stm32f10x_gpio.c  0x00000000   Number         0  stm32f10x_gpio.o ABSOLUTE
    ..\STM32F10x_FWLib\src\stm32f10x_rcc.c   0x00000000   Number         0  stm32f10x_rcc.o ABSOLUTE
    ..\STM32F10x_FWLib\src\stm32f10x_tim.c   0x00000000   Number         0  stm32f10x_tim.o ABSOLUTE
    ..\STM32F10x_FWLib\src\stm32f10x_usart.c 0x00000000   Number         0  stm32f10x_usart.o ABSOLUTE
    ..\SYSTEM\SysTick\SysTick.c              0x00000000   Number         0  systick.o ABSOLUTE
    ..\SYSTEM\delay\delay.c                  0x00000000   Number         0  delay.o ABSOLUTE
    ..\SYSTEM\sys\sys.c                      0x00000000   Number         0  sys.o ABSOLUTE
    ..\SYSTEM\usart\usart.c                  0x00000000   Number         0  usart.o ABSOLUTE
    ..\\APPLICATION\\Application_PID.c       0x00000000   Number         0  application_pid.o ABSOLUTE
    ..\\APPLICATION\\TaskManage.c            0x00000000   Number         0  taskmanage.o ABSOLUTE
    ..\\CORE\\core_cm3.c                     0x00000000   Number         0  core_cm3.o ABSOLUTE
    ..\\FreeRTOS\\croutine.c                 0x00000000   Number         0  croutine.o ABSOLUTE
    ..\\FreeRTOS\\event_groups.c             0x00000000   Number         0  event_groups.o ABSOLUTE
    ..\\FreeRTOS\\list.c                     0x00000000   Number         0  list.o ABSOLUTE
    ..\\FreeRTOS\\portable\\MemMang\\heap_4.c 0x00000000   Number         0  heap_4.o ABSOLUTE
    ..\\FreeRTOS\\portable\\RVDS\\ARM_CM3\\port.c 0x00000000   Number         0  port.o ABSOLUTE
    ..\\FreeRTOS\\queue.c                    0x00000000   Number         0  queue.o ABSOLUTE
    ..\\FreeRTOS\\tasks.c                    0x00000000   Number         0  tasks.o ABSOLUTE
    ..\\FreeRTOS\\timers.c                   0x00000000   Number         0  timers.o ABSOLUTE
    ..\\HARDWARE\\MPU6050\\eMPL\\inv_mpu.c   0x00000000   Number         0  inv_mpu.o ABSOLUTE
    ..\\HARDWARE\\MPU6050\\eMPL\\inv_mpu_dmp_motion_driver.c 0x00000000   Number         0  inv_mpu_dmp_motion_driver.o ABSOLUTE
    ..\\HARDWARE\\MPU6050\\mpu6050.c         0x00000000   Number         0  mpu6050.o ABSOLUTE
    ..\\HARDWARE\\MPU6050\\mpuiic.c          0x00000000   Number         0  mpuiic.o ABSOLUTE
    ..\\HARDWARE\\encoder\\encoder.c         0x00000000   Number         0  encoder.o ABSOLUTE
    ..\\HARDWARE\\led\\led.c                 0x00000000   Number         0  led.o ABSOLUTE
    ..\\HARDWARE\\motor\\motor.c             0x00000000   Number         0  motor.o ABSOLUTE
    ..\\HARDWARE\\mpu_exti\\mpu_exti.c       0x00000000   Number         0  mpu_exti.o ABSOLUTE
    ..\\HARDWARE\\oled\\oled.c               0x00000000   Number         0  oled.o ABSOLUTE
    ..\\HARDWARE\\pwm\\pwm.c                 0x00000000   Number         0  pwm.o ABSOLUTE
    ..\\HARDWARE\\timer\\timer.c             0x00000000   Number         0  timer.o ABSOLUTE
    ..\\HARDWARE\\usart2\\usart2.c           0x00000000   Number         0  usart2.o ABSOLUTE
    ..\\STM32F10x_FWLib\\src\\misc.c         0x00000000   Number         0  misc.o ABSOLUTE
    ..\\STM32F10x_FWLib\\src\\stm32f10x_dbgmcu.c 0x00000000   Number         0  stm32f10x_dbgmcu.o ABSOLUTE
    ..\\STM32F10x_FWLib\\src\\stm32f10x_exti.c 0x00000000   Number         0  stm32f10x_exti.o ABSOLUTE
    ..\\STM32F10x_FWLib\\src\\stm32f10x_gpio.c 0x00000000   Number         0  stm32f10x_gpio.o ABSOLUTE
    ..\\STM32F10x_FWLib\\src\\stm32f10x_rcc.c 0x00000000   Number         0  stm32f10x_rcc.o ABSOLUTE
    ..\\STM32F10x_FWLib\\src\\stm32f10x_tim.c 0x00000000   Number         0  stm32f10x_tim.o ABSOLUTE
    ..\\STM32F10x_FWLib\\src\\stm32f10x_usart.c 0x00000000   Number         0  stm32f10x_usart.o ABSOLUTE
    ..\\SYSTEM\\SysTick\\SysTick.c           0x00000000   Number         0  systick.o ABSOLUTE
    ..\\SYSTEM\\delay\\delay.c               0x00000000   Number         0  delay.o ABSOLUTE
    ..\\SYSTEM\\sys\\sys.c                   0x00000000   Number         0  sys.o ABSOLUTE
    ..\\SYSTEM\\usart\\usart.c               0x00000000   Number         0  usart.o ABSOLUTE
    cdcmple.s                                0x00000000   Number         0  cdcmple.o ABSOLUTE
    cdrcmple.s                               0x00000000   Number         0  cdrcmple.o ABSOLUTE
    cfcmple.s                                0x00000000   Number         0  cfcmple.o ABSOLUTE
    cfrcmple.s                               0x00000000   Number         0  cfrcmple.o ABSOLUTE
    dc.s                                     0x00000000   Number         0  dc.o ABSOLUTE
    handlers.s                               0x00000000   Number         0  handlers.o ABSOLUTE
    init.s                                   0x00000000   Number         0  init.o ABSOLUTE
    main.c                                   0x00000000   Number         0  main.o ABSOLUTE
    main.c                                   0x00000000   Number         0  main.o ABSOLUTE
    stm32f10x_it.c                           0x00000000   Number         0  stm32f10x_it.o ABSOLUTE
    stm32f10x_it.c                           0x00000000   Number         0  stm32f10x_it.o ABSOLUTE
    system_stm32f10x.c                       0x00000000   Number         0  system_stm32f10x.o ABSOLUTE
    system_stm32f10x.c                       0x00000000   Number         0  system_stm32f10x.o ABSOLUTE
    RESET                                    0x08000000   Section      236  startup_stm32f10x_md.o(RESET)
    .ARM.Collect$$$$00000000                 0x080000ec   Section        0  entry.o(.ARM.Collect$$$$00000000)
    .ARM.Collect$$$$00000001                 0x080000ec   Section        4  entry2.o(.ARM.Collect$$$$00000001)
    .ARM.Collect$$$$00000004                 0x080000f0   Section        4  entry5.o(.ARM.Collect$$$$00000004)
    .ARM.Collect$$$$00000008                 0x080000f4   Section        0  entry7b.o(.ARM.Collect$$$$00000008)
    .ARM.Collect$$$$0000000A                 0x080000f4   Section        0  entry8b.o(.ARM.Collect$$$$0000000A)
    .ARM.Collect$$$$0000000B                 0x080000f4   Section        8  entry9a.o(.ARM.Collect$$$$0000000B)
    .ARM.Collect$$$$0000000E                 0x080000fc   Section        4  entry12b.o(.ARM.Collect$$$$0000000E)
    .ARM.Collect$$$$0000000F                 0x08000100   Section        0  entry10a.o(.ARM.Collect$$$$0000000F)
    .ARM.Collect$$$$00000011                 0x08000100   Section        0  entry11a.o(.ARM.Collect$$$$00000011)
    .ARM.Collect$$$$00002712                 0x08000100   Section        4  entry2.o(.ARM.Collect$$$$00002712)
    __lit__00000000                          0x08000100   Data           4  entry2.o(.ARM.Collect$$$$00002712)
    .emb_text                                0x08000104   Section      150  port.o(.emb_text)
    .text                                    0x0800019c   Section       36  startup_stm32f10x_md.o(.text)
    .text                                    0x080001c0   Section        0  ldiv.o(.text)
    .text                                    0x08000222   Section        0  memcpya.o(.text)
    .text                                    0x08000246   Section        0  memseta.o(.text)
    .text                                    0x0800026a   Section        0  memcmp.o(.text)
    .text                                    0x08000284   Section        0  fadd.o(.text)
    .text                                    0x08000334   Section        0  fmul.o(.text)
    .text                                    0x08000398   Section        0  fdiv.o(.text)
    .text                                    0x08000414   Section        0  dadd.o(.text)
    .text                                    0x08000562   Section        0  dmul.o(.text)
    .text                                    0x08000646   Section        0  ddiv.o(.text)
    .text                                    0x08000724   Section        0  fflti.o(.text)
    .text                                    0x08000736   Section        0  ffltui.o(.text)
    .text                                    0x08000740   Section        0  ffixi.o(.text)
    .text                                    0x08000772   Section        0  ffixui.o(.text)
    .text                                    0x0800079a   Section        0  f2d.o(.text)
    .text                                    0x080007c0   Section        0  d2f.o(.text)
    .text                                    0x080007f8   Section       20  cfcmple.o(.text)
    .text                                    0x0800080c   Section       20  cfrcmple.o(.text)
    .text                                    0x08000820   Section        0  uldiv.o(.text)
    .text                                    0x08000882   Section        0  llshl.o(.text)
    .text                                    0x080008a0   Section        0  llsshr.o(.text)
    .text                                    0x080008c4   Section        0  fepilogue.o(.text)
    .text                                    0x080008c4   Section        0  iusefp.o(.text)
    .text                                    0x08000932   Section        0  depilogue.o(.text)
    .text                                    0x080009ec   Section        0  dscalb.o(.text)
    .text                                    0x08000a1c   Section       48  cdcmple.o(.text)
    .text                                    0x08000a4c   Section       36  init.o(.text)
    .text                                    0x08000a70   Section        0  llushr.o(.text)
    .text                                    0x08000a90   Section        0  dsqrt.o(.text)
    .text                                    0x08000b32   Section        0  __dczerorl2.o(.text)
    i.BlueTooth_init                         0x08000b88   Section        0  usart2.o(i.BlueTooth_init)
    i.BusFault_Handler                       0x08000c30   Section        0  stm32f10x_it.o(i.BusFault_Handler)
    i.DebugMon_Handler                       0x08000c34   Section        0  stm32f10x_it.o(i.DebugMon_Handler)
    i.EXTI9_5_IRQHandler                     0x08000c38   Section        0  application_pid.o(i.EXTI9_5_IRQHandler)
    i.EXTI_Init                              0x08000c74   Section        0  stm32f10x_exti.o(i.EXTI_Init)
    i.Encoder_Init_TIM2                      0x08000d08   Section        0  encoder.o(i.Encoder_Init_TIM2)
    i.Encoder_Init_TIM3                      0x08000da8   Section        0  encoder.o(i.Encoder_Init_TIM3)
    i.GPIO_EXTILineConfig                    0x08000e44   Section        0  stm32f10x_gpio.o(i.GPIO_EXTILineConfig)
    i.GPIO_Init                              0x08000e84   Section        0  stm32f10x_gpio.o(i.GPIO_Init)
    i.GPIO_PinRemapConfig                    0x08000f9c   Section        0  stm32f10x_gpio.o(i.GPIO_PinRemapConfig)
    i.GPIO_ReadInputDataBit                  0x0800102c   Section        0  stm32f10x_gpio.o(i.GPIO_ReadInputDataBit)
    i.GPIO_SetBits                           0x0800103e   Section        0  stm32f10x_gpio.o(i.GPIO_SetBits)
    i.GPIO_WriteBit                          0x08001042   Section        0  stm32f10x_gpio.o(i.GPIO_WriteBit)
    i.HardFault_Handler                      0x0800104c   Section        0  stm32f10x_it.o(i.HardFault_Handler)
    i.LED_Init                               0x08001050   Section        0  led.o(i.LED_Init)
    i.MPU6050_EXTI_Init                      0x08001084   Section        0  mpu_exti.o(i.MPU6050_EXTI_Init)
    i.MPU_Get_Gyroscope                      0x080010d4   Section        0  mpu6050.o(i.MPU_Get_Gyroscope)
    i.MPU_IIC_Ack                            0x08001124   Section        0  mpuiic.o(i.MPU_IIC_Ack)
    i.MPU_IIC_Delay                          0x08001170   Section        0  mpuiic.o(i.MPU_IIC_Delay)
    i.MPU_IIC_Init                           0x0800117c   Section        0  mpuiic.o(i.MPU_IIC_Init)
    i.MPU_IIC_NAck                           0x080011c4   Section        0  mpuiic.o(i.MPU_IIC_NAck)
    i.MPU_IIC_Read_Byte                      0x08001210   Section        0  mpuiic.o(i.MPU_IIC_Read_Byte)
    i.MPU_IIC_Send_Byte                      0x0800127c   Section        0  mpuiic.o(i.MPU_IIC_Send_Byte)
    i.MPU_IIC_Start                          0x080012d8   Section        0  mpuiic.o(i.MPU_IIC_Start)
    i.MPU_IIC_Stop                           0x08001320   Section        0  mpuiic.o(i.MPU_IIC_Stop)
    i.MPU_IIC_Wait_Ack                       0x08001368   Section        0  mpuiic.o(i.MPU_IIC_Wait_Ack)
    i.MPU_Init                               0x080013cc   Section        0  mpu6050.o(i.MPU_Init)
    i.MPU_Read_Byte                          0x08001446   Section        0  mpu6050.o(i.MPU_Read_Byte)
    i.MPU_Read_Len                           0x08001480   Section        0  mpu6050.o(i.MPU_Read_Len)
    i.MPU_Set_Accel_Fsr                      0x080014f4   Section        0  mpu6050.o(i.MPU_Set_Accel_Fsr)
    i.MPU_Set_Gyro_Fsr                       0x08001504   Section        0  mpu6050.o(i.MPU_Set_Gyro_Fsr)
    i.MPU_Set_LPF                            0x08001514   Section        0  mpu6050.o(i.MPU_Set_LPF)
    i.MPU_Set_Rate                           0x0800154e   Section        0  mpu6050.o(i.MPU_Set_Rate)
    i.MPU_Write_Byte                         0x08001588   Section        0  mpu6050.o(i.MPU_Write_Byte)
    i.MPU_Write_Len                          0x080015cc   Section        0  mpu6050.o(i.MPU_Write_Len)
    i.MemManage_Handler                      0x0800162c   Section        0  stm32f10x_it.o(i.MemManage_Handler)
    i.Motor_Init                             0x08001630   Section        0  motor.o(i.Motor_Init)
    i.NMI_Handler                            0x08001660   Section        0  stm32f10x_it.o(i.NMI_Handler)
    i.NVIC_Configuration                     0x08001662   Section        0  sys.o(i.NVIC_Configuration)
    i.NVIC_Init                              0x080016e8   Section        0  misc.o(i.NVIC_Init)
    i.NVIC_PriorityGroupConfig               0x08001758   Section        0  misc.o(i.NVIC_PriorityGroupConfig)
    i.OLED_Clear                             0x0800176c   Section        0  oled.o(i.OLED_Clear)
    i.OLED_DrawBMP                           0x08001796   Section        0  oled.o(i.OLED_DrawBMP)
    i.OLED_I2C_Init                          0x0800180c   Section        0  oled.o(i.OLED_I2C_Init)
    i.OLED_I2C_SendByte                      0x0800185c   Section        0  oled.o(i.OLED_I2C_SendByte)
    i.OLED_I2C_Start                         0x080018b0   Section        0  oled.o(i.OLED_I2C_Start)
    i.OLED_I2C_Stop                          0x080018e4   Section        0  oled.o(i.OLED_I2C_Stop)
    i.OLED_Init                              0x0800190c   Section        0  oled.o(i.OLED_Init)
    i.OLED_Pow                               0x080019ba   Section        0  oled.o(i.OLED_Pow)
    i.OLED_SetCursor                         0x080019ce   Section        0  oled.o(i.OLED_SetCursor)
    i.OLED_ShowChar                          0x080019f0   Section        0  oled.o(i.OLED_ShowChar)
    i.OLED_ShowNum                           0x08001a64   Section        0  oled.o(i.OLED_ShowNum)
    i.OLED_ShowSignedNum                     0x08001aa8   Section        0  oled.o(i.OLED_ShowSignedNum)
    i.OLED_ShowString                        0x08001b0e   Section        0  oled.o(i.OLED_ShowString)
    i.OLED_WriteCommand                      0x08001b36   Section        0  oled.o(i.OLED_WriteCommand)
    i.OLED_WriteData                         0x08001b56   Section        0  oled.o(i.OLED_WriteData)
    i.PWM_Init                               0x08001b78   Section        0  pwm.o(i.PWM_Init)
    i.RCC_APB1PeriphClockCmd                 0x08001c40   Section        0  stm32f10x_rcc.o(i.RCC_APB1PeriphClockCmd)
    i.RCC_APB2PeriphClockCmd                 0x08001c60   Section        0  stm32f10x_rcc.o(i.RCC_APB2PeriphClockCmd)
    i.RCC_GetClocksFreq                      0x08001c80   Section        0  stm32f10x_rcc.o(i.RCC_GetClocksFreq)
    i.Read_Encoder                           0x08001d54   Section        0  encoder.o(i.Read_Encoder)
    i.Scence_Show                            0x08001d8c   Section        0  sys.o(i.Scence_Show)
    i.SetSysClock                            0x08001df8   Section        0  system_stm32f10x.o(i.SetSysClock)
    SetSysClock                              0x08001df9   Thumb Code     8  system_stm32f10x.o(i.SetSysClock)
    i.SetSysClockTo72                        0x08001e00   Section        0  system_stm32f10x.o(i.SetSysClockTo72)
    SetSysClockTo72                          0x08001e01   Thumb Code   214  system_stm32f10x.o(i.SetSysClockTo72)
    i.Set_Pwm                                0x08001ee0   Section        0  motor.o(i.Set_Pwm)
    i.SysTick_CLKSourceConfig                0x08001f54   Section        0  misc.o(i.SysTick_CLKSourceConfig)
    i.SysTick_Handler                        0x08001f7c   Section        0  stm32f10x_it.o(i.SysTick_Handler)
    i.SysTick_Init                           0x08001f8c   Section        0  systick.o(i.SysTick_Init)
    i.SystemHardwareDriverInit               0x08001fe8   Section        0  sys.o(i.SystemHardwareDriverInit)
    i.SystemInit                             0x0800208c   Section        0  system_stm32f10x.o(i.SystemInit)
    i.TI1_Config                             0x080020ec   Section        0  stm32f10x_tim.o(i.TI1_Config)
    TI1_Config                               0x080020ed   Thumb Code   108  stm32f10x_tim.o(i.TI1_Config)
    i.TI2_Config                             0x0800216c   Section        0  stm32f10x_tim.o(i.TI2_Config)
    TI2_Config                               0x0800216d   Thumb Code   130  stm32f10x_tim.o(i.TI2_Config)
    i.TI3_Config                             0x08002204   Section        0  stm32f10x_tim.o(i.TI3_Config)
    TI3_Config                               0x08002205   Thumb Code   122  stm32f10x_tim.o(i.TI3_Config)
    i.TI4_Config                             0x08002294   Section        0  stm32f10x_tim.o(i.TI4_Config)
    TI4_Config                               0x08002295   Thumb Code   130  stm32f10x_tim.o(i.TI4_Config)
    i.TIM2_IRQHandler                        0x0800232c   Section        0  encoder.o(i.TIM2_IRQHandler)
    i.TIM3_IRQHandler                        0x08002344   Section        0  encoder.o(i.TIM3_IRQHandler)
    i.TIM4_IRQHandler                        0x0800235c   Section        0  timer.o(i.TIM4_IRQHandler)
    i.TIM4_Int_Init                          0x080023f8   Section        0  timer.o(i.TIM4_Int_Init)
    i.TIM_ARRPreloadConfig                   0x08002438   Section        0  stm32f10x_tim.o(i.TIM_ARRPreloadConfig)
    i.TIM_ClearFlag                          0x08002450   Section        0  stm32f10x_tim.o(i.TIM_ClearFlag)
    i.TIM_ClearITPendingBit                  0x08002456   Section        0  stm32f10x_tim.o(i.TIM_ClearITPendingBit)
    i.TIM_Cmd                                0x0800245c   Section        0  stm32f10x_tim.o(i.TIM_Cmd)
    i.TIM_CtrlPWMOutputs                     0x08002474   Section        0  stm32f10x_tim.o(i.TIM_CtrlPWMOutputs)
    i.TIM_EncoderInterfaceConfig             0x08002492   Section        0  stm32f10x_tim.o(i.TIM_EncoderInterfaceConfig)
    i.TIM_GetITStatus                        0x080024d4   Section        0  stm32f10x_tim.o(i.TIM_GetITStatus)
    i.TIM_ICInit                             0x080024f8   Section        0  stm32f10x_tim.o(i.TIM_ICInit)
    i.TIM_ICStructInit                       0x080025a4   Section        0  stm32f10x_tim.o(i.TIM_ICStructInit)
    i.TIM_ITConfig                           0x080025b6   Section        0  stm32f10x_tim.o(i.TIM_ITConfig)
    i.TIM_OC1Init                            0x080025c8   Section        0  stm32f10x_tim.o(i.TIM_OC1Init)
    i.TIM_OC1PreloadConfig                   0x08002660   Section        0  stm32f10x_tim.o(i.TIM_OC1PreloadConfig)
    i.TIM_OC4Init                            0x08002674   Section        0  stm32f10x_tim.o(i.TIM_OC4Init)
    i.TIM_OC4PreloadConfig                   0x080026f0   Section        0  stm32f10x_tim.o(i.TIM_OC4PreloadConfig)
    i.TIM_SetCounter                         0x0800270a   Section        0  stm32f10x_tim.o(i.TIM_SetCounter)
    i.TIM_SetIC1Prescaler                    0x0800270e   Section        0  stm32f10x_tim.o(i.TIM_SetIC1Prescaler)
    i.TIM_SetIC2Prescaler                    0x08002720   Section        0  stm32f10x_tim.o(i.TIM_SetIC2Prescaler)
    i.TIM_SetIC3Prescaler                    0x0800273a   Section        0  stm32f10x_tim.o(i.TIM_SetIC3Prescaler)
    i.TIM_SetIC4Prescaler                    0x0800274c   Section        0  stm32f10x_tim.o(i.TIM_SetIC4Prescaler)
    i.TIM_TimeBaseInit                       0x08002768   Section        0  stm32f10x_tim.o(i.TIM_TimeBaseInit)
    i.TIM_TimeBaseStructInit                 0x0800280c   Section        0  stm32f10x_tim.o(i.TIM_TimeBaseStructInit)
    i.TaskCreateFunction                     0x08002820   Section        0  taskmanage.o(i.TaskCreateFunction)
    i.Turn                                   0x0800284c   Section        0  application_pid.o(i.Turn)
    i.USART1_IRQHandler                      0x08002a50   Section        0  usart.o(i.USART1_IRQHandler)
    i.USART2_IRQHandler                      0x08002ad8   Section        0  usart2.o(i.USART2_IRQHandler)
    i.USART_Cmd                              0x08002d44   Section        0  stm32f10x_usart.o(i.USART_Cmd)
    i.USART_GetITStatus                      0x08002d5c   Section        0  stm32f10x_usart.o(i.USART_GetITStatus)
    i.USART_ITConfig                         0x08002db0   Section        0  stm32f10x_usart.o(i.USART_ITConfig)
    i.USART_Init                             0x08002dfc   Section        0  stm32f10x_usart.o(i.USART_Init)
    i.USART_ReceiveData                      0x08002ed4   Section        0  stm32f10x_usart.o(i.USART_ReceiveData)
    i.UsageFault_Handler                     0x08002ede   Section        0  stm32f10x_it.o(i.UsageFault_Handler)
    i.Vertical                               0x08002ee4   Section        0  application_pid.o(i.Vertical)
    i.__0printf$8                            0x08002f30   Section        0  printf8.o(i.__0printf$8)
    i.__ARM_fpclassify                       0x08002f50   Section        0  fpclassify.o(i.__ARM_fpclassify)
    i.__kernel_poly                          0x08002f78   Section        0  poly.o(i.__kernel_poly)
    i.__mathlib_dbl_infnan                   0x08003022   Section        0  dunder.o(i.__mathlib_dbl_infnan)
    i.__mathlib_dbl_infnan2                  0x08003028   Section        0  dunder.o(i.__mathlib_dbl_infnan2)
    i.__mathlib_dbl_invalid                  0x0800302c   Section        0  dunder.o(i.__mathlib_dbl_invalid)
    i.__mathlib_dbl_underflow                0x08003038   Section        0  dunder.o(i.__mathlib_dbl_underflow)
    i.__scatterload_copy                     0x08003048   Section       14  handlers.o(i.__scatterload_copy)
    i.__scatterload_null                     0x08003056   Section        2  handlers.o(i.__scatterload_null)
    i.__scatterload_zeroinit                 0x08003058   Section       14  handlers.o(i.__scatterload_zeroinit)
    i.__set_errno                            0x08003068   Section        0  errno.o(i.__set_errno)
    i._printf_core                           0x08003074   Section        0  printf8.o(i._printf_core)
    _printf_core                             0x08003075   Thumb Code   984  printf8.o(i._printf_core)
    i._printf_post_padding                   0x08003478   Section        0  printf8.o(i._printf_post_padding)
    _printf_post_padding                     0x08003479   Thumb Code    36  printf8.o(i._printf_post_padding)
    i._printf_pre_padding                    0x0800349c   Section        0  printf8.o(i._printf_pre_padding)
    _printf_pre_padding                      0x0800349d   Thumb Code    46  printf8.o(i._printf_pre_padding)
    i.accel_self_test                        0x080034cc   Section        0  inv_mpu.o(i.accel_self_test)
    accel_self_test                          0x080034cd   Thumb Code   164  inv_mpu.o(i.accel_self_test)
    i.asin                                   0x08003574   Section        0  asin.o(i.asin)
    i.atan                                   0x080037e4   Section        0  atan.o(i.atan)
    i.atan2                                  0x08003a04   Section        0  atan2.o(i.atan2)
    i.bluetooth_task                         0x08003ba0   Section        0  taskmanage.o(i.bluetooth_task)
    i.decode_gesture                         0x08003e34   Section        0  inv_mpu_dmp_motion_driver.o(i.decode_gesture)
    decode_gesture                           0x08003e35   Thumb Code    94  inv_mpu_dmp_motion_driver.o(i.decode_gesture)
    i.delay_init                             0x08003e98   Section        0  delay.o(i.delay_init)
    i.delay_ms                               0x08003edc   Section        0  delay.o(i.delay_ms)
    i.delay_us                               0x08003f28   Section        0  delay.o(i.delay_us)
    i.dmp_enable_6x_lp_quat                  0x08003f74   Section        0  inv_mpu_dmp_motion_driver.o(i.dmp_enable_6x_lp_quat)
    i.dmp_enable_feature                     0x08003fb0   Section        0  inv_mpu_dmp_motion_driver.o(i.dmp_enable_feature)
    i.dmp_enable_gyro_cal                    0x080041cc   Section        0  inv_mpu_dmp_motion_driver.o(i.dmp_enable_gyro_cal)
    i.dmp_enable_lp_quat                     0x08004224   Section        0  inv_mpu_dmp_motion_driver.o(i.dmp_enable_lp_quat)
    i.dmp_load_motion_driver_firmware        0x08004260   Section        0  inv_mpu_dmp_motion_driver.o(i.dmp_load_motion_driver_firmware)
    i.dmp_read_fifo                          0x08004278   Section        0  inv_mpu_dmp_motion_driver.o(i.dmp_read_fifo)
    i.dmp_set_accel_bias                     0x08004444   Section        0  inv_mpu_dmp_motion_driver.o(i.dmp_set_accel_bias)
    i.dmp_set_fifo_rate                      0x08004574   Section        0  inv_mpu_dmp_motion_driver.o(i.dmp_set_fifo_rate)
    i.dmp_set_gyro_bias                      0x080045e4   Section        0  inv_mpu_dmp_motion_driver.o(i.dmp_set_gyro_bias)
    i.dmp_set_orientation                    0x08004714   Section        0  inv_mpu_dmp_motion_driver.o(i.dmp_set_orientation)
    i.dmp_set_shake_reject_thresh            0x0800484c   Section        0  inv_mpu_dmp_motion_driver.o(i.dmp_set_shake_reject_thresh)
    i.dmp_set_shake_reject_time              0x08004884   Section        0  inv_mpu_dmp_motion_driver.o(i.dmp_set_shake_reject_time)
    i.dmp_set_shake_reject_timeout           0x080048aa   Section        0  inv_mpu_dmp_motion_driver.o(i.dmp_set_shake_reject_timeout)
    i.dmp_set_tap_axes                       0x080048d0   Section        0  inv_mpu_dmp_motion_driver.o(i.dmp_set_tap_axes)
    i.dmp_set_tap_count                      0x08004916   Section        0  inv_mpu_dmp_motion_driver.o(i.dmp_set_tap_count)
    i.dmp_set_tap_thresh                     0x0800493c   Section        0  inv_mpu_dmp_motion_driver.o(i.dmp_set_tap_thresh)
    i.dmp_set_tap_time                       0x08004adc   Section        0  inv_mpu_dmp_motion_driver.o(i.dmp_set_tap_time)
    i.dmp_set_tap_time_multi                 0x08004b02   Section        0  inv_mpu_dmp_motion_driver.o(i.dmp_set_tap_time_multi)
    i.fputc                                  0x08004b28   Section        0  usart.o(i.fputc)
    i.get_accel_prod_shift                   0x08004b44   Section        0  inv_mpu.o(i.get_accel_prod_shift)
    get_accel_prod_shift                     0x08004b45   Thumb Code   168  inv_mpu.o(i.get_accel_prod_shift)
    i.get_st_biases                          0x08004bf8   Section        0  inv_mpu.o(i.get_st_biases)
    get_st_biases                            0x08004bf9   Thumb Code  1128  inv_mpu.o(i.get_st_biases)
    i.gyro_self_test                         0x08005064   Section        0  inv_mpu.o(i.gyro_self_test)
    gyro_self_test                           0x08005065   Thumb Code   256  inv_mpu.o(i.gyro_self_test)
    i.inv_orientation_matrix_to_scalar       0x08005174   Section        0  inv_mpu.o(i.inv_orientation_matrix_to_scalar)
    i.inv_row_2_scale                        0x0800519c   Section        0  inv_mpu.o(i.inv_row_2_scale)
    i.led_off                                0x080051ec   Section        0  led.o(i.led_off)
    i.led_on                                 0x080051f8   Section        0  led.o(i.led_on)
    i.main                                   0x08005204   Section        0  main.o(i.main)
    i.mget_ms                                0x0800521a   Section        0  inv_mpu.o(i.mget_ms)
    i.mpu_configure_fifo                     0x0800521c   Section        0  inv_mpu.o(i.mpu_configure_fifo)
    i.mpu_dmp_get_data                       0x0800528c   Section        0  inv_mpu.o(i.mpu_dmp_get_data)
    i.mpu_dmp_init                           0x080054b0   Section        0  inv_mpu.o(i.mpu_dmp_init)
    i.mpu_get_accel_fsr                      0x08005550   Section        0  inv_mpu.o(i.mpu_get_accel_fsr)
    i.mpu_get_accel_sens                     0x0800559c   Section        0  inv_mpu.o(i.mpu_get_accel_sens)
    i.mpu_get_fifo_config                    0x080055f0   Section        0  inv_mpu.o(i.mpu_get_fifo_config)
    i.mpu_get_gyro_fsr                       0x08005600   Section        0  inv_mpu.o(i.mpu_get_gyro_fsr)
    i.mpu_get_gyro_sens                      0x08005644   Section        0  inv_mpu.o(i.mpu_get_gyro_sens)
    i.mpu_get_lpf                            0x08005694   Section        0  inv_mpu.o(i.mpu_get_lpf)
    i.mpu_get_sample_rate                    0x080056e4   Section        0  inv_mpu.o(i.mpu_get_sample_rate)
    i.mpu_init                               0x08005704   Section        0  inv_mpu.o(i.mpu_init)
    i.mpu_load_firmware                      0x080058f4   Section        0  inv_mpu.o(i.mpu_load_firmware)
    i.mpu_lp_accel_mode                      0x080059ac   Section        0  inv_mpu.o(i.mpu_lp_accel_mode)
    i.mpu_read_fifo_stream                   0x08005a8c   Section        0  inv_mpu.o(i.mpu_read_fifo_stream)
    i.mpu_read_mem                           0x08005b4c   Section        0  inv_mpu.o(i.mpu_read_mem)
    i.mpu_reset_fifo                         0x08005bcc   Section        0  inv_mpu.o(i.mpu_reset_fifo)
    i.mpu_run_self_test                      0x08005d94   Section        0  inv_mpu.o(i.mpu_run_self_test)
    i.mpu_set_accel_fsr                      0x08005eb0   Section        0  inv_mpu.o(i.mpu_set_accel_fsr)
    i.mpu_set_bypass                         0x08005f34   Section        0  inv_mpu.o(i.mpu_set_bypass)
    i.mpu_set_dmp_state                      0x08006080   Section        0  inv_mpu.o(i.mpu_set_dmp_state)
    i.mpu_set_gyro_fsr                       0x08006110   Section        0  inv_mpu.o(i.mpu_set_gyro_fsr)
    i.mpu_set_int_latched                    0x08006198   Section        0  inv_mpu.o(i.mpu_set_int_latched)
    i.mpu_set_lpf                            0x08006204   Section        0  inv_mpu.o(i.mpu_set_lpf)
    i.mpu_set_sample_rate                    0x08006288   Section        0  inv_mpu.o(i.mpu_set_sample_rate)
    i.mpu_set_sensors                        0x08006324   Section        0  inv_mpu.o(i.mpu_set_sensors)
    i.mpu_write_mem                          0x080063f4   Section        0  inv_mpu.o(i.mpu_write_mem)
    i.myabs                                  0x08006474   Section        0  motor.o(i.myabs)
    i.oled_task                              0x08006484   Section        0  taskmanage.o(i.oled_task)
    i.pid_task                               0x08006538   Section        0  taskmanage.o(i.pid_task)
    i.prvAddCurrentTaskToDelayedList         0x080068ac   Section        0  tasks.o(i.prvAddCurrentTaskToDelayedList)
    prvAddCurrentTaskToDelayedList           0x080068ad   Thumb Code   124  tasks.o(i.prvAddCurrentTaskToDelayedList)
    i.prvAddNewTaskToReadyList               0x08006944   Section        0  tasks.o(i.prvAddNewTaskToReadyList)
    prvAddNewTaskToReadyList                 0x08006945   Thumb Code   150  tasks.o(i.prvAddNewTaskToReadyList)
    i.prvCheckTasksWaitingTermination        0x080069f8   Section        0  tasks.o(i.prvCheckTasksWaitingTermination)
    prvCheckTasksWaitingTermination          0x080069f9   Thumb Code    86  tasks.o(i.prvCheckTasksWaitingTermination)
    i.prvCopyDataFromQueue                   0x08006a5c   Section        0  queue.o(i.prvCopyDataFromQueue)
    prvCopyDataFromQueue                     0x08006a5d   Thumb Code    42  queue.o(i.prvCopyDataFromQueue)
    i.prvCopyDataToQueue                     0x08006a86   Section        0  queue.o(i.prvCopyDataToQueue)
    prvCopyDataToQueue                       0x08006a87   Thumb Code   106  queue.o(i.prvCopyDataToQueue)
    i.prvDeleteTCB                           0x08006af0   Section        0  tasks.o(i.prvDeleteTCB)
    prvDeleteTCB                             0x08006af1   Thumb Code    18  tasks.o(i.prvDeleteTCB)
    i.prvHeapInit                            0x08006b04   Section        0  heap_4.o(i.prvHeapInit)
    prvHeapInit                              0x08006b05   Thumb Code    98  heap_4.o(i.prvHeapInit)
    i.prvIdleTask                            0x08006b80   Section        0  tasks.o(i.prvIdleTask)
    prvIdleTask                              0x08006b81   Thumb Code    32  tasks.o(i.prvIdleTask)
    i.prvInitialiseNewQueue                  0x08006ba8   Section        0  queue.o(i.prvInitialiseNewQueue)
    prvInitialiseNewQueue                    0x08006ba9   Thumb Code    38  queue.o(i.prvInitialiseNewQueue)
    i.prvInitialiseNewTask                   0x08006bd0   Section        0  tasks.o(i.prvInitialiseNewTask)
    prvInitialiseNewTask                     0x08006bd1   Thumb Code   154  tasks.o(i.prvInitialiseNewTask)
    i.prvInitialiseTaskLists                 0x08006c90   Section        0  tasks.o(i.prvInitialiseTaskLists)
    prvInitialiseTaskLists                   0x08006c91   Thumb Code    70  tasks.o(i.prvInitialiseTaskLists)
    i.prvInsertBlockIntoFreeList             0x08006cf8   Section        0  heap_4.o(i.prvInsertBlockIntoFreeList)
    prvInsertBlockIntoFreeList               0x08006cf9   Thumb Code    96  heap_4.o(i.prvInsertBlockIntoFreeList)
    i.prvIsQueueEmpty                        0x08006d60   Section        0  queue.o(i.prvIsQueueEmpty)
    prvIsQueueEmpty                          0x08006d61   Thumb Code    26  queue.o(i.prvIsQueueEmpty)
    i.prvIsQueueFull                         0x08006d7a   Section        0  queue.o(i.prvIsQueueFull)
    prvIsQueueFull                           0x08006d7b   Thumb Code    30  queue.o(i.prvIsQueueFull)
    i.prvResetNextTaskUnblockTime            0x08006d98   Section        0  tasks.o(i.prvResetNextTaskUnblockTime)
    prvResetNextTaskUnblockTime              0x08006d99   Thumb Code    42  tasks.o(i.prvResetNextTaskUnblockTime)
    i.prvTaskExitError                       0x08006dcc   Section        0  port.o(i.prvTaskExitError)
    prvTaskExitError                         0x08006dcd   Thumb Code    48  port.o(i.prvTaskExitError)
    i.prvUnlockQueue                         0x08006e3c   Section        0  queue.o(i.prvUnlockQueue)
    prvUnlockQueue                           0x08006e3d   Thumb Code   126  queue.o(i.prvUnlockQueue)
    i.pvPortMalloc                           0x08006ebc   Section        0  heap_4.o(i.pvPortMalloc)
    i.pxPortInitialiseStack                  0x08007010   Section        0  port.o(i.pxPortInitialiseStack)
    i.run_self_test                          0x08007034   Section        0  inv_mpu.o(i.run_self_test)
    i.set_int_enable                         0x080070c8   Section        0  inv_mpu.o(i.set_int_enable)
    set_int_enable                           0x080070c9   Thumb Code   138  inv_mpu.o(i.set_int_enable)
    i.sqrt                                   0x08007158   Section        0  sqrt.o(i.sqrt)
    i.start_task                             0x080071a4   Section        0  taskmanage.o(i.start_task)
    i.uart_init                              0x080072f0   Section        0  usart.o(i.uart_init)
    i.uxListRemove                           0x08007390   Section        0  list.o(i.uxListRemove)
    i.vListInitialise                        0x080073b8   Section        0  list.o(i.vListInitialise)
    i.vListInitialiseItem                    0x080073d2   Section        0  list.o(i.vListInitialiseItem)
    i.vListInsert                            0x080073d8   Section        0  list.o(i.vListInsert)
    i.vListInsertEnd                         0x0800740c   Section        0  list.o(i.vListInsertEnd)
    i.vPortEnterCritical                     0x08007424   Section        0  port.o(i.vPortEnterCritical)
    i.vPortExitCritical                      0x080074ac   Section        0  port.o(i.vPortExitCritical)
    i.vPortFree                              0x0800751c   Section        0  heap_4.o(i.vPortFree)
    i.vPortSetupTimerInterrupt               0x080075d4   Section        0  port.o(i.vPortSetupTimerInterrupt)
    i.vTaskDelay                             0x080075f4   Section        0  tasks.o(i.vTaskDelay)
    i.vTaskDelete                            0x08007668   Section        0  tasks.o(i.vTaskDelete)
    i.vTaskMissedYield                       0x08007774   Section        0  tasks.o(i.vTaskMissedYield)
    i.vTaskPlaceOnEventList                  0x08007780   Section        0  tasks.o(i.vTaskPlaceOnEventList)
    i.vTaskSetTimeOutState                   0x080077d4   Section        0  tasks.o(i.vTaskSetTimeOutState)
    i.vTaskStartScheduler                    0x08007820   Section        0  tasks.o(i.vTaskStartScheduler)
    i.vTaskSuspendAll                        0x080078c4   Section        0  tasks.o(i.vTaskSuspendAll)
    i.vTaskSwitchContext                     0x080078d4   Section        0  tasks.o(i.vTaskSwitchContext)
    i.velocity                               0x0800797c   Section        0  application_pid.o(i.velocity)
    i.xPortStartScheduler                    0x08007ac8   Section        0  port.o(i.xPortStartScheduler)
    i.xPortSysTickHandler                    0x08007b68   Section        0  port.o(i.xPortSysTickHandler)
    i.xQueueGenericCreate                    0x08007b9c   Section        0  queue.o(i.xQueueGenericCreate)
    i.xQueueGenericReceive                   0x08007c10   Section        0  queue.o(i.xQueueGenericReceive)
    i.xQueueGenericReset                     0x08007dbc   Section        0  queue.o(i.xQueueGenericReset)
    i.xQueueGenericSend                      0x08007e6c   Section        0  queue.o(i.xQueueGenericSend)
    i.xTaskCheckForTimeOut                   0x08008010   Section        0  tasks.o(i.xTaskCheckForTimeOut)
    i.xTaskCreate                            0x080080b0   Section        0  tasks.o(i.xTaskCreate)
    i.xTaskGetSchedulerState                 0x08008110   Section        0  tasks.o(i.xTaskGetSchedulerState)
    i.xTaskIncrementTick                     0x08008130   Section        0  tasks.o(i.xTaskIncrementTick)
    i.xTaskRemoveFromEventList               0x08008290   Section        0  tasks.o(i.xTaskRemoveFromEventList)
    i.xTaskResumeAll                         0x08008344   Section        0  tasks.o(i.xTaskResumeAll)
    .constdata                               0x08008464   Section       80  inv_mpu.o(.constdata)
    .constdata                               0x080084b4   Section     3062  inv_mpu_dmp_motion_driver.o(.constdata)
    dmp_memory                               0x080084b4   Data        3062  inv_mpu_dmp_motion_driver.o(.constdata)
    .constdata                               0x080090aa   Section     1520  oled.o(.constdata)
    .constdata                               0x0800969c   Section       28  timer.o(.constdata)
    .constdata                               0x080096b8   Section       80  asin.o(.constdata)
    pS                                       0x080096b8   Data          48  asin.o(.constdata)
    qS                                       0x080096e8   Data          32  asin.o(.constdata)
    .constdata                               0x08009708   Section      152  atan.o(.constdata)
    atanhi                                   0x08009708   Data          32  atan.o(.constdata)
    atanlo                                   0x08009728   Data          32  atan.o(.constdata)
    aTodd                                    0x08009748   Data          40  atan.o(.constdata)
    aTeven                                   0x08009770   Data          48  atan.o(.constdata)
    .constdata                               0x080097a0   Section        8  qnan.o(.constdata)
    .conststring                             0x080097a8   Section       77  inv_mpu.o(.conststring)
    .data                                    0x20000000   Section       20  stm32f10x_rcc.o(.data)
    APBAHBPrescTable                         0x20000000   Data          16  stm32f10x_rcc.o(.data)
    ADCPrescTable                            0x20000010   Data           4  stm32f10x_rcc.o(.data)
    .data                                    0x20000014   Section        4  delay.o(.data)
    fac_us                                   0x20000014   Data           1  delay.o(.data)
    fac_ms                                   0x20000016   Data           2  delay.o(.data)
    .data                                    0x20000018   Section        6  usart.o(.data)
    .data                                    0x2000001e   Section        4  systick.o(.data)
    fac_us                                   0x2000001e   Data           1  systick.o(.data)
    fac_ms                                   0x20000020   Data           2  systick.o(.data)
    .data                                    0x20000024   Section       20  system_stm32f10x.o(.data)
    .data                                    0x20000038   Section       60  tasks.o(.data)
    pxDelayedTaskList                        0x2000003c   Data           4  tasks.o(.data)
    pxOverflowDelayedTaskList                0x20000040   Data           4  tasks.o(.data)
    uxDeletedTasksWaitingCleanUp             0x20000044   Data           4  tasks.o(.data)
    uxCurrentNumberOfTasks                   0x20000048   Data           4  tasks.o(.data)
    xTickCount                               0x2000004c   Data           4  tasks.o(.data)
    uxTopReadyPriority                       0x20000050   Data           4  tasks.o(.data)
    xSchedulerRunning                        0x20000054   Data           4  tasks.o(.data)
    uxPendedTicks                            0x20000058   Data           4  tasks.o(.data)
    xYieldPending                            0x2000005c   Data           4  tasks.o(.data)
    xNumOfOverflows                          0x20000060   Data           4  tasks.o(.data)
    uxTaskNumber                             0x20000064   Data           4  tasks.o(.data)
    xNextTaskUnblockTime                     0x20000068   Data           4  tasks.o(.data)
    xIdleTaskHandle                          0x2000006c   Data           4  tasks.o(.data)
    uxSchedulerSuspended                     0x20000070   Data           4  tasks.o(.data)
    .data                                    0x20000074   Section       24  heap_4.o(.data)
    xStart                                   0x20000074   Data           8  heap_4.o(.data)
    pxEnd                                    0x2000007c   Data           4  heap_4.o(.data)
    xFreeBytesRemaining                      0x20000080   Data           4  heap_4.o(.data)
    xMinimumEverFreeBytesRemaining           0x20000084   Data           4  heap_4.o(.data)
    xBlockAllocatedBit                       0x20000088   Data           4  heap_4.o(.data)
    .data                                    0x2000008c   Section       12  port.o(.data)
    uxCriticalNesting                        0x2000008c   Data           4  port.o(.data)
    ucMaxSysCallPriority                     0x20000090   Data           1  port.o(.data)
    ulMaxPRIGROUPValue                       0x20000094   Data           4  port.o(.data)
    .data                                    0x20000098   Section       53  inv_mpu.o(.data)
    st                                       0x20000098   Data          44  inv_mpu.o(.data)
    gyro_orientation                         0x200000c4   Data           9  inv_mpu.o(.data)
    .data                                    0x200000d0   Section       16  timer.o(.data)
    i                                        0x200000d8   Data           4  timer.o(.data)
    j                                        0x200000dc   Data           4  timer.o(.data)
    .data                                    0x200000e0   Section      142  usart2.o(.data)
    uart_receive                             0x20000164   Data           4  usart2.o(.data)
    temp_speed                               0x20000168   Data           2  usart2.o(.data)
    temp_led                                 0x2000016a   Data           2  usart2.o(.data)
    temp_xuan                                0x2000016c   Data           2  usart2.o(.data)
    .data                                    0x20000170   Section       28  application_pid.o(.data)
    Velocity                                 0x2000017c   Data           4  application_pid.o(.data)
    Encoder_Least                            0x20000180   Data           4  application_pid.o(.data)
    Encoder                                  0x20000184   Data           4  application_pid.o(.data)
    Encoder_Integral                         0x20000188   Data           4  application_pid.o(.data)
    .data                                    0x2000018c   Section       20  taskmanage.o(.data)
    .data                                    0x200001a0   Section        4  errno.o(.data)
    _errno                                   0x200001a0   Data           4  errno.o(.data)
    .bss                                     0x200001a4   Section      200  usart.o(.bss)
    .bss                                     0x2000026c   Section      740  tasks.o(.bss)
    pxReadyTasksLists                        0x2000026c   Data         640  tasks.o(.bss)
    xDelayedTaskList1                        0x200004ec   Data          20  tasks.o(.bss)
    xDelayedTaskList2                        0x20000500   Data          20  tasks.o(.bss)
    xPendingReadyList                        0x20000514   Data          20  tasks.o(.bss)
    xTasksWaitingTermination                 0x20000528   Data          20  tasks.o(.bss)
    xSuspendedTaskList                       0x2000053c   Data          20  tasks.o(.bss)
    .bss                                     0x20000550   Section    10240  heap_4.o(.bss)
    ucHeap                                   0x20000550   Data       10240  heap_4.o(.bss)
    .bss                                     0x20002d50   Section       16  inv_mpu_dmp_motion_driver.o(.bss)
    dmp                                      0x20002d50   Data          16  inv_mpu_dmp_motion_driver.o(.bss)
    .bss                                     0x20002d60   Section      128  usart2.o(.bss)
    .bss                                     0x20002de0   Section       12  application_pid.o(.bss)
    STACK                                    0x20002df0   Section     1024  startup_stm32f10x_md.o(STACK)

    Global Symbols

    Symbol Name                              Value     Ov Type        Size  Object(Section)

    BuildAttributes$$THM_ISAv4$P$D$K$B$S$PE$A:L22UL41UL21$X:L11$S22US41US21$IEEE1$IW$USESV6$~STKCKD$USESV7$~SHL$OTIME$ROPI$IEEEX$EBA8$MICROLIB$REQ8$PRES8$EABIv2 0x00000000   Number         0  anon$$obj.o ABSOLUTE
    __ARM_use_no_argv                        0x00000000   Number         0  main.o ABSOLUTE
    __use_no_errno                           0x00000000   Number         0  useno.o ABSOLUTE
    __use_no_exception_handling              0x00000000   Number         0  useno.o ABSOLUTE
    __use_no_fp                              0x00000000   Number         0  useno.o ABSOLUTE
    __use_no_heap                            0x00000000   Number         0  useno.o ABSOLUTE
    __use_no_heap_region                     0x00000000   Number         0  useno.o ABSOLUTE
    __use_no_semihosting                     0x00000000   Number         0  useno.o ABSOLUTE
    __use_no_semihosting_swi                 0x00000000   Number         0  useno.o ABSOLUTE
    __use_no_signal_handling                 0x00000000   Number         0  useno.o ABSOLUTE
    _printf_a                                0x00000000   Number         0  stubs.o ABSOLUTE
    _printf_c                                0x00000000   Number         0  stubs.o ABSOLUTE
    _printf_charcount                        0x00000000   Number         0  stubs.o ABSOLUTE
    _printf_d                                0x00000000   Number         0  stubs.o ABSOLUTE
    _printf_e                                0x00000000   Number         0  stubs.o ABSOLUTE
    _printf_f                                0x00000000   Number         0  stubs.o ABSOLUTE
    _printf_flags                            0x00000000   Number         0  stubs.o ABSOLUTE
    _printf_fp_dec                           0x00000000   Number         0  stubs.o ABSOLUTE
    _printf_fp_hex                           0x00000000   Number         0  stubs.o ABSOLUTE
    _printf_g                                0x00000000   Number         0  stubs.o ABSOLUTE
    _printf_i                                0x00000000   Number         0  stubs.o ABSOLUTE
    _printf_int_dec                          0x00000000   Number         0  stubs.o ABSOLUTE
    _printf_l                                0x00000000   Number         0  stubs.o ABSOLUTE
    _printf_lc                               0x00000000   Number         0  stubs.o ABSOLUTE
    _printf_ll                               0x00000000   Number         0  stubs.o ABSOLUTE
    _printf_lld                              0x00000000   Number         0  stubs.o ABSOLUTE
    _printf_lli                              0x00000000   Number         0  stubs.o ABSOLUTE
    _printf_llo                              0x00000000   Number         0  stubs.o ABSOLUTE
    _printf_llu                              0x00000000   Number         0  stubs.o ABSOLUTE
    _printf_llx                              0x00000000   Number         0  stubs.o ABSOLUTE
    _printf_longlong_dec                     0x00000000   Number         0  stubs.o ABSOLUTE
    _printf_longlong_hex                     0x00000000   Number         0  stubs.o ABSOLUTE
    _printf_longlong_oct                     0x00000000   Number         0  stubs.o ABSOLUTE
    _printf_ls                               0x00000000   Number         0  stubs.o ABSOLUTE
    _printf_mbtowc                           0x00000000   Number         0  stubs.o ABSOLUTE
    _printf_n                                0x00000000   Number         0  stubs.o ABSOLUTE
    _printf_o                                0x00000000   Number         0  stubs.o ABSOLUTE
    _printf_p                                0x00000000   Number         0  stubs.o ABSOLUTE
    _printf_percent                          0x00000000   Number         0  stubs.o ABSOLUTE
    _printf_pre_padding                      0x00000000   Number         0  stubs.o ABSOLUTE
    _printf_return_value                     0x00000000   Number         0  stubs.o ABSOLUTE
    _printf_s                                0x00000000   Number         0  stubs.o ABSOLUTE
    _printf_sizespec                         0x00000000   Number         0  stubs.o ABSOLUTE
    _printf_str                              0x00000000   Number         0  stubs.o ABSOLUTE
    _printf_truncate_signed                  0x00000000   Number         0  stubs.o ABSOLUTE
    _printf_truncate_unsigned                0x00000000   Number         0  stubs.o ABSOLUTE
    _printf_u                                0x00000000   Number         0  stubs.o ABSOLUTE
    _printf_wc                               0x00000000   Number         0  stubs.o ABSOLUTE
    _printf_wctomb                           0x00000000   Number         0  stubs.o ABSOLUTE
    _printf_widthprec                        0x00000000   Number         0  stubs.o ABSOLUTE
    _printf_x                                0x00000000   Number         0  stubs.o ABSOLUTE
    __arm_fini_                               - Undefined Weak Reference
    __cpp_initialize__aeabi_                  - Undefined Weak Reference
    __cxa_finalize                            - Undefined Weak Reference
    _clock_init                               - Undefined Weak Reference
    _microlib_exit                            - Undefined Weak Reference
    __Vectors_Size                           0x000000ec   Number         0  startup_stm32f10x_md.o ABSOLUTE
    __Vectors                                0x08000000   Data           4  startup_stm32f10x_md.o(RESET)
    __Vectors_End                            0x080000ec   Data           0  startup_stm32f10x_md.o(RESET)
    __main                                   0x080000ed   Thumb Code     0  entry.o(.ARM.Collect$$$$00000000)
    _main_stk                                0x080000ed   Thumb Code     0  entry2.o(.ARM.Collect$$$$00000001)
    _main_scatterload                        0x080000f1   Thumb Code     0  entry5.o(.ARM.Collect$$$$00000004)
    __main_after_scatterload                 0x080000f5   Thumb Code     0  entry5.o(.ARM.Collect$$$$00000004)
    _main_clock                              0x080000f5   Thumb Code     0  entry7b.o(.ARM.Collect$$$$00000008)
    _main_cpp_init                           0x080000f5   Thumb Code     0  entry8b.o(.ARM.Collect$$$$0000000A)
    _main_init                               0x080000f5   Thumb Code     0  entry9a.o(.ARM.Collect$$$$0000000B)
    __rt_lib_shutdown_fini                   0x080000fd   Thumb Code     0  entry12b.o(.ARM.Collect$$$$0000000E)
    __rt_final_cpp                           0x08000101   Thumb Code     0  entry10a.o(.ARM.Collect$$$$0000000F)
    __rt_final_exit                          0x08000101   Thumb Code     0  entry11a.o(.ARM.Collect$$$$00000011)
    SVC_Handler                              0x08000105   Thumb Code    32  port.o(.emb_text)
    __asm___6_port_c_39a90d8d__prvStartFirstTask 0x08000129   Thumb Code    28  port.o(.emb_text)
    PendSV_Handler                           0x08000149   Thumb Code    72  port.o(.emb_text)
    vPortGetIPSR                             0x08000195   Thumb Code     6  port.o(.emb_text)
    Reset_Handler                            0x0800019d   Thumb Code     8  startup_stm32f10x_md.o(.text)
    ADC1_2_IRQHandler                        0x080001b7   Thumb Code     0  startup_stm32f10x_md.o(.text)
    CAN1_RX1_IRQHandler                      0x080001b7   Thumb Code     0  startup_stm32f10x_md.o(.text)
    CAN1_SCE_IRQHandler                      0x080001b7   Thumb Code     0  startup_stm32f10x_md.o(.text)
    DMA1_Channel1_IRQHandler                 0x080001b7   Thumb Code     0  startup_stm32f10x_md.o(.text)
    DMA1_Channel2_IRQHandler                 0x080001b7   Thumb Code     0  startup_stm32f10x_md.o(.text)
    DMA1_Channel3_IRQHandler                 0x080001b7   Thumb Code     0  startup_stm32f10x_md.o(.text)
    DMA1_Channel4_IRQHandler                 0x080001b7   Thumb Code     0  startup_stm32f10x_md.o(.text)
    DMA1_Channel5_IRQHandler                 0x080001b7   Thumb Code     0  startup_stm32f10x_md.o(.text)
    DMA1_Channel6_IRQHandler                 0x080001b7   Thumb Code     0  startup_stm32f10x_md.o(.text)
    DMA1_Channel7_IRQHandler                 0x080001b7   Thumb Code     0  startup_stm32f10x_md.o(.text)
    EXTI0_IRQHandler                         0x080001b7   Thumb Code     0  startup_stm32f10x_md.o(.text)
    EXTI15_10_IRQHandler                     0x080001b7   Thumb Code     0  startup_stm32f10x_md.o(.text)
    EXTI1_IRQHandler                         0x080001b7   Thumb Code     0  startup_stm32f10x_md.o(.text)
    EXTI2_IRQHandler                         0x080001b7   Thumb Code     0  startup_stm32f10x_md.o(.text)
    EXTI3_IRQHandler                         0x080001b7   Thumb Code     0  startup_stm32f10x_md.o(.text)
    EXTI4_IRQHandler                         0x080001b7   Thumb Code     0  startup_stm32f10x_md.o(.text)
    FLASH_IRQHandler                         0x080001b7   Thumb Code     0  startup_stm32f10x_md.o(.text)
    I2C1_ER_IRQHandler                       0x080001b7   Thumb Code     0  startup_stm32f10x_md.o(.text)
    I2C1_EV_IRQHandler                       0x080001b7   Thumb Code     0  startup_stm32f10x_md.o(.text)
    I2C2_ER_IRQHandler                       0x080001b7   Thumb Code     0  startup_stm32f10x_md.o(.text)
    I2C2_EV_IRQHandler                       0x080001b7   Thumb Code     0  startup_stm32f10x_md.o(.text)
    PVD_IRQHandler                           0x080001b7   Thumb Code     0  startup_stm32f10x_md.o(.text)
    RCC_IRQHandler                           0x080001b7   Thumb Code     0  startup_stm32f10x_md.o(.text)
    RTCAlarm_IRQHandler                      0x080001b7   Thumb Code     0  startup_stm32f10x_md.o(.text)
    RTC_IRQHandler                           0x080001b7   Thumb Code     0  startup_stm32f10x_md.o(.text)
    SPI1_IRQHandler                          0x080001b7   Thumb Code     0  startup_stm32f10x_md.o(.text)
    SPI2_IRQHandler                          0x080001b7   Thumb Code     0  startup_stm32f10x_md.o(.text)
    TAMPER_IRQHandler                        0x080001b7   Thumb Code     0  startup_stm32f10x_md.o(.text)
    TIM1_BRK_IRQHandler                      0x080001b7   Thumb Code     0  startup_stm32f10x_md.o(.text)
    TIM1_CC_IRQHandler                       0x080001b7   Thumb Code     0  startup_stm32f10x_md.o(.text)
    TIM1_TRG_COM_IRQHandler                  0x080001b7   Thumb Code     0  startup_stm32f10x_md.o(.text)
    TIM1_UP_IRQHandler                       0x080001b7   Thumb Code     0  startup_stm32f10x_md.o(.text)
    USART3_IRQHandler                        0x080001b7   Thumb Code     0  startup_stm32f10x_md.o(.text)
    USBWakeUp_IRQHandler                     0x080001b7   Thumb Code     0  startup_stm32f10x_md.o(.text)
    USB_HP_CAN1_TX_IRQHandler                0x080001b7   Thumb Code     0  startup_stm32f10x_md.o(.text)
    USB_LP_CAN1_RX0_IRQHandler               0x080001b7   Thumb Code     0  startup_stm32f10x_md.o(.text)
    WWDG_IRQHandler                          0x080001b7   Thumb Code     0  startup_stm32f10x_md.o(.text)
    __aeabi_ldivmod                          0x080001c1   Thumb Code    98  ldiv.o(.text)
    __aeabi_memcpy                           0x08000223   Thumb Code    36  memcpya.o(.text)
    __aeabi_memcpy4                          0x08000223   Thumb Code     0  memcpya.o(.text)
    __aeabi_memcpy8                          0x08000223   Thumb Code     0  memcpya.o(.text)
    __aeabi_memset                           0x08000247   Thumb Code    14  memseta.o(.text)
    __aeabi_memset4                          0x08000247   Thumb Code     0  memseta.o(.text)
    __aeabi_memset8                          0x08000247   Thumb Code     0  memseta.o(.text)
    __aeabi_memclr                           0x08000255   Thumb Code     4  memseta.o(.text)
    __aeabi_memclr4                          0x08000255   Thumb Code     0  memseta.o(.text)
    __aeabi_memclr8                          0x08000255   Thumb Code     0  memseta.o(.text)
    _memset$wrapper                          0x08000259   Thumb Code    18  memseta.o(.text)
    memcmp                                   0x0800026b   Thumb Code    26  memcmp.o(.text)
    __aeabi_fadd                             0x08000285   Thumb Code   164  fadd.o(.text)
    __aeabi_fsub                             0x08000329   Thumb Code     6  fadd.o(.text)
    __aeabi_frsub                            0x0800032f   Thumb Code     6  fadd.o(.text)
    __aeabi_fmul                             0x08000335   Thumb Code   100  fmul.o(.text)
    __aeabi_fdiv                             0x08000399   Thumb Code   124  fdiv.o(.text)
    __aeabi_dadd                             0x08000415   Thumb Code   322  dadd.o(.text)
    __aeabi_dsub                             0x08000557   Thumb Code     6  dadd.o(.text)
    __aeabi_drsub                            0x0800055d   Thumb Code     6  dadd.o(.text)
    __aeabi_dmul                             0x08000563   Thumb Code   228  dmul.o(.text)
    __aeabi_ddiv                             0x08000647   Thumb Code   222  ddiv.o(.text)
    __aeabi_i2f                              0x08000725   Thumb Code    18  fflti.o(.text)
    __aeabi_ui2f                             0x08000737   Thumb Code    10  ffltui.o(.text)
    __aeabi_f2iz                             0x08000741   Thumb Code    50  ffixi.o(.text)
    __aeabi_f2uiz                            0x08000773   Thumb Code    40  ffixui.o(.text)
    __aeabi_f2d                              0x0800079b   Thumb Code    38  f2d.o(.text)
    __aeabi_d2f                              0x080007c1   Thumb Code    56  d2f.o(.text)
    __aeabi_cfcmpeq                          0x080007f9   Thumb Code     0  cfcmple.o(.text)
    __aeabi_cfcmple                          0x080007f9   Thumb Code    20  cfcmple.o(.text)
    __aeabi_cfrcmple                         0x0800080d   Thumb Code    20  cfrcmple.o(.text)
    __aeabi_uldivmod                         0x08000821   Thumb Code    98  uldiv.o(.text)
    __aeabi_llsl                             0x08000883   Thumb Code    30  llshl.o(.text)
    _ll_shift_l                              0x08000883   Thumb Code     0  llshl.o(.text)
    __aeabi_lasr                             0x080008a1   Thumb Code    36  llsshr.o(.text)
    _ll_sshift_r                             0x080008a1   Thumb Code     0  llsshr.o(.text)
    __I$use$fp                               0x080008c5   Thumb Code     0  iusefp.o(.text)
    _float_round                             0x080008c5   Thumb Code    18  fepilogue.o(.text)
    _float_epilogue                          0x080008d7   Thumb Code    92  fepilogue.o(.text)
    _double_round                            0x08000933   Thumb Code    30  depilogue.o(.text)
    _double_epilogue                         0x08000951   Thumb Code   156  depilogue.o(.text)
    __ARM_scalbn                             0x080009ed   Thumb Code    46  dscalb.o(.text)
    scalbn                                   0x080009ed   Thumb Code     0  dscalb.o(.text)
    __aeabi_cdcmpeq                          0x08000a1d   Thumb Code     0  cdcmple.o(.text)
    __aeabi_cdcmple                          0x08000a1d   Thumb Code    48  cdcmple.o(.text)
    __scatterload                            0x08000a4d   Thumb Code    28  init.o(.text)
    __scatterload_rt2                        0x08000a4d   Thumb Code     0  init.o(.text)
    __aeabi_llsr                             0x08000a71   Thumb Code    32  llushr.o(.text)
    _ll_ushift_r                             0x08000a71   Thumb Code     0  llushr.o(.text)
    _dsqrt                                   0x08000a91   Thumb Code   162  dsqrt.o(.text)
    __decompress                             0x08000b33   Thumb Code     0  __dczerorl2.o(.text)
    __decompress1                            0x08000b33   Thumb Code    86  __dczerorl2.o(.text)
    BlueTooth_init                           0x08000b89   Thumb Code   156  usart2.o(i.BlueTooth_init)
    BusFault_Handler                         0x08000c31   Thumb Code     4  stm32f10x_it.o(i.BusFault_Handler)
    DebugMon_Handler                         0x08000c35   Thumb Code     2  stm32f10x_it.o(i.DebugMon_Handler)
    EXTI9_5_IRQHandler                       0x08000c39   Thumb Code    42  application_pid.o(i.EXTI9_5_IRQHandler)
    EXTI_Init                                0x08000c75   Thumb Code   142  stm32f10x_exti.o(i.EXTI_Init)
    Encoder_Init_TIM2                        0x08000d09   Thumb Code   154  encoder.o(i.Encoder_Init_TIM2)
    Encoder_Init_TIM3                        0x08000da9   Thumb Code   148  encoder.o(i.Encoder_Init_TIM3)
    GPIO_EXTILineConfig                      0x08000e45   Thumb Code    60  stm32f10x_gpio.o(i.GPIO_EXTILineConfig)
    GPIO_Init                                0x08000e85   Thumb Code   278  stm32f10x_gpio.o(i.GPIO_Init)
    GPIO_PinRemapConfig                      0x08000f9d   Thumb Code   138  stm32f10x_gpio.o(i.GPIO_PinRemapConfig)
    GPIO_ReadInputDataBit                    0x0800102d   Thumb Code    18  stm32f10x_gpio.o(i.GPIO_ReadInputDataBit)
    GPIO_SetBits                             0x0800103f   Thumb Code     4  stm32f10x_gpio.o(i.GPIO_SetBits)
    GPIO_WriteBit                            0x08001043   Thumb Code    10  stm32f10x_gpio.o(i.GPIO_WriteBit)
    HardFault_Handler                        0x0800104d   Thumb Code     4  stm32f10x_it.o(i.HardFault_Handler)
    LED_Init                                 0x08001051   Thumb Code    46  led.o(i.LED_Init)
    MPU6050_EXTI_Init                        0x08001085   Thumb Code    76  mpu_exti.o(i.MPU6050_EXTI_Init)
    MPU_Get_Gyroscope                        0x080010d5   Thumb Code    80  mpu6050.o(i.MPU_Get_Gyroscope)
    MPU_IIC_Ack                              0x08001125   Thumb Code    62  mpuiic.o(i.MPU_IIC_Ack)
    MPU_IIC_Delay                            0x08001171   Thumb Code    10  mpuiic.o(i.MPU_IIC_Delay)
    MPU_IIC_Init                             0x0800117d   Thumb Code    62  mpuiic.o(i.MPU_IIC_Init)
    MPU_IIC_NAck                             0x080011c5   Thumb Code    62  mpuiic.o(i.MPU_IIC_NAck)
    MPU_IIC_Read_Byte                        0x08001211   Thumb Code    94  mpuiic.o(i.MPU_IIC_Read_Byte)
    MPU_IIC_Send_Byte                        0x0800127d   Thumb Code    80  mpuiic.o(i.MPU_IIC_Send_Byte)
    MPU_IIC_Start                            0x080012d9   Thumb Code    60  mpuiic.o(i.MPU_IIC_Start)
    MPU_IIC_Stop                             0x08001321   Thumb Code    58  mpuiic.o(i.MPU_IIC_Stop)
    MPU_IIC_Wait_Ack                         0x08001369   Thumb Code    86  mpuiic.o(i.MPU_IIC_Wait_Ack)
    MPU_Init                                 0x080013cd   Thumb Code   122  mpu6050.o(i.MPU_Init)
    MPU_Read_Byte                            0x08001447   Thumb Code    58  mpu6050.o(i.MPU_Read_Byte)
    MPU_Read_Len                             0x08001481   Thumb Code   116  mpu6050.o(i.MPU_Read_Len)
    MPU_Set_Accel_Fsr                        0x080014f5   Thumb Code    16  mpu6050.o(i.MPU_Set_Accel_Fsr)
    MPU_Set_Gyro_Fsr                         0x08001505   Thumb Code    16  mpu6050.o(i.MPU_Set_Gyro_Fsr)
    MPU_Set_LPF                              0x08001515   Thumb Code    58  mpu6050.o(i.MPU_Set_LPF)
    MPU_Set_Rate                             0x0800154f   Thumb Code    58  mpu6050.o(i.MPU_Set_Rate)
    MPU_Write_Byte                           0x08001589   Thumb Code    68  mpu6050.o(i.MPU_Write_Byte)
    MPU_Write_Len                            0x080015cd   Thumb Code    96  mpu6050.o(i.MPU_Write_Len)
    MemManage_Handler                        0x0800162d   Thumb Code     4  stm32f10x_it.o(i.MemManage_Handler)
    Motor_Init                               0x08001631   Thumb Code    44  motor.o(i.Motor_Init)
    NMI_Handler                              0x08001661   Thumb Code     2  stm32f10x_it.o(i.NMI_Handler)
    NVIC_Configuration                       0x08001663   Thumb Code   132  sys.o(i.NVIC_Configuration)
    NVIC_Init                                0x080016e9   Thumb Code   100  misc.o(i.NVIC_Init)
    NVIC_PriorityGroupConfig                 0x08001759   Thumb Code    10  misc.o(i.NVIC_PriorityGroupConfig)
    OLED_Clear                               0x0800176d   Thumb Code    42  oled.o(i.OLED_Clear)
    OLED_DrawBMP                             0x08001797   Thumb Code   116  oled.o(i.OLED_DrawBMP)
    OLED_I2C_Init                            0x0800180d   Thumb Code    76  oled.o(i.OLED_I2C_Init)
    OLED_I2C_SendByte                        0x0800185d   Thumb Code    80  oled.o(i.OLED_I2C_SendByte)
    OLED_I2C_Start                           0x080018b1   Thumb Code    48  oled.o(i.OLED_I2C_Start)
    OLED_I2C_Stop                            0x080018e5   Thumb Code    36  oled.o(i.OLED_I2C_Stop)
    OLED_Init                                0x0800190d   Thumb Code   174  oled.o(i.OLED_Init)
    OLED_Pow                                 0x080019bb   Thumb Code    20  oled.o(i.OLED_Pow)
    OLED_SetCursor                           0x080019cf   Thumb Code    34  oled.o(i.OLED_SetCursor)
    OLED_ShowChar                            0x080019f1   Thumb Code   110  oled.o(i.OLED_ShowChar)
    OLED_ShowNum                             0x08001a65   Thumb Code    68  oled.o(i.OLED_ShowNum)
    OLED_ShowSignedNum                       0x08001aa9   Thumb Code   102  oled.o(i.OLED_ShowSignedNum)
    OLED_ShowString                          0x08001b0f   Thumb Code    40  oled.o(i.OLED_ShowString)
    OLED_WriteCommand                        0x08001b37   Thumb Code    32  oled.o(i.OLED_WriteCommand)
    OLED_WriteData                           0x08001b57   Thumb Code    32  oled.o(i.OLED_WriteData)
    PWM_Init                                 0x08001b79   Thumb Code   190  pwm.o(i.PWM_Init)
    RCC_APB1PeriphClockCmd                   0x08001c41   Thumb Code    26  stm32f10x_rcc.o(i.RCC_APB1PeriphClockCmd)
    RCC_APB2PeriphClockCmd                   0x08001c61   Thumb Code    26  stm32f10x_rcc.o(i.RCC_APB2PeriphClockCmd)
    RCC_GetClocksFreq                        0x08001c81   Thumb Code   192  stm32f10x_rcc.o(i.RCC_GetClocksFreq)
    Read_Encoder                             0x08001d55   Thumb Code    52  encoder.o(i.Read_Encoder)
    Scence_Show                              0x08001d8d   Thumb Code    94  sys.o(i.Scence_Show)
    Set_Pwm                                  0x08001ee1   Thumb Code   102  motor.o(i.Set_Pwm)
    SysTick_CLKSourceConfig                  0x08001f55   Thumb Code    40  misc.o(i.SysTick_CLKSourceConfig)
    SysTick_Handler                          0x08001f7d   Thumb Code    16  stm32f10x_it.o(i.SysTick_Handler)
    SysTick_Init                             0x08001f8d   Thumb Code    76  systick.o(i.SysTick_Init)
    SystemHardwareDriverInit                 0x08001fe9   Thumb Code   106  sys.o(i.SystemHardwareDriverInit)
    SystemInit                               0x0800208d   Thumb Code    78  system_stm32f10x.o(i.SystemInit)
    TIM2_IRQHandler                          0x0800232d   Thumb Code    24  encoder.o(i.TIM2_IRQHandler)
    TIM3_IRQHandler                          0x08002345   Thumb Code    18  encoder.o(i.TIM3_IRQHandler)
    TIM4_IRQHandler                          0x0800235d   Thumb Code   130  timer.o(i.TIM4_IRQHandler)
    TIM4_Int_Init                            0x080023f9   Thumb Code    60  timer.o(i.TIM4_Int_Init)
    TIM_ARRPreloadConfig                     0x08002439   Thumb Code    24  stm32f10x_tim.o(i.TIM_ARRPreloadConfig)
    TIM_ClearFlag                            0x08002451   Thumb Code     6  stm32f10x_tim.o(i.TIM_ClearFlag)
    TIM_ClearITPendingBit                    0x08002457   Thumb Code     6  stm32f10x_tim.o(i.TIM_ClearITPendingBit)
    TIM_Cmd                                  0x0800245d   Thumb Code    24  stm32f10x_tim.o(i.TIM_Cmd)
    TIM_CtrlPWMOutputs                       0x08002475   Thumb Code    30  stm32f10x_tim.o(i.TIM_CtrlPWMOutputs)
    TIM_EncoderInterfaceConfig               0x08002493   Thumb Code    66  stm32f10x_tim.o(i.TIM_EncoderInterfaceConfig)
    TIM_GetITStatus                          0x080024d5   Thumb Code    34  stm32f10x_tim.o(i.TIM_GetITStatus)
    TIM_ICInit                               0x080024f9   Thumb Code   150  stm32f10x_tim.o(i.TIM_ICInit)
    TIM_ICStructInit                         0x080025a5   Thumb Code    18  stm32f10x_tim.o(i.TIM_ICStructInit)
    TIM_ITConfig                             0x080025b7   Thumb Code    18  stm32f10x_tim.o(i.TIM_ITConfig)
    TIM_OC1Init                              0x080025c9   Thumb Code   132  stm32f10x_tim.o(i.TIM_OC1Init)
    TIM_OC1PreloadConfig                     0x08002661   Thumb Code    18  stm32f10x_tim.o(i.TIM_OC1PreloadConfig)
    TIM_OC4Init                              0x08002675   Thumb Code   114  stm32f10x_tim.o(i.TIM_OC4Init)
    TIM_OC4PreloadConfig                     0x080026f1   Thumb Code    26  stm32f10x_tim.o(i.TIM_OC4PreloadConfig)
    TIM_SetCounter                           0x0800270b   Thumb Code     4  stm32f10x_tim.o(i.TIM_SetCounter)
    TIM_SetIC1Prescaler                      0x0800270f   Thumb Code    18  stm32f10x_tim.o(i.TIM_SetIC1Prescaler)
    TIM_SetIC2Prescaler                      0x08002721   Thumb Code    26  stm32f10x_tim.o(i.TIM_SetIC2Prescaler)
    TIM_SetIC3Prescaler                      0x0800273b   Thumb Code    18  stm32f10x_tim.o(i.TIM_SetIC3Prescaler)
    TIM_SetIC4Prescaler                      0x0800274d   Thumb Code    26  stm32f10x_tim.o(i.TIM_SetIC4Prescaler)
    TIM_TimeBaseInit                         0x08002769   Thumb Code   122  stm32f10x_tim.o(i.TIM_TimeBaseInit)
    TIM_TimeBaseStructInit                   0x0800280d   Thumb Code    18  stm32f10x_tim.o(i.TIM_TimeBaseStructInit)
    TaskCreateFunction                       0x08002821   Thumb Code    24  taskmanage.o(i.TaskCreateFunction)
    Turn                                     0x0800284d   Thumb Code   476  application_pid.o(i.Turn)
    USART1_IRQHandler                        0x08002a51   Thumb Code   122  usart.o(i.USART1_IRQHandler)
    USART2_IRQHandler                        0x08002ad9   Thumb Code   594  usart2.o(i.USART2_IRQHandler)
    USART_Cmd                                0x08002d45   Thumb Code    24  stm32f10x_usart.o(i.USART_Cmd)
    USART_GetITStatus                        0x08002d5d   Thumb Code    84  stm32f10x_usart.o(i.USART_GetITStatus)
    USART_ITConfig                           0x08002db1   Thumb Code    74  stm32f10x_usart.o(i.USART_ITConfig)
    USART_Init                               0x08002dfd   Thumb Code   210  stm32f10x_usart.o(i.USART_Init)
    USART_ReceiveData                        0x08002ed5   Thumb Code    10  stm32f10x_usart.o(i.USART_ReceiveData)
    UsageFault_Handler                       0x08002edf   Thumb Code     4  stm32f10x_it.o(i.UsageFault_Handler)
    Vertical                                 0x08002ee5   Thumb Code    66  application_pid.o(i.Vertical)
    __0printf$8                              0x08002f31   Thumb Code    22  printf8.o(i.__0printf$8)
    __1printf$8                              0x08002f31   Thumb Code     0  printf8.o(i.__0printf$8)
    __2printf                                0x08002f31   Thumb Code     0  printf8.o(i.__0printf$8)
    __ARM_fpclassify                         0x08002f51   Thumb Code    40  fpclassify.o(i.__ARM_fpclassify)
    __kernel_poly                            0x08002f79   Thumb Code   170  poly.o(i.__kernel_poly)
    __mathlib_dbl_infnan                     0x08003023   Thumb Code     6  dunder.o(i.__mathlib_dbl_infnan)
    __mathlib_dbl_infnan2                    0x08003029   Thumb Code     4  dunder.o(i.__mathlib_dbl_infnan2)
    __mathlib_dbl_invalid                    0x0800302d   Thumb Code    12  dunder.o(i.__mathlib_dbl_invalid)
    __mathlib_dbl_underflow                  0x08003039   Thumb Code    10  dunder.o(i.__mathlib_dbl_underflow)
    __scatterload_copy                       0x08003049   Thumb Code    14  handlers.o(i.__scatterload_copy)
    __scatterload_null                       0x08003057   Thumb Code     2  handlers.o(i.__scatterload_null)
    __scatterload_zeroinit                   0x08003059   Thumb Code    14  handlers.o(i.__scatterload_zeroinit)
    __set_errno                              0x08003069   Thumb Code     6  errno.o(i.__set_errno)
    asin                                     0x08003575   Thumb Code   572  asin.o(i.asin)
    atan                                     0x080037e5   Thumb Code   474  atan.o(i.atan)
    atan2                                    0x08003a05   Thumb Code   374  atan2.o(i.atan2)
    bluetooth_task                           0x08003ba1   Thumb Code   608  taskmanage.o(i.bluetooth_task)
    delay_init                               0x08003e99   Thumb Code    50  delay.o(i.delay_init)
    delay_ms                                 0x08003edd   Thumb Code    72  delay.o(i.delay_ms)
    delay_us                                 0x08003f29   Thumb Code    72  delay.o(i.delay_us)
    dmp_enable_6x_lp_quat                    0x08003f75   Thumb Code    60  inv_mpu_dmp_motion_driver.o(i.dmp_enable_6x_lp_quat)
    dmp_enable_feature                       0x08003fb1   Thumb Code   530  inv_mpu_dmp_motion_driver.o(i.dmp_enable_feature)
    dmp_enable_gyro_cal                      0x080041cd   Thumb Code    62  inv_mpu_dmp_motion_driver.o(i.dmp_enable_gyro_cal)
    dmp_enable_lp_quat                       0x08004225   Thumb Code    60  inv_mpu_dmp_motion_driver.o(i.dmp_enable_lp_quat)
    dmp_load_motion_driver_firmware          0x08004261   Thumb Code    20  inv_mpu_dmp_motion_driver.o(i.dmp_load_motion_driver_firmware)
    dmp_read_fifo                            0x08004279   Thumb Code   456  inv_mpu_dmp_motion_driver.o(i.dmp_read_fifo)
    dmp_set_accel_bias                       0x08004445   Thumb Code   300  inv_mpu_dmp_motion_driver.o(i.dmp_set_accel_bias)
    dmp_set_fifo_rate                        0x08004575   Thumb Code    96  inv_mpu_dmp_motion_driver.o(i.dmp_set_fifo_rate)
    dmp_set_gyro_bias                        0x080045e5   Thumb Code   294  inv_mpu_dmp_motion_driver.o(i.dmp_set_gyro_bias)
    dmp_set_orientation                      0x08004715   Thumb Code   290  inv_mpu_dmp_motion_driver.o(i.dmp_set_orientation)
    dmp_set_shake_reject_thresh              0x0800484d   Thumb Code    56  inv_mpu_dmp_motion_driver.o(i.dmp_set_shake_reject_thresh)
    dmp_set_shake_reject_time                0x08004885   Thumb Code    38  inv_mpu_dmp_motion_driver.o(i.dmp_set_shake_reject_time)
    dmp_set_shake_reject_timeout             0x080048ab   Thumb Code    38  inv_mpu_dmp_motion_driver.o(i.dmp_set_shake_reject_timeout)
    dmp_set_tap_axes                         0x080048d1   Thumb Code    70  inv_mpu_dmp_motion_driver.o(i.dmp_set_tap_axes)
    dmp_set_tap_count                        0x08004917   Thumb Code    38  inv_mpu_dmp_motion_driver.o(i.dmp_set_tap_count)
    dmp_set_tap_thresh                       0x0800493d   Thumb Code   396  inv_mpu_dmp_motion_driver.o(i.dmp_set_tap_thresh)
    dmp_set_tap_time                         0x08004add   Thumb Code    38  inv_mpu_dmp_motion_driver.o(i.dmp_set_tap_time)
    dmp_set_tap_time_multi                   0x08004b03   Thumb Code    38  inv_mpu_dmp_motion_driver.o(i.dmp_set_tap_time_multi)
    fputc                                    0x08004b29   Thumb Code    24  usart.o(i.fputc)
    inv_orientation_matrix_to_scalar         0x08005175   Thumb Code    40  inv_mpu.o(i.inv_orientation_matrix_to_scalar)
    inv_row_2_scale                          0x0800519d   Thumb Code    78  inv_mpu.o(i.inv_row_2_scale)
    led_off                                  0x080051ed   Thumb Code     8  led.o(i.led_off)
    led_on                                   0x080051f9   Thumb Code     8  led.o(i.led_on)
    main                                     0x08005205   Thumb Code    22  main.o(i.main)
    mget_ms                                  0x0800521b   Thumb Code     2  inv_mpu.o(i.mget_ms)
    mpu_configure_fifo                       0x0800521d   Thumb Code   106  inv_mpu.o(i.mpu_configure_fifo)
    mpu_dmp_get_data                         0x0800528d   Thumb Code   544  inv_mpu.o(i.mpu_dmp_get_data)
    mpu_dmp_init                             0x080054b1   Thumb Code   154  inv_mpu.o(i.mpu_dmp_init)
    mpu_get_accel_fsr                        0x08005551   Thumb Code    72  inv_mpu.o(i.mpu_get_accel_fsr)
    mpu_get_accel_sens                       0x0800559d   Thumb Code    78  inv_mpu.o(i.mpu_get_accel_sens)
    mpu_get_fifo_config                      0x080055f1   Thumb Code    12  inv_mpu.o(i.mpu_get_fifo_config)
    mpu_get_gyro_fsr                         0x08005601   Thumb Code    64  inv_mpu.o(i.mpu_get_gyro_fsr)
    mpu_get_gyro_sens                        0x08005645   Thumb Code    58  inv_mpu.o(i.mpu_get_gyro_sens)
    mpu_get_lpf                              0x08005695   Thumb Code    74  inv_mpu.o(i.mpu_get_lpf)
    mpu_get_sample_rate                      0x080056e5   Thumb Code    26  inv_mpu.o(i.mpu_get_sample_rate)
    mpu_init                                 0x08005705   Thumb Code   416  inv_mpu.o(i.mpu_init)
    mpu_load_firmware                        0x080058f5   Thumb Code   180  inv_mpu.o(i.mpu_load_firmware)
    mpu_lp_accel_mode                        0x080059ad   Thumb Code   218  inv_mpu.o(i.mpu_lp_accel_mode)
    mpu_read_fifo_stream                     0x08005a8d   Thumb Code   186  inv_mpu.o(i.mpu_read_fifo_stream)
    mpu_read_mem                             0x08005b4d   Thumb Code   122  inv_mpu.o(i.mpu_read_mem)
    mpu_reset_fifo                           0x08005bcd   Thumb Code   450  inv_mpu.o(i.mpu_reset_fifo)
    mpu_run_self_test                        0x08005d95   Thumb Code   278  inv_mpu.o(i.mpu_run_self_test)
    mpu_set_accel_fsr                        0x08005eb1   Thumb Code   126  inv_mpu.o(i.mpu_set_accel_fsr)
    mpu_set_bypass                           0x08005f35   Thumb Code   328  inv_mpu.o(i.mpu_set_bypass)
    mpu_set_dmp_state                        0x08006081   Thumb Code   138  inv_mpu.o(i.mpu_set_dmp_state)
    mpu_set_gyro_fsr                         0x08006111   Thumb Code   132  inv_mpu.o(i.mpu_set_gyro_fsr)
    mpu_set_int_latched                      0x08006199   Thumb Code   102  inv_mpu.o(i.mpu_set_int_latched)
    mpu_set_lpf                              0x08006205   Thumb Code   126  inv_mpu.o(i.mpu_set_lpf)
    mpu_set_sample_rate                      0x08006289   Thumb Code   152  inv_mpu.o(i.mpu_set_sample_rate)
    mpu_set_sensors                          0x08006325   Thumb Code   202  inv_mpu.o(i.mpu_set_sensors)
    mpu_write_mem                            0x080063f5   Thumb Code   122  inv_mpu.o(i.mpu_write_mem)
    myabs                                    0x08006475   Thumb Code    14  motor.o(i.myabs)
    oled_task                                0x08006485   Thumb Code   148  taskmanage.o(i.oled_task)
    pid_task                                 0x08006539   Thumb Code   822  taskmanage.o(i.pid_task)
    pvPortMalloc                             0x08006ebd   Thumb Code   262  heap_4.o(i.pvPortMalloc)
    pxPortInitialiseStack                    0x08007011   Thumb Code    30  port.o(i.pxPortInitialiseStack)
    run_self_test                            0x08007035   Thumb Code   148  inv_mpu.o(i.run_self_test)
    sqrt                                     0x08007159   Thumb Code    76  sqrt.o(i.sqrt)
    start_task                               0x080071a5   Thumb Code   150  taskmanage.o(i.start_task)
    uart_init                                0x080072f1   Thumb Code   152  usart.o(i.uart_init)
    uxListRemove                             0x08007391   Thumb Code    40  list.o(i.uxListRemove)
    vListInitialise                          0x080073b9   Thumb Code    26  list.o(i.vListInitialise)
    vListInitialiseItem                      0x080073d3   Thumb Code     6  list.o(i.vListInitialiseItem)
    vListInsert                              0x080073d9   Thumb Code    52  list.o(i.vListInsert)
    vListInsertEnd                           0x0800740d   Thumb Code    24  list.o(i.vListInsertEnd)
    vPortEnterCritical                       0x08007425   Thumb Code    68  port.o(i.vPortEnterCritical)
    vPortExitCritical                        0x080074ad   Thumb Code    48  port.o(i.vPortExitCritical)
    vPortFree                                0x0800751d   Thumb Code   120  heap_4.o(i.vPortFree)
    vPortSetupTimerInterrupt                 0x080075d5   Thumb Code    26  port.o(i.vPortSetupTimerInterrupt)
    vTaskDelay                               0x080075f5   Thumb Code    72  tasks.o(i.vTaskDelay)
    vTaskDelete                              0x08007669   Thumb Code   192  tasks.o(i.vTaskDelete)
    vTaskMissedYield                         0x08007775   Thumb Code     8  tasks.o(i.vTaskMissedYield)
    vTaskPlaceOnEventList                    0x08007781   Thumb Code    42  tasks.o(i.vTaskPlaceOnEventList)
    vTaskSetTimeOutState                     0x080077d5   Thumb Code    32  tasks.o(i.vTaskSetTimeOutState)
    vTaskStartScheduler                      0x08007821   Thumb Code    98  tasks.o(i.vTaskStartScheduler)
    vTaskSuspendAll                          0x080078c5   Thumb Code    12  tasks.o(i.vTaskSuspendAll)
    vTaskSwitchContext                       0x080078d5   Thumb Code   110  tasks.o(i.vTaskSwitchContext)
    velocity                                 0x0800797d   Thumb Code   280  application_pid.o(i.velocity)
    xPortStartScheduler                      0x08007ac9   Thumb Code   140  port.o(i.xPortStartScheduler)
    xPortSysTickHandler                      0x08007b69   Thumb Code    46  port.o(i.xPortSysTickHandler)
    xQueueGenericCreate                      0x08007b9d   Thumb Code    78  queue.o(i.xQueueGenericCreate)
    xQueueGenericReceive                     0x08007c11   Thumb Code   386  queue.o(i.xQueueGenericReceive)
    xQueueGenericReset                       0x08007dbd   Thumb Code   136  queue.o(i.xQueueGenericReset)
    xQueueGenericSend                        0x08007e6d   Thumb Code   380  queue.o(i.xQueueGenericSend)
    xTaskCheckForTimeOut                     0x08008011   Thumb Code   116  tasks.o(i.xTaskCheckForTimeOut)
    xTaskCreate                              0x080080b1   Thumb Code    96  tasks.o(i.xTaskCreate)
    xTaskGetSchedulerState                   0x08008111   Thumb Code    24  tasks.o(i.xTaskGetSchedulerState)
    xTaskIncrementTick                       0x08008131   Thumb Code   272  tasks.o(i.xTaskIncrementTick)
    xTaskRemoveFromEventList                 0x08008291   Thumb Code   118  tasks.o(i.xTaskRemoveFromEventList)
    xTaskResumeAll                           0x08008345   Thumb Code   214  tasks.o(i.xTaskResumeAll)
    reg                                      0x08008464   Data          27  inv_mpu.o(.constdata)
    hw                                       0x08008480   Data          12  inv_mpu.o(.constdata)
    test                                     0x0800848c   Data          40  inv_mpu.o(.constdata)
    OLED_F8x16                               0x080090aa   Data        1520  oled.o(.constdata)
    __mathlib_zero                           0x080097a0   Data           8  qnan.o(.constdata)
    Region$$Table$$Base                      0x080097f8   Number         0  anon$$obj.o(Region$$Table)
    Region$$Table$$Limit                     0x08009818   Number         0  anon$$obj.o(Region$$Table)
    __stdout                                 0x20000018   Data           4  usart.o(.data)
    USART_RX_STA                             0x2000001c   Data           2  usart.o(.data)
    SystemCoreClock                          0x20000024   Data           4  system_stm32f10x.o(.data)
    AHBPrescTable                            0x20000028   Data          16  system_stm32f10x.o(.data)
    pxCurrentTCB                             0x20000038   Data           4  tasks.o(.data)
    cnt_Rect                                 0x200000d0   Data           4  timer.o(.data)
    cnt_Tri                                  0x200000d4   Data           4  timer.o(.data)
    bmpBluetooth                             0x200000e0   Data         128  usart2.o(.data)
    bluetooth_Receive_Val                    0x20000160   Data           2  usart2.o(.data)
    Turn_Kd                                  0x20000170   Data           4  application_pid.o(.data)
    gyro                                     0x20000174   Data           6  application_pid.o(.data)
    StartTask_Handler                        0x2000018c   Data           4  taskmanage.o(.data)
    OledTask_Handler                         0x20000190   Data           4  taskmanage.o(.data)
    PidTask_Handler                          0x20000194   Data           4  taskmanage.o(.data)
    BluetoothTask_Handler                    0x20000198   Data           4  taskmanage.o(.data)
    Reomte_Queue                             0x2000019c   Data           4  taskmanage.o(.data)
    USART_RX_BUF                             0x200001a4   Data         200  usart.o(.bss)
    emptyBluetooth                           0x20002d60   Data         128  usart2.o(.bss)
    angle                                    0x20002de0   Data          12  application_pid.o(.bss)
    __initial_sp                             0x200031f0   Data           0  startup_stm32f10x_md.o(STACK)



==============================================================================

Memory Map of the image

  Image Entry point : 0x0800019d

  Load Region LR_1 (Base: 0x08000000, Size: 0x000099bc, Max: 0xffffffff, ABSOLUTE, COMPRESSED[0x00009888])

    Execution Region ER_RO (Exec base: 0x08000000, Load base: 0x08000000, Size: 0x00009818, Max: 0xffffffff, ABSOLUTE)

    Exec Addr    Load Addr    Size         Type   Attr      Idx    E Section Name        Object

    0x08000000   0x08000000   0x000000ec   Data   RO         1351    RESET               startup_stm32f10x_md.o
    0x080000ec   0x080000ec   0x00000000   Code   RO         4026  * .ARM.Collect$$$$00000000  mc_w.l(entry.o)
    0x080000ec   0x080000ec   0x00000004   Code   RO         4367    .ARM.Collect$$$$00000001  mc_w.l(entry2.o)
    0x080000f0   0x080000f0   0x00000004   Code   RO         4370    .ARM.Collect$$$$00000004  mc_w.l(entry5.o)
    0x080000f4   0x080000f4   0x00000000   Code   RO         4372    .ARM.Collect$$$$00000008  mc_w.l(entry7b.o)
    0x080000f4   0x080000f4   0x00000000   Code   RO         4374    .ARM.Collect$$$$0000000A  mc_w.l(entry8b.o)
    0x080000f4   0x080000f4   0x00000008   Code   RO         4375    .ARM.Collect$$$$0000000B  mc_w.l(entry9a.o)
    0x080000fc   0x080000fc   0x00000004   Code   RO         4382    .ARM.Collect$$$$0000000E  mc_w.l(entry12b.o)
    0x08000100   0x08000100   0x00000000   Code   RO         4377    .ARM.Collect$$$$0000000F  mc_w.l(entry10a.o)
    0x08000100   0x08000100   0x00000000   Code   RO         4379    .ARM.Collect$$$$00000011  mc_w.l(entry11a.o)
    0x08000100   0x08000100   0x00000004   Code   RO         4368    .ARM.Collect$$$$00002712  mc_w.l(entry2.o)
    0x08000104   0x08000104   0x00000096   Code   RO         2703    .emb_text           port.o
    0x0800019a   0x0800019a   0x00000002   PAD
    0x0800019c   0x0800019c   0x00000024   Code   RO         1352  * .text               startup_stm32f10x_md.o
    0x080001c0   0x080001c0   0x00000062   Code   RO         4029    .text               mc_w.l(ldiv.o)
    0x08000222   0x08000222   0x00000024   Code   RO         4031    .text               mc_w.l(memcpya.o)
    0x08000246   0x08000246   0x00000024   Code   RO         4033    .text               mc_w.l(memseta.o)
    0x0800026a   0x0800026a   0x0000001a   Code   RO         4035    .text               mc_w.l(memcmp.o)
    0x08000284   0x08000284   0x000000b0   Code   RO         4300    .text               mf_w.l(fadd.o)
    0x08000334   0x08000334   0x00000064   Code   RO         4302    .text               mf_w.l(fmul.o)
    0x08000398   0x08000398   0x0000007c   Code   RO         4304    .text               mf_w.l(fdiv.o)
    0x08000414   0x08000414   0x0000014e   Code   RO         4306    .text               mf_w.l(dadd.o)
    0x08000562   0x08000562   0x000000e4   Code   RO         4308    .text               mf_w.l(dmul.o)
    0x08000646   0x08000646   0x000000de   Code   RO         4310    .text               mf_w.l(ddiv.o)
    0x08000724   0x08000724   0x00000012   Code   RO         4312    .text               mf_w.l(fflti.o)
    0x08000736   0x08000736   0x0000000a   Code   RO         4314    .text               mf_w.l(ffltui.o)
    0x08000740   0x08000740   0x00000032   Code   RO         4318    .text               mf_w.l(ffixi.o)
    0x08000772   0x08000772   0x00000028   Code   RO         4320    .text               mf_w.l(ffixui.o)
    0x0800079a   0x0800079a   0x00000026   Code   RO         4322    .text               mf_w.l(f2d.o)
    0x080007c0   0x080007c0   0x00000038   Code   RO         4324    .text               mf_w.l(d2f.o)
    0x080007f8   0x080007f8   0x00000014   Code   RO         4326    .text               mf_w.l(cfcmple.o)
    0x0800080c   0x0800080c   0x00000014   Code   RO         4328    .text               mf_w.l(cfrcmple.o)
    0x08000820   0x08000820   0x00000062   Code   RO         4385    .text               mc_w.l(uldiv.o)
    0x08000882   0x08000882   0x0000001e   Code   RO         4387    .text               mc_w.l(llshl.o)
    0x080008a0   0x080008a0   0x00000024   Code   RO         4389    .text               mc_w.l(llsshr.o)
    0x080008c4   0x080008c4   0x00000000   Code   RO         4398    .text               mc_w.l(iusefp.o)
    0x080008c4   0x080008c4   0x0000006e   Code   RO         4399    .text               mf_w.l(fepilogue.o)
    0x08000932   0x08000932   0x000000ba   Code   RO         4401    .text               mf_w.l(depilogue.o)
    0x080009ec   0x080009ec   0x0000002e   Code   RO         4403    .text               mf_w.l(dscalb.o)
    0x08000a1a   0x08000a1a   0x00000002   PAD
    0x08000a1c   0x08000a1c   0x00000030   Code   RO         4407    .text               mf_w.l(cdcmple.o)
    0x08000a4c   0x08000a4c   0x00000024   Code   RO         4411    .text               mc_w.l(init.o)
    0x08000a70   0x08000a70   0x00000020   Code   RO         4413    .text               mc_w.l(llushr.o)
    0x08000a90   0x08000a90   0x000000a2   Code   RO         4415    .text               mf_w.l(dsqrt.o)
    0x08000b32   0x08000b32   0x00000056   Code   RO         4425    .text               mc_w.l(__dczerorl2.o)
    0x08000b88   0x08000b88   0x000000a8   Code   RO         3871    i.BlueTooth_init    usart2.o
    0x08000c30   0x08000c30   0x00000004   Code   RO         1835    i.BusFault_Handler  stm32f10x_it.o
    0x08000c34   0x08000c34   0x00000002   Code   RO         1836    i.DebugMon_Handler  stm32f10x_it.o
    0x08000c36   0x08000c36   0x00000002   PAD
    0x08000c38   0x08000c38   0x0000003c   Code   RO         3911    i.EXTI9_5_IRQHandler  application_pid.o
    0x08000c74   0x08000c74   0x00000094   Code   RO          722    i.EXTI_Init         stm32f10x_exti.o
    0x08000d08   0x08000d08   0x000000a0   Code   RO         3534    i.Encoder_Init_TIM2  encoder.o
    0x08000da8   0x08000da8   0x0000009c   Code   RO         3535    i.Encoder_Init_TIM3  encoder.o
    0x08000e44   0x08000e44   0x00000040   Code   RO          153    i.GPIO_EXTILineConfig  stm32f10x_gpio.o
    0x08000e84   0x08000e84   0x00000116   Code   RO          156    i.GPIO_Init         stm32f10x_gpio.o
    0x08000f9a   0x08000f9a   0x00000002   PAD
    0x08000f9c   0x08000f9c   0x00000090   Code   RO          158    i.GPIO_PinRemapConfig  stm32f10x_gpio.o
    0x0800102c   0x0800102c   0x00000012   Code   RO          160    i.GPIO_ReadInputDataBit  stm32f10x_gpio.o
    0x0800103e   0x0800103e   0x00000004   Code   RO          164    i.GPIO_SetBits      stm32f10x_gpio.o
    0x08001042   0x08001042   0x0000000a   Code   RO          167    i.GPIO_WriteBit     stm32f10x_gpio.o
    0x0800104c   0x0800104c   0x00000004   Code   RO         1837    i.HardFault_Handler  stm32f10x_it.o
    0x08001050   0x08001050   0x00000034   Code   RO         3582    i.LED_Init          led.o
    0x08001084   0x08001084   0x00000050   Code   RO         3657    i.MPU6050_EXTI_Init  mpu_exti.o
    0x080010d4   0x080010d4   0x00000050   Code   RO         2793    i.MPU_Get_Gyroscope  mpu6050.o
    0x08001124   0x08001124   0x0000004c   Code   RO         2888    i.MPU_IIC_Ack       mpuiic.o
    0x08001170   0x08001170   0x0000000a   Code   RO         2889    i.MPU_IIC_Delay     mpuiic.o
    0x0800117a   0x0800117a   0x00000002   PAD
    0x0800117c   0x0800117c   0x00000048   Code   RO         2890    i.MPU_IIC_Init      mpuiic.o
    0x080011c4   0x080011c4   0x0000004c   Code   RO         2891    i.MPU_IIC_NAck      mpuiic.o
    0x08001210   0x08001210   0x0000006c   Code   RO         2892    i.MPU_IIC_Read_Byte  mpuiic.o
    0x0800127c   0x0800127c   0x0000005c   Code   RO         2893    i.MPU_IIC_Send_Byte  mpuiic.o
    0x080012d8   0x080012d8   0x00000048   Code   RO         2894    i.MPU_IIC_Start     mpuiic.o
    0x08001320   0x08001320   0x00000048   Code   RO         2895    i.MPU_IIC_Stop      mpuiic.o
    0x08001368   0x08001368   0x00000064   Code   RO         2896    i.MPU_IIC_Wait_Ack  mpuiic.o
    0x080013cc   0x080013cc   0x0000007a   Code   RO         2795    i.MPU_Init          mpu6050.o
    0x08001446   0x08001446   0x0000003a   Code   RO         2796    i.MPU_Read_Byte     mpu6050.o
    0x08001480   0x08001480   0x00000074   Code   RO         2797    i.MPU_Read_Len      mpu6050.o
    0x080014f4   0x080014f4   0x00000010   Code   RO         2798    i.MPU_Set_Accel_Fsr  mpu6050.o
    0x08001504   0x08001504   0x00000010   Code   RO         2799    i.MPU_Set_Gyro_Fsr  mpu6050.o
    0x08001514   0x08001514   0x0000003a   Code   RO         2800    i.MPU_Set_LPF       mpu6050.o
    0x0800154e   0x0800154e   0x0000003a   Code   RO         2801    i.MPU_Set_Rate      mpu6050.o
    0x08001588   0x08001588   0x00000044   Code   RO         2802    i.MPU_Write_Byte    mpu6050.o
    0x080015cc   0x080015cc   0x00000060   Code   RO         2803    i.MPU_Write_Len     mpu6050.o
    0x0800162c   0x0800162c   0x00000004   Code   RO         1838    i.MemManage_Handler  stm32f10x_it.o
    0x08001630   0x08001630   0x00000030   Code   RO         3618    i.Motor_Init        motor.o
    0x08001660   0x08001660   0x00000002   Code   RO         1839    i.NMI_Handler       stm32f10x_it.o
    0x08001662   0x08001662   0x00000084   Code   RO         1470    i.NVIC_Configuration  sys.o
    0x080016e6   0x080016e6   0x00000002   PAD
    0x080016e8   0x080016e8   0x00000070   Code   RO            4    i.NVIC_Init         misc.o
    0x08001758   0x08001758   0x00000014   Code   RO            5    i.NVIC_PriorityGroupConfig  misc.o
    0x0800176c   0x0800176c   0x0000002a   Code   RO         3681    i.OLED_Clear        oled.o
    0x08001796   0x08001796   0x00000074   Code   RO         3682    i.OLED_DrawBMP      oled.o
    0x0800180a   0x0800180a   0x00000002   PAD
    0x0800180c   0x0800180c   0x00000050   Code   RO         3683    i.OLED_I2C_Init     oled.o
    0x0800185c   0x0800185c   0x00000054   Code   RO         3684    i.OLED_I2C_SendByte  oled.o
    0x080018b0   0x080018b0   0x00000034   Code   RO         3685    i.OLED_I2C_Start    oled.o
    0x080018e4   0x080018e4   0x00000028   Code   RO         3686    i.OLED_I2C_Stop     oled.o
    0x0800190c   0x0800190c   0x000000ae   Code   RO         3687    i.OLED_Init         oled.o
    0x080019ba   0x080019ba   0x00000014   Code   RO         3688    i.OLED_Pow          oled.o
    0x080019ce   0x080019ce   0x00000022   Code   RO         3689    i.OLED_SetCursor    oled.o
    0x080019f0   0x080019f0   0x00000074   Code   RO         3691    i.OLED_ShowChar     oled.o
    0x08001a64   0x08001a64   0x00000044   Code   RO         3693    i.OLED_ShowNum      oled.o
    0x08001aa8   0x08001aa8   0x00000066   Code   RO         3694    i.OLED_ShowSignedNum  oled.o
    0x08001b0e   0x08001b0e   0x00000028   Code   RO         3695    i.OLED_ShowString   oled.o
    0x08001b36   0x08001b36   0x00000020   Code   RO         3696    i.OLED_WriteCommand  oled.o
    0x08001b56   0x08001b56   0x00000020   Code   RO         3697    i.OLED_WriteData    oled.o
    0x08001b76   0x08001b76   0x00000002   PAD
    0x08001b78   0x08001b78   0x000000c8   Code   RO         3810    i.PWM_Init          pwm.o
    0x08001c40   0x08001c40   0x00000020   Code   RO          314    i.RCC_APB1PeriphClockCmd  stm32f10x_rcc.o
    0x08001c60   0x08001c60   0x00000020   Code   RO          316    i.RCC_APB2PeriphClockCmd  stm32f10x_rcc.o
    0x08001c80   0x08001c80   0x000000d4   Code   RO          324    i.RCC_GetClocksFreq  stm32f10x_rcc.o
    0x08001d54   0x08001d54   0x00000038   Code   RO         3536    i.Read_Encoder      encoder.o
    0x08001d8c   0x08001d8c   0x0000006c   Code   RO         1471    i.Scence_Show       sys.o
    0x08001df8   0x08001df8   0x00000008   Code   RO         1944    i.SetSysClock       system_stm32f10x.o
    0x08001e00   0x08001e00   0x000000e0   Code   RO         1945    i.SetSysClockTo72   system_stm32f10x.o
    0x08001ee0   0x08001ee0   0x00000074   Code   RO         3619    i.Set_Pwm           motor.o
    0x08001f54   0x08001f54   0x00000028   Code   RO            8    i.SysTick_CLKSourceConfig  misc.o
    0x08001f7c   0x08001f7c   0x00000010   Code   RO         1840    i.SysTick_Handler   stm32f10x_it.o
    0x08001f8c   0x08001f8c   0x0000005c   Code   RO         1698    i.SysTick_Init      systick.o
    0x08001fe8   0x08001fe8   0x000000a4   Code   RO         1472    i.SystemHardwareDriverInit  sys.o
    0x0800208c   0x0800208c   0x00000060   Code   RO         1947    i.SystemInit        system_stm32f10x.o
    0x080020ec   0x080020ec   0x00000080   Code   RO          782    i.TI1_Config        stm32f10x_tim.o
    0x0800216c   0x0800216c   0x00000098   Code   RO          783    i.TI2_Config        stm32f10x_tim.o
    0x08002204   0x08002204   0x00000090   Code   RO          784    i.TI3_Config        stm32f10x_tim.o
    0x08002294   0x08002294   0x00000098   Code   RO          785    i.TI4_Config        stm32f10x_tim.o
    0x0800232c   0x0800232c   0x00000018   Code   RO         3537    i.TIM2_IRQHandler   encoder.o
    0x08002344   0x08002344   0x00000018   Code   RO         3538    i.TIM3_IRQHandler   encoder.o
    0x0800235c   0x0800235c   0x0000009c   Code   RO         3834    i.TIM4_IRQHandler   timer.o
    0x080023f8   0x080023f8   0x00000040   Code   RO         3835    i.TIM4_Int_Init     timer.o
    0x08002438   0x08002438   0x00000018   Code   RO          786    i.TIM_ARRPreloadConfig  stm32f10x_tim.o
    0x08002450   0x08002450   0x00000006   Code   RO          792    i.TIM_ClearFlag     stm32f10x_tim.o
    0x08002456   0x08002456   0x00000006   Code   RO          793    i.TIM_ClearITPendingBit  stm32f10x_tim.o
    0x0800245c   0x0800245c   0x00000018   Code   RO          798    i.TIM_Cmd           stm32f10x_tim.o
    0x08002474   0x08002474   0x0000001e   Code   RO          800    i.TIM_CtrlPWMOutputs  stm32f10x_tim.o
    0x08002492   0x08002492   0x00000042   Code   RO          807    i.TIM_EncoderInterfaceConfig  stm32f10x_tim.o
    0x080024d4   0x080024d4   0x00000022   Code   RO          819    i.TIM_GetITStatus   stm32f10x_tim.o
    0x080024f6   0x080024f6   0x00000002   PAD
    0x080024f8   0x080024f8   0x000000ac   Code   RO          821    i.TIM_ICInit        stm32f10x_tim.o
    0x080025a4   0x080025a4   0x00000012   Code   RO          822    i.TIM_ICStructInit  stm32f10x_tim.o
    0x080025b6   0x080025b6   0x00000012   Code   RO          823    i.TIM_ITConfig      stm32f10x_tim.o
    0x080025c8   0x080025c8   0x00000098   Code   RO          827    i.TIM_OC1Init       stm32f10x_tim.o
    0x08002660   0x08002660   0x00000012   Code   RO          830    i.TIM_OC1PreloadConfig  stm32f10x_tim.o
    0x08002672   0x08002672   0x00000002   PAD
    0x08002674   0x08002674   0x0000007c   Code   RO          842    i.TIM_OC4Init       stm32f10x_tim.o
    0x080026f0   0x080026f0   0x0000001a   Code   RO          844    i.TIM_OC4PreloadConfig  stm32f10x_tim.o
    0x0800270a   0x0800270a   0x00000004   Code   RO          863    i.TIM_SetCounter    stm32f10x_tim.o
    0x0800270e   0x0800270e   0x00000012   Code   RO          864    i.TIM_SetIC1Prescaler  stm32f10x_tim.o
    0x08002720   0x08002720   0x0000001a   Code   RO          865    i.TIM_SetIC2Prescaler  stm32f10x_tim.o
    0x0800273a   0x0800273a   0x00000012   Code   RO          866    i.TIM_SetIC3Prescaler  stm32f10x_tim.o
    0x0800274c   0x0800274c   0x0000001a   Code   RO          867    i.TIM_SetIC4Prescaler  stm32f10x_tim.o
    0x08002766   0x08002766   0x00000002   PAD
    0x08002768   0x08002768   0x000000a4   Code   RO          869    i.TIM_TimeBaseInit  stm32f10x_tim.o
    0x0800280c   0x0800280c   0x00000012   Code   RO          870    i.TIM_TimeBaseStructInit  stm32f10x_tim.o
    0x0800281e   0x0800281e   0x00000002   PAD
    0x08002820   0x08002820   0x0000002c   Code   RO         3960    i.TaskCreateFunction  taskmanage.o
    0x0800284c   0x0800284c   0x00000204   Code   RO         3912    i.Turn              application_pid.o
    0x08002a50   0x08002a50   0x00000088   Code   RO         1645    i.USART1_IRQHandler  usart.o
    0x08002ad8   0x08002ad8   0x0000026c   Code   RO         3872    i.USART2_IRQHandler  usart2.o
    0x08002d44   0x08002d44   0x00000018   Code   RO          528    i.USART_Cmd         stm32f10x_usart.o
    0x08002d5c   0x08002d5c   0x00000054   Code   RO          532    i.USART_GetITStatus  stm32f10x_usart.o
    0x08002db0   0x08002db0   0x0000004a   Code   RO          534    i.USART_ITConfig    stm32f10x_usart.o
    0x08002dfa   0x08002dfa   0x00000002   PAD
    0x08002dfc   0x08002dfc   0x000000d8   Code   RO          535    i.USART_Init        stm32f10x_usart.o
    0x08002ed4   0x08002ed4   0x0000000a   Code   RO          542    i.USART_ReceiveData  stm32f10x_usart.o
    0x08002ede   0x08002ede   0x00000004   Code   RO         1841    i.UsageFault_Handler  stm32f10x_it.o
    0x08002ee2   0x08002ee2   0x00000002   PAD
    0x08002ee4   0x08002ee4   0x0000004c   Code   RO         3913    i.Vertical          application_pid.o
    0x08002f30   0x08002f30   0x00000020   Code   RO         4246    i.__0printf$8       mc_w.l(printf8.o)
    0x08002f50   0x08002f50   0x00000028   Code   RO         4354    i.__ARM_fpclassify  m_ws.l(fpclassify.o)
    0x08002f78   0x08002f78   0x000000aa   Code   RO         4356    i.__kernel_poly     m_ws.l(poly.o)
    0x08003022   0x08003022   0x00000006   Code   RO         4341    i.__mathlib_dbl_infnan  m_ws.l(dunder.o)
    0x08003028   0x08003028   0x00000004   Code   RO         4342    i.__mathlib_dbl_infnan2  m_ws.l(dunder.o)
    0x0800302c   0x0800302c   0x0000000c   Code   RO         4343    i.__mathlib_dbl_invalid  m_ws.l(dunder.o)
    0x08003038   0x08003038   0x00000010   Code   RO         4346    i.__mathlib_dbl_underflow  m_ws.l(dunder.o)
    0x08003048   0x08003048   0x0000000e   Code   RO         4419    i.__scatterload_copy  mc_w.l(handlers.o)
    0x08003056   0x08003056   0x00000002   Code   RO         4420    i.__scatterload_null  mc_w.l(handlers.o)
    0x08003058   0x08003058   0x0000000e   Code   RO         4421    i.__scatterload_zeroinit  mc_w.l(handlers.o)
    0x08003066   0x08003066   0x00000002   PAD
    0x08003068   0x08003068   0x0000000c   Code   RO         4393    i.__set_errno       mc_w.l(errno.o)
    0x08003074   0x08003074   0x00000404   Code   RO         4253    i._printf_core      mc_w.l(printf8.o)
    0x08003478   0x08003478   0x00000024   Code   RO         4254    i._printf_post_padding  mc_w.l(printf8.o)
    0x0800349c   0x0800349c   0x0000002e   Code   RO         4255    i._printf_pre_padding  mc_w.l(printf8.o)
    0x080034ca   0x080034ca   0x00000002   PAD
    0x080034cc   0x080034cc   0x000000a8   Code   RO         2963    i.accel_self_test   inv_mpu.o
    0x08003574   0x08003574   0x00000270   Code   RO         4009    i.asin              m_ws.l(asin.o)
    0x080037e4   0x080037e4   0x00000220   Code   RO         4331    i.atan              m_ws.l(atan.o)
    0x08003a04   0x08003a04   0x0000019c   Code   RO         4019    i.atan2             m_ws.l(atan2.o)
    0x08003ba0   0x08003ba0   0x00000294   Code   RO         3961    i.bluetooth_task    taskmanage.o
    0x08003e34   0x08003e34   0x00000064   Code   RO         3300    i.decode_gesture    inv_mpu_dmp_motion_driver.o
    0x08003e98   0x08003e98   0x00000044   Code   RO         1359    i.delay_init        delay.o
    0x08003edc   0x08003edc   0x0000004c   Code   RO         1360    i.delay_ms          delay.o
    0x08003f28   0x08003f28   0x0000004c   Code   RO         1361    i.delay_us          delay.o
    0x08003f74   0x08003f74   0x0000003c   Code   RO         3301    i.dmp_enable_6x_lp_quat  inv_mpu_dmp_motion_driver.o
    0x08003fb0   0x08003fb0   0x0000021c   Code   RO         3302    i.dmp_enable_feature  inv_mpu_dmp_motion_driver.o
    0x080041cc   0x080041cc   0x00000058   Code   RO         3303    i.dmp_enable_gyro_cal  inv_mpu_dmp_motion_driver.o
    0x08004224   0x08004224   0x0000003c   Code   RO         3304    i.dmp_enable_lp_quat  inv_mpu_dmp_motion_driver.o
    0x08004260   0x08004260   0x00000018   Code   RO         3309    i.dmp_load_motion_driver_firmware  inv_mpu_dmp_motion_driver.o
    0x08004278   0x08004278   0x000001cc   Code   RO         3310    i.dmp_read_fifo     inv_mpu_dmp_motion_driver.o
    0x08004444   0x08004444   0x00000130   Code   RO         3313    i.dmp_set_accel_bias  inv_mpu_dmp_motion_driver.o
    0x08004574   0x08004574   0x00000070   Code   RO         3314    i.dmp_set_fifo_rate  inv_mpu_dmp_motion_driver.o
    0x080045e4   0x080045e4   0x00000130   Code   RO         3315    i.dmp_set_gyro_bias  inv_mpu_dmp_motion_driver.o
    0x08004714   0x08004714   0x00000138   Code   RO         3317    i.dmp_set_orientation  inv_mpu_dmp_motion_driver.o
    0x0800484c   0x0800484c   0x00000038   Code   RO         3320    i.dmp_set_shake_reject_thresh  inv_mpu_dmp_motion_driver.o
    0x08004884   0x08004884   0x00000026   Code   RO         3321    i.dmp_set_shake_reject_time  inv_mpu_dmp_motion_driver.o
    0x080048aa   0x080048aa   0x00000026   Code   RO         3322    i.dmp_set_shake_reject_timeout  inv_mpu_dmp_motion_driver.o
    0x080048d0   0x080048d0   0x00000046   Code   RO         3323    i.dmp_set_tap_axes  inv_mpu_dmp_motion_driver.o
    0x08004916   0x08004916   0x00000026   Code   RO         3324    i.dmp_set_tap_count  inv_mpu_dmp_motion_driver.o
    0x0800493c   0x0800493c   0x000001a0   Code   RO         3325    i.dmp_set_tap_thresh  inv_mpu_dmp_motion_driver.o
    0x08004adc   0x08004adc   0x00000026   Code   RO         3326    i.dmp_set_tap_time  inv_mpu_dmp_motion_driver.o
    0x08004b02   0x08004b02   0x00000026   Code   RO         3327    i.dmp_set_tap_time_multi  inv_mpu_dmp_motion_driver.o
    0x08004b28   0x08004b28   0x0000001c   Code   RO         1647    i.fputc             usart.o
    0x08004b44   0x08004b44   0x000000b4   Code   RO         2964    i.get_accel_prod_shift  inv_mpu.o
    0x08004bf8   0x08004bf8   0x0000046c   Code   RO         2965    i.get_st_biases     inv_mpu.o
    0x08005064   0x08005064   0x00000110   Code   RO         2966    i.gyro_self_test    inv_mpu.o
    0x08005174   0x08005174   0x00000028   Code   RO         2967    i.inv_orientation_matrix_to_scalar  inv_mpu.o
    0x0800519c   0x0800519c   0x0000004e   Code   RO         2968    i.inv_row_2_scale   inv_mpu.o
    0x080051ea   0x080051ea   0x00000002   PAD
    0x080051ec   0x080051ec   0x0000000c   Code   RO         3583    i.led_off           led.o
    0x080051f8   0x080051f8   0x0000000c   Code   RO         3584    i.led_on            led.o
    0x08005204   0x08005204   0x00000016   Code   RO         1775    i.main              main.o
    0x0800521a   0x0800521a   0x00000002   Code   RO         2969    i.mget_ms           inv_mpu.o
    0x0800521c   0x0800521c   0x00000070   Code   RO         2970    i.mpu_configure_fifo  inv_mpu.o
    0x0800528c   0x0800528c   0x00000224   Code   RO         2971    i.mpu_dmp_get_data  inv_mpu.o
    0x080054b0   0x080054b0   0x000000a0   Code   RO         2972    i.mpu_dmp_init      inv_mpu.o
    0x08005550   0x08005550   0x0000004c   Code   RO         2973    i.mpu_get_accel_fsr  inv_mpu.o
    0x0800559c   0x0800559c   0x00000054   Code   RO         2975    i.mpu_get_accel_sens  inv_mpu.o
    0x080055f0   0x080055f0   0x00000010   Code   RO         2980    i.mpu_get_fifo_config  inv_mpu.o
    0x08005600   0x08005600   0x00000044   Code   RO         2981    i.mpu_get_gyro_fsr  inv_mpu.o
    0x08005644   0x08005644   0x00000050   Code   RO         2983    i.mpu_get_gyro_sens  inv_mpu.o
    0x08005694   0x08005694   0x00000050   Code   RO         2985    i.mpu_get_lpf       inv_mpu.o
    0x080056e4   0x080056e4   0x00000020   Code   RO         2987    i.mpu_get_sample_rate  inv_mpu.o
    0x08005704   0x08005704   0x000001f0   Code   RO         2989    i.mpu_init          inv_mpu.o
    0x080058f4   0x080058f4   0x000000b8   Code   RO         2990    i.mpu_load_firmware  inv_mpu.o
    0x080059ac   0x080059ac   0x000000e0   Code   RO         2991    i.mpu_lp_accel_mode  inv_mpu.o
    0x08005a8c   0x08005a8c   0x000000c0   Code   RO         2994    i.mpu_read_fifo_stream  inv_mpu.o
    0x08005b4c   0x08005b4c   0x00000080   Code   RO         2995    i.mpu_read_mem      inv_mpu.o
    0x08005bcc   0x08005bcc   0x000001c8   Code   RO         2998    i.mpu_reset_fifo    inv_mpu.o
    0x08005d94   0x08005d94   0x0000011c   Code   RO         2999    i.mpu_run_self_test  inv_mpu.o
    0x08005eb0   0x08005eb0   0x00000084   Code   RO         3001    i.mpu_set_accel_fsr  inv_mpu.o
    0x08005f34   0x08005f34   0x0000014c   Code   RO         3002    i.mpu_set_bypass    inv_mpu.o
    0x08006080   0x08006080   0x00000090   Code   RO         3004    i.mpu_set_dmp_state  inv_mpu.o
    0x08006110   0x08006110   0x00000088   Code   RO         3005    i.mpu_set_gyro_fsr  inv_mpu.o
    0x08006198   0x08006198   0x0000006c   Code   RO         3006    i.mpu_set_int_latched  inv_mpu.o
    0x08006204   0x08006204   0x00000084   Code   RO         3008    i.mpu_set_lpf       inv_mpu.o
    0x08006288   0x08006288   0x0000009c   Code   RO         3009    i.mpu_set_sample_rate  inv_mpu.o
    0x08006324   0x08006324   0x000000d0   Code   RO         3010    i.mpu_set_sensors   inv_mpu.o
    0x080063f4   0x080063f4   0x00000080   Code   RO         3011    i.mpu_write_mem     inv_mpu.o
    0x08006474   0x08006474   0x0000000e   Code   RO         3620    i.myabs             motor.o
    0x08006482   0x08006482   0x00000002   PAD
    0x08006484   0x08006484   0x000000b4   Code   RO         3962    i.oled_task         taskmanage.o
    0x08006538   0x08006538   0x00000374   Code   RO         3963    i.pid_task          taskmanage.o
    0x080068ac   0x080068ac   0x00000098   Code   RO         2328    i.prvAddCurrentTaskToDelayedList  tasks.o
    0x08006944   0x08006944   0x000000b4   Code   RO         2329    i.prvAddNewTaskToReadyList  tasks.o
    0x080069f8   0x080069f8   0x00000064   Code   RO         2330    i.prvCheckTasksWaitingTermination  tasks.o
    0x08006a5c   0x08006a5c   0x0000002a   Code   RO         2171    i.prvCopyDataFromQueue  queue.o
    0x08006a86   0x08006a86   0x0000006a   Code   RO         2172    i.prvCopyDataToQueue  queue.o
    0x08006af0   0x08006af0   0x00000012   Code   RO         2331    i.prvDeleteTCB      tasks.o
    0x08006b02   0x08006b02   0x00000002   PAD
    0x08006b04   0x08006b04   0x0000007c   Code   RO         2642    i.prvHeapInit       heap_4.o
    0x08006b80   0x08006b80   0x00000028   Code   RO         2332    i.prvIdleTask       tasks.o
    0x08006ba8   0x08006ba8   0x00000026   Code   RO         2173    i.prvInitialiseNewQueue  queue.o
    0x08006bce   0x08006bce   0x00000002   PAD
    0x08006bd0   0x08006bd0   0x000000c0   Code   RO         2333    i.prvInitialiseNewTask  tasks.o
    0x08006c90   0x08006c90   0x00000068   Code   RO         2334    i.prvInitialiseTaskLists  tasks.o
    0x08006cf8   0x08006cf8   0x00000068   Code   RO         2643    i.prvInsertBlockIntoFreeList  heap_4.o
    0x08006d60   0x08006d60   0x0000001a   Code   RO         2174    i.prvIsQueueEmpty   queue.o
    0x08006d7a   0x08006d7a   0x0000001e   Code   RO         2175    i.prvIsQueueFull    queue.o
    0x08006d98   0x08006d98   0x00000034   Code   RO         2335    i.prvResetNextTaskUnblockTime  tasks.o
    0x08006dcc   0x08006dcc   0x00000070   Code   RO         2704    i.prvTaskExitError  port.o
    0x08006e3c   0x08006e3c   0x0000007e   Code   RO         2176    i.prvUnlockQueue    queue.o
    0x08006eba   0x08006eba   0x00000002   PAD
    0x08006ebc   0x08006ebc   0x00000154   Code   RO         2644    i.pvPortMalloc      heap_4.o
    0x08007010   0x08007010   0x00000024   Code   RO         2705    i.pxPortInitialiseStack  port.o
    0x08007034   0x08007034   0x00000094   Code   RO         3012    i.run_self_test     inv_mpu.o
    0x080070c8   0x080070c8   0x00000090   Code   RO         3013    i.set_int_enable    inv_mpu.o
    0x08007158   0x08007158   0x0000004c   Code   RO         4360    i.sqrt              m_ws.l(sqrt.o)
    0x080071a4   0x080071a4   0x0000014c   Code   RO         3964    i.start_task        taskmanage.o
    0x080072f0   0x080072f0   0x000000a0   Code   RO         1648    i.uart_init         usart.o
    0x08007390   0x08007390   0x00000028   Code   RO         2122    i.uxListRemove      list.o
    0x080073b8   0x080073b8   0x0000001a   Code   RO         2123    i.vListInitialise   list.o
    0x080073d2   0x080073d2   0x00000006   Code   RO         2124    i.vListInitialiseItem  list.o
    0x080073d8   0x080073d8   0x00000034   Code   RO         2125    i.vListInsert       list.o
    0x0800740c   0x0800740c   0x00000018   Code   RO         2126    i.vListInsertEnd    list.o
    0x08007424   0x08007424   0x00000088   Code   RO         2707    i.vPortEnterCritical  port.o
    0x080074ac   0x080074ac   0x00000070   Code   RO         2708    i.vPortExitCritical  port.o
    0x0800751c   0x0800751c   0x000000b8   Code   RO         2645    i.vPortFree         heap_4.o
    0x080075d4   0x080075d4   0x00000020   Code   RO         2709    i.vPortSetupTimerInterrupt  port.o
    0x080075f4   0x080075f4   0x00000074   Code   RO         2342    i.vTaskDelay        tasks.o
    0x08007668   0x08007668   0x0000010c   Code   RO         2344    i.vTaskDelete       tasks.o
    0x08007774   0x08007774   0x0000000c   Code   RO         2346    i.vTaskMissedYield  tasks.o
    0x08007780   0x08007780   0x00000054   Code   RO         2348    i.vTaskPlaceOnEventList  tasks.o
    0x080077d4   0x080077d4   0x0000004c   Code   RO         2352    i.vTaskSetTimeOutState  tasks.o
    0x08007820   0x08007820   0x000000a4   Code   RO         2353    i.vTaskStartScheduler  tasks.o
    0x080078c4   0x080078c4   0x00000010   Code   RO         2355    i.vTaskSuspendAll   tasks.o
    0x080078d4   0x080078d4   0x000000a8   Code   RO         2356    i.vTaskSwitchContext  tasks.o
    0x0800797c   0x0800797c   0x0000014c   Code   RO         3914    i.velocity          application_pid.o
    0x08007ac8   0x08007ac8   0x000000a0   Code   RO         2711    i.xPortStartScheduler  port.o
    0x08007b68   0x08007b68   0x00000034   Code   RO         2712    i.xPortSysTickHandler  port.o
    0x08007b9c   0x08007b9c   0x00000074   Code   RO         2183    i.xQueueGenericCreate  queue.o
    0x08007c10   0x08007c10   0x000001ac   Code   RO         2184    i.xQueueGenericReceive  queue.o
    0x08007dbc   0x08007dbc   0x000000b0   Code   RO         2185    i.xQueueGenericReset  queue.o
    0x08007e6c   0x08007e6c   0x000001a4   Code   RO         2186    i.xQueueGenericSend  queue.o
    0x08008010   0x08008010   0x000000a0   Code   RO         2357    i.xTaskCheckForTimeOut  tasks.o
    0x080080b0   0x080080b0   0x00000060   Code   RO         2358    i.xTaskCreate       tasks.o
    0x08008110   0x08008110   0x00000020   Code   RO         2361    i.xTaskGetSchedulerState  tasks.o
    0x08008130   0x08008130   0x00000160   Code   RO         2364    i.xTaskIncrementTick  tasks.o
    0x08008290   0x08008290   0x000000b4   Code   RO         2367    i.xTaskRemoveFromEventList  tasks.o
    0x08008344   0x08008344   0x00000120   Code   RO         2369    i.xTaskResumeAll    tasks.o
    0x08008464   0x08008464   0x00000050   Data   RO         3015    .constdata          inv_mpu.o
    0x080084b4   0x080084b4   0x00000bf6   Data   RO         3329    .constdata          inv_mpu_dmp_motion_driver.o
    0x080090aa   0x080090aa   0x000005f0   Data   RO         3698    .constdata          oled.o
    0x0800969a   0x0800969a   0x00000002   PAD
    0x0800969c   0x0800969c   0x0000001c   Data   RO         3836    .constdata          timer.o
    0x080096b8   0x080096b8   0x00000050   Data   RO         4010    .constdata          m_ws.l(asin.o)
    0x08009708   0x08009708   0x00000098   Data   RO         4332    .constdata          m_ws.l(atan.o)
    0x080097a0   0x080097a0   0x00000008   Data   RO         4358    .constdata          m_ws.l(qnan.o)
    0x080097a8   0x080097a8   0x0000004d   Data   RO         3016    .conststring        inv_mpu.o
    0x080097f5   0x080097f5   0x00000003   PAD
    0x080097f8   0x080097f8   0x00000020   Data   RO         4417    Region$$Table       anon$$obj.o


    Execution Region ER_RW (Exec base: 0x20000000, Load base: 0x08009818, Size: 0x000001a4, Max: 0xffffffff, ABSOLUTE, COMPRESSED[0x00000070])

    Exec Addr    Load Addr    Size         Type   Attr      Idx    E Section Name        Object

    0x20000000   COMPRESSED   0x00000014   Data   RW          344    .data               stm32f10x_rcc.o
    0x20000014   COMPRESSED   0x00000004   Data   RW         1362    .data               delay.o
    0x20000018   COMPRESSED   0x00000006   Data   RW         1650    .data               usart.o
    0x2000001e   COMPRESSED   0x00000004   Data   RW         1702    .data               systick.o
    0x20000022   COMPRESSED   0x00000002   PAD
    0x20000024   COMPRESSED   0x00000014   Data   RW         1948    .data               system_stm32f10x.o
    0x20000038   COMPRESSED   0x0000003c   Data   RW         2372    .data               tasks.o
    0x20000074   COMPRESSED   0x00000018   Data   RW         2650    .data               heap_4.o
    0x2000008c   COMPRESSED   0x0000000c   Data   RW         2713    .data               port.o
    0x20000098   COMPRESSED   0x00000035   Data   RW         3017    .data               inv_mpu.o
    0x200000cd   COMPRESSED   0x00000003   PAD
    0x200000d0   COMPRESSED   0x00000010   Data   RW         3837    .data               timer.o
    0x200000e0   COMPRESSED   0x0000008e   Data   RW         3874    .data               usart2.o
    0x2000016e   COMPRESSED   0x00000002   PAD
    0x20000170   COMPRESSED   0x0000001c   Data   RW         3916    .data               application_pid.o
    0x2000018c   COMPRESSED   0x00000014   Data   RW         3965    .data               taskmanage.o
    0x200001a0   COMPRESSED   0x00000004   Data   RW         4394    .data               mc_w.l(errno.o)


    Execution Region ER_ZI (Exec base: 0x200001a4, Load base: 0x08009888, Size: 0x0000304c, Max: 0xffffffff, ABSOLUTE)

    Exec Addr    Load Addr    Size         Type   Attr      Idx    E Section Name        Object

    0x200001a4        -       0x000000c8   Zero   RW         1649    .bss                usart.o
    0x2000026c        -       0x000002e4   Zero   RW         2371    .bss                tasks.o
    0x20000550        -       0x00002800   Zero   RW         2649    .bss                heap_4.o
    0x20002d50        -       0x00000010   Zero   RW         3328    .bss                inv_mpu_dmp_motion_driver.o
    0x20002d60        -       0x00000080   Zero   RW         3873    .bss                usart2.o
    0x20002de0        -       0x0000000c   Zero   RW         3915    .bss                application_pid.o
    0x20002dec   0x08009888   0x00000004   PAD
    0x20002df0        -       0x00000400   Zero   RW         1349    STACK               startup_stm32f10x_md.o


==============================================================================

Image component sizes


      Code (inc. data)   RO Data    RW Data    ZI Data      Debug   Object Name

       984        120          0         28         12       4631   application_pid.o
       220         26          0          4          0       1735   delay.o
       420         24          0          0          0       2847   encoder.o
         0          0          0          0          0       9396   event_groups.o
       752        176          0         24      10240       3859   heap_4.o
      6860        288        157         53          0      31108   inv_mpu.o
      3096        122       3062          0         16      20846   inv_mpu_dmp_motion_driver.o
        76         14          0          0          0       1314   led.o
       148          0          0          0          0       3058   list.o
        22          0          0          0          0      10327   main.o
       172         22          0          0          0     255713   misc.o
       178         18          0          0          0       1623   motor.o
       688          0          0          0          0       6843   mpu6050.o
        80          4          0          0          0        572   mpu_exti.o
       678        104          0          0          0       4874   mpuiic.o
      1032         22       1520          0          0       9469   oled.o
       790        246          0         12          0       9520   port.o
       200         10          0          0          0        667   pwm.o
      1508        160          0          0          0      11686   queue.o
        36          8        236          0       1024        796   startup_stm32f10x_md.o
       148          6          0          0          0        984   stm32f10x_exti.o
       518         10          0          0          0       5167   stm32f10x_gpio.o
        36          0          0          0          0       2951   stm32f10x_it.o
       276         32          0         20          0       4450   stm32f10x_rcc.o
      1568        180          0          0          0      16231   stm32f10x_tim.o
       408          6          0          0          0       5006   stm32f10x_usart.o
       404         72          0          0          0     242010   sys.o
       328         28          0         20          0       2097   system_stm32f10x.o
        92         16          0          4          0       8023   systick.o
      2100        348          0         20          0       4742   taskmanage.o
      2850        768          0         60        740      25524   tasks.o
       220         30         28         16          0       1497   timer.o
       324         26          0          6        200       3660   usart.o
       788         38          0        142        128       2229   usart2.o

    ----------------------------------------------------------------------
     28036       2924       5040        416      12364     715455   Object Totals
         0          0         32          0          0          0   (incl. Generated)
        36          0          5          7          4          0   (incl. Padding)

    ----------------------------------------------------------------------

      Code (inc. data)   RO Data    RW Data    ZI Data      Debug   Library Member Name

       624         52         80          0          0        168   asin.o
       544         70        152          0          0        124   atan.o
       412         38          0          0          0        144   atan2.o
        38          6          0          0          0        272   dunder.o
        40          0          0          0          0         68   fpclassify.o
       170          0          0          0          0         96   poly.o
         0          0          8          0          0          0   qnan.o
        76          0          0          0          0         84   sqrt.o
        86          0          0          0          0          0   __dczerorl2.o
         0          0          0          0          0          0   entry.o
         0          0          0          0          0          0   entry10a.o
         0          0          0          0          0          0   entry11a.o
         4          0          0          0          0          0   entry12b.o
         8          4          0          0          0          0   entry2.o
         4          0          0          0          0          0   entry5.o
         0          0          0          0          0          0   entry7b.o
         0          0          0          0          0          0   entry8b.o
         8          4          0          0          0          0   entry9a.o
        12          6          0          4          0         68   errno.o
        30          0          0          0          0          0   handlers.o
        36          8          0          0          0         68   init.o
         0          0          0          0          0          0   iusefp.o
        98          0          0          0          0         84   ldiv.o
        30          0          0          0          0         68   llshl.o
        36          0          0          0          0         68   llsshr.o
        32          0          0          0          0         68   llushr.o
        26          0          0          0          0         80   memcmp.o
        36          0          0          0          0         68   memcpya.o
        36          0          0          0          0        108   memseta.o
      1142         54          0          0          0        352   printf8.o
        98          0          0          0          0         92   uldiv.o
        48          0          0          0          0         68   cdcmple.o
        20          0          0          0          0         68   cfcmple.o
        20          0          0          0          0         68   cfrcmple.o
        56          0          0          0          0         88   d2f.o
       334          0          0          0          0        148   dadd.o
       222          0          0          0          0        100   ddiv.o
       186          0          0          0          0        176   depilogue.o
       228          0          0          0          0         96   dmul.o
        46          0          0          0          0         80   dscalb.o
       162          0          0          0          0        100   dsqrt.o
        38          0          0          0          0         68   f2d.o
       176          0          0          0          0        140   fadd.o
       124          0          0          0          0         88   fdiv.o
       110          0          0          0          0        168   fepilogue.o
        50          0          0          0          0         68   ffixi.o
        40          0          0          0          0         68   ffixui.o
        18          0          0          0          0         68   fflti.o
        10          0          0          0          0         68   ffltui.o
       100          0          0          0          0         76   fmul.o

    ----------------------------------------------------------------------
      5620        242        240          4          0       3884   Library Totals
         6          0          0          0          0          0   (incl. Padding)

    ----------------------------------------------------------------------

      Code (inc. data)   RO Data    RW Data    ZI Data      Debug   Library Name

      1904        166        240          0          0        956   m_ws.l
      1722         76          0          4          0       1124   mc_w.l
      1988          0          0          0          0       1804   mf_w.l

    ----------------------------------------------------------------------
      5620        242        240          4          0       3884   Library Totals

    ----------------------------------------------------------------------

==============================================================================


      Code (inc. data)   RO Data    RW Data    ZI Data      Debug   

     33656       3166       5280        420      12364     705895   Grand Totals
     33656       3166       5280        112      12364     705895   ELF Image Totals (compressed)
     33656       3166       5280        112          0          0   ROM Totals

==============================================================================

    Total RO  Size (Code + RO Data)                38936 (  38.02kB)
    Total RW  Size (RW Data + ZI Data)             12784 (  12.48kB)
    Total ROM Size (Code + RO Data + RW Data)      39048 (  38.13kB)

==============================================================================

