:020000040800F2
:10000000F03100209D010008611600084D10000825
:100010002D160008310C0008DF2E0008000000003B
:1000200000000000000000000000000005010008C2
:10003000350C000800000000490100087D1F000881
:10004000B7010008B7010008B7010008B7010008B0
:10005000B7010008B7010008B7010008B7010008A0
:10006000B7010008B7010008B7010008B701000890
:10007000B7010008B7010008B7010008B701000880
:10008000B7010008B7010008B7010008B701000870
:10009000B7010008B7010008B7010008390C0008D3
:1000A000B7010008B7010008B7010008B701000850
:1000B0002D230008452300085D230008B701000830
:1000C000B7010008B7010008B7010008B701000830
:1000D000B7010008512A0008D92A0008B701000812
:1000E000B7010008B7010008B7010008DFF810D019
:1000F00000F0ACFC0048004705520008AFF3008058
:10010000F0310020224B19680868B0E8F00F80F346
:100110000988BFF36F8F4FF0000080F311884EF015
:100120000D0E70470000000006480068006880F36C
:10013000088862B661B6BFF34F8FBFF36F8F00DFE1
:1001400000BF00BF08ED00E0EFF30980BFF36F8F41
:100150000F4B1A6820E9F00F106008B54FF05000FF
:1001600080F31188BFF34F8FBFF36F8F07F0B2FB9F
:100170004FF0000080F31188BDE808401968086856
:10018000B0E8F00F80F30988BFF36F8F704700BFAE
:1001900038000020EFF305807047000006488047D4
:1001A00006480047FEE7FEE7FEE7FEE7FEE7FEE75C
:1001B000FEE7FEE7FEE7FEE78D200008ED00000801
:1001C0002DE9F0410024061B254671F1000605DAF1
:1001D00001240027D0EB070067EB0101161E73F125
:1001E000000605DA0027D2EB0702012567EB0303BF
:1001F00000F016FB86460E4617469C46AC4204D0DD
:100200000025D0EB050E65EB010624B10020D2EBF2
:10021000000760EB030C704631463A466346BDE882
:10022000F08140EA01039B0703D009E008C9121FCF
:1002300008C0042AFAD203E011F8013B00F8013BA0
:10024000521EF9D27047D2B201E000F8012B491ECC
:10025000FBD270470022F6E710B513460A46044663
:100260001946FFF7F0FF204610BD30B504460020C8
:10027000034600E05B1C934203D2E05CCD5C401B74
:10028000F8D030BDF0B480EA0102D40F4200B2EBE6
:10029000410F02D20246084611464A0042D0C30D21
:1002A000DDB2C1F3C752AD1A202D35DAC1F3160104
:1002B00041F4000204B15242C5F1200602FA06F1EF
:1002C0002A411044B3EBD05F23D0C4B1012DA0EB81
:1002D000C35009DCF0BC4FF0004202EAC352DBB26B
:1002E00000F5000000F0F7BA400000F1807000EB6C
:1002F000C350A0F1807040EAD170490009E049087C
:1003000041EAC071A0EBC35000F50000400800EBCB
:10031000C350F0BC00F0D6BA6142012202EB4101A9
:10032000001BF6E7F0BC704781F00041AAE780F0BF
:100330000040A7E780EA010210B502F00043400048
:1003400022D04A001FD0010E01EB1261C0F356000B
:10035000C2F3560240F4000042F40002A0FB022067
:1003600000047F39140400D0401C50EA124001D42C
:100370004000491EC2B20C0604EBD010401C4008DD
:10038000802A02D003E0002010BD20F001000029E7
:1003900000DA0020184310BD30B480EA010202F0F8
:1003A000004530F0004221F0004013D090B1C30D61
:1003B000D40DC2F31601C0F31600E41A41F4000193
:1003C00040F400027D34914201D3641C00E04900F6
:1003D000002C02DA30BC002070474FF400000023EC
:1003E000914201D3891A034340084FEA4101F7D1F2
:1003F00051B1914202D14FF0004105E002D24FF0DD
:10040000010101E06FF0010103EBC450284430BC4E
:1004100000F058BA2DE9FE4F804681EA0300C00F74
:100420000C46009021F0004123F00045B8EB02009B
:10043000A94105D24046214690461C460B4602463D
:1004400023F00040104347D0270DC7F30A00C3F341
:100450000A510290401A019040286BDAC3F313004E
:1004600040F4801B0098924620B10023D2EB030A8F
:1004700063EB0B0B01985946C0F14002504600F067
:1004800000FA06460D4650465946019A00F008FA11
:1004900010EB08006141002487EA115284EAE773F7
:1004A0001A4340D0009A62B3019A012A4FEA0752D8
:1004B00015DC001B61EB02014FF0004202EA07521B
:1004C000CDE90042001C41F5801132462B4600F078
:1004D0003FFA03B0BDE8F08F40462146F9E7001B24
:1004E00061EB0201001C41F5801300185B412018EC
:1004F000A2F5001747EB030140EAD570B6196D412C
:1005000011E06D084FEA360645EAC0754FEA07521A
:10051000001B61EB0201001C41F5801149084FEA04
:1005200030000019514132462B4603B0BDE8F04F70
:1005300000F0FFB90098012240000023D0EB020236
:1005400063EBE073009821464FEAE074B8EB0000DB
:1005500061EB0401E9E783F000435BE781F00041D0
:1005600058E72DE9FE4F81EA030404F0004421F02E
:10057000004100944FF0000B23F0004350EA0104C7
:100580005ED052EA03045BD0C3F30A54C1F30A55A8
:100590002C44A4F2F3340194A0FB0254C1F31301E0
:1005A00041F48011C3F3130343F4801301FB0244AD
:1005B00000FB034E840A970A44EA815447EA8357B2
:1005C000A4FB076802958D0A05FB07854FEA932C6B
:1005D00004FB0C542705029D4FEA065847EA1637DC
:1005E000B5EB08056EEB070C870E920E47EA8117F4
:1005F00042EA8312A7FB0201B6EB0B0164EB000495
:100600002B0D43EA0C335E1844EB1C50DA4651467E
:10061000E7FB0201C5F313044FEA0B3343EA14531B
:100620004FEA0432019C43EA0603A4F10C0402944D
:10063000009CCDE900B400F08BF903B0BDE8F08F69
:1006400000200146F9E72DE9F04D81EA030404F0AA
:10065000004B21F0004514464FF0000A23F0004102
:1006600050EA050220D054EA01021DD0C5F30A5712
:100670000246C5F31303C1F31300C1F30A5640F455
:10068000801543F48013A7EB0608101BD64608F22A
:10069000FD3873EB050002D308F1010801E0921860
:1006A0005B41B8F1000F03DA00200146BDE8F08D90
:1006B00000204FF48011064684460EE0171B73EBB2
:1006C000050705D3121B63EB050306434CEA010C37
:1006D00049084FEA300092185B4150EA0107EDD11A
:1006E00052EA030012D082EA040083EA05010843BB
:1006F00005D0101BAB4106D20122002306E00022E8
:100700004FF0004302E06FF0010253101AEB0600B5
:100710004CEB085110EB0A0041EB0B01BDE8F04D2A
:1007200000F007B9C10F80EAE0700844CA079623B9
:10073000002100F0D0B896230022114600F0CBB87B
:1007400000F0004220F00040C10DC0F3160040F45C
:1007500000007F2901DA00207047962903DCC1F1EF
:100760009601C84001E096398840002AF4D0404202
:10077000704720F00040C10DC0F3160040F40000A7
:100780007F2901DA00207047962903DCC1F1960128
:10079000C840704796398840704700F0004230F0FA
:1007A00000400AD0C10D01F56071C0F3160042EAA5
:1007B0000151C208400711437047002001467047AD
:1007C00001F0004330B421F0004150EA010206D0AC
:1007D0000A0DA2F56072C1F31301002A02DC30BCDD
:1007E00000207047440F44EAC104C100E01830BC47
:1007F00000EBC25000F066B8002801DBC0F10040F9
:10080000002901DBC1F1004181427047002801DB72
:10081000C0F10040002901DBC1F10041884270476E
:100820002DE9F05F0546002092469B468846064625
:10083000814640241BE0284641464746224600F0B8
:1008400017F953465A46C01A914110D3114618461B
:10085000224600F016F82D1A67EB01084F46224693
:100860000120002100F00DF817EB00094E41201E79
:10087000A4F10104DFDC484631462A464346BDE880
:10088000F09F202A04DB203A00FA02F10020704792
:100890009140C2F1200320FA03F3194390407047BE
:1008A000202A06DBCB17203A41FA02F043EAE07334
:1008B00006E041FA02F3D040C2F120029140084321
:1008C000194670470029A8BF7047401C490008BF5F
:1008D00020F00100704710B4B0FA80FC00FA0CF070
:1008E00050EA010404BF10BC704749B1CCF12004A8
:1008F00021FA04F411FA0CF118BF01212143084335
:10090000A3EB0C01CB1D4FEA00614FEA102042BF60
:10091000002010BC704700EBC35010440029A4BF56
:1009200010BC7047401C490008BF20F0010010BCFB
:10093000704710B5141E73F1000408DA401C41F131
:10094000000192185B411A4301D120F0010010BD53
:100950002DE9F04D92469B4611B1B1FA81F202E0C9
:10096000B0FA80F220329046FFF78BFF04460F4624
:1009700040EA0A0041EA0B0153465A46084313D0A5
:10098000114653EA010019D0C8F14002504600F068
:100990006FF805460E46504659464246FFF771FF2E
:1009A000084305D0012004E020463946BDE8F08D1B
:1009B0000020054346EAE0762C4337430A98630556
:1009C000E40AA0EB08000022FD0A44EA47540A307A
:1009D00002D500200146E9E7010510196941DDE96A
:1009E000084500196941BDE8F04DA2E770B521F056
:1009F000004303430CD0C1F30A550024D5EB040592
:100A000064EB0403D617AD1AB34102DB00200146A4
:100A100070BD201841EB025170BD000030B5041EBE
:100A200071F1000404DB4FF00044404264EB01012B
:100A3000141E73F1000405DB1C464FF000435242C4
:100A400063EB04038B4208BF824230BD064C074D66
:100A500006E0E06840F0010394E80700984710348E
:100A6000AC42F6D3FFF746FBF89700081898000849
:100A7000202A04DB203A21FA02F00021704721FAF3
:100A800002F3D040C2F1200291400843194670475A
:100A90002DE9F04D00231A461B1A8A4103DB002082
:100AA0000146BDE8F08DC1F30A52C1F3130141F4D0
:100AB00080154FF0000BD10702D100186D41521E76
:100AC0000027044640F2FF11384601EB620A3E4619
:100AD0008046024600204FF48011FFF7C9FFC2197B
:100AE0007141BB1846EB0100B4EB030C75EB000C35
:100AF00004D3E41A65EB000517460E46241908F1E5
:100B000001006D4180463428E3DDF91946EB06000B
:100B1000091BA84103D24FF0FF32134601E0002227
:100B200013461BEB070046EB0A51BDE8F04DFFF7FB
:100B300000BF70B58C1810F8015B15F0070301D1E8
:100B400010F8013B2A1106D110F8012B03E010F830
:100B5000016B01F8016B5B1EF9D12B0705D4002353
:100B6000521E0DD401F8013BFAE710F8013BCB1AF5
:100B7000921C03E013F8015B01F8015B521EF9D5EA
:100B8000A142D8D3002070BD10B586B00446012123
:100B9000042001F065F80121102001F061F8012125
:100BA000480401F04DF80420ADF8140003208DF83E
:100BB000160018208DF8170005A91A4800F062F9F0
:100BC0000820ADF8140004208DF8170005A9154879
:100BD00000F058F94FF40050ADF8140004208DF8DF
:100BE000170005A9104800F04DF901940020ADF858
:100BF0000800ADF80A00ADF80C00ADF810000C20AC
:100C0000ADF80E0001A9094802F0F8F8012240F2FF
:100C10002551064802F0CCF80121044802F092F870
:100C200006B010BD00080140001001400044004023
:100C300000BFFEE77047000010B52021094800F012
:100C4000F5F968B9202008490860084A111F081FF3
:100C500004F01CFB20B9064A911E881E00F03AFAE7
:100C600010BD0000000C014014040140E82D0020DC
:100C700078010020002123498279002A3AD00A46CF
:100C8000126803689A430B461A600A1D12680368CB
:100C90009A430B1D1A60027911440A6803681A43CB
:100CA0000A60184A0832126803689A43154B0833E1
:100CB0001A601A1D126803689A43124B0C331A60AB
:100CC0004279102A0ED11A1F126803681A430D4B7D
:100CD00008331A601A1D126803681A43094B0C3353
:100CE0001A600DE00749427911440A6803681A4303
:100CF0000A6005E0027911440A6803689A430A60B1
:100D0000704700000004014000B587B0012108468B
:100D100000F096FF0121042000F0A2FF0320ADF8AF
:100D2000000004208DF8030069461E4800F0AAF870
:100D300004A801F06BFD0020ADF810004FF6FF7025
:100D4000ADF814000020ADF81600ADF8120004A9AB
:100D50004FF0804001F008FD00231A4603214FF0B8
:100D6000804001F096FB01A801F01CFC0A20ADF8C0
:100D70000C0001A9400701F0BFFB0121880701F029
:100D800067FB01221146900701F015FC00214FF08E
:100D9000804001F0BAFC0121880701F05FFB07B039
:100DA00000BD00000008014000B587B0012102200D
:100DB00000F046FF0121042000F052FFC020ADF8F2
:100DC000000004208DF8030069461C4800F05AF822
:100DD00004A801F01BFD0020ADF810004FF6FF70D5
:100DE000ADF814000020ADF81600ADF8120004A90B
:100DF000134801F0B9FC00231A460321104801F002
:100E000048FB01A801F0CEFB0A20ADF80C0001A9B7
:100E10000B4801F071FB0121094801F019FB012287
:100E20001146074801F0C7FB0021054801F06DFCA1
:100E30000121034801F012FB07B000BD000801408A
:100E40000004004030B500228B071C0F0F2303FA6B
:100E500004F20B4B8C1053F824309343084C8D1044
:100E600044F8253023468C1053F824308C07240F87
:100E700000FA04F42343024C8D1044F8253030BDB1
:100E8000080001402DE9F04102460025002600201F
:100E900000230024002791F803C00CF00F0591F8FF
:100EA00003C00CF0100CBCF1000F03D091F802C08D
:100EB0004CEA050591F800C0BCF1000F31D0146870
:100EC00000202BE04FF0010C0CFA00F3B1F800C049
:100ED0000CEA03069E4220D183004FF00F0C0CFA5F
:100EE00003F7BC4305FA03FC4CEA040491F803C081
:100EF000BCF1280F06D14FF0010C0CFA00FCC2F82F
:100F000014C00AE091F803C0BCF1480F05D14FF0BE
:100F1000010C0CFA00FCC2F810C0401C0828D1D308
:100F20001460B1F800C0BCF1FF0F34DD546800203C
:100F30002EE000F1080C4FF0010808FA0CF3B1F8AC
:100F400000C00CEA03069E4221D183004FF00F0C33
:100F50000CFA03F7BC4305FA03FC4CEA040491F8CD
:100F600003C0BCF1280F05D100F1080C08FA0CF8F9
:100F7000C2F8148091F803C0BCF1480F07D100F10A
:100F8000080C4FF0010808FA0CF8C2F81080401C59
:100F90000828CED35460BDE8F0810000F0B50A46C1
:100FA000002300240021002500F00046B6F1004F88
:100FB00002D11D4EF16901E01B4E7168C0F303457B
:100FC00083B200F44016B6F5401F08D121F07061DD
:100FD000154E766826F07066134F7E6012E000F4BE
:100FE0008016B6F5801F06D1032606FA05F4A14344
:100FF00041F0706106E0460D360103FA06F6B14392
:1010000041F0706122B1460D360103FA06F6314314
:1010100000F00046B6F1004F02D1034EF16101E04D
:10102000014E7160F0BD000000000140024600204A
:1010300093680B400BB1012000E000207047016174
:1010400070470AB1016100E04161704700BFFEE7EF
:1010500008B50121082000F003FE10208DF80300E0
:1010600003208DF802000120ADF800006946044815
:10107000FFF708FF01210248FFF7E1FF08BD00006C
:10108000000C01400EB50121084600F0E9FD0121E8
:10109000082000F0E5FD2020ADF8080048208DF87C
:1010A0000B0002A90A48FFF7EDFE05210120FFF71A
:1010B000C9FE2020009000208DF804000C208DF83F
:1010C000050001208DF806006846FFF7D3FD0EBD30
:1010D000000C01402DE9FC4104460D4616466B46C6
:1010E00006224321682000F0CBF90746BFB99DF8DE
:1010F00001009DF8001040EA012000B220809DF818
:1011000003009DF8021040EA012000B228809DF8FB
:1011100005009DF8041040EA012000B230803846F6
:10112000BDE8FC8110B500200E4908600E4800683B
:1011300020F470200C4908600846006840F44030F4
:10114000086000200949C1F8900100F011F8012061
:101150000449086000F00CF800200449C1F88C0133
:1011600010BD00008C812142000C01400080214212
:1011700010B5022002F0D8FE10BD000008B5012114
:10118000092000F06DFD01210C48FFF707FF012148
:10119000082000F065FD1820ADF8000010208DF843
:1011A000030003208DF8020069460548FFF76AFE38
:1011B00018210348FFF743FF08BD0000000230007C
:1011C000000C014010B500200E4908600E48006870
:1011D00020F470200C4908600846006840F4403054
:1011E000086001200949C1F89001FFF7C1FF012003
:1011F00004490860FFF7BCFF00200449C1F88C01D6
:1012000010BD00008C812142000C01400080214271
:1012100070B5054600241648006820F47020144973
:1012200008600846006840F400200860002614E0CA
:10123000002010490860FFF79BFF01200E49C1F80C
:101240008C016006040E0B487C38006808B1601CF5
:10125000C4B2FFF78DFF701CC6B2082EE8DB15B9CB
:10126000FFF7B0FF01E0FFF75DFF204670BD000013
:10127000000C01408C8121420080214270B504465F
:101280001248006820F47020104908600846006881
:1012900040F44030086000200D490860002512E04D
:1012A000E0090B49091D08606006040E0120094988
:1012B000C1F88C01FFF75CFF002005490860FFF7CB
:1012C00057FF681CC5B2082DEADB70BD000C014059
:1012D0008C8121420080214210B50E48006820F424
:1012E00070200C4908600846006840F440300860EF
:1012F0000120094908600949C1F88C01FFF738FF4E
:10130000002005490860FFF733FF00200349C1F8BA
:101310008C0110BD000C01409081214200802142CF
:1013200010B50E48006820F470200C49086008468B
:10133000006840F44030086000200949086009490D
:10134000C1F89001FFF714FF012005490860054925
:10135000C1F89001FFF70CFF10BD0000000C014028
:101360008C8121420080214210B50024144800687D
:1013700020F47020124908600846006840F40020FC
:10138000086001200F490860FFF7F2FE01200E49B6
:10139000C1F88C01FFF7ECFE07E0601CC4B2FA2C28
:1013A00003DDFFF7BDFF012010BD0648803800684F
:1013B0000028F2D10349091F086000BFF4E70000CC
:1013C000000C0140908121420080214210B5FFF7BE
:1013D000D5FE80216B2000F0D7F8322002F07EFD90
:1013E00000216B2000F0D0F8032000F08BF80020E3
:1013F00000F080F8C82000F0AAF80021382000F0A2
:10140000C3F800216A2000F0BFF80021232000F07B
:10141000BBF88021372000F0B7F8752000F013F8F2
:101420000446682C0BD101216B2000F0ADF800219F
:101430006C2000F0A9F8C82000F089F801E0012034
:1014400010BD0020FCE770B50446FFF745FFD02033
:10145000FFF714FFFFF788FF2046FFF70FFFFFF7A6
:1014600083FFFFF739FFD120FFF708FFFFF77CFF6D
:101470000020FFF7CDFE0546FFF752FF284670BD5E
:101480002DE9F04106460F4614461D46FFF724FF9E
:10149000002141EA4601C8B2FFF7F0FEFFF764FF02
:1014A00020B1FFF73DFF0120BDE8F0813846FFF78E
:1014B000E5FEFFF759FFFFF70FFF012101EB4601A2
:1014C000C8B2FFF7DBFEFFF74FFF0DE0012C04D1A0
:1014D0000020FFF79DFE287003E00120FFF798FE33
:1014E0002870601EC4B26D1C002CEFD1FFF718FFEE
:1014F0000020D9E710B50446E006010E1C2000F0DC
:1015000043F810BD10B50446E006010E1B2000F0A4
:101510003BF810BD70B504460025BC2C01DB01254D
:1015200010E0622C01DB02250CE02A2C01DB0325F4
:1015300008E0142C01DB042504E00A2C01DB05255E
:1015400000E0062529461A2000F01EF870BD70B58F
:101550000446B4F57A7F01DD4FF47A74042C00DA86
:1015600004244FF47A7090FBF4F0401EC5B2294673
:10157000192000F009F80546264604EBD671C1F3A0
:101580004F00FFF7C7FF70BD70B505460C46FFF76B
:10159000A3FED020FFF772FEFFF7E6FE18B1FFF7BB
:1015A000BFFE012070BD2846FFF768FEFFF7DCFE96
:1015B0002046FFF763FEFFF7D7FE18B1FFF7B0FE36
:1015C0000120EFE7FFF7ACFE0020EBE72DE9F0414B
:1015D00005460E4617469846FFF77EFE002141EA73
:1015E0004501C8B2FFF74AFEFFF7BEFE20B1FFF784
:1015F00097FE0120BDE8F0813046FFF73FFEFFF780
:10160000B3FE00240CE018F80400FFF737FEFFF7E4
:10161000ABFE18B1FFF784FE0120EBE7601CC4B2FB
:10162000BC42F0DBFFF77CFE0020E3E700BFFEE7F3
:1016300008B50121082000F013FB10208DF80300ED
:101640004FF47040ADF8000003208DF802006946A9
:101650000248FFF717FC00F08FFA08BD000C0140AC
:10166000704708B54FF4407000F076F817208DF8F9
:10167000000007208DF8010000208DF802000120F5
:101680008DF80300684600F02FF81E208DF800004A
:1016900008208DF8010000208DF8020001208DF84F
:1016A0000300684600F020F826208DF80000062090
:1016B0008DF8010000208DF8020001208DF8030054
:1016C000684600F011F825208DF8000009208DF8FB
:1016D000010000208DF8020001208DF8030068460B
:1016E00000F002F808BD000070B5002100230F22B1
:1016F000C47804B3154C246804F4E064C4F5E064D1
:10170000210AC1F10403CA40447804FA03F1847841
:101710001440214309010E4C0678A155047804F0C9
:101720001F050124AC4005786D11AD0005F1E025E1
:10173000C5F8004109E0047804F01F050124AC401D
:10174000044D0678761145F8264070BD0CED00E09A
:1017500000E400E080E100E002490143024A116038
:10176000704700000000FA050CED00E070B50024A1
:101770000EE00021204600F02AF9002504E00020B8
:1017800000F0E9F9681CC5B2802DF8DB601CC4B21A
:10179000082CEEDB70BD2DE9F05F06460F46904643
:1017A0001C46DDF828A04FF0000BE11704EB517147
:1017B000C910A4EBC10131B92046E11704EB517106
:1017C000C1F3C70506E02046E11704EB5171C910CB
:1017D000491CCDB23D4614E03146284600F0F7F8EA
:1017E000B1460AE059460BF1010B1AF8010000F06E
:1017F000B2F909F1010000F0FF09C145F2DB681CF4
:10180000C5B2A542E8DBBDE8F09F000008B50121A4
:10181000082000F025FA14208DF8030003208DF82D
:1018200002004FF48070ADF8000069460A48FFF7E7
:1018300029FB4FF40070ADF8000069460648FFF739
:1018400021FB012251020448FFF7FBFB0122110298
:101850000148FFF7F6FB08BD000C014070B50546D6
:10186000002415E08020204100EA05024FF4807139
:101870000E48FFF7E6FB012251020C48FFF7E1FB9F
:1018800000224FF400710948FFF7DBFB601CC4B273
:10189000082CE7DB012251020448FFF7D2FB0022AB
:1018A0004FF400710148FFF7CCFB70BD000C014004
:1018B00010B5012211020A48FFF7C3FB01225102B1
:1018C0000748FFF7BEFB00224FF480710448FFF782
:1018D000B8FB00224FF400710148FFF7B2FB10BDC6
:1018E000000C014010B500224FF480710648FFF74C
:1018F000A8FB012251020448FFF7A3FB01221102B9
:101900000148FFF79EFB10BD000C014070B500249C
:1019100006E0002500E06D1CB5F57A7FFBD3641C62
:10192000B4F57A7FF5D3FFF771FFAE2000F003F92D
:10193000D52000F000F9802000F0FDF8A82000F08C
:10194000FAF83F2000F0F7F8D32000F0F4F8002078
:1019500000F0F1F8402000F0EEF8A12000F0EBF8E4
:10196000C82000F0E8F8DA2000F0E5F8122000F0D6
:10197000E2F8812000F0DFF8CF2000F0DCF8D92079
:1019800000F0D9F8F12000F0D6F8DB2000F0D3F811
:10199000302000F0D0F8A42000F0CDF8A62000F010
:1019A000CAF88D2000F0C7F8142000F0C4F8AF206A
:1019B00000F0C1F8FFF7DAFE70BD10B50246012055
:1019C00000E050430B1EA1F10101FAD110BD70B52A
:1019D00005460C4645F0B00000F0ADF8102141EA94
:1019E000141000F0A8F804F00F0000F0A4F870BD87
:1019F0002DE9F04105460E461746721ED206110E1D
:101A00006A1E5206100EFFF7E2FF002409E0A7F15C
:101A10002001134A02EB0111085D00F09CF8601CE4
:101A2000C4B2082CF3DB721ED206110E6A1E01230B
:101A300003EB4202D0B2FFF7CAFF00240BE0A7F18C
:101A40002001074A02EB011204F10801505C00F08A
:101A500082F8601CC4B2082CF1DBBDE8F081000004
:101A6000AA9000082DE9F04780460E4617461D460D
:101A7000002415E0281B411E0A20FFF79EFFB7FB3C
:101A8000F0F00A21B0FBF1F201FB120000F1300985
:101A90003019C1B24A464046FFF7AAFF601CC4B2E3
:101AA000AC42E7DBBDE8F0872DE9F0478146884688
:101AB00015461E46002D06DB2B2241464846FFF701
:101AC00097FF2F4605E02D2241464846FFF790FF3D
:101AD0006F42002417E0301B411E0A20FFF76DFF04
:101AE000B7FBF0F00A21B0FBF1F201FB120000F1AC
:101AF000300A08EB0400401CC1B252464846FFF7CA
:101B000077FF601CC4B2B442E5DBBDE8F0872DE985
:101B1000F04107460E461546002407E02A5D3019BD
:101B2000C1B23846FFF764FF601CC4B2285D0028CC
:101B3000F4D1BDE8F08110B50446FFF7B9FE782076
:101B4000FFF78CFE0020FFF789FE2046FFF786FE98
:101B5000FFF7C8FE10BD10B50446FFF7A9FE7820B8
:101B6000FFF77CFE4020FFF779FE2046FFF776FE68
:101B7000FFF7B8FE10BD000000B589B001210420B8
:101B800000F06EF818208DF823004FF41060ADF8C7
:101B9000200003208DF8220008A92748FFF772F9DA
:101BA0000121C80200F05CF80020ADF81A00ADF881
:101BB000160041F61F40ADF818000020ADF81400E3
:101BC0008DF81C0005A91D4800F0CEFD6020ADF881
:101BD00004004FF48070ADF810000020ADF8120042
:101BE000ADF80C00ADF80E000120ADF806000420A1
:101BF000ADF808000020ADF80A0001A90F4800F078
:101C0000E3FC01A90D4800F035FD01210B4800F06F
:101C100031FC0821094800F023FD0821074800F0A5
:101C200067FD0121054800F007FC0121034800F091
:101C300015FC09B000BD000000080140002C014067
:101C400029B1064AD2690243044BDA6104E0034A2F
:101C5000D2698243014BDA617047000000100240F4
:101C600029B1064A92690243044B9A6104E0034A8F
:101C700092698243014B9A61704700000010024054
:101C800030B500210022002400232D4D6D6805F0A1
:101C90000C0121B1042905D0082923D105E0294DE3
:101CA000056022E0274D05601FE0254D6D6805F4B5
:101CB0007012234D6D6805F48034022505EB9242C5
:101CC0001CB9214D554305600BE01D4D6D6805F4B1
:101CD00000351DB11C4D5543056002E0194D5543BB
:101CE000056002E0174D056000BF00BF144D6D6830
:101CF00005F0F0010909154D6B5C0568DD40456094
:101D00000F4D6D6805F4E061090A104D6B5C456884
:101D1000DD4085600A4D6D6805F46051C90A0B4DC0
:101D20006B5C4568DD40C560054D6D6805F440415C
:101D3000890B074D6B5CC568B5FBF3F5056130BDDC
:101D40000010024000127A0000093D00000000204F
:101D5000100000200146022902D0032910D108E01A
:101D60004FF08042928C10B200224FF080439A8450
:101D700008E0054A128810B20022034B1A8001E0E5
:101D8000002000BF00BF7047240400403EB500247F
:101D900016A2D2E900109268CDE90102009100BFBD
:101DA0001AE0002C0CDD042C0ADAC82002F096F8A8
:101DB0001DF80420E01CC1B20220FFF719FE09E063
:101DC000C82002F08BF81DF80420E01CC1B20220EC
:101DD000FFF70EFE601CC4B20B2CE2DB4FF4FA706E
:101DE00002F07CF8FFF7C2FC3EBD000042616C616E
:101DF0006E63655F4361720010B500F001F810BDBD
:101E00000CB50020019000903348006840F4803009
:101E10003149086000BF3048006800F4003000908D
:101E20000198401C0190009818B90198B0F5A06F76
:101E3000F1D12948006800F4003010B10120009071
:101E400001E0002000900098012843D12348006859
:101E500040F01000214908600846006820F00300A7
:101E600008600846006840F0020008601A484068B0
:101E7000194948600846406848600846406840F490
:101E8000806048600846406820F47C10486008463E
:101E9000406840F4E81048600846006840F08070F0
:101EA000086000BF0C48006800F000700028F9D0FE
:101EB0000948406820F00300074948600846406828
:101EC00040F00200486000BF0348406800F00C008A
:101ED0000828F9D10CBD000000100240002002408B
:101EE00000B503460A46002B07DA002016490860B1
:101EF00001201649C1F8B00106E00120124908602E
:101F000000201249C1F8B001184604F0B3FA104994
:101F10000880002A08DA00200B49091D086001200A
:101F20000A49C1F8BC0107E001200749091D086002
:101F300000200649C1F8BC01104604F09BFA044990
:101F40000C31088000BD0000B48121420080214294
:101F5000342C0140042808D14FF0E021096941F0F8
:101F600004014FF0E022116107E04FF0E021096920
:101F700021F004014FF0E0221161704710B506F026
:101F8000C7F8012801D005F0EFFD10BD70B505467A
:101F90000420FFF7DFFF104800681049B0FBF1F0A4
:101FA0000F4908700C4800680C49B0FBF1F44FF47D
:101FB0007A70444301200B4908804FF0E02000690B
:101FC00040F002004FF0E0210861084644610069DA
:101FD00040F00100086170BD2400002040420F0065
:101FE0001E0000202000002010B5FFF73AFB01F092
:101FF00053FFFFF71DFBFFF789FCFFF7B7FB4FF41B
:102000007A7001F06BFFFFF7C1FE4FF4E13005F08D
:102010006FF94FF4E130FEF7B7FDFEF775FEFEF7FE
:10202000C3FEFFF715F841F61F4142F20F7000F0B2
:10203000E3F9FFF7CBF9FFF725F802E005A000F080
:1020400077FF03F035FA0028F8D109A000F070FFFF
:1020500010BD0000496E697469616C697A617469C8
:102060006F6E206661696C6564A3A10D0A000000B3
:10207000496E697469616C697A6174696F6E207305
:10208000756363656564A3A10D0A000010B513486C
:10209000006840F001001149086008464068104996
:1020A00008400E494860084600680E4908400B4940
:1020B00008600846006820F48020086008464068F0
:1020C00020F4FE0048604FF41F008860FFF794FE84
:1020D0004FF000600449086010BD0000001002408D
:1020E0000000FFF8FFFFF6FE08ED00E0F0B50C463B
:1020F000154600220021068C4FF6FE773E400684EE
:10210000028B018C4FF60C7632407E1C06EA0316D9
:102110002E433243104EB0420ED0104EB0420BD080
:10212000B0F1804F08D00E4EB04205D00D4EB042F7
:1021300002D00D4EB04206D14FF6FD76314044F04C
:102140000106314305E04FF6F576314044F00106D3
:10215000314302830184F0BD002C01400034014072
:102160000004004000080040000C0040F0B50C46A0
:102170001546002200210026078C4FF6EF7C07EA67
:102180000C070784028B018C4FF6FF7707EA0416D1
:1021900040F6FF473A404FF6FF7707EA03373A43E6
:1021A0004FF6FF7707EA05273A43114FB8420ED0A2
:1021B000104FB8420BD0B0F1804F08D00E4FB8424C
:1021C00005D00E4FB84202D00D4FB84206D14FF69F
:1021D000DF77394046F01007394305E04FF65F7767
:1021E000394044F01007394302830184F0BD0000F8
:1021F000002C014000340140000400400008004071
:10220000000C0040F0B50C461546002200210026C7
:10221000078C4FF6FF6C07EA0C070784828B018C52
:102220004FF6FF7707EA04264FF60C773A404FF651
:10223000FF7707EA03172F433A43114FB8420ED0F6
:10224000104FB8420BD0B0F1804F08D00E4FB842BB
:1022500005D00E4FB84202D00D4FB84206D14FF60E
:10226000FF57394046F48077394305E04FF2FF5776
:10227000394044F48077394382830184F0BD000003
:10228000002C0140003401400004004000080040E0
:10229000000C0040F0B50C46154600220021002637
:1022A000078C4EF6FF7C07EA0C070784828B018CB3
:1022B0004FF6FF7707EA043640F6FF473A404FF6FD
:1022C000FF7707EA05273A434FF6FF7707EA033718
:1022D0003A43114FB8420ED0104FB8420BD0B0F174
:1022E000804F08D00E4FB84205D00E4FB84202D0F2
:1022F0000D4FB84206D14DF6FF77394046F480576E
:10230000394305E047F6FF57394044F480573943D5
:1023100082830184F0BD0000002C014000340140A4
:102320000004004000080040000C00404FF08040D6
:10233000008A4FF08040008A20F001004FF0804179
:1023400008827047044800880348008820F0010094
:1023500001490880704700001004004000B587B0B4
:102360001F4B0FCBCDE90523CDE903011C4A1032E9
:1023700007CA8DE8070001211A4800F0ABF860B3E6
:102380000121184800F067F817490868C11700EBE9
:1023900091718910A0EB8101134A116003A81146C5
:1023A000096850F821001149086010460068401C77
:1023B000114608600E480068032190FBF1F201FB12
:1023C00012000B49086009685DF82100094908609E
:1023D00007480068401C0649086007B000BD0000BF
:1023E0009C96000800080040D8000020D000002083
:1023F000DC000020D40000203EB505460C4601213B
:102400000420FFF71DFCADF80450ADF8004000209B
:10241000ADF80600ADF802006946064800F0A4F9E0
:102420000121044800F014F801221146014800F08F
:10243000C2F83EBD0008004021B1028842F080028F
:10244000028004E002884FF67F731A4002807047D2
:10245000CA4302827047CA430282704721B1028890
:1024600042F00102028004E002884FF6FE731A4037
:102470000280704731B1B0F8442042F40042A0F825
:10248000442005E0B0F84420C2F30E02A0F8442036
:102490007047F0B50C4615461E4600210022002369
:1024A0000189028B038C4FF6F877394021434FF6B0
:1024B000FC473A4040F201173A434FF6DD773B4084
:1024C0004FF6FF7707EA06172F433B43018102834C
:1024D0000384F0BD30B50246002000230024158A95
:1024E00005EA0103958905EA010413B10CB1012045
:1024F00000E0002030BD000070B505460C462448C1
:1025000085420ED0234885420BD0B5F1804F08D0CC
:102510002148854205D02148854202D02048854285
:1025200000D100E000BF208850B92389A2886188CB
:102530002846FFF7DBFDE188284600F0E8F825E0B3
:10254000208804280AD12389A28861882846FFF7B9
:102550000DFEE188284600F0E3F817E020880828FF
:102560000AD12389A28861882846FFF74BFEE188BB
:10257000284600F0E2F809E02389A288618828460D
:10258000FFF788FEE188284600F0E0F870BD000003
:10259000002C0140003401400004004000080040CD
:1025A000000C004000210180418001218180002138
:1025B000C180018170471AB183890B43838102E096
:1025C00083898B438381704770B5002400220023E8
:1025D000058C4FF6FE7635400584028C8388048B8B
:1025E0004FF68F752C40B51E2C400D882C43751E60
:1025F0002A400D892A434D882A43144DA8420BD006
:10260000134DA84208D0134DA84205D0124DA84240
:1026100002D0124DA84213D14FF6F7752A404D89CA
:102620002A434FF6FB752A408D882A434FF6FF65F3
:102630002B404FF6FF552B408D892B43CD892B43E3
:1026400083800483CD888586028470BD002C014080
:102650000034014000400140004401400048014076
:102660000A460021018B4FF6F7731940114301838D
:102670007047000070B5002200230024058C4EF640
:10268000FF7635400584038C8488828B48F6FF757D
:102690002A404FF6FF452A400D884FF6FF7606EA9E
:1026A00005252A434DF6FF752B400D8906EA0535B1
:1026B0002B434D8806EA05352B430B4DA84202D02B
:1026C0000A4DA84208D14BF6FF752C408D894FF674
:1026D000FF7606EA85152C4384808283CD88A0F896
:1026E0004050038470BD0000002C014000340140C4
:1026F0000A460021818B4FF2FF7319404FF6FF739A
:1027000003EA022319438183704781847047028B57
:102710004FF6F3731A400283028B0A430283704719
:10272000028B4FF2FF331A400283028B4FF6FF7386
:1027300003EA01231A4302837047828B4FF6F37337
:102740001A408283828B0A4382837047828B4FF2C6
:10275000FF331A408283828B4FF6FF7303EA012313
:102760001A43828370470000002202881D4B984262
:102770000ED01D4B98420BD0B0F1804F08D01B4BB0
:10278000984205D01A4B984202D01A4B984204D175
:102790004FF68F731A404B881A43174B984207D055
:1027A000164B984204D04FF6FF431A40CB881A4389
:1027B00002808B8883850B8803850A4B98420BD057
:1027C000094B984208D00E4B984205D00D4B9842C9
:1027D00002D00D4B984201D10B7A038601238382EC
:1027E00070470000002C014000340140000400400C
:1027F00000080040000C00400010004000140040A1
:102800000040014000440140004801404FF6FF7184
:10281000818000210180C1804180017270470000E9
:102820001CB50548012100234A02CDE9001003A18F
:10283000054805F03DFC1CBD8C01002073746172DD
:10284000745F7461736B0000A57100082DE9FE4F81
:1028500007460E46DFF8D08100247448007800F067
:102860002000202808D172480068B43090B1704828
:10287000006800F5877068B16C48007800F01000BF
:1028800010281AD16B480068783018B16948006880
:10289000F03090B9684988686849FDF7ADFF0CD8F9
:1028A000654988680021FDF7B1FF06D26249886852
:1028B0006349FDF739FD604988605C48007800F0A5
:1028C000200020280ED15A480068FDF72BFF8246D1
:1028D000594881685046FDF72AFD8146FDF730FFD3
:1028E000044613E05148007800F0100010280DD184
:1028F00050480068FDF716FF82464F4881685046F1
:10290000FDF715FD8146FDF71BFF0446474800789B
:1029100000F02000202808D114F1140F05DB142C3E
:1029200003DC01214748FFF799FD4048007800F09B
:102930002000202807D1462C05DB6E2C03DC00216B
:102940004048FFF78BFD3948007800F01000102850
:1029500008D114F1140F05DB142C03DC01213948D4
:10296000FFF77CFD3148007800F01000102807D1F7
:10297000642C05DB8C2C03DC00213248FFF76EFD54
:102980002A48007800F02000202805D02748007849
:1029900000F0100010282BD12046FDF7C3FE824620
:1029A000294801682948FDF7C5FC83465146FDF7D3
:1029B000C1FC01903046FDF7B5FE41460090FDF7A1
:1029C000B9FC82463846FDF7ADFE00901E4801680E
:1029D0000098FDF7AFFC83465146FDF753FC814656
:1029E0000199FDF7A1FC0290FDF7AAFE054618E04B
:1029F0003046FDF797FE41460290FDF79BFC82466C
:102A00003846FDF78FFE02900F4801680298FDF7E7
:102A100091FC83465146FDF735FC8146FDF790FE5B
:102A200005462846BDE8FE8F00000C4260010020EC
:102A3000D0000020D4000020E02D0020000034430E
:102A40000000B44300080040700100200000A042D4
:102A500010B540F225511D4800F080F910B31B4815
:102A600000F038FAC4B21A48008800F40040C8B92F
:102A70001748008800F4804060B10A2C03D0002081
:102A80001349088020E01248008840F400401049B3
:102A9000088019E00D2C06D10D48008840F48040D4
:102AA0000B49088010E00A480088C0F30D0009496E
:102AB0000C5407480088401C0549088008460088D7
:102AC000C72801DD0020088010BD0000003801404B
:102AD0001C000020A401002010B540F225519348AD
:102AE00000F03CF9002812D0904800F0F3F990492A
:102AF00008600846006801280AD18E48008800F561
:102B000000408D490988084400B28C4908800BE1D7
:102B10008748006802280AD18648008800F580406E
:102B200085490988084400B284490880FCE080484F
:102B3000006803280AD17F48008800F500507E49CC
:102B40000988084400B27D490880EDE078480068B3
:102B500004280AD17748008800F580507649098812
:102B6000084400B275490880DEE071480068062814
:102B700009D14FF400606F4908800846B0F90000A1
:102B80006E490880D0E06A480068072809D14FF4F0
:102B90008060684908800846B0F9000067490880ED
:102BA000C2E063480068082808D1800161490880B4
:102BB0000846B0F9000061490880B5E05C4800684B
:102BC000882808D100205B4908800846B0F9000039
:102BD0005A490880A8E05648006811280AD1802088
:102BE00057490880534800880988084400B253496F
:102BF000088099E04E48006812280AD10020504908
:102C000008804C4800880988084400B24B49088075
:102C10008AE04748006813280AD1402048490880C4
:102C2000444800880988084400B2444908807BE091
:102C30003F48006814280AD10020414908803D48D7
:102C400000880988084400B23C4908806CE0384894
:102C5000006815280CD102203749088035480088C3
:102C6000374909880844801C00B2344908805BE079
:102C70002F48006816280BD100202F4908802D48C6
:102C800000882F490988084400B22C4908804BE08D
:102C900027480068172809D127480088254909884E
:102CA0000844203000B2254908803DE020480068F3
:102CB000182808D1204800881E490988084400B215
:102CC0001E49088030E01A480068192809D11A48BE
:102CD0000088184909880844103000B21749088054
:102CE00022E0134800681A2808D1134800881149C7
:102CF0000988084400B21149088015E00C480068B2
:102D00001B2803D108200D4908800DE00848006801
:102D10001C2803D100200949088005E00448006808
:102D200010B900200549088010BD00000044004093
:102D300064010020680100206A0100206001002079
:102D40006C01002021B1828942F40052828104E0AA
:102D500082894DF6FF731A408281704770B5024632
:102D6000002400230025002040F66A16B14200D15D
:102D700000BFC1F3421501F01F03012606FA03F359
:102D8000012D02D19689334006E0022D02D1168A28
:102D9000334001E0968A33400C12012606FA04F40F
:102DA0001688344013B10CB1012000E0002070BD42
:102DB000F0B50346002400260025002040F66A17DF
:102DC000B94200D100BF1846C1F3421401F01F06FA
:102DD000012707FA06F5012C01D10C3004E0022C82
:102DE00001D1103000E014301AB107682F4307609A
:102DF00002E00768AF430760F0BD00002DE9F0472F
:102E000086B005460E460024A24600BFA146002714
:102E1000B08900B100BF2F462C8A4CF6FF700440E9
:102E2000F08804432C82AC894EF6F3100440B0883D
:102E300031890843718908430443AC81AC8A4FF659
:102E4000FF400440B0890443AC8201A8FEF718FF9C
:102E50001F48874202D1DDF810A001E0DDF80CA088
:102E6000A88900F4004040B10AEBCA0000EB0A1048
:102E700031684900B0FBF1F807E00AEBCA0000EB4B
:102E80000A1031688900B0FBF1F86420B8FBF0F05B
:102E900004012009642101FB1089A88900F4004085
:102EA00040B1322000EBC900B0FBF1F000F00700A8
:102EB000044308E0322000EB09106421B0FBF1F07C
:102EC00000F00F0004432C8106B0BDE8F08700003D
:102ED0000038014001468888C0F30800704700BFF1
:102EE000FEE700002DE9FC5F05460E4614460E4F36
:102EF000DFF8388031462846FDF716FA0190214662
:102F00004046FDF717FA834638460199FDF712FA55
:102F100059460090FDF7B6F98246FDF711FC81464F
:102F20004846BDE8FC9F000000009643666666BF09
:102F30000FB4054B10B503A9044A029800F09AF8A3
:102F400010BC5DF814FB0000294B0008180000209D
:102F5000490050EAC12018BF04204A0D18BF40F0B4
:102F6000010040F2FF72B2EB515F08BF40F0020077
:102F7000012808BF052070472DE9F0414F1E00EBE6
:102F8000C7010446D1E9000115461E4637F0060286
:102F90000DD02A463346FDF7E4FA7F1E04EBC70343
:102FA000D3E90023FDF736FA37F00602F1D1022FFC
:102FB00025D0042F13D0062F18BFBDE8F0812A4674
:102FC0003346FDF7CEFAD4E90A23FDF723FA2A4661
:102FD0003346FDF7C6FAD4E90823FDF71BFA2A4663
:102FE0003346FDF7BEFAD4E90623FDF713FA2A4665
:102FF0003346FDF7B6FAD4E90423FDF70BFA2A4667
:103000003346FDF7AEFAD4E90223FDF703FA2A4668
:103010003346FDF7A6FAD4E90023BDE8F041FDF7F9
:10302000F9B90122FDF7E2BCFDF7F4B9002213461D
:1030300010461146FDF707BB024A00201107FDF7B5
:10304000D5BC000001FDFFFF02E008C8121F08C147
:10305000002AFAD170477047002001E001C1121F19
:10306000002AFBD17047000001490860704700004A
:10307000A00100202DE9FF4F8DB00F460546002628
:1030800006E025280BD0DDE90F1290476D1C761C59
:1030900028780028F5D111B03046BDE8F08F002423
:1030A000A246A1460122E94900E0044315F8013F88
:1030B000203B02FA03F00842F7D128782A2810D0E2
:1030C0006FF02F022878A0F13001092914D80AEBFB
:1030D0008A0102EB410144F0020400EB010A6D1C7D
:1030E000F0E701CF5FEA000A03D544F40054CAF1C7
:1030F000000A44F002046D1C28782E2817D115F818
:10310000010F44F004042A280ED06FF02F02287813
:10311000A0F1300109290AD809EB890102EB41012C
:1031200000EB01096D1CF2E757F8049B6D1C287831
:103130006C280FD006DC4C2817D068280DD06A28E0
:1031400014D104E0742810D07A280FD10DE044F493
:1031500000140AE044F4801401E044F44014697857
:10316000814202D104F580146D1C6D1C28786E28F4
:103170001ED00CDC632830D004DC00288BD058280B
:1031800011D19FE0642867D069280CD164E07328CE
:103190002DD004DC6F2872D0702804D194E07528FB
:1031A0006ED078286DD0DDE90F129047761C4BE188
:1031B000C4F30250022806D0032809D0042801CF06
:1031C00009D0066040E101CFF117C0E900613BE1A1
:1031D00001CF068038E1067036E117F8040B8DF850
:1031E000000000208DF80100EB46012003E057F8B5
:1031F00004BB4FF0FF3061074FF0000102D40DE037
:1032000008F10101884649450FDA8045F8DB1BF8D3
:1032100008100029F4D108E008F101018846814234
:10322000FADB1BF808100029F6D1DDE90F23AAEB21
:1032300008008146214600F031F9304400EB0806D1
:1032400004E0DDE90F121BF8010B9047B8F101080B
:10325000F7D221464846F2E00A21C4F302524FF069
:10326000000B0891022A04D001CFC117032A09D00C
:103270000AE0FF1D27F00707F7E8020108E02CE04D
:103280001EE01FE000B2C117042A01D140B2C117ED
:10329000021E71F1000206DA0023D0EB030063EB9B
:1032A00001012D2202E0220504D52B228DF82420D5
:1032B000012203E0E20701D02022F7E7904653E025
:1032C0000A210BE0102109E010214FF0000B44F01F
:1032D00004044FF00809089103E008214FF0000BA7
:1032E0000891C4F30252022A04D001CF0021032A1C
:1032F00006D006E0FF1D27F00707F7E8020103E00C
:1033000080B2042A00D1C0B24FF0000822072BD5AA
:103310002A78702A07D0DDF820C08CF0100C5CEA07
:103320000B0C05D00EE040228DF82420012208E08D
:1033300050EA010306D030238DF824308DF8252083
:1033400002229046089B83F0080353EA0B030BD13B
:1033500050EA010201D1620706D530228DF82420FF
:103360004FF00108A9F101092A78582A04D038A29F
:103370000B9208AA0A920BE03AA2F9E75B46089A78
:10338000FDF74EFA0B9B9B5C0A9A521E0A92137031
:1033900050EA0102F2D10A98ADEB000000F1200BD7
:1033A000600702D524F4803401E04FF00109D945CB
:1033B00002DDA9EB0B0000E0002000EB0B01414413
:1033C0000890AAEB010AE00306D4DDE90F232146A9
:1033D000504600F063F806444FF0000908E009A9E0
:1033E00011F80900DDE90F12904709F10109761C77
:1033F000C145F4DBE0030CD5DDE90F23214650463F
:1034000000F04CF8064404E0DDE90F12302090474C
:10341000761C0899481E08900029F5DC08E00A98F7
:103420000A990078491C0A91DDE90F129047761C31
:10343000BBF10001ABF1010BF1DC21465046DDE9A7
:103440000F2300F019F806446D1C21E6092801003D
:10345000303132333435363738396162636465660A
:1034600000000000303132333435363738394142CC
:1034700043444546000000002DE9F0410446002584
:103480001E461746880404D405E039462020B0477C
:103490006D1C641EF9D52846BDE8F0812DE9F04188
:1034A000044600251E469046C80301D5302700E09B
:1034B0002027880404D505E041463846B0476D1CF6
:1034C000641EF9D52846BDE8F08100002DE9FE4FC5
:1034D00006460F460025684601F034FB002442E012
:1034E00056F8240057F82410A0EB010ABAF1000F97
:1034F00001DB514601E0CAF100010846FDF712F96F
:1035000083464FF08F41FCF747FF80465DF824006B
:103510000021FDF771F916D05DF824104046FCF744
:103520003BFF82464FF07E51FCF7FEFE814629F0BC
:10353000004A0F48416A5046FDF768F912D201204F
:10354000A04005430EE00A48C1694046FDF754F922
:1035500005D30748016A4046FDF758F902D2012019
:10356000A0400543641C032CBADB2846BDE8FE8F4F
:103570008C8400082DE9F04D8D4F21F0004A86B073
:1035800005460C46BA452ADBAAEB070028430AD0B9
:103590008848824501DC1AD1CDB106B02846BDE885
:1035A000F04DFFF73EBD844A844B2846FCF7D9FF17
:1035B00007460E46824A834B28462146FCF7D1FF38
:1035C00006B03A463346BDE8F04DFCF723BF012074
:1035D000FFF74AFD06B0BDE8F04DFFF727BD7A487A
:1035E000824542DABAF1795F0BDA2846FFF7B0FC80
:1035F000042808BFFFF720FD284606B02146BDE895
:10360000F08D2A460B461046FCF7ABFF8346024678
:103610006E480E460B4606217844FFF7ADFC5A462D
:103620003346FCF79EFF804669488A465A46334631
:1036300004217844FFF7A0FC5A463346FCF791FF7B
:1036400000223B46FCF7E6FE02460B46404651464A
:10365000FCF7F9FF2A462346FCF783FF06B02A460B
:103660002346BDE8F04DFCF7D5BE284624F00041C6
:1036700000223D463B46FCF771FF4FF0FF32FDF75D
:10368000B5F90646024653480F460B4606217844D4
:10369000FFF772FC32463B46FCF763FFCDE90001C1
:1036A0004D4832463B4604217844FFF765FC3246DC
:1036B0003B46FCF756FF00222B46FCF7ABFE834649
:1036C00002913046394603F047FD804643480D4697
:1036D000504517DCDDE900015A46029BFCF7B3FFB9
:1036E00042462B46FCF73DFF42462B46FCF792FE36
:1036F0000122FDF77BF9304A304BFCF72CFF304AB2
:10370000304B4CE04FF0000A52460B464046FCF767
:1037100081FECDE9031052462B4610461946FCF7B0
:1037200020FF32463B46FCF719FFDDE90332FCF788
:103730008AFF06460F46DDE900015A46029BFCF768
:1037400082FF83460091012230463946FDF74EF94B
:10375000194A1A4BFCF702FF06460F460122404663
:103760002946FDF743F95A46009BFCF7FAFE32461C
:103770003B46FCF7F0FE06460F460122504629461E
:10378000FDF734F90E4DDFF858802A464346FCF722
:10379000E5FE32463B46FCF7E1FE2A464346FCF78F
:1037A000DDFE002CD8BF81F0004106B0BDE8F08DF1
:1037B0000000F03F0000F07F075C143326A6913C28
:1037C000182D4454FB21F93F0000E03F9C600000AD
:1037D000B2600000266000003C6000003333EF3F21
:1037E000FB21E93F2DE9F84F04460D4621F000404A
:1037F00000917349814211DC7249884201DC06D193
:103800002CB120462946BDE8F84FFFF70ABC6E48A8
:10381000002DCCBF6D496E49BDE8F88F6D498142DE
:1038200011DD6D498142D8BF4FF0FF366DDD204676
:103830002946FFF78DFB042808BFFFF7FDFB204654
:103840002946BDE8F88F6549654F25F0004581425E
:1038500033DD6449814219DD002632464FF0804352
:1038600020462946FCF7D6FD80468A46012220469E
:103870002946FDF7BBF800223B46FCF76CFE4246AA
:103880005346FCF7E0FE04460D463EE001260022CA
:10389000BA463B4620462946FCF7BCFD80460F460B
:1038A0000022534620462946FCF755FE42463B4639
:1038B000FCF7C9FE04460D4627E04B4981421BDD5B
:1038C000DFF828A102260022534620462946FCF7AD
:1038D00048FE00223B46FCF79DFD80460F46002235
:1038E000534620462946FCF736FE42463B46FCF747
:1038F000AAFE04460D4608E0032622462B46002079
:103900003B49FCF7A0FE04460D4622462B461046D6
:103910001946FCF726FE8B46824602460B46FCF70C
:1039200020FE07460246334888460B460621784467
:10393000FFF722FB52465B46FCF713FE82462E48F9
:103940008B463A46434605217844FFF715FB3A4635
:103950004346FCF706FE02460B46002E50465946EB
:103960000CDAFCF757FD22462B46FCF7FAFD01B0B6
:1039700022462B46BDE8F04FFCF7F0BDFCF74AFDB0
:1039800022462B46FCF7EDFD1C4A7A4402EBC603A7
:10399000D3E90023FCF7DFFD22462B46FCF7DBFDD5
:1039A000174A7A4402EBC603D3E90023FCF7D6FD9D
:1039B000009A002AB8BF81F00041BDE8F88F0000EE
:1039C000000010440000F07F182D4454FB21F93F03
:1039D000FB21F9BF0000DC3F0000203E0000F33F68
:1039E0000000F03F0000E63F008003400000F83F89
:1039F0000000F0BF3E5E0000FC5D00009A5D00002C
:103A0000625D00002DE9F04D9446CCF1000423F0F6
:103A100000464CEA0404594F46EAD4749A46884654
:103A200021F00042BC4206D8454240EA050442EA81
:103A3000D474BC4204D9BDE8F04D6246FFF7F4BA35
:103A4000AAF14055A5F17F6555EA0C040BD002247C
:103A500004EAAA744A4DDFF82CE144EAD87452EA29
:103A6000000B04D00CE0BDE8F04DFFF7BBBE002C0E
:103A700014BF012CBDE8F08D022C30D0032C32D0C5
:103A800056EA0C0B0AD0BE4220D1BA4209D126F028
:103A9000804622F080423346114617E000291ADBA7
:103AA00025E0DFF8E4B0FB44002C04BFDBE90001B3
:103AB000BDE8F08D012C02BFDBE9000181F000417F
:103AC000BDE8F08D022C0AD0032C0CD0BA4212D1E2
:103AD000B8F1000F0BDA2A482C49BDE8F08D2846D2
:103AE0002B49BDE8F08D28467146BDE8F08D24488D
:103AF0002849BDE8F08D921B12153C2AC4BF204F07
:103B0000244E10DCBAF1000FBEBF12F13C0F0027AB
:103B10003E4608DB6246FCF796FD21F00041FFF7C8
:103B200061FE07460E4694B1012C08BF86F00046A0
:103B30000DD0194A194B022C3846314615D0FCF7E6
:103B40000AFD2A46BDE8F04D114BFCF704BD0022EA
:103B5000134638463146FCF761FF04BF0220FFF7E9
:103B600083FA38463146BDE8F08DFCF7F4FC2A466E
:103B7000BDE8F04D064BFCF7F1BC00000000F07F03
:103B8000182D4454FB2109C0F65C0000FB21F9BF4D
:103B9000FB210940FB21F93F075C143326A6A13C19
:103BA0001FB5002500240020009001900290039092
:103BB00025E19348008800F47060B0F5006F02D1F1
:103BC00014253C241BE08E48008800F47060B0F59A
:103BD000806F02D11E25642411E08948008800F41A
:103BE0007060B0F5007F02D12825962407E0844854
:103BF000B0F90000B0F5706F01D1002500248048B5
:103C0000008800F40040E0B97D48008800F40050CE
:103C1000B8B90098002808DD0098001F00900098AF
:103C2000002823DA0020009020E0009800281DDA08
:103C30000098001D00900098002817DD00200090DB
:103C400014E06F48008800F40040B0F5004F03D145
:103C50000098001D009009E06948008800F40050B9
:103C6000B0F5005F02D10098001F00900098A842B4
:103C700001DD284600E000980090694200988842E3
:103C800001DA684200E0009800905D48007800F09A
:103C90008000E0B95A48007800F04000B8B90298B6
:103CA000002808DD0298001D02900298002821DA01
:103CB000002002901EE0029800281BDA0298001FE4
:103CC00002900298002815DD0020029012E04C4876
:103CD000007800F04000402803D10298001F0290B5
:103CE00008E04748007800F08000802802D1029860
:103CF000001D02900298A04201DD204600E00298DB
:103D0000029061420298884201DA604200E0029823
:103D100002903B48008800F48040E0B938480088B1
:103D200000F48050B8B90198002808DD0198001D02
:103D300001900198002823DA0020019020E00198EA
:103D400000281DDA0198001F01900198002817DD56
:103D50000020019014E02A48008800F48050B0F55B
:103D6000805F03D10198001D019009E0244800887C
:103D700000F48040B0F5804F02D10198001F0190FF
:103D80000198A04201DD204600E0019801906142C7
:103D90000198884201DA604200E0019801901848D9
:103DA000007800F02000202805D01548007800F0A9
:103DB0001000102802D10A20039005E00020039093
:103DC00000211048FEF74AFB0D48007800F0020081
:103DD000022802D101F010FA01E001F007FA0023F5
:103DE0001A4669460848006804F040F80646012E65
:103DF00002D006A0FFF79CF8012003F0FBFBD8E6F9
:103E000060010020000800409C010020436F756C99
:103E100064206E6F742073656E6420746F20746804
:103E2000652071756575652121212121212E0D0ADD
:103E3000000000002DE9F0410446E07800F0C006E3
:103E4000E07800F03F05607800F0010098B1EF10D5
:103E50002846E91705EB5171C910A5EBC101491CB2
:103E600001F0FF080B48006820B10A48414602688B
:103E70003846904700BF607800F0080030B1054830
:103E8000406818B1B011034A516888470020BDE866
:103E9000F0810000502D002010B56FF00400FEF7F7
:103EA00059F80A4800680A49B0FBF1F0094908705E
:103EB0000846007800EB4001C1EBC0104FF6FF71DF
:103EC00001EAC0000449088010BD00002400002061
:103ED00000127A0014000020160000200146114A4A
:103EE00012884A434FF0E0235A6100229A611A4631
:103EF000126942F001021A6100BF4FF0E02210691E
:103F000000F001021AB100F48032002AF5D04FF01F
:103F1000E022126922F001024FF0E0231A61002230
:103F20009A617047160000200146114A12784A43F0
:103F30004FF0E0235A6100229A611A46126942F05A
:103F400001021A6100BF4FF0E022106900F0010287
:103F50001AB100F48032002AF5D04FF0E022126945
:103F600022F001024FF0E0231A6100229A617047AB
:103F70001400002038B5044664B120208DF80000FC
:103F800028208DF8010030208DF8020038208DF8AF
:103F9000030004E0A32204216846FCF754F96A46B2
:103FA000042140F69E2002F025FA01F00FFE38BDF4
:103FB0003EB5044602208DF80000CA208DF80100AD
:103FC000E3208DF8020009208DF803006A460421E1
:103FD000682002F00FFAA3208DF8000004F04000E2
:103FE00048B1C0208DF80100C8208DF80200C22021
:103FF0008DF8030006E0A3208DF801008DF8020083
:104000008DF8030004F4C07048B1C4208DF804009A
:10401000CC208DF80500C6208DF8060006E0A32010
:104020008DF804008DF805008DF80600A3208DF8AA
:1040300007008DF808008DF809006A460A2140F64D
:10404000A72002F0D7F904F0030018B120208DF862
:10405000000002E0D8208DF800006A46012140F6F9
:10406000B62002F0C7F904F0200018B1012000F0DA
:10407000ADF802E0002000F0A9F804F4C07008B325
:1040800004F4807060B1B2208DF800008B208DF8B0
:104090000100B6208DF802009B208DF803000BE094
:1040A000B0208DF8000080208DF80100B4208DF83C
:1040B000020090208DF803006A46042140F6A220F9
:1040C00002F098F904F0010020B3F8208DF8000008
:1040D0006A4601214FF40B6002F08CF9FA210720A7
:1040E00000F02CFC072000F0F3FB012000F013FC93
:1040F000642000F0F3FC4FF4FA7000F002FDC821D8
:10410000304800F0A3FB282000F0BCFB0A2000F0A0
:10411000CCFB08E0D8208DF800006A4601214FF45E
:104120000B6002F067F904F0020018B1D9208DF895
:10413000000002E0D8208DF800006A46012140F21C
:104140003D7002F057F904F0040018B1012000F0AE
:1041500069F802E0002000F065F804F0100018B1E2
:104160000120FFF707FF02E00020FFF703FF44F004
:1041700008001549488101F029FD00201249887383
:1041800004F0400018B10846807B801D887304F459
:10419000C07020B10C48807B801D0B49887304F0EF
:1041A000140020B10848807B10300749887304F060
:1041B000030020B10448807B001D03498873002060
:1041C0003EBD000009E3CA02502D00203EB5044662
:1041D0006CB10EA1D1E900208968CDE900200291DF
:1041E0006A4609214FF4976002F004F93EBD0AA225
:1041F000D2E900109268CDE9010200916A460921D6
:104200004FF4976002F0F6F8F0E70000B8AAB38D1B
:10421000B4980D355D000000B8AAAAAAB088C3C53D
:10422000C700000038B5044664B1C0208DF8000016
:10423000C2208DF80100C4208DF80200C6208DF840
:10424000030004E08B2204216846FBF7FCFF6A466A
:10425000042140F6982002F0CDF801F0B7FC38BDFB
:1042600010B5C8234FF48062024940F6F63001F0E1
:1042700041FB10BDB48400082DE9F04F8DB0074616
:10428000884615469946DDE9166B002400203080EB
:104290006B49887B5A4605A901F0F8FB18B1601EEE
:1042A0000DB0BDE8F08F6648807A00F01400002859
:1042B00067D09DF8140000069DF8151040EA0140F3
:1042C0009DF8161040EA01209DF817100843286059
:1042D0009DF8180000069DF8191040EA01409DF86D
:1042E0001A1040EA01209DF81B10084368609DF8F1
:1042F0001C0000069DF81D1040EA01409DF81E10AC
:1043000040EA01209DF81F100843A8609DF8200096
:1043100000069DF8211040EA01409DF8221040EA75
:1043200001209DF823100843E86004F11000C4B296
:10433000286800140190686800140290A8680014AE
:104340000390E8680014049001984043029901FB2F
:104350000100039901FB0100049901FB010ABAF174
:10436000706F02DBBAF1885F05DD01F02FFC0020E1
:104370003080401E94E7B6F9000040F48070308031
:1043800000BF2F48807A00F0400020B305A9601CD0
:10439000085C095D40EA012000B2A8F8000005A908
:1043A000E01C095C05AAA01C105C41EA002000B2D8
:1043B000A8F8020005A9601D095C201D105C41EAF7
:1043C000002000B2A8F80400A01DC4B2B6F9000095
:1043D00040F0080030801A48408900F4C07008B3EB
:1043E00005A9601C085C095D40EA012000B2388024
:1043F00005A9E01C095C05AAA01C105C41EA00208C
:1044000000B2788005A9601D095C201D105C41EA9E
:10441000002000B2B880A01DC4B2B6F9000040F080
:10442000700030800648807A00F0030018B105A9BA
:104430000819FFF7FFFC484600F0EFFE00202FE7C9
:10444000502D002070B588B0064601A801F0A6F8EE
:10445000BDF804000021C90341EA5045C4034448A3
:10446000007A00F0030056F8200005904048007ADA
:1044700000F0040010B10598404205903C48007AD5
:10448000C0F3C10056F8200006903948007A00F0C9
:10449000200010B10698404206903548007AC0F3DB
:1044A000811056F8200007903148008900F4807090
:1044B00010B10798404207900598C117A0FB04234C
:1044C00001FB043100FB0510810041EA9270059068
:1044D0000698C117A0FB042301FB043100FB051063
:1044E000810041EA927006900798C117A0FB04234F
:1044F00001FB043100FB0510810041EA9270079036
:104500000598000E8DF808000598000C8DF809003C
:104510000598000A8DF80A000598C0B28DF80B00C6
:104520000698000E8DF80C000698000C8DF80D0012
:104530000698000A8DF80E000698C0B28DF80F009C
:104540000798000E8DF810000798000C8DF81100E8
:104550000798000A8DF812000798C0B28DF8130072
:1045600002AA0C214FF4257001F044FF08B070BD81
:10457000502D002030B585B0044616A207CA02AB04
:1045800007C3C82C03DD4FF0FF3005B030BDC82095
:1045900090FBF4F0401E85B2280A8DF80000E8B2C6
:1045A0008DF801006A46022140F2162001F022FF38
:1045B00010B14FF0FF30E8E702AA0C2140F6C1200D
:1045C00001F018FF10B14FF0FF30DEE7044884819E
:1045D0000020DAE7FEF2ABC4AAF1DFDFBBAFDFDF1A
:1045E000502D00201FB504464848007A00F0030013
:1045F00054F8200001904548007A00F0040010B102
:104600000198404201904148007AC0F3C10054F83B
:10461000200002903D48007A00F0200010B102987E
:10462000404202903948007AC0F3811054F82000CB
:1046300003903648008900F4807010B1039840421E
:1046400003903349019880FB0101800F40EA81000B
:1046500001902F49029880FB0110820042EA91707C
:1046600002902B49039880FB0110820042EA91706E
:1046700003900198000E8DF800000198000C8DF851
:1046800001000198000A8DF802000198C0B28DF86F
:1046900003006A4604214FF4747001F0ABFE18B1B8
:1046A0004FF0FF3004B010BD0298000E8DF80000EE
:1046B0000298000C8DF801000298000A8DF80200A3
:1046C0000298C0B28DF803006A4604214FF4757059
:1046D00001F090FE10B14FF0FF30E3E70398000EB9
:1046E0008DF800000398000C8DF801000398000A73
:1046F0008DF802000398C0B28DF803006A460421C9
:104700004FF4767001F076FECCE70000502D0020CB
:1047100009E3CA0210B586B0044647A000680390BA
:1047200046A00068029046A00068019045A000687D
:10473000009004F0030003A9085C8DF8140003A89E
:10474000C4F3C101405C8DF8150003A8C4F38111C6
:10475000405C8DF8160004F0030002A9085C8DF897
:10476000100002A8C4F3C101405C8DF8110002A83A
:10477000C4F38111405C8DF8120005AA032140F2B8
:10478000264001F037FE18B14FF0FF3006B010BDE3
:1047900004AA032140F22A4001F02CFE10B14FF090
:1047A000FF30F3E7019805900098049004F00400AE
:1047B00058B19DF8140040F001008DF814009DF8E8
:1047C000100040F001008DF8100004F0200058B1F6
:1047D0009DF8150040F001008DF815009DF81100BE
:1047E00040F001008DF8110004F4807058B19DF87C
:1047F000160040F001008DF816009DF8120040F000
:1048000001008DF8120005AA03214FF4886001F021
:10481000F1FD10B14FF0FF30B8E704AA032140F2D8
:10482000314001F0E7FD10B14FF0FF30AEE7064830
:1048300004810020AAE700004CCD6C000CC92C00BC
:104840003656760026466600502D0020F8B50546FF
:104850000E464FF47A7095FBF0F000FB06F4200E44
:104860008DF80000200C8DF80100200A8DF8020060
:10487000E0B28DF803006A4604214FF4AE7001F0F7
:10488000B9FDF8BD38B50446052094FBF0F084B2BC
:1048900020128DF80000E0B28DF801006A46022176
:1048A0004FF4AD7001F0A6FD38BD38B504460520C3
:1048B00094FBF0F084B220128DF80000E0B28DF885
:1048C00001006A4602214FF4AC7001F093FD38BD3F
:1048D00038B504460020009004F0010020B19DF896
:1048E000000040F03000009004F0020020B19DF87C
:1048F000000040F00C00009004F0040020B19DF88E
:10490000000040F0030000906A4601214FF4A470BB
:1049100001F070FD38BD38B50446012C01DA0124E0
:1049200002E0042C00DD0424601EC0B200906A4640
:10493000012140F24F1001F05DFD38BD2DE9FC472B
:1049400006460F4606F0070010B1B7F5C86F03DD45
:104950004FF0FF30BDE8FC873846FBF7ECFE8146A0
:104960005949FBF719FD8046684600F0F1FD9DF8B6
:104970000000022806D0042816D0082826D01028C7
:1049800048D135E04FF08D414046FBF7D3FC8146DE
:10499000FBF7EFFE84B24D494046FBF7CBFC814666
:1049A000FBF7E7FE85B238E04FF08C414046FBF75D
:1049B000C1FC8146FBF7DDFE84B245494046FBF76A
:1049C000B9FC8146FBF7D5FE85B226E04FF08B415E
:1049D0004046FBF7AFFC8146FBF7CBFE84B23D4976
:1049E0004046FBF7A7FC8146FBF7C3FE85B214E007
:1049F0004FF08A414046FBF79DFC8146FBF7B9FE2C
:104A000084B235494046FBF795FC8146FBF7B1FE81
:104A100085B202E04FF0FF309CE700BF20128DF816
:104A20000400E0B28DF8050028128DF80600E8B207
:104A30008DF8070006F00100A0B101AA02214FF491
:104A4000EA7001F0D7FC10B14FF0FF3082E70DF1B2
:104A5000060202214FF4927001F0CCFC10B14FF02D
:104A6000FF3077E706F00200A0B101AA02214FF45F
:104A7000EC7001F0BFFC10B14FF0FF306AE70DF1B0
:104A8000060202214FF4947001F0B4FC10B14FF013
:104A9000FF305FE706F00400A0B101AA02214FF445
:104AA000EE7001F0A7FC10B14FF0FF3052E70DF1AE
:104AB000060202214FF4967001F09CFC10B14FF0F9
:104AC000FF3047E7002045E700004843000040462C
:104AD0000000C045000040450000C04438B5044611
:104AE000052094FBF0F085B228128DF80000E8B2A2
:104AF0008DF801006A4602214FF4EF7001F07AFC54
:104B000038BD38B50446052094FBF0F085B2281274
:104B10008DF80000E8B28DF801006A4602214FF4DA
:104B2000ED7001F067FC38BD00BF054A128802F045
:104B30004002002AF9D0C2B2014B1B1D1A807047F7
:104B4000003801407CB5054628494968087801AB22
:104B500004220D21FCF794FC08B107207CBD9DF8D0
:104B60000700C0F301109DF8041001F0E00140EAD5
:104B7000E1008DF800009DF80700C0F381009DF86A
:104B8000051001F0E00140EAE1008DF801009DF818
:104B9000070000F003009DF8061001F0E00140EA74
:104BA000E1008DF8020000241CE01DF8040018B993
:104BB000002045F8240013E00D4845F8240006E0E5
:104BC00055F824000B49FBF7B5FB45F824001DF808
:104BD0000400401EC0B20DF804000028F0D100BF50
:104BE000601CC4B2032CE0DB0020B7E79800002073
:104BF0007B14AE3E1D5A843F2DE9F04F87B0054629
:104C00000C46914601208DF8100000208DF811000F
:104C1000FE4A1268917CFD4A5268107804AB022269
:104C2000FCF7D4FC20B14FF0FF3007B0BDE8F08FA7
:104C3000C820FFF753F900208DF81000F34A1268DE
:104C4000D17BF24A5268107804AB0122FCF7BEFC1B
:104C500010B14FF0FF30E8E7EC4A12685179EB4AA7
:104C60005268107804AB0122FCF7B0FC10B14FF091
:104C7000FF30DAE7E54A1268917CE44A526810781E
:104C800004AB0122FCF7A2FC10B14FF0FF30CCE7DF
:104C9000DE4A1268D17DDD4A5268107804AB0122E9
:104CA000FCF794FC10B14FF0FF30BEE7D74A126812
:104CB0001179D64A5268107804AB0122FCF786FCC1
:104CC00010B14FF0FF30B0E70C208DF81000CF4A44
:104CD00012681179CD4A5268107804AB0122FCF7B2
:104CE00075FC10B14FF0FF309FE70F20FFF7F6F88B
:104CF000C648806A407A8DF81000C44A12689178DC
:104D0000C24A5268107804AB0122FCF75FFC10B174
:104D10004FF0FF3089E7BD48806A007A8DF81000B7
:104D2000BA4A12685178B94A5268107804AB012225
:104D3000FCF74CFC10B14FF0FF3076E7B9F1000FF3
:104D400007D0B248806A807A40F0E0008DF8100009
:104D500004E0AE48806A807A8DF81000AB4A126891
:104D60009179AA4A5268107804AB0122FCF72EFC14
:104D700010B14FF0FF3058E7B9F1000F07D0A3484A
:104D8000806AC07A40F0E0008DF8100003E0A0488F
:104D9000C07A8DF810009D4A1268D1799B4A5268FA
:104DA000107804AB0122FCF711FC10B14FF0FF307A
:104DB0003BE7B9F1000F02D0C820FFF78FF8402081
:104DC0008DF81000914A12681179904A5268107853
:104DD00004AB0122FCF7FAFB10B14FF0FF3024E7DF
:104DE00078208DF81000894A12685179874A5268F4
:104DF000107804AB0122FCF7E9FB10B14FF0FF3053
:104E000013E783498889FFF769F800208DF81000BF
:104E10007E4A126851797D4A5268107804AB0122AB
:104E2000FCF7D4FB10B14FF0FF30FEE6774A126872
:104E3000917A764A5268107804AB0222FCF720FB84
:104E400010B14FF0FF30F0E69DF811009DF8101002
:104E500040EA012B0C209BFBF0F0C6B20020A860BA
:104E600068602860A06060602060824665E0674AF4
:104E70001268D17A654A5268107804AB0C22FCF7AC
:104E8000FFFA10B14FF0FF30CFE69DF811009DF80A
:104E9000101040EA012000B2ADF808009DF81300A0
:104EA0009DF8121040EA012000B2ADF80A009DF80A
:104EB00015009DF8141040EA012000B2ADF80C0076
:104EC000BDF90810206808442060BDF90A10606828
:104ED00008446060BDF90C10A0680844A0609DF80B
:104EE00017009DF8161040EA012000B2ADF800004E
:104EF0009DF819009DF8181040EA012000B2ADF8A5
:104F000002009DF81B009DF81A1040EA012000B233
:104F1000ADF80400BDF90010286808442860BDF908
:104F20000210686808446860BDF90410A868084465
:104F3000A8600AF1010000F0FF0AB24597DB34488F
:104F4000D0F800C02868C117090441EA10410704DD
:104F5000624600233846FBF733F932460023CDE999
:104F60000201FBF72DF928602948D0F800C06868D5
:104F7000C117090441EA104107046246002338467C
:104F8000FBF71EF932460023CDE90201FBF718F9C1
:104F900068601F48D0F800C0A868C117090441EA3A
:104FA00010410704624600233846FBF709F93246F0
:104FB0000023CDE90201FBF703F9A8601448D0F8FB
:104FC00004C02068C117090441EA10410704624681
:104FD00000233846FBF7F4F832460023CDE90201FE
:104FE000FBF7EEF820600A48D0F804C06068C117EB
:104FF000090441EA10410704624600233846FBF7E2
:10500000DFF832460023CDE9020103E098000020DA
:105010008C840008FBF7D4F860601148D0F804C015
:10502000A068C117090441EA104107046246002341
:105030003846FBF7C5F832460023CDE90201FBF7FD
:10504000BFF8A060A068002804DDA068A0F580304B
:10505000A06003E0A06800F58030A0600020E4E5D7
:105060008C8400082DE9FC5F06460F4600253D496B
:105070004968087801AB03220D21FCF701FA10B151
:105080000720BDE8FC9F9DF8040000F01F008DF88C
:1050900004009DF8050000F01F008DF805009DF844
:1050A000060000F01F008DF80600002456E056F8B8
:1050B000240057F82410A0EB010BBBF1000F01DB1B
:1050C000594601E0CBF100010846FBF72BFB4FF0FE
:1050D0008F410090FBF760F9814601A8005D68B33D
:1050E00021490868FBF727FB834659461F48FBF711
:1050F00053F9804604E01E494046FBF71BF9804601
:1051000001A8005D401EC0B201A908550028F2D1D7
:1051100041464846FBF740F983464FF07E51FBF786
:1051200003F982462AF0004B0F4881695846FBF785
:105130006DFB12D20120A04005430EE00A48016930
:105140004846FBF759FB05D3074841694846FBF73A
:105150005DFB02D20120A0400543641C032CA6DBAA
:1051600028468EE7980000208C84000800B04C454B
:1051700054E3853F10B50446204600F00FF803467F
:10518000E01C00F00BF843EAC00083B2A01D00F061
:1051900005F843EA801083B2184610BD014691F924
:1051A0000020002A01DD00201EE091F90020002AE5
:1051B00001DA042018E091F90120002A01DD012024
:1051C00012E091F90120002A01DA05200CE091F9A2
:1051D0000220002A01DD022006E091F90220002AC7
:1051E00001DA062000E00720704700000120014995
:1051F00008607047808121420020014908607047A3
:1052000080812142FCF7F0FE4820FCF7BFFE03E05E
:10521000FDF706FB02F004FBFAE7704770B50446A1
:10522000002624F00104184890F8240008B100205A
:1052300070BD1548807A10B94FF0FF30F8E712487A
:10524000057C807A2040104908740846007CA04202
:1052500002D04FF0FF3600E0002614B90A48007D66
:1052600018B1012001F030FF02E0002001F02CFF16
:105270003CB100F0ABFC20B1034805744FF0FF30A7
:10528000D6E73046D4E70000980000202DE9F04F23
:1052900099B004460D4616464FF07E574FF0000871
:1052A0004FF000094FF0000A12A813A918AB0EAA7C
:1052B000CDE9001014A916A8FEF7DEFF18B10120F1
:1052C00019B0BDE8F08FBDF84C0000F480700028E4
:1052D0007ED00E98FBF726FA83464FF09D41FBF7F0
:1052E0005BF807460F98FBF71DFA83464FF09D4188
:1052F000FBF752F880461098FBF714FA83464FF0FC
:105300009D41FBF749F881461198FBF70BFA83465C
:105310004FF09D41FBF740F8824639464FF0804000
:10532000FBF708F849460590FBF704F8414607905B
:105330004FF04040FAF7FEFF51460590FAF7FAFFAA
:1053400006900799FAF79EFF8346FBF726FACDE908
:105350000801FEF70FF94FF06632544BCDE90A0110
:10536000FBF7FFF8CDE90C01FBF72AFA206049466C
:105370004FF08040FAF7DEFF49460290FAF7DAFF75
:10538000414604904FF04040FAF7D4FF4146029066
:10539000FAF7D0FF03900499FAF7C6FF83464FF05F
:1053A0007E51FAF76FFF0590FBF7F7F9CDE9080199
:1053B00039464FF08040FAF7BDFF41460390FAF7B7
:1053C000B9FF494604904FF08040FAF7B3FF00E080
:1053D00068E051460390FAF7ADFF83460499FAF767
:1053E00051FF0590FBF7D9F9CDE90601DDE9082366
:1053F000FEF708FB4FF066322C4BCDE90A01FBF7B4
:10540000B0F8CDE90C01FBF7DBF9286051465046B6
:10541000FAF790FF494604904846FAF78BFF414659
:1054200003904046FAF786FF394601903846FAF76E
:1054300081FF00900199FAF725FF02900399FAF78E
:1054400073FF83460499FAF76FFF0590FBF7A5F900
:10545000CDE9080151463846FAF76CFF49460490F9
:105460004046FAF767FF03900499FAF70BFF4FF0F5
:1054700080410590FAF75EFF8346FBF78EF9CDE990
:105480000601DDE90823FEF7BDFA4FF06632074B4F
:10549000CDE90A01FBF765F8CDE90C01FBF790F9BE
:1054A000306001E002200BE7002009E766A64C40CF
:1054B00070B50024FBF762FE00F024F9002840D10B
:1054C000782000F02FFFC4B20CB1012070BD78200D
:1054D000FFF7A4FEC4B20CB10220F7E7C82000F029
:1054E000D3FEC4B20CB10320F0E7FEF7B9FEC4B29C
:1054F0000CB10420EAE71548FFF73CFE0546FFF72C
:1055000009F9C4B20CB10520E0E740F27310FEF7D0
:105510004FFDC4B20CB10620D8E7C820FFF72AF827
:10552000C4B20CB10720D1E701F084FD04460CB1F0
:105530000820CBE7012000F0A3FDC4B21CB1092074
:10554000C4E70A20C2E70020C0E70000C400002032
:1055500001461148407A30B1012807D0022808D00E
:1055600003280CD108E0022008700BE0042008702A
:1055700008E00820087005E01020087002E04FF0F5
:10558000FF30704700BF0448C07C18B1087840065F
:10559000000E08700020F4E7980000200146134830
:1055A000407A30B1012808D002280AD0032810D14F
:1055B0000BE04FF4804008800EE041F69C700880BC
:1055C0000AE04FF48050088006E04FF40060088045
:1055D00002E04FF0FF30704700BF0448C07C10B1BC
:1055E0000888401008800020F5E70000980000209F
:1055F00001460248007C0870002070479800002097
:1056000001460F48007A30B1012807D0022809D09E
:1056100003280FD10AE0FA2008800EE04FF4FA7058
:1056200008800AE04FF47A70088006E04FF4FA60D0
:10563000088002E00020088000BF00BF0020704703
:105640009800002001460E48007A30B1012807D0AA
:10565000022808D003280CD108E00A4808600BE0B3
:105660000948086008E00948086005E00848086043
:1056700002E04FF0FF30704700BF0020FBE7000062
:1056800098000020000003430000834233330342AC
:105690003333834101461248C07A082817D2DFE825
:1056A00000F01704070A0D101318BC20088013E03F
:1056B0006220088010E02A2008800DE01420088075
:1056C0000AE00A20088007E00520088004E000BF07
:1056D00000BF0020088000BF00BF0020704700000E
:1056E000980000200146064890F8240010B14FF0C1
:1056F000FF3070470248C08908800020F9E70000A9
:10570000980000201CB580208DF80000654A1268C2
:10571000917C644A526810786B460122FBF756FF71
:1057200010B14FF0FF301CBD6420FEF7D7FB002006
:105730008DF800005B4A1268917C5A4A52681078D2
:105740006B460122FBF742FF10B14FF0FF30EAE752
:10575000544A1268917D534A526810786B4606226B
:10576000FBF78EFE10B14FF0FF30DCE79DF805002F
:10577000C007400F9DF8031001F0010140EA41000D
:105780009DF8011001F0010140EA010494B1012CDF
:1057900003D101214348C17431E0022C03D100211F
:1057A0004048C1742BE021463FA0FDF7C1FB4FF0FC
:1057B000FF30B8E73B4A1268D1783A4A526810780D
:1057C0006B460122FBF75CFE10B14FF0FF30AAE7F9
:1057D0009DF8000000F00F042CB93D48FDF7A8FB30
:1057E0004FF0FF309FE7042C06D13AA0FDF7A0FB55
:1057F00001212C48C17402E000212A48C174FF2114
:1058000028488172FF2027490872FF2125484172EC
:10581000C1724FF6FF71C181FF21017481740121B2
:10582000017380F82210002180F823104175017562
:105830001630016041608160163880F8241080F8CD
:105840002510C1844FF4FA6000F062FC10B14FF0F3
:10585000FF3068E7022000F02BFB10B14FF0FF3063
:1058600061E72A2000F0CEFC10B14FF0FF305AE77C
:10587000322000F009FD10B14FF0FF3053E7002057
:10588000FFF7CCFC10B14FF0FF304CE7002000F0E8
:1058900051FB10B14FF0FF3045E7002000F042FD12
:1058A000002040E798000020556E737570706F728D
:1058B00074656420736F6674776172652070726FAF
:1058C00064756374207265762025642E0A000000DA
:1058D000A897000848616C662073656E73697469E7
:1058E00076697479207061727420666F756E642EAB
:1058F0000A0000002DE9F04385B005460E469046AB
:105900009946294890F8250020B14FF0FF3005B0A6
:10591000BDE8F08316B94FF0FF30F8E7002423E02C
:10592000281B102801DD102000E0281B87B2321947
:105930003946204600F05EFD10B14FF0FF30E6E73B
:1059400001AA3946204600F001F910B14FF0FF30AE
:10595000DDE730193A4601A9FAF787FC10B16FF07C
:105960000100D4E7E01984B2AC42D9DB4FEA282029
:105970008DF8000008F0FF008DF801000A4A126857
:10598000917E094A526810786B460222FBF71EFE90
:1059900010B14FF0FF30BAE70121034880F825101D
:1059A000A0F826900020B2E79800002038B5044601
:1059B000282C02DD4FF0FF3038BDDCB9002000F0AC
:1059C000EBFB00208DF8000007208DF801002E4A27
:1059D0001268917C2C4A526810786B460222FBF7C1
:1059E000F5FD10B14FF0FF30E6E7002126480175C4
:1059F0000020E1E7012000F0CFFB20208DF800001F
:105A0000012C06D100208DF80100052000F0FAFBE2
:105A100017E0052C06DC01208DF80100052000F0C0
:105A2000F1FB0EE0142C06DC02208DF801000A20A8
:105A300000F0E8FB05E003208DF80100142000F0E1
:105A4000E1FB9DF80100072101EB8010C0B28DF849
:105A500001000D4A1268917C0B4A526810786B461F
:105A60000222FBF7B3FD10B14FF0FF30A4E708218D
:105A70000548817200210173012101750020FFF7A3
:105A8000CDFB002098E7000098000020F8B5044600
:105A90000F4616462C4890F8240010B94FF0FF30FE
:105AA000F8BD2948807A10B94FF0FF30F8E7264A50
:105AB0001268917A244A526810786B460222FBF7EA
:105AC000DFFC10B14FF0FF30EAE79DF801009DF8D0
:105AD000001040EA0125A54203DA00203070401E84
:105AE000DEE7194840684088B5EB600F17DD164ABD
:105AF0001268517C144A526810786B460122FBF7F9
:105B0000BFFC10B14FF0FF30CAE79DF8000000F075
:105B1000100020B100F05AF86FF00100C0E7E2B2C7
:105B2000094B1B68D97A084B5B6818783B46FBF732
:105B3000A7FC10B14FF0FF30B2E795FBF4F0401E28
:105B400030700020ACE7000098000020F8B5044653
:105B50000D46164616B94FF0FF30F8BD1A48807A48
:105B600010B94FF0FF30F8E720128DF80000E0B2D6
:105B70008DF801009DF801002844134949684989BE
:105B8000884202DD4FF0FF30E7E70F4A1268117ECE
:105B90000D4A526810786B460222FBF717FD10B1D0
:105BA0004FF0FF30D9E7EAB2074B1B68597D064B2F
:105BB0005B6818783346FBF763FC10B14FF0FF3099
:105BC000CBE70020C9E700009800002008B5704826
:105BD000807A10B94FF0FF3008BD002000906C4A69
:105BE0001268D17B6A4A526810786B460122FBF733
:105BF000EDFC10B14FF0FF30EEE7654A12685179C5
:105C0000634A526810786B460122FBF7DFFC10B143
:105C10004FF0FF30E0E75E4A126811795C4A526843
:105C200010786B460122FBF7D1FC10B14FF0FF302A
:105C3000D2E7574890F82400002853D00C20009059
:105C4000534A12681179524A526810786B46012201
:105C5000FBF7BCFC10B14FF0FF30BDE73220FEF780
:105C60003DF9C02000904A48807A00F0010020B140
:105C70009DF8000040F020000090454A126811791C
:105C8000434A526810786B460122FBF79FFC10B123
:105C90004FF0FF30A0E73E48407C10B1022000905A
:105CA00001E0002000903A4A1268D17B384A5268DD
:105CB00010786B460122FBF789FC10B14FF0FF30E2
:105CC0008AE700200090324A12685179304A5268BF
:105CD00010786B460122FBF779FC002855D04FF075
:105CE000FF3079E704200090294A12681179284A88
:105CF000526810786B460122FBF768FC10B14FF038
:105D0000FF3069E72248807C20B92148807A00F082
:105D1000010010B94020009001E0602000901C4A72
:105D2000126811791A4A526810786B460122FBF703
:105D30004DFC10B14FF0FF304EE73220FEF7CEF8A9
:105D40001348407C10B10120009001E00020009039
:105D50000F4A1268D17B0E4A526810786B460122B6
:105D6000FBF734FC10B14FF0FF3035E7084A1268FA
:105D70005179074A52681078054B10330122FBF71E
:105D800025FC10B14FF0FF3026E7002024E700008B
:105D9000980000202DE9F04F8DB083460F46022079
:105DA0000C90424890F8240020B1002000F068F9DF
:105DB000012600E0002603A8FFF722FC05A8FFF754
:105DC000C7FB01A8FFF766FC02A8FFF78BFC37486A
:105DD00090F80AA004A8FFF70BFC002407E00022BB
:105DE00039465846FEF708FF00B902E0641C022C51
:105DF000F5DB00BF022C01D1002528E0002407E0DC
:105E0000012206A909A8FEF7F7FE00B902E0641C0A
:105E1000022CF5DB00BF022C01D1002517E006A9FA
:105E20003846FDF753FB00F0FF0809A95846FFF775
:105E300019F900F0FF090025B9F1000F01D145F073
:105E40000105B8F1000F01D145F0020500BFFF20A8
:105E500016490872FF2115484172C1724FF6FF7151
:105E6000C181FF218172017401210173BDF80C0011
:105E700000F04EF99DF8140000F01AF8BDF8040087
:105E800000F0C0F9BDF8080000F0FEF9504600F03F
:105E900049FA9DF81000FFF7C1F916B1012000F092
:105EA000EFF828460DB0BDE8F08F00009800002004
:105EB00038B504461E48807A10B94FF0FF3038BD1F
:105EC000022C06D0042C07D0082C08D0102C0CD1A2
:105ED00008E0002000900BE00820009008E010206F
:105EE000009005E01820009002E04FF0FF30E6E758
:105EF00000BF0F48407A9DF80010B0EBE10F01D1D0
:105F00000020DCE70A4A1268D179094A5268107801
:105F10006B460122FBF75AFB10B14FF0FF30CEE782
:105F20009DF80000C110024841720020C7E7000040
:105F30009800002038B504465048807CA04201D12A
:105F4000002038BD002C46D04C4A126811794B4ACB
:105F5000526810786B460122FBF792FA10B14FF0AD
:105F6000FF30EEE79DF8000020F020000090434A4B
:105F700012681179414A526810786B460122FBF78A
:105F800025FB10B14FF0FF30DBE70320FDF7A6FF44
:105F900002200090394890F8220020B19DF80000BE
:105FA00040F080000090354890F8230020B19DF823
:105FB000000040F030000090304A1268117D2F4AF6
:105FC000526810786B460122FBF700FB002851D085
:105FD0004FF0FF30B5E7294A12681179274A526815
:105FE00010786B460122FBF74BFA10B14FF0FF30EF
:105FF000A7E72248807A00F0010028B19DF8000050
:1060000040F02000009004E09DF8000020F0200007
:1060100000901A4A12681179184A526810786B4633
:106020000122FBF7D3FA10B14FF0FF3089E70320CC
:10603000FDF754FF114890F8220010B18020009025
:1060400001E0002000900D4890F8230020B19DF859
:10605000000040F030000090084A1268117D074AA5
:10606000526810786B460122FBF7B0FA10B14FF07E
:10607000FF3066E701488474002062E79800002042
:1060800038B50446214890F82400A04201D10020F0
:1060900038BD24B31D4890F8250010B94FF0FF30EB
:1060A000F6E7002001F010F80020FFF743FF174942
:1060B000C88C00F0E9F8002000901449496808787D
:1060C0006B4601222321FBF781FA01210F4880F85A
:1060D0002410012000F0F8FFFFF778FD13E0002006
:1060E00000F0F2FF0948007C0090084949680878F0
:1060F0006B4601222321FBF769FA0021034880F84F
:106100002410FFF763FD0020C2E700009800002084
:1061100038B504461F48807A10B94FF0FF3038BDBB
:10612000FA2C09D0B4F5FA7F09D0B4F57A7F09D0FA
:10613000B4F5FA6F0CD108E0002000900BE00820C5
:10614000009008E01020009005E01820009002E088
:106150004FF0FF30E3E700BF0E48007A9DF80010D3
:10616000B0EBE10F01D10020D9E70A4A126891791A
:10617000084A526810786B460122FBF727FA10B1E3
:106180004FF0FF30CBE79DF80000C01001490872C6
:106190000020C4E79800002038B50446184890F85D
:1061A0002300A04201D1002038BD14B1302000905E
:1061B00001E0002000901248807C20B19DF8000092
:1061C00040F0020000900E4890F8220020B19DF8A7
:1061D000000040F080000090094A1268117D084AD2
:1061E000526810786B460122FBF7F0F910B14FF0BE
:1061F000FF30D9E7024880F823400020D4E70000B0
:106200009800002038B504461E48807A10B94FF037
:10621000FF3038BDBC2C02DB0120009015E0622C61
:1062200002DB0220009010E02A2C02DB0320009009
:106230000BE0142C02DB0420009006E00A2C02DBA9
:106240000520009001E0062000900E48C07A9DF8DD
:106250000010884201D10020DBE70A4A12689178D9
:10626000084A526810786B460122FBF7AFF910B16B
:106270004FF0FF30CDE79DF800100248C1720020BA
:10628000C7E700009800002038B504462448807A0B
:1062900010B94FF0FF3038BD214890F8240010B1FC
:1062A0004FF0FF30F7E71E48007D50B134B1282C85
:1062B00004DCE0B2FFF77AFB0020ECE70020FFF7F8
:1062C00075FB042C01DA042404E0B4F57A7F01DDC7
:1062D0004FF47A744FF47A7090FBF4F0401EC0B221
:1062E00000900F4A126851780D4A526810786B4638
:1062F0000122FBF76BF910B14FF0FF30CBE79DF8AF
:106300000000401C4FF47A7191FBF0F081B2044818
:10631000C1810146C9894810FFF774FF0020BAE720
:106320009800002038B5044604F0700010B1012038
:10633000009005E014B10020009001E040200090A2
:106340002B4A1268917C2A4A526810786B460122C7
:10635000FBF73CF920B1002125488172481E38BD69
:106360009DF8000020F040012148017300200090BA
:1063700004F0400020B99DF8000040F004000090B7
:1063800004F0200020B99DF8000040F002000090C9
:1063900004F0100020B99DF8000040F001000090CA
:1063A00004F0080020B99DF8000040F0380000908B
:1063B0000F4A1268D17C0E4A526810786B4601224F
:1063C000FBF704F920B1002109488172481EC6E795
:1063D00024B1082C02D00020FFF7DEFE04488472AE
:1063E000002101753220FDF779FD0020B7E700009C
:1063F00098000020F8B504460D46164616B94FF031
:10640000FF30F8BD1A48807A10B94FF0FF30F8E736
:1064100020128DF80000E0B28DF801009DF8010017
:106420002844134949684989884202DD4FF0FF300A
:10643000E7E70F4A1268117E0D4A526810786B46E2
:106440000222FBF7C3F810B14FF0FF30D9E7EAB2F0
:10645000074B1B68597D064B5B6818783346FBF782
:10646000B5F810B14FF0FF30CBE70020C9E70000CE
:10647000980000200146002901DA484200E0084661
:106480007047000008B546E02348006840B1234843
:1064900008235222042100903220FBF77CF907E008
:1064A0001F4808235222042100903220FBF773F981
:1064B0001CA204210120FBF72AFB1D4908681D4985
:1064C000F9F738FF06461B49F9F766FF0546FAF764
:1064D00037F904460323224606210220FBF7E4FA9B
:1064E0002E220A210220FBF783FA1149086811497C
:1064F000F9F720FF0546FAF723F90A2190FBF1F29C
:1065000001FB1204012322460B210220FBF7AAFA09
:106510000A2001F06FF8B7E734012242E0000020C2
:10652000602D002042616C616E63655F43617200A3
:10653000E02D0020000020418CB0002009900027B1
:10654000804605900690079008900490039081463D
:10655000029082468346019088E100231A4605A9ED
:10656000C348006801F054FB0220FBF7F3FB0A90DC
:106570000320FBF7EFFB0B90BE48007800F02000F3
:10658000202805D0BB48007800F01000102807D163
:106590000023DDE90A21089801F0F0F9054611E031
:1065A000B548006838B10023DDE90A21059801F0FB
:1065B000E5F9054606E00123DDE90A21059801F029
:1065C000DDF90546AB48007800F0800098B9A9488D
:1065D000007800F0400070B9A648008800F48040C0
:1065E00048B9A448008800F4805020B94FF07F508B
:1065F000A24908601CE09F48007800F04000402855
:1066000013D09C48007800F0800080280DD0994875
:10661000008800F48050B0F5805F06D0954800886F
:1066200000F48040B0F5804F02D10020934908600B
:106630009048007800F08000802805D08D480078D0
:1066400000F04000402802D10798099012E08948E4
:10665000008800F48050B0F5805F06D0854800883F
:1066600000F48040B0F5804F02D10698099001E017
:10667000002009908249B1F904000999FCF7E6F875
:1066800006467F49B1F90200FAF74CF87D490090BF
:1066900008680021009AFCF725FC0446754800882C
:1066A00000F48050B0F5805F06D07248008800F496
:1066B0008040B0F5804F17D16E48008800F48050BC
:1066C000B0F5805F04D1671B601B00EB060810E08B
:1066D0006848008800F48040B0F5804F09D1601B05
:1066E000871BA4EB050804E0601B871B601B00EB05
:1066F00006086548874200DA074641F65830874267
:1067000000DD07466048804500DA804641F6583093
:10671000804500DD8046BAF1000F18D141F65830AF
:10672000874201D1804504D0574887420FD1804528
:106730000DD10498401C04900498C82805DD012060
:106740000290002004904FF0010A4FF0000BBAF1C4
:10675000010F21D14B4908684C49FAF74DF81BD27B
:10676000484908684A49FAF751F815D24549486836
:106770004849FAF74BF80FD2424948684649FAF7B8
:106780003BF809D20398401C03900398C82803DD06
:106790000020029003908246BAF1010F14D13949CA
:1067A00048683E49FAF732F80ED2BBF1000F0BD120
:1067B00009F10109B9F5967F1DDD0020029081469F
:1067C0004FF0010B824616E0BAF1010F13D12D49AB
:1067D00048683349FAF710F80DD2BBF1000F0AD11F
:1067E00009F10109B9F5967F05DD00200290814687
:1067F0004FF0010B8246BBF1010F0BD121494868D4
:106800002849FAF703F805D200274FF4E168002081
:1068100002900EE0BBF1010F0BD11A4948682249E2
:10682000F9F7EAFF05D24FF4E1674FF000080020C6
:106830000290029810B90198012801D10027B846AA
:106840000C48007800F00800082806D1002108460E
:10685000FBF746FB0120019005E041463846FBF777
:106860003FFB00200190012000F0C4FE75E600000F
:106870009C010020600100203401224270010020B0
:1068800074010020E02D0020A8E4FFFF0000A040DC
:106890000000A0C0000020C1000020410000B24262
:1068A0000000B2C20000A0420000A0C22DE9F041E9
:1068B00005460E461C4807681C480068001D00F08D
:1068C00067FD50B91948006890F82C1001208840E5
:1068D00017490968814316480160681C38B936B108
:1068E00012480168091D134800F090FD1AE07C1958
:1068F0000E4800684460BC4207D20C480168091D7C
:106900000D48006800F068FD0CE008480168091DAA
:106910000A48006800F060FD09480068844201D21E
:1069200007480460BDE8F0814C00002038000020DA
:10693000500000203C050020400000203C000020CA
:106940006800002010B5044600F06CFD2348006884
:10695000401C224908602248006840B92048046071
:106960000846006801280DD100F092F90AE01D48A0
:10697000006838B91A480068C06AE16A884201D8DC
:106980001748046018480068401C1749086094F8CC
:106990002C100120884015490968084313490860F4
:1069A000E16A01EB8101124A02EB8100211D00F036
:1069B0002DFD00F07BFD0B48006868B108480068B9
:1069C000C06AE16A884207D24FF0805009490860E6
:1069D000BFF34F8FBFF36F8F10BD00004800002042
:1069E00038000020540000206400002050000020E7
:1069F0006C02002004ED00E070B523E000F062FFBF
:106A00001348006808B9012000E00020054601F0A5
:106A100099FCBDB900F006FD0D48C068C468201D92
:106A200000F0B6FC0B480068401E0A4908600A489E
:106A30000068401E0849086000F038FD204600F05C
:106A400057F800BF044800680028D7D170BD000087
:106A500028050020480000204400002070B50446AE
:106A60000D46206C70B1216CE0680844E0606168FC
:106A7000E068884201D32068E0602846226CE16823
:106A8000F9F7CFFB70BD2DE9F04104460F461546DE
:106A90004FF00008A66B206C28B37DB93946226CF4
:106AA000A068F9F7BEFB216CA0680844A060D4E997
:106AB0000110884217D32068A06014E03946226C88
:106AC000E068F9F7AEFB216CE068401AE0602168ED
:106AD000E068884203D2216C6068401AE060022DB1
:106AE00001D106B1761E701CA0634046BDE8F0815E
:106AF00010B50446206B00F011FD204600F00EFD9D
:106B000010BD000030B54FF42053174800F00704C3
:106B10002CB1C01D20F00700134C041B1B1B0246A8
:106B2000124C22600024114D6C60D018083820F0FF
:106B300007000F4C206000240D4D2D686C600C4D3B
:106B40002D682C601146441A4C60094C24680C6076
:106B5000084D4C682C60084D4C682C604FF0004488
:106B6000064D2C6030BD0000500500207400002050
:106B70007C0000208400002080000020880000208D
:106B800000BFFFF739FF064800680128F9D94FF028
:106B9000805004490860BFF34F8FBFF36F8FF0E759
:106BA0006C02002004ED00E02DE9F04106460D46A0
:106BB00017469846069C0DB9246000E02760E663FE
:106BC00025640121204601F0F9F8BDE8F0810000BC
:106BD0002DE9FF5F81460E469246DDE90E7B109C53
:106BE000AAF10100216B01EB800828F0070808F0EA
:106BF000070008B9012000E0002028B940F22B323C
:106C00001AA11FA0FCF794F9002507E0715D04F1BB
:106C100034004155705D00B902E06D1C102DF5D3B4
:106C200000BF002143200155202F00D31F27E7621A
:106C3000201D00F0CEFB04F1180000F0CAFB246117
:106C4000C7F12000A06164620020606484F84800FD
:106C500049464046039A00F0DBF92060BBF1000F83
:106C600001D0CBF80040BDE8FF9F00002E2E5C460F
:106C700072656552544F535C7461736B732E63007D
:106C80004572726F723A25732C25640D0A0000005C
:106C900010B5002407E004EB84010F4A02EB8100E9
:106CA00000F08AFB641C202CF5D30C4800F084FB18
:106CB0000B4800F081FB0B4800F07EFB0A4800F017
:106CC0007BFB0A4800F078FB044809490860044847
:106CD0000849086010BD00006C020020EC04002090
:106CE0000005002014050020280500203C05002098
:106CF0003C0000204000002010B50146164800E08E
:106D0000006803688B42FBD30246436813448B42FE
:106D100004D143684C682344436001460A464B68EB
:106D200013440468A34211D10C4C03682468A342A5
:106D300008D04B680468646823444B6003681B6890
:106D40000B6005E0054B1B680B6001E003680B60FE
:106D5000884200D0016010BD740000207C0000203B
:106D600070B5054600F05EFBA86B08B9012400E091
:106D7000002400F09BFB204670BD70B5054600F076
:106D800051FBA86BE96B884201D1012400E000248B
:106D900000F08CFB204670BD0A490968096809B9F2
:106DA000012100E0002121B14FF0FF31064A1160BE
:106DB00006E004490968C968C868034A4168116067
:106DC000704700003C000020680000200B4800686D
:106DD000401C08B9012000E0002020B9F42208A1DD
:106DE00012A0FCF7A5F800BF502080F31188BFF374
:106DF0004F8FBFF36F8F00BF00BFFEE78C000020F6
:106E00002E2E5C4672656552544F535C706F7274DF
:106E100061626C655C525644535C41524D5F434D18
:106E2000335C706F72742E63000000004572726FE5
:106E3000723A25732C25640D0A00000070B50446D3
:106E400000F0F0FA94F9455010E0606A08B90120AA
:106E500000E0002038B904F1240001F019FA18B15B
:106E600000F088FC00E003E0681E45B2002DECDC79
:106E700000BFFF2084F8450000F018FB00F0D2FAB4
:106E800094F9445010E0206908B9012000E0002086
:106E900048B904F1100001F0FBF908B100F06AFCF8
:106EA000681E45B200E001E0002DECDC00BFFF20D1
:106EB00084F8440000F0FAFA70BD00002DE9F041BA
:106EC00004464FF0000800F0FDFC3E48006808B999
:106ED000FFF718FE3C480068204000285FD1A4B1AD
:106EE000083404F0070080B104F00700C0F1080086
:106EF000044404F0070008B9012000E0002020B994
:106F0000BF2232A13BA0FCF713F8002C47D03D482C
:106F10000068844243D83C4E3046056801E02E4666
:106F20002D686868A04202D228680028F7D1254859
:106F30000068854233D0306800F108082868306066
:106F40006868001B102813D92F1907F0070008B92B
:106F5000012000E0002020B9EC221CA125A0FBF7B5
:106F6000E7FF6868001B78606C603846FFF7C4FE76
:106F7000244968680968081A2249086008460068B8
:106F800022490968884203D21E4800681F490860E8
:106F90000D4968680968084368600020286001F0AE
:106FA000D1F908F0070008B9012000E0002028B955
:106FB0004FF4967205A10FA0FBF7BAFF4046BDE85B
:106FC000F08100007C000020880000202E2E5C460E
:106FD00072656552544F535C706F727461626C6578
:106FE0005C4D656D4D616E675C686561705F342EE8
:106FF000630000004572726F723A25732C25640D90
:107000000A0000008000002074000020840000209E
:10701000001F4FF080730360001F21F00103036025
:10702000001F034B036014380260203870470000D3
:10703000CD6D000870B588B002A905A8FEF7AAFEBC
:107040000446032C3ED101A8FEF7FCFA0598F9F797
:1070500069FB06460199F9F76DF90546F9F770FBEA
:1070600005900698F9F75EFB06460199F9F762F973
:107070000546F9F765FB06900798F9F753FB0646B6
:107080000199F9F757F90546F9F75AFB079005A852
:10709000FDF7A8FA6846FEF781FABDF800100298DD
:1070A00048430290BDF80010039848430390BDF890
:1070B000001004984843049002A8FDF7C3F900208B
:1070C00008B070BD0120FBE738B50446214890F8B0
:1070D0002400C0B114B10220009001E00020009013
:1070E0001C4A1268D17B1B4A526810786B460122F9
:1070F000FAF76CFA10B14FF0FF3038BD9DF8001070
:107100001448417423E01348807A10B94FF0FF30DF
:10711000F3E724B10F48407C08B10020EDE714B13B
:107120000120009001E0002000900A4A1268D17B03
:10713000084A526810786B460122FAF747FA10B1F4
:107140004FF0FF30D9E79DF800100248417400204D
:10715000D3E70000980000202DE9F04106460F46D5
:10716000F9F796FC041E0D4618BF0120284320F0B5
:107170000040C0F17F6000F1E040C00F0ED0301C35
:1071800018BF0120384320F00040C0F17F6000F1BB
:10719000E040C00F04BF0120FBF766FF20462946F0
:1071A000BDE8F0817CB50546012400F03BF90022E2
:1071B0001021042000F0F2FC204908600846006815
:1071C00010B11FA0FBF7B4FE264802210023802245
:1071D000CDE9001024A1274800F06AFF0446012CE5
:1071E00002D125A0FBF7A4FE2948052100234FF476
:1071F0000072CDE9001027A1294800F059FF04468C
:10720000012C02D127A0FBF793FE2B480521002378
:107210004FF40072CDE9001028A12C4800F048FF7F
:107220000446012C02D12AA0FBF782FE2F480068F9
:1072300000F01AFA00F03AF97CBD00009C01002031
:10724000B4B4BDA852656F6D74655F5175657565A1
:10725000CFFBCFA2B6D3C1D0B3C9B9A6A3A10D0AA3
:1072600000000000900100206F6C65645F74617322
:107270006B000000856400084F4C45442054415386
:107280004B2053554343454544210D0A000000005F
:10729000940100207069645F7461736B00000000EA
:1072A00039650008504944205441534B20535543FD
:1072B00043454544210D0A0098010020626C756524
:1072C000746F6F74685F7461736B0000A13B00089A
:1072D000424C5545544F4F5448205441534B205332
:1072E000554343454544210D0A0000008C01002010
:1072F00010B586B00446012144F20400FAF7B0FC50
:107300004FF40070ADF8140003208DF8160018201B
:107310008DF8170005A91C48F9F7B4FD4FF48060FB
:10732000ADF8140004208DF8170005A91648F9F7E8
:10733000A9FD25208DF8000003208DF801008DF8AF
:10734000020001208DF803006846FAF7CDF9019498
:107350000020ADF80800ADF80A00ADF80C00ADF85B
:1073600010000C20ADF80E0001A90848FBF746FDFF
:10737000012240F225510548FBF71AFD012103487F
:10738000FBF7E0FC06B010BD0008014000380140EA
:1073900001460A69D1E901309860D1E901035860DA
:1073A0005068884201D188685060002008611068E8
:1073B000401E10601068704700F1080141604FF0F6
:1073C000FF31816000F10801C160016100210160AD
:1073D000704700210161704710B502460B685C1CC4
:1073E0000CB9106907E002F1080000E04068446849
:1073F00024689C42FAD944684C604C68A16088605B
:1074000041600A611468641C146010BD42684A60DF
:1074100093688B60936859609160086103685B1C96
:107420000360704710B500BF502080F31188BFF390
:107430004F8FBFF36F8F00BF0B480068401C0A4995
:1074400008600846006801280DD108480068C0B2ED
:1074500008B9012000E0002028B94FF4BD7204A152
:107460000EA0FBF765FD10BD8C00002004ED00E0D0
:107470002E2E5C4672656552544F535C706F727469
:1074800061626C655C525644535C41524D5F434DA2
:10749000335C706F72742E63000000004572726F6F
:1074A000723A25732C25640D0A00000010B50B48B4
:1074B000006828B940F2811209A114A0FBF738FD39
:1074C00006480068401E054908600846006820B963
:1074D000002080F3118800BF00BF10BD8C00002089
:1074E0002E2E5C4672656552544F535C706F7274F9
:1074F00061626C655C525644535C41524D5F434D32
:10750000335C706F72742E63000000004572726FFE
:10751000723A25732C25640D0A00000070B50646EA
:107520003546002E35D0083D2C461A49606809685A
:10753000084008B1012000E0002028B94FF4A072F3
:1075400015A11FA0FBF7F4FC206808B9012000E09A
:10755000002028B940F241120FA119A0FBF7E8FC66
:107560000C4960680968084098B1206888B90949E1
:10757000606809688843606000F0A4F91449606895
:1075800009680844124908602046FFF7B5FB00F07F
:10759000D9FE70BD880000202E2E5C4672656552B3
:1075A000544F535C706F727461626C655C4D656DB5
:1075B0004D616E675C686561705F342E630000002A
:1075C0004572726F723A25732C25640D0A00000013
:1075D00080000020064800684FF47A71B0FBF1F09B
:1075E000401E4FF0E021486107200861704700000D
:1075F0002400002070B504460025ACB10F48006897
:1076000008B9012000E0002028B940F2CF420CA1C7
:1076100010A0FBF78DFC00F055F900212046FFF784
:1076200045F900F08FFE05463DB94FF080500D49F9
:107630000860BFF34F8FBFF36F8F70BD70000020E5
:107640002E2E5C4672656552544F535C7461736BA9
:10765000732E63004572726F723A25732C25640D88
:107660000A00000004ED00E070B50546FFF7DAFE01
:1076700015B92D48006800E028460446201DFFF794
:1076800087FE78B9E06A00EB8000284951F82000B5
:1076900040B994F82C10012088402549096881439D
:1076A00023480160A06A18B104F11800FFF770FECA
:1076B00020480068401C1F4908601B48006884423D
:1076C00009D1211D1C48FFF7A1FE1C480068401C81
:1076D0001A49086009E01A480068401E1849086005
:1076E0002046FFF705FAFFF757FBFFF7DFFE1548C7
:1076F0000068C0B10C480068844214D11248006888
:1077000008B9012000E0002028B940F265420FA12D
:1077100013A0FBF70DFC4FF0805015490860BFF334
:107720004F8FBFF36F8F70BD380000206C020020B8
:1077300050000020640000202805002044000020A4
:107740004800002054000020700000202E2E5C46CF
:1077500072656552544F535C7461736B732E630092
:107760004572726F723A25732C25640D0A00000071
:1077700004ED00E001200149086070475C00002032
:1077800070B504460D462CB940F6063207A10CA090
:10779000FBF7CEFB0E48016818312046FFF71CFEB0
:1077A00001212846FFF782F870BD00002E2E5C46AE
:1077B00072656552544F535C7461736B732E630032
:1077C0004572726F723A25732C25640D0A00000011
:1077D0003800002010B504462CB940F6C13205A18E
:1077E00009A0FBF7A5FB0C48006820600B48006867
:1077F000606010BD2E2E5C4672656552544F535C1E
:107800007461736B732E63004572726F723A2573E5
:107810002C25640D0A000000600000204C000020B0
:107820001CB5184800210B468022CDE9001016A196
:10783000174800F03DFC0446012C15D100BF502034
:1078400080F31188BFF34F8FBFF36F8F00BF4FF0EE
:10785000FF301049086001200F49086000200F49DF
:10786000086000F031F90BE0601C08B1012000E075
:10787000002028B940F2847209A10EA0FBF758FB42
:107880001CBD00006C00002049444C450000000075
:10789000816B000868000020540000204C0000208C
:1078A0002E2E5C4672656552544F535C7461736B47
:1078B000732E63004572726F723A25732C25640D26
:1078C0000A00000002480068401C01490860704737
:1078D0007000002010B51B48006818B101201A493B
:1078E00008602DE000201849086018480068B0FAC8
:1078F00080F0C0F11F0404EB8400154951F820000A
:1079000008B1012000E0002028B940F6F62211A1BC
:1079100015A0FBF70DFB04EB84010D4A02EB81007F
:1079200041684968416000F1080142688A4202D119
:107930004168496841604168C9680F4A116000BFE9
:1079400010BD0000700000205C00002050000020EE
:107950006C0200202E2E5C4672656552544F535CBB
:107960007461736B732E63004572726F723A257384
:107970002C25640D0A000000380000202DE9F04F8E
:1079800087B005460C4616469946424805900020A9
:107990000490A119481BF8F7C5FE3F4908603F480D
:1079A0000068F8F7FAFE82464FF066323C4BF8F773
:1079B000D8FD0746F8F704FF3849086036480068E4
:1079C000F8F7EBFE07464FF03332364BF8F7C9FDB8
:1079D000CDE9000131480068F8F7DFFE8246DDE9B5
:1079E0000023F8F717FDCDE90201F8F7E9FE2B496E
:1079F0000860084601682C480068F8F743FC2A49EB
:107A000008602A4928480068F8F700FF02D2274892
:107A100025490860264924480068F8F7EDFE02D29F
:107A20002348214908604846F8F77CFE82461E48F4
:107A300004990068F8F77EFC83465146F8F77AFC13
:107A40000746164805990068F8F774FC80463946E1
:107A5000F8F718FC17490860174908681749F8F73C
:107A6000CBFE0DD3144908681549F8F7CFFE07D3AC
:107A70001448006820B9462C02DC14F1460F02DAE3
:107A80000020094908600B480068F8F759FE07B064
:107A9000BDE8F08F000096C3800100208401002023
:107AA0006666E63F3333D33F8801002000606A46B4
:107AB00000606AC67C010020E02D002000008CC21E
:107AC00000008C42340122421CB52248014609784C
:107AD0000191FF21024611700146097800919DF83D
:107AE000001001F050011C4A117007211B4A11605F
:107AF00009E01A490968491E184A11609DF80010EA
:107B00004906090E00919DF8001001F080018029BE
:107B1000EFD0124909680902104A1160114609881C
:107B200001F4E06111600B4A019911700C48006882
:107B300040F470000A4908600846006840F0704050
:107B40000860FFF747FD002006490860F8F7ECFAE7
:107B500000201CBD00E400E0900000209400002004
:107B600020ED00E08C00002010B500BF502080F315
:107B70001188BFF34F8FBFF36F8F00BF00F0D8FAAB
:107B800018B14FF080500449086000BF002080F316
:107B9000118800BF10BD000004ED00E02DE9F8439E
:107BA00005460E4690460DB1012000E0002028B9A0
:107BB0004FF4C4720DA112A0FBF7BAF90EB9002759
:107BC00001E005FB06F707F14800FFF777F90446E7
:107BD00044B104F1480943464A46314628460094D8
:107BE000FEF7E2FF2046BDE8F88300002E2E5C463B
:107BF00072656552544F535C71756575652E6300EF
:107C00004572726F723A25732C25640D0A000000CC
:107C10002DE9FF4782B005460E461F464FF0000A89
:107C20002C462CB940F2DC425AA15FA0FBF780F948
:107C30000EB9206C08B9012000E0002028B940F2FC
:107C4000DD4254A158A0FBF773F900F061FA08B9BE
:107C5000049808B9012000E0002028B94FF49C6284
:107C60004CA151A0FBF764F900BFFFF7DBFBD4F890
:107C70003890B9F1000F38D0D4F80C803146204646
:107C8000FEF7ECFEB7B9A9F10100A063206908B9BD
:107C9000012000E0002010BB04F1100000F0F8FA11
:107CA000E8B14FF0805044490860BFF34F8FBFF3F5
:107CB0006F8F14E0C4F80C80606A08B9012000E0FE
:107CC000002060B904F1240000F0E2FA38B14FF06E
:107CD000805039490860BFF34F8FBFF36F8FFFF7B4
:107CE000E5FB012006B0BDE8F087049818B9FFF75E
:107CF000DDFB0020F6E7BAF1000F04D16846FFF77C
:107D000069FD4FF0010AFFF7D1FBFFF7DBFDFFF73D
:107D100089FB94F94400401C10B9002084F8440009
:107D200094F94500401C10B9002084F84500FFF785
:107D3000BDFB04A9684600F06BF9F0B92046FFF7D7
:107D40000FF8A0B104F124000499FFF719FD2046B3
:107D5000FFF774F800F0F6FA002886D14FF0805053
:107D600015490860BFF34F8FBFF36F8F7DE7204643
:107D7000FFF764F800F0E6FA77E72046FFF75EF8D1
:107D800000F0E0FA2046FEF7EBFF0028EED00020DE
:107D9000A8E700002E2E5C4672656552544F535C76
:107DA00071756575652E63004572726F723A257341
:107DB0002C25640D0A00000004ED00E070B50546B6
:107DC0000E462C462CB940F21B121EA122A0FBF736
:107DD000AFF8FFF727FBD4E90F12206801FB020080
:107DE00060600020A0632068A060E06B401E226CF1
:107DF000216800FB0210E060FF2084F8440084F852
:107E000045009EB9206908B9012000E00020A8B90A
:107E100004F1100000F03CFA80B14FF0805012499C
:107E20000860BFF34F8FBFF36F8F07E004F11000BE
:107E3000FFF7C2FA04F12400FFF7BEFAFFF736FBA2
:107E4000012070BD2E2E5C4672656552544F535C06
:107E500071756575652E63004572726F723A257390
:107E60002C25640D0A00000004ED00E02DE9FF431D
:107E700083B0064688461D464FF0000934462CB9AB
:107E800040F2D92258A15DA0FBF752F8B8F1000FDB
:107E900001D1206C08B9012000E0002028B940F28F
:107EA000DA2251A155A0FBF743F8022D02D1E06B75
:107EB000012801D1012000E0002028B940F2DB2296
:107EC00049A14EA0FBF734F800F022F908B9059853
:107ED00008B9012000E0002028B940F2DE2242A1CA
:107EE00046A0FBF725F800BFFFF79CFAA06BE16BFB
:107EF000884201D3022D28D12A4641462046FEF76A
:107F0000C2FD0746606A08B9012000E0002068B998
:107F100004F1240000F0BCF988B14FF080503B49D7
:107F20000860BFF34F8FBFF36F8F08E03FB14FF092
:107F3000805036490860BFF34F8FBFF36F8FFFF754
:107F4000B5FA012007B0BDE8F083059818B9FFF72E
:107F5000ADFA0020F6E7B9F1000F04D101A8FFF750
:107F600039FC4FF00109FFF7A1FAFFF7ABFCFFF76F
:107F700059FA94F94400401C10B9002084F84400D8
:107F800094F94500401C10B9002084F84500FFF723
:107F90008DFA05A901A800F03BF8F0B92046FEF7DC
:107FA000ECFEA0B104F110000599FFF7E9FB2046B3
:107FB000FEF744FF00F0C6F9002895D14FF080503D
:107FC00012490860BFF34F8FBFF36F8F8CE72046D5
:107FD000FEF734FF00F0B6F986E72046FEF72EFFE5
:107FE00000F0B0F90020ADE72E2E5C4672656552B8
:107FF000544F535C71756575652E63004572726FE1
:10800000723A25732C25640D0A00000004ED00E08F
:108010002DE9F04104460D462CB940F6CB3219A1AA
:108020001DA0FAF785FF2DB940F6CC3215A11AA094
:10803000FAF77EFFFFF7F6F91B4807682868401C2F
:1080400008B9002619E0194920680968884204D057
:108050006068B84201D801260FE06068381A2968C4
:10806000884209D228686168791A401A2860204637
:10807000FFF7B0FB002600E00126FFF717FA3046B5
:10808000BDE8F0812E2E5C4672656552544F535CFC
:108090007461736B732E63004572726F723A25734D
:1080A0002C25640D0A0000004C0000206000002018
:1080B0002DE9FF4F85B0804689461746DDE912ABB2
:1080C000B800FEF7FBFE064656B14C20FEF7F6FE62
:1080D00004460CB1266304E03046FFF71FFA00E0C7
:1080E00000247CB10020CDE900ABCDE902403A4646
:1080F00049464046089BFEF76BFD2046FEF722FCF2
:10810000012501E04FF0FF35284609B0BDE8F08FAA
:108110000549096809B9012005E00449096809B958
:10812000022000E000207047540000207000002072
:108130002DE9F0414FF0000841480068002872D155
:1081400040480068451C3F480560EDB93E4800685E
:10815000006808B9012000E0002028B940F6D912D3
:108160003AA13FA0FAF7E4FE3748076840480068A4
:10817000354908603E4807603E480068401C3D495C
:108180000860FEF709FE00BF3B48006885423CD30B
:1081900000BF2D480068006808B9012000E00020F9
:1081A00020B14FF0FF30344908602DE026480068C8
:1081B000C068C4686668B54202D22F48066023E0F2
:1081C000201DFFF7E5F8A06A18B104F11800FFF7C9
:1081D000DFF894F82C1001208840284909680843EA
:1081E00026490860E16A01EB8101254A02EB810022
:1081F000211DFFF70BF92349E06A0968C96A884223
:10820000C7D34FF00108C4E700BF1E480068C06A2A
:1082100000EB80001A4951F82000012801D94FF0E5
:10822000010805E0FFE718480068401C164908608F
:108230001648006808B14FF001084046BDE8F081DB
:10824000700000204C0000203C0000202E2E5C46D8
:1082500072656552544F535C7461736B732E630087
:108260004572726F723A25732C25640D0A00000066
:108270004000002060000020680000205000002026
:108280006C02002038000020580000205C00002014
:1082900070B50646F068C4682CB940F661321AA180
:1082A0001EA0FAF745FE04F11800FFF771F81F4809
:1082B0000068A8B9201DFFF76BF894F82C10012076
:1082C00088401B490968084319490860E16A01EBC5
:1082D0008101184A02EB8100211DFFF797F804E0A5
:1082E00004F118011448FFF791F81449E06A09688D
:1082F000C96A884204D9012501201149086000E0BB
:108300000025284670BD00002E2E5C467265655221
:10831000544F535C7461736B732E63004572726FBC
:10832000723A25732C25640D0A00000070000020AD
:10833000500000206C0200201405002038000020AE
:108340005C00002070B5002400263448006828B97D
:108350004FF4FD6232A137A0FAF7EAFDFFF762F8A9
:108360002E480068401E2D49086008460068002815
:108370004FD13448006800284BD024E03248C06810
:10838000C46804F11800FFF703F8201DFFF700F898
:1083900094F82C10012088402C49096808432B4987
:1083A0000860E16A01EB8101294A02EB8100211D8D
:1083B000FFF72CF82749E06A0968C96A884202D3A6
:1083C0000120254908602048006808B9012000E024
:1083D00000200028D2D00CB1FEF7DEFC1F48056853
:1083E00065B100BFFFF7A4FE10B101201A49086073
:1083F0006D1E002DF6D1002018490860164800684F
:1084000038B10126300716490860BFF34F8FBFF31C
:108410006F8FFFF74BF8304670BD000070000020F2
:108420002E2E5C4672656552544F535C7461736BBB
:10843000732E63004572726F723A25732C25640D9A
:108440000A00000048000020140500205000002011
:108450006C020020380000205C0000205800002042
:1084600004ED00E075191A0C6A231B1C1F2072749E
:10847000433B4138393A6B6C376F06246D6E7000A0
:108480006800000476005401F7FD0001830000003D
:108490000008000000010018320005000000204123
:1084A0000000D242295C0F3E9A99993E3333733FC4
:1084B000295C0F3E00007000000000240000000254
:1084C0000003000000650054FFEF0000FA80000B7D
:1084D00012820001030C30C30E8C8CE914D54002CB
:1084E00013710F8E3883F8833000F883258EF8835C
:1084F0003000F883FFFFFFFF0FFEA9D62400040021
:108500001A8279A10000003CFFFF0000001000006B
:1085100038836FA2003E03304000000002CAE30926
:108520003E8000002000000000000000400000002D
:1085300060000000000C0000000C186E00000692A5
:108540000A16C0DFFFFF0256FD8CD377FFE1C49609
:10855000E0C5BEAA00000000FFFF0B2B000016576D
:10856000000003594000000000001DFA00026C1DCD
:10857000000000003FFFDFEB003EB3B6000D2278A5
:1085800000002F3C00000000001942B5000039A295
:108590000000B365D90E9FC91DCF4C3430000000D8
:1085A000500000003BB67AE80064000000C80000FC
:1085B00000000000100000001000FA921000225E7F
:1085C000000D229F0001000000320000FF46000065
:1085D00063D400001000000004D6000004CC0000AA
:1085E00004CC0000000010720000004000000000F9
:1085F0000000000000060002000500070000000067
:108600000064000000000000000000050005006498
:1086100000200000000000000000000000004000FA
:108620000000030000000032F8980000FF65000021
:10863000830F0000FF9BFC00000000000000000012
:10864000000000000000000000000000000000002A
:10865000000000000000000000000000000000001A
:108660000000100040000000000000060000B26A98
:10867000000200000001FB830068000000D9FC003C
:108680007CF1FF830000000000650000006403E847
:1086900000640028000000250000000016A0000073
:1086A0000000100000001000002F0000000001F486
:1086B0000000100000280000FFFF4581FFFFFA7254
:1086C0000000000000000000004400050005BAC6DC
:1086D000004778A200000001000000000000060032
:1086E000000000140000254D002F706D000005AE45
:1086F000000C02D00000000000000000000000009C
:1087000000000000001B000000000000000000004E
:1087100000000000006400000008000000000000ED
:108720000000000000000000000000000000000049
:108730000000000000000000000000000000000039
:108740000000000000000000000000000000000029
:108750000000000000000000000000000000000019
:108760000000000000000000000000000000000009
:1087700000000000001B00000000000000000000DE
:10878000000E000E00000AC70004000000000032C6
:10879000FFFFFF9C00000B2B000000020000000107
:1087A00000000064FFE50000000000000000000081
:1087B00000000000000000010000000000010000B7
:1087C0000000000000018000000180000001800026
:1087D000002426D300000000000000000006001066
:1087E0000096003C000000000000000000000000B7
:1087F000000000000C0A4E68CDCF7709501667596B
:10880000C619CE8200000000000000000000000039
:1088100000000000000000000000000017D78400E6
:10882000030000000000000000000000C7938F9DBF
:108830001E1B1C19000000000000000000000000CA
:108840000000000000000000000000000203188586
:1088500000004000000000030000000300000000D2
:1088600000000000400000000000000000000000C8
:1088700000000000000000000000000000000000F8
:1088800000000000000000000000000000000000E8
:108890000000000000000000677DDF7E72902E5512
:1088A0004CF6E68800000000000000000000000018
:1088B00000000000D8DCB4B8B0D8B9ABF3F8FAB314
:1088C000B7BB8E9EAEF132F51BF1B4B8B08097F114
:1088D000A9DFDFDFAADFDFDFF2AAC5CDC7A90CC998
:1088E0002C97F1A989264666B28999A92D557DB0A4
:1088F000B08AA896365676F1BAA3B4B280C0B8A8AA
:108900009711B28398BAA3F0240844106418B2B93E
:10891000B49883F1A329557DBAB5B1A38393F00030
:108920002850F5B2B6AA839328547CF1B9A3829358
:1089300061BAA2DADEDFDB819AB9AEF5606870F168
:10894000DABAA2DFD9BAA2FAB9A38292DB31BAA20B
:10895000D9BAA2F8DF85A4D0C1BBAD83C2C5C7B860
:10896000A2DFDFDFBAA0DFDFDFD8D8F1B8AAB38D8E
:10897000B4980D355DB2B6BAAF8C96198F9FA70E1D
:10898000161EB49AB8AA872C547CBAA4B08AB691A1
:10899000325676B28494A4C808CDD8B8B4B0F19950
:1089A00082A82D557D98A80E161EA22C547C92A448
:1089B000F02C5078F184A898C4CDFCD80DDBA8FC2D
:1089C0002DF3D9BAA6F8DABAA6DED8BAB2B6869628
:1089D000A6D0F3C841DAA6C8F8D8B0B4B882A89235
:1089E000F52C548898F135D9F418D8F1A2D0F8F9BB
:1089F000A884D9C7DFF8F883C5DADF69DF83C1D877
:108A0000F40114F1A8824EA884F311D182F5D99211
:108A1000289788F109F41C1CD884A8F3C0F9D1D98F
:108A20009782F129F40DD8F3F9F9D1D982F4C20370
:108A3000D8DEDF1AD8F1A2FAF9A88498D9C7DFF8EE
:108A4000F8F883C7DADF69DFF883C3D8F40114F1DB
:108A500098A8822EA884F311D182F5D992509788D4
:108A6000F109F41CD884A8F3C0F8F9D1D99782F1A0
:108A700049F40DD8F3F9F9D1D982F4C403D8DEDF73
:108A8000D8F1AD8898CCA809F9D98292A8F57CF1E3
:108A9000883ACF944A6E98DB6931DAADF2DEF9D8C4
:108AA0008795A8F221D1DAA5F9F417D9F1AE8ED0C5
:108AB000C0C3AE82C684C3A88595C8A588F2C0F19C
:108AC000F4010EF18E9EA8C63E56F554F18872F45C
:108AD0000115F19845856EF58E9E0488F142985AED
:108AE0008E9E068869F4011CF1981E1108D0F504C9
:108AF000F11E970202983625DBF9D985A5F3C1DA74
:108B000085A5F3DFD88595A8F309DAA5FAD882926E
:108B1000A8F578F1881A849F26889821DAF41DF345
:108B2000D8879F39D1AFD9DFDFFBF9F40CF3D8FA3E
:108B3000D0F8DAF9F9D0DFD9F9D8F40BD8F3879F58
:108B400039D1AFD9DFDFF41DF3D8FAFCA869F9F900
:108B5000AFD0DADEFAD9F88F9FA8F1CCF398DB45D5
:108B6000D9AFDFD0F8D8F18F9FA8CAF38809DAAF60
:108B70008FCBF8D8F2AD978D0CD9A5DFF9BAA6F353
:108B8000FAF412F2D8950DD1D9BAA6F3FADAA5F211
:108B9000C1BAA6F3DFD8F1BAB2B68696A6D0CAF3A8
:108BA00049DAA6CBF8D8B0B4B8D8AD84F2C0DFF1BA
:108BB0008FCBC3A8B2B68696C8C1CBC3F3B0B48876
:108BC00098A821DB718D9D71859521D9ADF2FAD8D8
:108BD0008597A828D9F408D8F28D29DAF405D9F2B6
:108BE00085A4C2F2D8A88D9401D1D9F411F2D88706
:108BF00021D8F40AD8F28498A8C801D1D9F411D8A0
:108C0000F3A4C8BBAFD0F2DEF8F8F8F8F8F8F8F83B
:108C1000D8F1B8F6B5B9B08A95A3DE3CA3D9F8D897
:108C20005CA3D9F8D87CA3D9F8D8F8F9D1A5D9DFB5
:108C3000DAFAD8B18530F7D9DED8F830ADDADED837
:108C4000F2B48C99A32D557DA083DFDFDFB591A011
:108C5000F629D9FBD8A0FC29D9FAD8A0D051D9F847
:108C6000D8FC51D9F9D879D9FBD8A0D0FC79D9FA58
:108C7000D8A1F9F9F9F9F9A0DADFDFDFD8A1F8F81E
:108C8000F8F8F8ACDEF8ADDE8393AC2C547CF1A898
:108C9000DFDFDFF69D2CDAA0DFD9FADB2DF8D8A8CC
:108CA00050DAA0D0DED9D0F8F8F8DB55F8D8A8789B
:108CB000DAA0D0DFD9D0FAF8F8F8F8DB7DF8D89C44
:108CC000A88CF530DB38D9D0DEDFA0D0DEDFD8A825
:108CD00048DB58D9DFD0DEA0DFD0DED8A868DB7053
:108CE000D9DFDFA0DFDFD8F1A888902C547C98A8CA
:108CF000D05C38D1DAF2AE8CDFF9D8B087A8C1C128
:108D0000B188A8C6F9F9DA36D8A8F9DA36D8A8F9B8
:108D1000DA36D8A8F9DA36D8A8F9DA36D8F78D9D38
:108D2000ADF818DAF2AEDFD8F7ADFA30D9A4DEF933
:108D3000D8F2AEDEFAF983A7D9C3C5C7F1889BA7DD
:108D40007AADF7DEDFA4F8849408A797F300AEF2BB
:108D50009819A488C6A39488F632DFF28393DB09BE
:108D6000D9F2AADFD8D8AEF8F9D1DAF3A4DEA7F1A8
:108D7000889B7AD8F38494AE19F9DAAAF1DFD8A8DF
:108D800081C0C3C5C7A39283F628ADDED9F8D8A3A6
:108D900050ADD9F8D8A378ADD9F8D8F8F9D1A1DA7F
:108DA000DEC3C5C7D8A18194F818F2B089ACC3C599
:108DB000C7F1D8B8B4B09786A8319B069907AB978E
:108DC00028889BF00C201440B0B4B8F0A88A9A28E8
:108DD0005078B79BA8295179247059446938644860
:108DE00031F1BBAB88002C547CF0B38BB8A80428BD
:108DF0005078F1B088B49726A85998BBABB38B02D2
:108E0000264666B0B8F08A9CA82951798B295179F9
:108E10008A2470598B2058718A4469388B3940688C
:108E20008A6448318B30496088F1AC002C547CF066
:108E30008CA804285078F1889726A85998AC8C0201
:108E4000264666F0899CA8295179247059446938CE
:108E5000644831A98809205970AB11384069A819B4
:108E60003148608CA83C415C207C00F187981986D1
:108E7000A86E767EA999882D557DD8B1B5B9A3DFA6
:108E8000DFDFAED0DFAAD0DEF2ABF8F9D9B087C40D
:108E9000AAF1DFDFBBAFDFDFB9D8B1F1A3978E60F6
:108EA000DFB084F2C8F8F9D9DED89385F14AB183EE
:108EB000A308B5839A0810B79F10D8F1B0BAAEB026
:108EC0008AC2B2B68E9EF1FBD9F41DD8F9D90CF145
:108ED000D8F8F8AD61D9AEFBD8F40CF1D8F8F8ADFC
:108EE00019D9AEFBDFD8F416F1D8F8AD8D61D9F4FD
:108EF000F4ACF59C9C8DDF2BBAB6AEFAF8F40BD827
:108F0000F1AED0F8AD51DAAEFAF8F1D8B9B1B6A3F6
:108F1000839C08B9B1839AB5AAC0FD3083B79F106E
:108F2000B58B93F20202D1ABDADED8F1B080BAABE6
:108F3000C0C3B284C1C3D8B1B9F38BA391B609B48D
:108F4000D9ABDEB0879CB9A3DDF1B38B8B8B8B8B58
:108F5000B087A3A3A3A3B28BB69BF2A3A3A3A3A39F
:108F6000A3A3A3A3A3F1B087B59AA3F39BA3A3DC08
:108F7000BAACDFB9A3A3A3A3A3A3A3A3A3A3A3A34F
:108F8000A3A3A3A3D8D8D8BBB3B7F1AAF9DAFFD962
:108F9000809AAA28B48098A720B79787A86688F0F7
:108FA0007951F1902C870CA781976293F0717160D1
:108FB00085940129517990A5F1284C6C870C95185E
:108FC0008578A38390284C6C886CD8F3A28200F239
:108FD00010A8921980A2F2D926D8F188A84DD948B4
:108FE000D896A83980D93CD89580A839A68698D932
:108FF0002CDA87A72CD8A8899519A980D938D8A8A0
:109000008939A980DA3CD8A82EA83990D90CD8A8DB
:10901000953198D90CD8A809D9FFD801DAFFD8958D
:1090200039A9DA26FFD890A80D8999A8108098212F
:10903000DA2ED88999A83180DA2ED8A88696318080
:10904000DA2ED8A8873180DA2ED8A88292F3418010
:10905000F1D92ED8A882F31980F1D92ED882ACF399
:10906000C0A28022F1A62EA72EA92298A829DAACA8
:10907000DEFFD8A2F22AF1A92E8292A8F23180A6B0
:1090800096F1D900AC8C9C0C30ACDED0DEFFD88CD5
:109090009CACD010ACDE8092A2F24C82A8F1CAF255
:1090A00035F19688A6D900D8F1FF00000000000035
:1090B00000000000000000000000000000F80000B8
:1090C0000000000000333000000000100C06100CFF
:1090D0000600000000000000000040C07840C0789A
:1090E0004000043F04043F040400007088FC083082
:1090F0000000001820FF211E0000F008F000E0181A
:10910000000000211C031E211E0000F008887000D2
:1091100000001E2123241927211010160E00000024
:1091200000000000000000000000000000E0180443
:109130000200000000071820400000020418E000B0
:1091400000000040201807000000404080F08040F0
:1091500040000202010F01020200000000F00000C6
:1091600000000101011F01010100000000000000DA
:10917000000080B07000000000000000000000004F
:1091800000000001010101010101000000000000D8
:10919000000000303000000000000000000080608F
:1091A0001804006018060100000000E01008081014
:1091B000E000000F102020100F00001010F8000039
:1091C00000000020203F20200000007008080888D0
:1091D00070000030282422213000003008888848A0
:1091E00030000018202020110E000000C02010F8D0
:1091F000000000070424243F240000F808888808A1
:1092000008000019212020110E0000E010888818A5
:109210000000000F112020110E0000380808C83887
:1092200008000000003F0000000000708808088867
:109230007000001C222121221C0000E010080810F0
:10924000E0000000312222110F00000000C0C00029
:10925000000000000030300000000000008000002E
:10926000000000008060000000000000804020102E
:109270000800000102040810200040404040404027
:10928000400004040404040404000008102040808A
:1092900000000020100804020100007048080808BF
:1092A000F0000000003036010000C030C828E8108F
:1092B000E0000718272423140B000000C038E0004A
:1092C0000000203C23020227382008F88888887094
:1092D0000000203F202020110E00C03008080808A0
:1092E0003800071820202010080008F80808081087
:1092F000E000203F202020100F0008F88888E808B0
:109300001000203F20202320180008F88888E80853
:109310001000203F200003000000C030080808387B
:10932000000007182020221E020008F8080000088C
:10933000F808203F210101213F20000808F8080813
:1093400000000020203F2020000000000808F8084E
:109350000800C08080807F00000008F888C02818BE
:109360000800203F20012638200008F808000000EF
:109370000000203F20202020300008F8F800F8F8F6
:109380000800203F003F003F200008F830C00008E0
:10939000F808203F200007183F00E01008080810D8
:1093A000E0000F10202020100F0008F8080808081F
:1093B000F000203F210101010000E0100808081022
:1093C000E0000F18242438504F0008F88888888857
:1093D0007000203F2000030C30200070880808082F
:1093E00038000038202121221C00180808F808083D
:1093F00018000000203F2000000008F808000008C6
:10940000F808001F202020201F000878880000C8CE
:109410003808000007380E010000F80800F80008BE
:10942000F800033C0700073C0300081868808068C8
:10943000180820302C03032C30200838C800C83806
:1094400008000000203F2000000010080808C8386D
:1094500008002038262120201800000000FE02020B
:1094600002000000007F40404000000C30C00000BF
:109470000000000000010638C00000020202FE00E9
:109480000000004040407F00000000000402020293
:1094900004000000000000000000000000000000C8
:1094A00000008080808080808080000202040000B4
:1094B00000000000000000000000000080808080AC
:1094C00000000019242222223F2008F8008080009A
:1094D0000000003F112020110E000000008080805D
:1094E0000000000E11202020110000000080808864
:1094F000F800000E112020103F20000080808080A6
:109500000000001F222222221300008080F08888A1
:1095100088180020203F20200000000080808080EC
:109520008000006B94949493600008F80080808021
:109530000000203F210000203F200080989800007C
:1095400000000020203F20200000000000809898AC
:10955000000000C08080807F000008F8000080804C
:109560008000203F24022D302000000808F8000071
:1095700000000020203F202000008080808080802C
:109580008000203F20003F20003F808000808080BE
:109590000000203F210000203F20000080808080CC
:1095A0000000001F202020201F00808000808000FD
:1095B000000080FFA12020110E00000000808080AC
:1095C0008000000E112020A0FF808080800080801D
:1095D000800020203F21200001000000808080804A
:1095E00080000033242424241900008080E080803F
:1095F00000000000001F202000008080000000808C
:109600008000001F202020103F20808080000080EC
:10961000808000010E3008060100808000800080FC
:1096200080800F300C030C300F00008080008080A1
:1096300080000020312E0E312000808080000080CC
:10964000808080818E70180601000080808080807C
:1096500080000021302C2221300000000000807C9E
:10966000020200000000003F404000000000FF0038
:10967000000000000000FF0000000002027C8000EB
:1096800000000040403F000000000006010102020F
:1096900004040000000000000000000000000000C2
:1096A000A6FFFFFF4CFFFFFFF2FEFFFF00000000E0
:1096B00088FFFFFF10FFFFFF555555555555C53F16
:1096C0007D6FEB0312D6D4BF5544880E55C1C93FF8
:1096D0003B8F68B52882A4BF88B20175E0EF493F8F
:1096E00009F7FD0DE13D023F4B2D8A1C273A03C0CF
:1096F000C88A599CE52A004059018D1B6C06E6BFBB
:1097000082922EB1C5B8B33F4FBB610567ACDD3F58
:10971000182D4454FB21E93F9BF681D20B73EF3F98
:10972000182D4454FB21F93FE2652F227F2B7A3C10
:10973000075C143326A6813CBDCBF07A8807703CC9
:10974000075C143326A6913CC4EB98999999C9BF3C
:10975000711623FEC671BCBF6D9A74AFF2B0B3BF71
:109760009AFDDE522DDEADBF2F6C6A2C44B4A2BF31
:109770000D5555555555D53FFF8300922449C23F9D
:109780006E204CC5CD45B73F513DD0A0660DB13FD1
:10979000EB0D76244B7BA93F11DA22E33AAD903FE3
:1097A000000000000000000050726F6475637420B8
:1097B00049442072656164206173203020696E64C1
:1097C0006963617465732064657669636520697394
:1097D0002065697468657220696E636F6D7061746D
:1097E00069626C65206F7220616E204D5055333078
:1097F00035302E0A000000001898000800000020F4
:10980000A4010000320B000888980008A401002081
:109810004C30000058300008412D010203040400C0
:109820000911060708090204060884A24A046928E7
:1098300001541AAA01811364841B08800401201AB0
:109840008C2432015AFF0401172DC0C0C080221998
:10985000013E7EFCF8F0E00EB1280803070F1F3F21
:109860007EFC20D808F8FC7F3F1F0F07402FE0F058
:10987000F8FC7E3F202C1F3FFE42D9403B0303866D
:089880002960293E390E014860
:040000050800019D51
:00000001FF
