:020000040800F2
:1000000080090020D10100085518000825120008B9
:1000100021180008A90700080330000800000000AC
:10002000000000000000000000000000751F000834
:10003000AD070008000000000D1E00089121000817
:10004000EB010008EB010008EB010008EB010008E0
:10005000EB010008EB010008EB010008EB010008D0
:10006000EB010008EB010008EB010008EB010008C0
:10007000EB010008EB010008EB010008EB010008B0
:10008000EB010008EB010008EB010008EB010008A0
:10009000EB010008EB010008EB010008B1070008C4
:1000A000EB010008EB010008EB010008EB01000880
:1000B000352400084D24000865240008EB010008E1
:1000C000EB010008EB010008EB010008EB01000860
:1000D000EB010008352B0008BD2B0008EB010008E0
:1000E000EB010008EB010008EB01000800F002F84A
:1000F00000F05FF80AA090E8000C82448344AAF163
:100100000107DA4501D100F054F8AFF2090EBAE860
:100110000F0013F0010F18BFFB1A43F0010318473B
:10012000D0880000F08800000A444FF0000C10F85E
:10013000013B13F0070408BF10F8014B1D1108BF65
:1001400010F8015B641E05D010F8016B641E01F805
:10015000016BF9D113F0080F1EBF10F8014BAD1C55
:100160000C1B09D16D1E58BF01F801CBFAD505E073
:1001700014F8016B01F8016B6D1EF9D59142D6D3CD
:10018000704700000023002400250026103A28BFF5
:1001900078C1FBD8520728BF30C148BF0B607047F9
:1001A000642900F06780002070471FB51FBD10B59F
:1001B00010BD00F0CBFA1146FFF7F7FF04F03EFD4B
:1001C00000F0E9FA03B4FFF7F2FF03BC02F0EDFF21
:1001D0000948804709480047FEE7FEE7FEE7FEE7DB
:1001E000FEE7FEE7FEE7FEE7FEE7FEE70448054917
:1001F000054A064B7047000095210008ED000008F5
:100200008003002080090020800500208005002058
:10021000704710B54C1084EA530404D54042C1F134
:10022000000138BF491E1B4204D55242C3F10003EE
:1002300038BF5B1E00F02EF914F0804F04D040420E
:10024000C1F1000138BF491E14F0004F04D05242E2
:10025000C3F1000338BF5B1E10BD00000FB404499A
:1002600010B503AA029800F0F1F910BC5DF814FB78
:10027000040000202DE9F04106460024106875298D
:10028000314616A510D0AFF30080002802DA4042B4
:1002900013A507E031688A0701D512A502E04907D6
:1002A00004D511A5012401E0AFF3008000210A224A
:1002B00006F1240709E0B0FBF2FCB0FBF2F302FB0D
:1002C0001C00303078541846491C0028F3D12346CE
:1002D0002A463046BDE8F04100F05EB9000000005B
:1002E0002D0000002B000000200000002DE9F05F31
:1002F000894604464FF0000ADFF824B1FB44C0F8F9
:1003000020A02046E168884700287DD0252806D017
:10031000D4E901219047206A401C2062F1E70025C2
:100320005F462046E16888472028064607DB312ED5
:1003300005D2B81910F8200C08B10543F1E7A80759
:1003400001D525F00405C4F81CA00027C4F818A0A6
:100350002A2E09D0304602F021FF38B304EB87087B
:10036000303EC8F8186019E059F8041B204604EB29
:1003700087029161E1688847012F064618D1E0693C
:10038000002820DA25F020051DE0D8F8180000EB41
:10039000800006EB40003038C8F818002046E168BD
:1003A0008847064602F0FAFE0028EED1012F0AD057
:1003B0002E2E08D12046E16888477F1C0646022F72
:1003C00045F02005C4DBA069002803DA404245F06F
:1003D0000105A061E80701D025F01005A6B1A6F13E
:1003E0004100192802D8203645F400654A463146B6
:1003F000204625604D46FFF7D3FE60B1012807D0A7
:10040000ED1D25F0070000E007E000F1080978E79E
:1004100005F1040975E730467AE7206ABDE8F09FE8
:100420009C85000040EA010310B59B070FD1042A08
:100430000DD310C808C9121F9C42F8D020BA19BAAF
:10044000884201D9012010BD4FF0FF3010BD1AB114
:10045000D30703D0521C07E0002010BD10F8013B69
:1004600011F8014B1B1B07D110F8013B11F8014B90
:100470001B1B01D1921EF1D1184610BD02F0FF03E3
:1004800043EA032242EA024200F0F4B870477047A0
:100490007047704753EA020C00F069802DE9F04B79
:1004A0004FF00006002B1FBFB3FA83F503FA05F4E3
:1004B00024FA05F65E4012BF1643B2FA82F502FA3C
:1004C00005F4C5F120051EBF22FA05FC44EA0C0420
:1004D000203556EA044C4FEA144418BF641C4FF010
:1004E00000084FF00009904271EB030C39D300294A
:1004F00019BFB1FA81F701FA07F6B0FA80F700FAEE
:1005000007F6C7F120071EBF20FA07FC46EA0C06D3
:100510002037B6FBF4FCA7EB0507103F07F01F0BD5
:10052000CBF120060CFA0BFB2CFA06F644BFB346BF
:100530000026202FA4BF5E464FF0000B5BEA060C9E
:1005400008BF4FF0010B19EB0B09ABFB027C48EB2A
:100550000608C01B06FB02CC0BFB03CC71EB0C01A5
:10056000C1E70B46024641464846BDE8F08B13B54D
:100570004FF000004FF00001AFF30080BDE81C40D9
:10058000704710B500F096F8006810BD10B504462D
:1005900000F090F8046010BD2DE9F0470D46994633
:1005A0009246044600F124080168880604D5E069F3
:1005B00021F01001216000E00120A84201DD471B6D
:1005C00000E00027A1697A1902EB0900081AA0616E
:1005D0002078C00602D42046AFF30080002608E051
:1005E000D4E901211AF806009047206A401C761CC5
:1005F00020624E45F4DB2078C0060AD52046AFF3D2
:10060000008006E0D4E9012130209047206A401C98
:100610002062381EA7F10107F4DC07E0D4E90121CC
:1006200018F805009047206A401C2062281EA5F19A
:100630000105F3DC2046AFF300802078000602D5E8
:100640000220BDE8F0870120FBE70000074B70B5F2
:100650000D467B4400F037F80446284600F046F883
:1006600010B14FF0FF3070BD204670BD233F000039
:100670004FF000020429C0F0128010F0030C00F0CB
:100680003B80CCF1040CBCF1020F18BF00F8012B29
:10069000A8BF20F8022BA1EB0C0100F02DB85FEAF7
:1006A000C17C24BF00F8012B00F8012B48BF00F8E3
:1006B000012B7047004870471C03002001694A1C49
:1006C00002610878704700B58FB0CDE90131002193
:1006D000059105497944CDE9031011466846FFF7B5
:1006E00005FE0FB000BD0000E5FFFFFF007B00F03E
:1006F000800070474FF0000200B5134694469646BE
:10070000203922BFA0E80C50A0E80C50B1F1200124
:10071000BFF4F7AF090728BFA0E80C5048BF0CC0D2
:100720005DF804EB890028BF40F8042B08BF704730
:1007300048BF20F8022B11F0804F18BF00F8012BA2
:1007400070470000004870471C0300207546FFF703
:10075000F9FFAE4605006946534620F0070085467E
:1007600018B020B5FFF742FDBDE820404FF000066D
:100770004FF000074FF000084FF0000B21F0070189
:10078000AC46ACE8C009ACE8C009ACE8C009ACE8CC
:10079000C0098D46704710B50446AFF3008020466F
:1007A000BDE81040FFF70EBD00BFFEE77047000038
:1007B00010B52021FD4800F025FD00287ED1202025
:1007C000FB490860FB4AFC49FC4804F0CDFA48B9F3
:1007D000FB4AFC49FC4800F04FFDFC4AFC49FD483F
:1007E00000F072FD022001F09DFBFB490860032030
:1007F00001F098FBF9490860F948006810BBF94816
:100800000068F8B9F848006800280BDDF648006871
:10081000801EF549086008460068002825DA002097
:10082000086022E0F048006800281EDAEE48006800
:10083000801CED49086008460068002815DD00208E
:10084000086012E0E6480068012805D1E648006823
:10085000801CE549086008E0E2480068012804D1EE
:10086000E1480068801EE0490860DF480068DF4911
:100870000968884204DDDD480068DB49086010E053
:10088000D9480068D94909684942884205DAD748F9
:1008900000684042D449086003E0D3480068D24968
:1008A0000860D348006820BBD248006808BBD24823
:1008B000006800280DDDD048006800E09BE2801E43
:1008C000CD49086008460068002825DA0020086045
:1008D00022E0C948006800281EDAC7480068801C6A
:1008E000C549086008460068002815DD002008603A
:1008F00012E0C0480068012805D1BF480068801C8C
:10090000BD49086008E0BA480068012804D1BA4827
:100910000068801EB8490860B7480068B749096890
:10092000884202DDB548006801E0B3480068B2497A
:10093000086008460068B14909684942884203DAFC
:10094000AE480068404201E0AB480068AA49086030
:10095000AB48006810BBAB480068F8B9AA4800680B
:1009600000280BDDA8480068801EA74908600846DB
:100970000068002825DA0020086022E0A24800680C
:1009800000281EDAA0480068801C9F4908600846BD
:100990000068002815DD0020086012E09948006812
:1009A000012805D198480068801C9749086008E034
:1009B00093480068012804D193480068801E92493A
:1009C0000860914800688D490968884202DD8B48BB
:1009D000006801E08C4800688B49086008460068A0
:1009E000864909684942884203DA844800684042DF
:1009F00001E085480068844908607D48006860B966
:100A00007C48006848B97E48006830B97D48006875
:100A100018B97E487E49086012E0754800680128D0
:100A20000BD074480068012807D075480068012879
:100A300003D074480068012802D10020744908607E
:100A400074480068012803D073480068012803D166
:100A50001E207249086006E00020704908600021ED
:100A60006F4801F07FFD6B480068012803D06A4899
:100A7000006801280AD15848026858480168674848
:100A8000006805F0C9FB6749086009E05248026840
:100A9000524801685448006805F0BEFB614908608F
:100AA0004B48B0F9000006F079FB044622465E4848
:100AB00001684248006802F0A7FA5C4908604C48A7
:100AC0000068012803D04B480068012804D14A4837
:100AD0000068574908600FE049480068012803D0C2
:100AE00048480068012804D1474800685049086018
:100AF00002E000204E4908604D4801683348B0F9D3
:100B0000000001F011FF4B4908603D4800680128D2
:100B100003D03C48006801282BD1394800680128DF
:100B200011D1424800683F490968401A42490860AB
:100B30003E4800683B490968401A3E490968084434
:100B40003E49086029E02F480068012825D1374830
:100B5000006834490968401A36490968401A36491C
:100B60000860324800682F490968401A3349086014
:100B700013E02E4800682B490968401A2D4909687E
:100B8000401A2D4908602948006826490968401A1A
:100B90002849096808442949086002F059FA284898
:100BA000006810B9244800684CE071E0000C014076
:100BB00014040140A4000020A00000209C0000209C
:100BC000AC000020AA000020A8000020B2000020F5
:100BD000B0000020AE00002000010020FC0000203A
:100BE0009401002098010020B4000020A4010020FE
:100BF000BC010020B8010020C0000020A801002096
:100C00009C010020A0010020BC000020666666BF99
:100C10008C000020AC010020B0010020B8000020B2
:100C20000008004070000020780000206C000020C8
:100C3000C400002074000020E4000020E800002030
:100C4000CC00002041F65831884203D16A48006840
:100C5000884208D0694800686949884218D16648C6
:100C60000068884214D167480068401C65490860E4
:100C700008460068C82808DD012063490860002094
:100C800060490860012061490860002060490860EF
:100C90005E480068012827D15E495F48006806F079
:100CA000A9FA21D25D495C48006806F0A3FB1BD27B
:100CB0005B495C48006806F09DFB15D25A495948CB
:100CC000006806F097FA0FD258480068401C574950
:100CD000086008460068C82806DD00204A49086008
:100CE00052490860494908604848006801281ED1F7
:100CF0004F494C48006806F07DFB18D24448006814
:100D0000A8B94C480068401C4A4908600846006879
:100D1000B0F5967F2DDD00203B490860454908600D
:100D200001203B49086000203849086021E037482D
:100D3000006801281DD140493A48006806F05AFA77
:100D400017D233480068A0B93A480068401C3949B6
:100D5000086008460068B0F5967F0ADD00202A4941
:100D600008603449086001202949086000202749AB
:100D700008602748006801280FD1304929480068D9
:100D800006F038FB09D240F6C4101C490860002068
:100D9000194908601C49086013E01D4800680128D3
:100DA0000FD127491F48006806F024FA09D2002015
:100DB0001249086040F6C4100F490860002012492B
:100DC000086020491448006806F014FA08D31E4948
:100DD0001148006806F00EFB02D30B48006820B1F2
:100DE0000020064908600449086003480168034878
:100DF000006801F07FF910BDE8000020E400002049
:100E0000A8E4FFFFD4000020C8000020CC00002090
:100E1000D00000200000A0409C0000200000A0C0E6
:100E2000000020C1A000002000002041D8000020C8
:100E30000000B242DC0000200000B2C20000A0426C
:100E40000000A0C200008CC200008C420021234997
:100E50008279002A3AD00A46126803689A430B4600
:100E60001A600A1D126803689A430B1D1A60027902
:100E700011440A6803681A430A60184A0832126863
:100E800003689A43154B08331A601A1D12680368E9
:100E90009A43124B0C331A604279102A0ED11A1F52
:100EA000126803681A430D4B08331A601A1D126842
:100EB00003681A43094B0C331A600DE00749427965
:100EC00011440A6803681A430A6005E00279114474
:100ED0000A6803689A430A607047000000040140F2
:100EE00000B587B00121084600F092FF01210420DF
:100EF00000F09EFF0320ADF8000004208DF80300F1
:100F000069461E4800F0AAF804A801F003FD00207D
:100F1000ADF810004FF6FF70ADF814000020ADF8EA
:100F20001600ADF8120004A94FF0804001F0A0FCBB
:100F300000231A4603214FF0804001F02EFB01A848
:100F400001F0B4FB0A20ADF80C0001A9400701F044
:100F500057FB0121880701F0FFFA01221146900793
:100F600001F0ADFB00214FF0804001F052FC012167
:100F7000880701F0F7FA07B000BD00000008014043
:100F800000B587B00121022000F042FF01210420BA
:100F900000F04EFFC020ADF8000004208DF80300E3
:100FA00069461C4800F05AF804A801F0B3FC002080
:100FB000ADF810004FF6FF70ADF814000020ADF84A
:100FC0001600ADF8120004A9134801F051FC0023EB
:100FD0001A460321104801F0E0FA01A801F066FB6F
:100FE0000A20ADF80C0001A90B4801F009FB012112
:100FF000094801F0B1FA01221146074801F05FFBF0
:101000000021054801F005FC0121034801F0AAFA7E
:1010100007B000BD000801400004004030B50022C8
:101020008B071C0F0F2303FA04F20B4B8C1053F8A1
:1010300024309343084C8D1044F8253023468C10FF
:1010400053F824308C07240F00FA04F42343024C95
:101050008D1044F8253030BD080001402DE9F041E5
:10106000024600250026002000230024002791F8D6
:1010700003C00CF00F0591F803C00CF0100CBCF18C
:10108000000F03D091F802C04CEA050591F800C0AA
:10109000BCF1000F31D0146800202BE04FF0010CA0
:1010A0000CFA00F3B1F800C00CEA03069E4220D10E
:1010B00083004FF00F0C0CFA03F7BC4305FA03FC56
:1010C0004CEA040491F803C0BCF1280F06D14FF09C
:1010D000010C0CFA00FCC2F814C00AE091F803C03D
:1010E000BCF1480F05D14FF0010C0CFA00FCC2F81E
:1010F00010C0401C0828D1D31460B1F800C0BCF166
:10110000FF0F34DD546800202EE000F1080C4FF092
:10111000010808FA0CF3B1F800C00CEA03069E427D
:1011200021D183004FF00F0C0CFA03F7BC4305FAF2
:1011300003FC4CEA040491F803C0BCF1280F05D16C
:1011400000F1080C08FA0CF8C2F8148091F803C0FA
:10115000BCF1480F07D100F1080C4FF0010808FA64
:101160000CF8C2F81080401C0828CED35460BDE8AB
:10117000F0810000F0B50A4600230024002100257C
:1011800000F00046B6F1004F02D11D4EF16901E0BA
:101190001B4E7168C0F3034583B200F44016B6F5E8
:1011A000401F08D121F07061154E766826F07066F8
:1011B000134F7E6012E000F48016B6F5801F06D152
:1011C000032606FA05F4A14341F0706106E0460DDE
:1011D000360103FA06F6B14341F0706122B1460DC3
:1011E000360103FA06F6314300F00046B6F1004F2F
:1011F00002D1034EF16101E0014E7160F0BD0000CB
:10120000000001400246002093680B400BB1012012
:1012100000E000207047016170470AB1016100E001
:101220004161704700BFFEE70EB50121084600F09E
:10123000FFFD0121082000F0FBFD2020ADF8080093
:1012400048208DF80B0002A90A48FFF707FF052187
:101250000120FFF7E3FE2020009000208DF804001D
:101260000C208DF8050001208DF806006846FFF778
:10127000EDFD0EBD000C01402DE9FC4104460D467C
:1012800016466B4606223B21682000F0F3F907461C
:10129000BFB99DF801009DF8001040EA012000B29E
:1012A00020809DF803009DF8021040EA012000B262
:1012B00028809DF805009DF8041040EA012000B246
:1012C00030803846BDE8FC812DE9FC4104460D46DE
:1012D00016466B4606224321682000F0CBF90746EC
:1012E000BFB99DF801009DF8001040EA012000B24E
:1012F00020809DF803009DF8021040EA012000B212
:1013000028809DF805009DF8041040EA012000B2F5
:1013100030803846BDE8FC8110B500200E490860D9
:101320000E48006820F470200C49086008460068E8
:1013300040F44030086000200949C1F8900100F0F5
:1013400011F801200449086000F00CF8002004495D
:10135000C1F88C0110BD00008C812142000C0140BD
:101360000080214210B5022002F006FB10BD0000F3
:1013700008B50121092000F05BFD01210C48FFF7B1
:10138000F9FE0121082000F053FD1820ADF80000FF
:1013900010208DF8030003208DF8020069460548EF
:1013A000FFF75CFE18210348FFF735FF08BD00007A
:1013B00000023000000C014010B500200E4908600A
:1013C0000E48006820F470200C4908600846006848
:1013D00040F44030086001200949C1F89001FFF74E
:1013E000C1FF012004490860FFF7BCFF0020044949
:1013F000C1F88C0110BD00008C812142000C01401D
:101400000080214270B5054600241648006820F48B
:101410007020144908600846006840F40020086005
:10142000002614E0002010490860FFF79BFF012010
:101430000E49C1F88C016006040E0B487C38006828
:1014400008B1601CC4B2FFF78DFF701CC6B2082E35
:10145000E8DB15B9FFF7B0FF01E0FFF75DFF2046BD
:1014600070BD0000000C01408C81214200802142AF
:1014700070B504461248006820F4702010490860D6
:101480000846006840F44030086000200D490860BC
:10149000002512E0E0090B49091D08606006040EF2
:1014A00001200949C1F88C01FFF75CFF00200549C4
:1014B0000860FFF757FF681CC5B2082DEADB70BD56
:1014C000000C01408C8121420080214210B50E4861
:1014D000006820F470200C4908600846006840F459
:1014E000403008600120094908600949C1F88C01B1
:1014F000FFF738FF002005490860FFF733FF0020A1
:101500000349C1F88C0110BD000C014090812142BB
:101510000080214210B50E48006820F470200C496C
:1015200008600846006840F440300860002009491F
:1015300008600949C1F89001FFF714FF012005492F
:1015400008600549C1F89001FFF70CFF10BD0000CD
:10155000000C01408C8121420080214210B5002402
:101560001448006820F4702012490860084600689A
:1015700040F40020086001200F490860FFF7F2FEE8
:1015800001200E49C1F88C01FFF7ECFE07E0601C5A
:10159000C4B2FA2C03DDFFF7BDFF012010BD0648E1
:1015A000803800680028F2D10349091F086000BF95
:1015B000F4E70000000C01409081214200802142AC
:1015C00010B5FFF7D5FE80216B2000F0D7F8322050
:1015D00002F0ACF900216B2000F0D0F8032000F0FD
:1015E0008BF8002000F080F8642000F0AAF80021B9
:1015F000382000F0C3F800216A2000F0BFF8002175
:10160000232000F0BBF88021372000F0B7F87520C8
:1016100000F013F80446682C0BD101216B2000F078
:10162000ADF800216C2000F0A9F8642000F089F8E2
:1016300001E0012010BD0020FCE770B50446FFF773
:1016400045FFD020FFF714FFFFF788FF2046FFF784
:101650000FFFFFF783FFFFF739FFD120FFF708FFE8
:10166000FFF77CFF0020FFF7CDFE0546FFF752FF96
:10167000284670BD2DE9F04106460F4614461D462A
:10168000FFF724FF002141EA4601C8B2FFF7F0FE50
:10169000FFF764FF20B1FFF73DFF0120BDE8F081B7
:1016A0003846FFF7E5FEFFF759FFFFF70FFF01216F
:1016B00001EB4601C8B2FFF7DBFEFFF74FFF0DE07D
:1016C000012C04D10020FFF79DFE287003E00120CB
:1016D000FFF798FE2870601EC4B26D1C002CEFD17D
:1016E000FFF718FF0020D9E710B50446E006010E09
:1016F0001C2000F043F810BD10B50446E006010EB2
:101700001B2000F03BF810BD70B504460025BC2C32
:1017100001DB012510E0622C01DB02250CE02A2C04
:1017200001DB032508E0142C01DB042504E00A2C6E
:1017300001DB052500E0062529461A2000F01EF8E9
:1017400070BD70B50446B4F57A7F01DD4FF47A744C
:10175000042C00DA04244FF47A7090FBF4F0401E5D
:10176000C5B22946192000F009F80546264604EBC3
:10177000D671C1F34F00FFF7C7FF70BD70B50546C6
:101780000C46FFF7A3FED020FFF772FEFFF7E6FE40
:1017900018B1FFF7BFFE012070BD2846FFF768FEB5
:1017A000FFF7DCFE2046FFF763FEFFF7D7FE18B118
:1017B000FFF7B0FE0120EFE7FFF7ACFE0020EBE7FC
:1017C0002DE9F04105460E4617469846FFF77EFE86
:1017D000002141EA4501C8B2FFF74AFEFFF7BEFE0D
:1017E00020B1FFF797FE0120BDE8F0813046FFF7FA
:1017F0003FFEFFF7B3FE00240CE018F80400FFF7EB
:1018000037FEFFF7ABFE18B1FFF784FE0120EBE7D0
:10181000601CC4B2BC42F0DBFFF77CFE0020E3E7B3
:1018200000BFFEE708B50121082000F001FB1020F1
:101830008DF803004FF47040ADF8000003208DF8E0
:10184000020069460248FFF709FC00F07BFA08BD78
:10185000000C0140704708B54FF4A06000F062F83A
:1018600017208DF8000001208DF801008DF802008E
:101870008DF80300684600F01DF81E208DF800006A
:1018800002208DF801008DF8020001208DF8030080
:10189000684600F00FF826208DF8000000208DF833
:1018A00001008DF8020001208DF80300684600F069
:1018B00001F808BD70B5002100230F22C47804B3DD
:1018C000154C246804F4E064C4F5E064210AC1F115
:1018D0000403CA40447804FA03F184781440214395
:1018E00009010E4C0678A155047804F01F05012467
:1018F000AC4005786D11AD0005F1E025C5F800415B
:1019000009E0047804F01F050124AC40044D06787A
:10191000761145F8264070BD0CED00E000E400E0D3
:1019200080E100E002490143024A11607047000073
:101930000000FA050CED00E070B500240EE0002177
:10194000204600F02AF9002504E0002000F0E9F923
:10195000681CC5B2802DF8DB601CC4B2082CEEDB1D
:1019600070BD2DE9F05F06460F4690461C46DDF837
:1019700028A04FF0000BE11704EB5171C910A4EB44
:10198000C10131B92046E11704EB5171C1F3C7051C
:1019900006E02046E11704EB5171C910491CCDB295
:1019A0003D4614E03146284600F0F7F8B1460AE01B
:1019B00059460BF1010B1AF8010000F0B2F909F1D8
:1019C000010000F0FF09C145F2DB681CC5B2A54269
:1019D000E8DBBDE8F09F000008B50121082000F019
:1019E00027FA14208DF8030003208DF802004FF42D
:1019F0008070ADF8000069460A48FFF72FFB4FF4EE
:101A00000070ADF8000069460648FFF727FB012289
:101A100051020448FFF701FC012211020148FFF7BF
:101A2000FCFB08BD000C014070B50546002415E024
:101A30008020204100EA05024FF480710E48FFF734
:101A4000ECFB012251020C48FFF7E7FB00224FF4A8
:101A500000710948FFF7E1FB601CC4B2082CE7DB0A
:101A6000012251020448FFF7D8FB00224FF4007115
:101A70000148FFF7D2FB70BD000C014010B50122F8
:101A800011020A48FFF7C9FB012251020748FFF77C
:101A9000C4FB00224FF480710448FFF7BEFB002214
:101AA0004FF400710148FFF7B8FB10BD000C014076
:101AB00010B500224FF480710648FFF7AEFB0122FB
:101AC00051020448FFF7A9FB012211020148FFF768
:101AD000A4FB10BD000C014070B5002406E00025F9
:101AE00000E06D1CB5F57A7FFBD3641CB4F57A7FFA
:101AF000F5D3FFF771FFAE2000F003F9D52000F019
:101B000000F9802000F0FDF8A82000F0FAF83F204E
:101B100000F0F7F8D32000F0F4F8002000F0F1F81E
:101B2000402000F0EEF8A12000F0EBF8C82000F013
:101B3000E8F8DA2000F0E5F8122000F0E2F8812061
:101B400000F0DFF8CF2000F0DCF8D92000F0D9F861
:101B5000F12000F0D6F8DB2000F0D3F8302000F0C0
:101B6000D0F8A42000F0CDF8A62000F0CAF88D200F
:101B700000F0C7F8142000F0C4F8AF2000F0C1F85E
:101B8000FFF7DAFE70BD10B50246012000E05043B9
:101B90000B1EA1F10101FAD110BD70B505460C462E
:101BA00045F0B00000F0ADF8102141EA141000F04B
:101BB000A8F804F00F0000F0A4F870BD2DE9F04182
:101BC00005460E461746721ED206110E6A1E5206B2
:101BD000100EFFF7E2FF002409E0A7F12001134AED
:101BE00002EB0111085D00F09CF8601CC4B2082CE7
:101BF000F3DB721ED206110E6A1E012303EB4202B2
:101C0000D0B2FFF7CAFF00240BE0A7F12001074A7A
:101C100002EB011204F10801505C00F082F8601C34
:101C2000C4B2082CF1DBBDE8F0810000AC820008F2
:101C30002DE9F04780460E4617461D46002415E064
:101C4000281B411E0A20FFF79EFFB7FBF0F00A2178
:101C5000B0FBF1F201FB120000F130093019C1B202
:101C60004A464046FFF7AAFF601CC4B2AC42E7DB1D
:101C7000BDE8F0872DE9F0478146884615461E46A7
:101C8000002D06DB2B2241464846FFF797FF2F46E3
:101C900005E02D2241464846FFF790FF6F420024A1
:101CA00017E0301B411E0A20FFF76DFFB7FBF0F075
:101CB0000A21B0FBF1F201FB120000F1300A08EB3F
:101CC0000400401CC1B252464846FFF777FF601C33
:101CD000C4B2B442E5DBBDE8F0872DE9F041074628
:101CE0000E461546002407E02A5D3019C1B2384679
:101CF000FFF764FF601CC4B2285D0028F4D1BDE882
:101D0000F08110B50446FFF7B9FE7820FFF78CFE8E
:101D10000020FFF789FE2046FFF786FEFFF7C8FE8A
:101D200010BD10B50446FFF7A9FE7820FFF77CFE32
:101D30004020FFF779FE2046FFF776FEFFF7B8FE5A
:101D400010BD000000B589B00121042000F070F83A
:101D500018208DF823004FF41060ADF82000032008
:101D60008DF8220008A92748FFF778F90121C80259
:101D700000F05EF80020ADF81A00ADF8160041F64C
:101D80001F40ADF818000020ADF814008DF81C00BD
:101D900005A91D4800F06CFD6020ADF804004FF46B
:101DA0008070ADF810000020ADF81200ADF80C0006
:101DB000ADF80E000120ADF806000420ADF80800D3
:101DC0000020ADF80A0001A90F4800F081FC01A92C
:101DD0000D4800F0D3FC01210B4800F0CFFB082197
:101DE000094800F0C1FC0821074800F005FD012169
:101DF000054800F0A5FB0121034800F0B3FB09B042
:101E000000BD000000080140002C014070470000A8
:101E100029B1064AD2690243044BDA6104E0034A5D
:101E2000D2698243014BDA61704700000010024022
:101E300029B1064A92690243044B9A6104E0034ABD
:101E400092698243014B9A61704700000010024082
:101E500030B500210022002400232D4D6D6805F0CF
:101E60000C0121B1042905D0082923D105E0294D11
:101E7000056022E0274D05601FE0254D6D6805F4E3
:101E80007012234D6D6805F48034022505EB9242F3
:101E90001CB9214D554305600BE01D4D6D6805F4DF
:101EA00000351DB11C4D5543056002E0194D5543E9
:101EB000056002E0174D056000BF00BF144D6D685E
:101EC00005F0F0010909154D6B5C0568DD404560C2
:101ED0000F4D6D6805F4E061090A104D6B5C4568B3
:101EE000DD4085600A4D6D6805F46051C90A0B4DEF
:101EF0006B5C4568DD40C560054D6D6805F440418B
:101F0000890B074D6B5CC568B5FBF3F5056130BD0A
:101F10000010024000127A0000093D000A00002073
:101F20001A0000200146022904D003290BD00429FD
:101F300017D10FE04FF08042928C10B200224FF088
:101F400080439A840FE0094A128810B20022074B9E
:101F50001A8008E0064A128810B20022044B1A8048
:101F600001E0002000BF00BF7047000024040040D3
:101F7000240800407047000010B5FFF76CFC01F02A
:101F8000B3FCFFF74FFCFFF7A7FDFFF7D5FCFEF70B
:101F9000A7FFFEF7F5FF4FF4FA3004F0EDF84FF429
:101FA000E13004F095F841F61F4142F20F7000F065
:101FB000A7FAFFF705FBFFF737F902E005A0FEF7E8
:101FC0004DF902F0E3FF0028F8D109A0FEF746F929
:101FD00010BD0000496E697469616C697A61746949
:101FE0006F6E206661696C6564A3A10D0A00000034
:101FF000496E697469616C697A6174696F6E207386
:10200000756363656564A3A10D0A000010B500F057
:1020100001F810BD0CB50020019000903348006815
:1020200040F480303149086000BF3048006800F457
:10203000003000900198401C0190009818B9019858
:10204000B0F5A06FF1D12948006800F4003010B15C
:102050000120009001E0002000900098012843D169
:102060002348006840F010002149086008460068D5
:1020700020F0030008600846006840F00200086095
:102080001A48406819494860084640684860084650
:10209000406840F4806048600846406820F47C1046
:1020A00048600846406840F4E81048600846006808
:1020B00040F08070086000BF0C48006800F00070BD
:1020C0000028F9D00948406820F00300074948601B
:1020D0000846406840F00200486000BF034840687E
:1020E00000F00C000828F9D10CBD000000100240DF
:1020F0000020024000B503460A46002B07DA002004
:102100001649086001201649C1F8B00106E0012017
:102110001249086000201249C1F8B001184603F0C6
:1021200017FF10490880002A08DA00200B49091D12
:10213000086001200A49C1F8BC0107E001200749F5
:10214000091D086000200649C1F8BC01104603F0D3
:10215000FFFE04490C31088000BD0000B48121421B
:1021600000802142342C0140042808D14FF0E021A6
:10217000096941F004014FF0E022116107E04FF0DE
:10218000E021096921F004014FF0E022116170475C
:102190007047000010B51348006840F00100114975
:1021A000086008464068104908400E4948600846E3
:1021B00000680E4908400B4908600846006820F492
:1021C000802008600846406820F4FE0048604FF414
:1021D0001F008860FFF71AFF4FF000600449086095
:1021E00010BD0000001002400000FFF8FFFFF6FEE7
:1021F00008ED00E0F0B50C46154600220021068CE3
:102200004FF6FE773E400684028B018C4FF60C762B
:1022100032407E1C06EA03162E433243104EB04273
:102220000ED0104EB0420BD0B0F1804F08D00E4E01
:10223000B04205D00D4EB04202D00D4EB04206D194
:102240004FF6FD76314044F00106314305E04FF68C
:10225000F576314044F00106314302830184F0BD3C
:10226000002C014000340140000400400008004000
:10227000000C0040F0B50C46154600220021002657
:10228000078C4FF6EF7C07EA0C070784028B018C62
:102290004FF6FF7707EA041640F6FF473A404FF63D
:1022A000FF7707EA03373A434FF6FF7707EA052738
:1022B0003A43114FB8420ED0104FB8420BD0B0F194
:1022C000804F08D00E4FB84205D00E4FB84202D012
:1022D0000D4FB84206D14FF6DF77394046F0100770
:1022E000394305E04FF65F77394044F01007394332
:1022F00002830184F0BD0000002C01400034014045
:102300000004004000080040000C0040F0B50C46FE
:102310001546002200210026078C4FF6FF6C07EAC5
:102320000C070784828B018C4FF6FF7707EA04269F
:102330004FF60C773A404FF6FF7707EA03172F4323
:102340003A43114FB8420ED0104FB8420BD0B0F103
:10235000804F08D00E4FB84205D00E4FB84202D081
:102360000D4FB84206D14FF6FF57394046F48077FB
:10237000394305E04FF2FF57394044F48077394341
:1023800082830184F0BD0000002C01400034014034
:102390000004004000080040000C0040F0B50C466E
:1023A0001546002200210026078C4EF6FF7C07EA26
:1023B0000C070784828B018C4FF6FF7707EA0436FF
:1023C00040F6FF473A404FF6FF7707EA05273A43C2
:1023D0004FF6FF7707EA03373A43114FB8420ED062
:1023E000104FB8420BD0B0F1804F08D00E4FB8421A
:1023F00005D00E4FB84202D00D4FB84206D14DF66F
:10240000FF77394046F48057394305E047F6FF57D8
:10241000394044F48057394382830184F0BD000081
:10242000002C01400034014000040040000800403E
:10243000000C00404FF08040008A4FF08040008A3E
:1024400020F001004FF08041088270470448008866
:102450000348008820F0010001490880704700000F
:102460001004004000B587B01F4B0FCBCDE905230A
:10247000CDE903011C4A103207CA8DE8070001218B
:102480001A4800F0ABF860B30121184800F067F873
:1024900017490868C11700EB91718910A0EB810101
:1024A000134A116003A81146096850F82100114928
:1024B000086010460068401C114608600E4800681D
:1024C000032190FBF1F201FB12000B49086009683F
:1024D0005DF821000949086007480068401C06496A
:1024E000086007B000BD00009082000800080040AE
:1024F0000C01002004010020100100200801002030
:102500003EB505460C4601210420FFF781FCADF8DD
:102510000450ADF800400020ADF80600ADF8020010
:102520006946064800F0A4F90121044800F014F8B7
:1025300001221146014800F0C2F83EBD00080040EB
:1025400021B1028842F08002028004E002884FF646
:102550007F731A4002807047CA4302827047CA43A1
:102560000282704721B1028842F00102028004E039
:1025700002884FF6FE731A400280704731B1B0F8FE
:10258000442042F40042A0F8442005E0B0F8442082
:10259000C2F30E02A0F844207047F0B50C46154671
:1025A0001E460021002200230189028B038C4FF676
:1025B000F877394021434FF6FC473A4040F2011783
:1025C0003A434FF6DD773B404FF6FF7707EA0617B1
:1025D0002F433B43018102830384F0BD30B50246A3
:1025E000002000230024158A05EA0103958905EAE5
:1025F000010413B10CB1012000E0002030BD000047
:1026000070B505460C46244885420ED023488542C5
:102610000BD0B5F1804F08D02148854205D0214824
:10262000854202D02048854200D100E000BF2088CA
:1026300050B92389A28861882846FFF7DBFDE1882D
:10264000284600F0E8F825E0208804280AD12389EC
:10265000A28861882846FFF70DFEE188284600F031
:10266000E3F817E0208808280AD12389A288618826
:102670002846FFF74BFEE188284600F0E2F809E023
:102680002389A28861882846FFF788FEE1882846CA
:1026900000F0E0F870BD0000002C01400034014063
:1026A0000004004000080040000C004000210180B0
:1026B0004180012181800021C180018170471AB1D0
:1026C00083890B43838102E083898B438381704735
:1026D00070B5002400220023058C4FF6FE763540AD
:1026E0000584028C8388048B4FF68F752C40B51EB1
:1026F0002C400D882C43751E2A400D892A434D8895
:102700002A43144DA8420BD0134DA84208D0134DB4
:10271000A84205D0124DA84202D0124DA84213D1B2
:102720004FF6F7752A404D892A434FF6FB752A402C
:102730008D882A434FF6FF652B404FF6FF552B40FF
:102740008D892B43CD892B4383800483CD88858657
:10275000028470BD002C0140003401400040014063
:1027600000440140004801400A460021018B4FF619
:10277000F7731940114301837047000070B50022C0
:1027800000230024058C4EF6FF7635400584038C2B
:102790008488828B48F6FF752A404FF6FF452A4011
:1027A0000D884FF6FF7606EA05252A434DF6FF759C
:1027B0002B400D8906EA05352B434D8806EA053581
:1027C0002B430B4DA84202D00A4DA84208D14BF62C
:1027D000FF752C408D894FF6FF7606EA85152C4350
:1027E00084808283CD88A0F84050038470BD0000AF
:1027F000002C0140003401400A460021818B4FF239
:10280000FF7319404FF6FF7303EA022319438183D4
:10281000704781847047028B4FF6F3731A4002832E
:10282000028B0A4302837047028B4FF2FF331A4038
:102830000283028B4FF6FF7303EA01231A430283DC
:102840007047828B4FF6F3731A408283828B0A4360
:1028500082837047828B4FF2FF331A408283828BD0
:102860004FF6FF7303EA01231A4382837047000087
:10287000002202881D4B98420ED01D4B98420BD06F
:10288000B0F1804F08D01B4B984205D01A4B9842AC
:1028900002D01A4B984204D14FF68F731A404B88DE
:1028A0001A43174B984207D0164B984204D04FF664
:1028B000FF431A40CB881A4302808B8883850B889C
:1028C00003850A4B98420BD0094B984208D00E4B17
:1028D000984205D00D4B984202D00D4B984201D141
:1028E0000B7A03860123838270470000002C01408D
:1028F000003401400004004000080040000C00408B
:10290000001000400014004000400140004401401D
:10291000004801404FF6FF71818000210180C18095
:1029200041800172704700002DE9F84F06460D46C0
:1029300074480068012808D173480068B43080B139
:102940007148006800F5877058B170480068012828
:102950001AD16F480068783018B16D480068F030BF
:1029600090B96C496C48006804F044FC0CD8002114
:102970006948006804F03EFD06D268496648006870
:1029800004F074FD644908605E48006801280FD1B6
:102990005D48006804F002FC80465F4801684046DC
:1029A00004F059FD074604F0BDFB5D49086012E0E4
:1029B0005648006801280ED15548006804F0EEFB27
:1029C000804655480168404604F045FD074604F03E
:1029D000A9FB534908604B48006801280CD15048B6
:1029E000006810F1140F07DB4D480068142803DC61
:1029F00001214C48FFF7B6FD4248006801280BD181
:102A000047480068462807DB454800686E2803DC15
:102A100000214448FFF7A6FD3C48006801280CD17E
:102A20003F48006810F1140F07DB3D480068142888
:102A300003DC01213B48FFF795FD3448006801287D
:102A40000BD137480068642807DB354800688C28BC
:102A500003DC00213348FFF785FD2A480068012880
:102A600003D02A48006801282ED12D48006804F0C0
:102A700095FB82462C4801682C4804F0EFFB834606
:102A8000514604F0EBFB8046284604F087FB00909B
:102A900027480168009804F0E1FB8246304604F0C4
:102AA0007DFB009020480168009804F0D7FB834626
:102AB000514604F0D3F98146414604F0D7FC07465D
:102AC00004F030FB04461AE0284604F067FB824617
:102AD00017480168504604F0C1FB8046304604F0B8
:102AE0005DFB824610480168504604F0B7FB814602
:102AF000414604F0B3F9074604F014FB04462046AF
:102B0000BDE8F88FAC01002004010020B0010020D6
:102B10000801002000003443A40000200000B4435A
:102B2000E0000020000800408C0000200000A042CF
:102B30009000002010B540F225511D4800F0A0F98A
:102B400010B31B4800F058FAC4B21A48008800F4C9
:102B50000040C8B91748008800F4804060B10A2CD2
:102B600003D000201349088020E01248008840F478
:102B700000401049088019E00D2C06D10D4800884E
:102B800040F480400B49088010E00A480088C0F3F8
:102B90000D0009490C5407480088401C054908806D
:102BA00008460088C72801DD0020088010BD00000D
:102BB0000038014008000020C401002010B540F298
:102BC00025519C4800F05CF9002810D0994800F08D
:102BD00013FA994908600846006848B900209749E7
:102BE00008609749086097490860974908601FE1A5
:102BF00091480068012811D190490860002090494F
:102C000008609049086090490860904908609049C0
:102C10000860904908609049086009E186480068AA
:102C2000032813D1002085490860012084490860E9
:102C30000020844908608449086084490860844908
:102C400008608449086084490860F1E07A480068B7
:102C5000042813D1002079490860794908600120CF
:102C60007849086000207849086078490860784908
:102C700008607849086078490860D9E06E480068C3
:102C8000022813D100206D4908606D4908606D4924
:102C9000086001206C49086000206C4908606C499C
:102CA00008606C4908606C490860C1E062480068CF
:102CB000062806D13C206949086028206849086038
:102CC000B6E05D480068072806D1642063490860C3
:102CD000502063490860ABE057480068082806D1D7
:102CE0008C205E49086096205D490860A0E052484B
:102CF0000068882805D100205849086058490860B4
:102D000096E04D48006811280AD101204F4908601B
:102D100000204F4908604F4908604F49086087E02C
:102D200045480068122809D10020484908604849F0
:102D30000860484908604849086079E03E480068F2
:102D400013280AD101204249086000203F49086049
:102D500040490860404908606AE037480068142824
:102D600009D100203A4908603849086039490860AB
:102D7000394908605CE030480068152803D101201B
:102D80003849086054E02C480068162803D1002018
:102D9000344908604CE02848006817280AD101200F
:102DA0002C490860002029490860294908602A49FF
:102DB00008603DE020480068182809D10020254916
:102DC00008602249086022490860234908602FE012
:102DD0001948006819280AD101201F4908600020FD
:102DE0001A4908601A4908601A49086020E0124828
:102DF00000681A2809D100201749086013490860A3
:102E0000134908601349086012E000200B4908606C
:102E10000B4908600B4908600B4908600B490860C2
:102E20000B4908600F4908600A4908600A490860B0
:102E300010BD000000440040C001002094010020AB
:102E4000980100209C010020A0010020BC0100206E
:102E5000B8010020AC010020B0010020A401002036
:102E6000A8010020B401002021B1828942F400525F
:102E7000828104E082894DF6FF731A408281704797
:102E800070B50246002400230025002040F66A1693
:102E9000B14200D100BFC1F3421501F01F0301266A
:102EA00006FA03F3012D02D19689334006E0022D84
:102EB00002D1168A334001E0968A33400C12012673
:102EC00006FA04F41688344013B10CB1012000E076
:102ED000002070BDF0B50346002400260025002028
:102EE00040F66A17B94200D100BF1846C1F3421438
:102EF00001F01F06012707FA06F5012C01D10C305D
:102F000004E0022C01D1103000E014301AB107683F
:102F10002F43076002E00768AF430760F0BD000081
:102F20002DE9F04786B005460E460024A24600BFB4
:102F3000A1460027B08900B100BF2F462C8A4CF66D
:102F4000FF700440F08804432C82AC894EF6F310E5
:102F50000440B08831890843718908430443AC8137
:102F6000AC8A4FF6FF400440B0890443AC8201A80C
:102F7000FEF76EFF1F48874202D1DDF810A001E086
:102F8000DDF80CA0A88900F4004040B10AEBCA00AB
:102F900000EB0A1031684900B0FBF1F807E00AEBDA
:102FA000CA0000EB0A1031688900B0FBF1F8642018
:102FB000B8FBF0F004012009642101FB1089A88905
:102FC00000F4004040B1322000EBC900B0FBF1F04A
:102FD00000F00700044308E0322000EB09106421F0
:102FE000B0FBF1F000F00F0004432C8106B0BDE807
:102FF000F08700000038014001468888C0F30800CF
:10300000704700BFFEE700002DE9F05F05460E4661
:1030100014463146284604F029FA814621460A48DA
:10302000006804F01BF9824649460848006804F02D
:1030300015F98346514603F011FF804604F072F8FB
:1030400007463846BDE8F09F800000207C00002045
:10305000114800681149884202DA08460E490860A2
:103060000D48006841F65831884202DD08460A4999
:1030700008600B4800680949884202DA0846084996
:1030800008600748006841F65831884202DD08466A
:103090000349086070470000E4000020A8E4FFFF37
:1030A000E8000020490050EAC12018BF04204A0D62
:1030B00018BF40F0010040F2FF72B2EB515F08BF51
:1030C00040F00200012808BF052070472DE9F041BB
:1030D0004F1E00EBC7010446D1E9000115461E460C
:1030E00037F006020DD02A46334603F0B1FB7F1EAF
:1030F00004EBC703D3E9002303F05AF937F00602C3
:10310000F1D1022F25D0042F13D0062F18BFBDE810
:10311000F0812A46334603F09BFBD4E90A2303F0EF
:1031200047F92A46334603F093FBD4E9082303F01A
:103130003FF92A46334603F08BFBD4E9062303F01C
:1031400037F92A46334603F083FBD4E9042303F01E
:103150002FF92A46334603F07BFBD4E9022303F020
:1031600027F92A46334603F073FBD4E90023BDE870
:10317000F04103F01DB9012204F01FBA03F018B9A1
:10318000002213461046114603F0CEB9024A002031
:10319000110704F012BA000001FDFFFF30380A28C1
:1031A00001D2012070470020704700BF7047000027
:1031B0002DE9FE4F06460F460025684601F0EAF964
:1031C000002442E056F8240057F82410A0EB010A2E
:1031D000BAF1000F01DB514601E0CAF100010846D7
:1031E00003F0DCFF83464FF08F4103F0A5FE8046DD
:1031F0005DF82400002103F061FF16D05DF8241073
:10320000404603F099FE82464FF07E5104F02EF9BD
:10321000814629F0004A0F48416A504604F0EAF816
:1032200012D20120A04005430EE00A48C169404681
:1032300003F0E0FF05D30748016A404604F0DAF8DE
:1032400002D20120A0400543641C032CBADB2846AF
:10325000BDE8FE8F707600082DE9F04D8D4F21F00E
:10326000004A86B005460C46BA452ADBAAEB0700A1
:1032700028430AD08848824501DC1AD1CDB106B076
:103280002846BDE8F04DFFF776BF844A844B2846B8
:1032900003F0DEFA07460E46824A834B2846214653
:1032A00003F0D6FA06B03A463346BDE8F04D03F0D7
:1032B0007FB80120FDF76AF906B0BDE8F04DFFF7D1
:1032C0005FBF7A48824542DABAF1795F0BDA284665
:1032D000FFF7E8FE042808BFFFF758FF284606B0AE
:1032E0002146BDE8F08D2A460B46104603F0B0FAA1
:1032F000834602466E480E460B4606217844FFF789
:10330000E5FE5A46334603F0A3FA804669488A46EA
:103310005A46334604217844FFF7D8FE5A463346CE
:1033200003F096FA00223B4603F042F802460B46B1
:103330004046514603F0F8F82A46234603F088FA3F
:1033400006B02A462346BDE8F04D03F031B82846C2
:1033500024F0004100223D463B4603F077FB4FF04E
:10336000FF3204F02AF90646024653480F460B4640
:1033700006217844FFF7AAFE32463B4603F068FA7E
:10338000CDE900014D4832463B4604217844FFF721
:103390009DFE32463B4603F05BFA00222B4603F0CB
:1033A00007F8834602913046394602F06BFE8046AC
:1033B00043480D46504517DCDDE900015A46029BA3
:1033C00003F0B2F842462B4603F042FA42462B463F
:1033D00002F0EEFF012204F0F0F8304A304B03F027
:1033E00027FC304A304B4CE04FF0000A52460B4667
:1033F000404602F0DDFFCDE9031052462B46104651
:10340000194603F025FA32463B4603F01FFBDDE97F
:10341000033203F089F806460F46DDE900015A46FB
:10342000029B03F081F88346009101223046394621
:1034300004F0C3F8194A1A4B03F008FB06460F467E
:1034400001224046294604F0B8F85A46009B03F092
:10345000FFF932463B4603F0EBFB06460F460122DE
:103460005046294604F0A9F80E4DDFF858802A4648
:10347000434603F0EBFA32463B4603F0E7FA2A46AE
:10348000434603F0E3FA002CD8BF81F0004106B0B8
:10349000BDE8F08D0000F03F0000F07F075C1433C2
:1034A00026A6913C182D4454FB21F93F0000E03F33
:1034B000B0550000C65500003A55000050550000B8
:1034C0003333EF3FFB21E93F2DE9F84F04460D462A
:1034D00021F0004000917349814211DC7249884219
:1034E00001DC06D12CB120462946BDE8F84FFFF794
:1034F00042BE6E48002DCCBF6D496E49BDE8F88FC5
:103500006D49814211DD6D498142D8BF4FF0FF36D0
:103510006DDD20462946FFF7C5FD042808BFFFF7EB
:1035200035FE20462946BDE8F88F6549654F25F0F0
:103530000045814233DD6449814219DD002632466F
:103540004FF080432046294602F032FF80468A46EB
:1035500001222046294604F030F800223B4603F0C1
:1035600067FB4246534602F0DFFF04460D463EE04D
:1035700001260022BA463B462046294602F018FFA3
:1035800080460F46002253462046294603F050FB52
:1035900042463B4602F0C8FF04460D4627E04B4931
:1035A00081421BDDDFF828A1022600225346204677
:1035B000294603F04DF900223B4602F0F9FE804611
:1035C0000F46002253462046294603F031FB42466F
:1035D0003B4602F0A9FF04460D4608E003262246BA
:1035E0002B4600203B4902F09FFF04460D46224631
:1035F0002B461046194603F02BF98B4682460246AD
:103600000B4603F025F907460246334888460B4629
:1036100006217844FFF75AFD52465B4603F018F93D
:1036200082462E488B463A46434605217844FFF7AA
:103630004DFD3A46434603F00BF902460B46002E79
:10364000504659460CDA02F0B3FE22462B4603F0F0
:10365000FFF801B022462B46BDE8F04F03F0F6B963
:1036600002F0A6FE22462B4603F0F2F81C4A7A44EA
:1036700002EBC603D3E9002303F0DAFA22462B4615
:1036800003F0D6FA174A7A4402EBC603D3E90023C3
:1036900003F0DCF9009A002AB8BF81F00041BDE8D0
:1036A000F88F0000000010440000F07F182D4454F3
:1036B000FB21F93FFB21F9BF0000DC3F0000203E69
:1036C0000000F33F0000F03F0000E63F00800340B1
:1036D0000000F83F0000F0BF5253000010530000FC
:1036E000AE520000765200002DE9F04D9446CCF128
:1036F000000423F000464CEA0404594F46EAD4740F
:103700009A46884621F00042BC4206D8454240EA2B
:10371000050442EAD474BC4204D9BDE8F04D6246C7
:10372000FFF72CBDAAF14055A5F17F6555EA0C04C1
:103730000BD0022404EAAA744A4DDFF82CE144EAD3
:10374000D87452EA000B04D00CE0BDE8F04DFFF74E
:10375000BBBE002C14BF012CBDE8F08D022C30D074
:10376000032C32D056EA0C0B0AD0BE4220D1BA420A
:1037700009D126F0804622F080423346114617E0F8
:1037800000291ADB25E0DFF8E4B0FB44002C04BF7D
:10379000DBE90001BDE8F08D012C02BFDBE900018F
:1037A00081F00041BDE8F08D022C0AD0032C0CD032
:1037B000BA4212D1B8F1000F0BDA2A482C49BDE801
:1037C000F08D28462B49BDE8F08D28467146BDE8AE
:1037D000F08D24482849BDE8F08D921B12153C2A33
:1037E000C4BF204F244E10DCBAF1000FBEBF12F14F
:1037F0003C0F00273E4608DB624602F095FE21F0B2
:103800000041FFF761FE07460E4694B1012C08BF48
:1038100086F000460DD0194A194B022C3846314625
:1038200015D003F005FA2A46BDE8F04D114B03F020
:10383000FFB9002213463846314602F0CDFF04BFDF
:103840000220FCF7A3FE38463146BDE8F08D03F0B8
:10385000EFF92A46BDE8F04D064B03F0F7B800003B
:103860000000F07F182D4454FB2109C00A520000CB
:10387000FB21F9BFFB210940FB21F93F075C143311
:1038800026A6A13C2DE9F0410446E07800F0C006F0
:10389000E07800F03F05607800F0010098B1EF108B
:1038A0002846E91705EB5171C910A5EBC101491C68
:1038B00001F0FF080B48006820B10A484146026841
:1038C0003846904700BF607800F0080030B10548E6
:1038D000406818B1B011034A516888470020BDE81C
:1038E000F08100008C02002010B56FF00400FEF79C
:1038F0003BFC0A4800680A49B0FBF1F0094908702E
:103900000846007800EB4001C1EBC0104FF6FF7194
:1039100001EAC0000449088010BD0000200000201A
:1039200000127A0000000020020000200146114A27
:1039300012884A434FF0E0235A6100229A611A46E6
:10394000126942F001021A6100BF4FF0E0221069D3
:1039500000F001021AB100F48032002AF5D04FF0D5
:10396000E022126922F001024FF0E0231A610022E6
:103970009A617047020000200146114A12784A43BA
:103980004FF0E0235A6100229A611A46126942F010
:1039900001021A6100BF4FF0E022106900F001023D
:1039A0001AB100F48032002AF5D04FF0E0221269FB
:1039B00022F001024FF0E0231A6100229A61704761
:1039C0000000002038B5044664B120208DF80000C6
:1039D00028208DF8010030208DF8020038208DF865
:1039E000030004E0A32204216846FCF747FD6A4671
:1039F000042140F69E2002F06BFA01F055FE38BD1E
:103A00003EB5044602208DF80000CA208DF8010062
:103A1000E3208DF8020009208DF803006A46042196
:103A2000682002F055FAA3208DF8000004F0400051
:103A300048B1C0208DF80100C8208DF80200C220D6
:103A40008DF8030006E0A3208DF801008DF8020038
:103A50008DF8030004F4C07048B1C4208DF8040050
:103A6000CC208DF80500C6208DF8060006E0A320C6
:103A70008DF804008DF805008DF80600A3208DF860
:103A800007008DF808008DF809006A460A2140F603
:103A9000A72002F01DFA04F0030018B120208DF8D1
:103AA000000002E0D8208DF800006A46012140F6AF
:103AB000B62002F00DFA04F0200018B1012000F049
:103AC000ADF802E0002000F0A9F804F4C07008B3DB
:103AD00004F4807060B1B2208DF800008B208DF866
:103AE0000100B6208DF802009B208DF803000BE04A
:103AF000B0208DF8000080208DF80100B4208DF8F2
:103B0000020090208DF803006A46042140F6A220AE
:103B100002F0DEF904F0010020B3F8208DF8000077
:103B20006A4601214FF40B6002F0D2F9FA21072016
:103B300000F02CFC072000F0F3FB012000F013FC48
:103B4000642000F0F3FC4FF4FA7000F002FDC8218D
:103B5000304800F0A3FB282000F0BCFB0A2000F056
:103B6000CCFB08E0D8208DF800006A4601214FF414
:103B70000B6002F0ADF904F0020018B1D9208DF805
:103B8000000002E0D8208DF800006A46012140F2D2
:103B90003D7002F09DF904F0040018B1012000F01E
:103BA00069F802E0002000F065F804F0100018B198
:103BB0000120FFF707FF02E00020FFF703FF44F0BA
:103BC00008001549488101F06FFD002012498873F3
:103BD00004F0400018B10846807B801D887304F40F
:103BE000C07020B10C48807B801D0B49887304F0A5
:103BF000140020B10848807B10300749887304F016
:103C0000030020B10448807B001D03498873002015
:103C10003EBD000009E3CA028C0200203EB5044606
:103C20006CB10EA1D1E900208968CDE90020029194
:103C30006A4609214FF4976002F04AF93EBD0AA294
:103C4000D2E900109268CDE9010200916A4609218B
:103C50004FF4976002F03CF9F0E70000B8AAB38D8A
:103C6000B4980D355D000000B8AAAAAAB088C3C5F3
:103C7000C700000038B5044664B1C0208DF80000CC
:103C8000C2208DF80100C4208DF80200C6208DF8F6
:103C9000030004E08B2204216846FCF7EFFB6A4630
:103CA000042140F6982002F013F901F0FDFC38BD24
:103CB00010B5C8234FF48062024940F6F63001F097
:103CC00087FB10BD987600082DE9F04F8DB00746B0
:103CD000884615469946DDE9166B002400203080A1
:103CE0006B49887B5A4605A901F03EFC18B1601E5D
:103CF0000DB0BDE8F08F6648807A00F0140000280F
:103D000067D09DF8140000069DF8151040EA0140A8
:103D10009DF8161040EA01209DF81710084328600E
:103D20009DF8180000069DF8191040EA01409DF822
:103D30001A1040EA01209DF81B10084368609DF8A6
:103D40001C0000069DF81D1040EA01409DF81E1061
:103D500040EA01209DF81F100843A8609DF820004C
:103D600000069DF8211040EA01409DF8221040EA2B
:103D700001209DF823100843E86004F11000C4B24C
:103D8000286800140190686800140290A868001464
:103D90000390E8680014049001984043029901FBE5
:103DA0000100039901FB0100049901FB010ABAF12A
:103DB000706F02DBBAF1885F05DD01F075FC002051
:103DC0003080401E94E7B6F9000040F480703080E7
:103DD00000BF2F48807A00F0400020B305A9601C86
:103DE000085C095D40EA012000B2A8F8000005A9BE
:103DF000E01C095C05AAA01C105C41EA002000B28E
:103E0000A8F8020005A9601D095C201D105C41EAAC
:103E1000002000B2A8F80400A01DC4B2B6F900004A
:103E200040F0080030801A48408900F4C07008B3A0
:103E300005A9601C085C095D40EA012000B23880D9
:103E400005A9E01C095C05AAA01C105C41EA002041
:103E500000B2788005A9601D095C201D105C41EA54
:103E6000002000B2B880A01DC4B2B6F9000040F036
:103E7000700030800648807A00F0030018B105A970
:103E80000819FFF7FFFC484600F034FF00202FE739
:103E90008C02002070B588B0064601A801F0ECF84D
:103EA000BDF804000021C90341EA5045C403444859
:103EB000007A00F0030056F8200005904048007A90
:103EC00000F0040010B10598404205903C48007A8B
:103ED000C0F3C10056F8200006903948007A00F07F
:103EE000200010B10698404206903548007AC0F391
:103EF000811056F8200007903148008900F4807046
:103F000010B10798404207900598C117A0FB042301
:103F100001FB043100FB0510810041EA927005901D
:103F20000698C117A0FB042301FB043100FB051018
:103F3000810041EA927006900798C117A0FB042304
:103F400001FB043100FB0510810041EA92700790EB
:103F50000598000E8DF808000598000C8DF80900F2
:103F60000598000A8DF80A000598C0B28DF80B007C
:103F70000698000E8DF80C000698000C8DF80D00C8
:103F80000698000A8DF80E000698C0B28DF80F0052
:103F90000798000E8DF810000798000C8DF811009E
:103FA0000798000A8DF812000798C0B28DF8130028
:103FB00002AA0C214FF4257001F08AFF08B070BDF1
:103FC0008C02002030B585B0044616A207CA02ABA9
:103FD00007C3C82C03DD4FF0FF3005B030BDC8204B
:103FE00090FBF4F0401E85B2280A8DF80000E8B27C
:103FF0008DF801006A46022140F2162001F068FFA8
:1040000010B14FF0FF30E8E702AA0C2140F6C120C2
:1040100001F05EFF10B14FF0FF30DEE7044884810D
:104020000020DAE7FEF2ABC4AAF1DFDFBBAFDFDFCF
:104030008C0200201FB504464848007A00F00300B7
:1040400054F8200001904548007A00F0040010B1B7
:104050000198404201904148007AC0F3C10054F8F1
:10406000200002903D48007A00F0200010B1029834
:10407000404202903948007AC0F3811054F8200081
:1040800003903648008900F4807010B103984042D4
:1040900003903349019880FB0101800F40EA8100C1
:1040A00001902F49029880FB0110820042EA917032
:1040B00002902B49039880FB0110820042EA917024
:1040C00003900198000E8DF800000198000C8DF807
:1040D00001000198000A8DF802000198C0B28DF825
:1040E00003006A4604214FF4747001F0F1FE18B128
:1040F0004FF0FF3004B010BD0298000E8DF80000A4
:104100000298000C8DF801000298000A8DF8020058
:104110000298C0B28DF803006A4604214FF475700E
:1041200001F0D6FE10B14FF0FF30E3E70398000E28
:104130008DF800000398000C8DF801000398000A28
:104140008DF802000398C0B28DF803006A4604217E
:104150004FF4767001F0BCFECCE700008C0200202A
:1041600009E3CA0210B586B0044647A00068039070
:1041700046A00068029046A00068019045A0006833
:10418000009004F0030003A9085C8DF8140003A854
:10419000C4F3C101405C8DF8150003A8C4F381117C
:1041A000405C8DF8160004F0030002A9085C8DF84D
:1041B000100002A8C4F3C101405C8DF8110002A8F0
:1041C000C4F38111405C8DF8120005AA032140F26E
:1041D000264001F07DFE18B14FF0FF3006B010BD53
:1041E00004AA032140F22A4001F072FE10B14FF000
:1041F000FF30F3E7019805900098049004F0040064
:1042000058B19DF8140040F001008DF814009DF89D
:10421000100040F001008DF8100004F0200058B1AB
:104220009DF8150040F001008DF815009DF8110073
:1042300040F001008DF8110004F4807058B19DF831
:10424000160040F001008DF816009DF8120040F0B5
:1042500001008DF8120005AA03214FF4886001F0D7
:1042600037FE10B14FF0FF30B8E704AA032140F247
:10427000314001F02DFE10B14FF0FF30AEE706489F
:1042800004810020AAE700004CCD6C000CC92C0072
:1042900036567600264666008C020020F8B50546A4
:1042A0000E464FF47A7095FBF0F000FB06F4200EFA
:1042B0008DF80000200C8DF80100200A8DF8020016
:1042C000E0B28DF803006A4604214FF4AE7001F0AD
:1042D000FFFDF8BD38B50446052094FBF0F084B22C
:1042E00020128DF80000E0B28DF801006A4602212C
:1042F0004FF4AD7001F0ECFD38BD38B50446052033
:1043000094FBF0F084B220128DF80000E0B28DF83A
:1043100001006A4602214FF4AC7001F0D9FD38BDAE
:1043200038B504460020009004F0010020B19DF84B
:10433000000040F03000009004F0020020B19DF831
:10434000000040F00C00009004F0040020B19DF843
:10435000000040F0030000906A4601214FF4A47071
:1043600001F0B6FD38BD38B50446012C01DA012450
:1043700002E0042C00DD0424601EC0B200906A46F6
:10438000012140F24F1001F0A3FD38BD2DE9FC479B
:1043900006460F4606F0070010B1B7F5C86F03DDFB
:1043A0004FF0FF30BDE8FC87384602F00FFF814632
:1043B000594902F0C1FD8046684600F037FE9DF87D
:1043C0000000022806D0042816D0082826D010287D
:1043D00048D135E04FF08D41404602F03FFF814625
:1043E00002F0BCFE84B24D49404602F037FF8146E0
:1043F00002F0B4FE85B238E04FF08C41404602F046
:104400002DFF814602F0AAFE84B24549404602F0E3
:1044100025FF814602F0A2FE85B226E04FF08B41D7
:10442000404602F01BFF814602F098FE84B23D49EF
:10443000404602F013FF814602F090FE85B214E080
:104440004FF08A41404602F009FF814602F086FEA5
:1044500084B23549404602F001FF814602F07EFEFB
:1044600085B202E04FF0FF309CE700BF20128DF8CC
:104470000400E0B28DF8050028128DF80600E8B2BD
:104480008DF8070006F00100A0B101AA02214FF447
:10449000EA7001F01DFD10B14FF0FF3082E70DF121
:1044A000060202214FF4927001F012FD10B14FF09C
:1044B000FF3077E706F00200A0B101AA02214FF415
:1044C000EC7001F005FD10B14FF0FF306AE70DF11F
:1044D000060202214FF4947001F0FAFC10B14FF083
:1044E000FF305FE706F00400A0B101AA02214FF4FB
:1044F000EE7001F0EDFC10B14FF0FF3052E70DF11E
:10450000060202214FF4967001F0E2FC10B14FF068
:10451000FF3047E7002045E70000484300004046E1
:104520000000C045000040450000C04438B50446C6
:10453000052094FBF0F085B228128DF80000E8B257
:104540008DF801006A4602214FF4EF7001F0C0FCC3
:1045500038BD38B50446052094FBF0F085B228122A
:104560008DF80000E8B28DF801006A4602214FF490
:10457000ED7001F0ADFC38BD00BF054A128802F0B5
:104580004002002AF9D0C2B2014B1B1D1A807047AD
:10459000003801407CB5054628494968087801ABD8
:1045A00004220D21FDF766F808B107207CBD9DF8B7
:1045B0000700C0F301109DF8041001F0E00140EA8B
:1045C000E1008DF800009DF80700C0F381009DF820
:1045D000051001F0E00140EAE1008DF801009DF8CE
:1045E000070000F003009DF8061001F0E00140EA2A
:1045F000E1008DF8020000241CE01DF8040018B949
:10460000002045F8240013E00D4845F8240006E09A
:1046100055F824000B4902F021FE45F824001DF84E
:104620000400401EC0B20DF804000028F0D100BF05
:10463000601CC4B2032CE0DB0020B7E7340000208C
:104640007B14AE3E1D5A843F2DE9F04F87B00546DE
:104650000C46914601208DF8100000208DF81100C5
:10466000FE4A1268917CFD4A5268107804AB02221F
:10467000FDF7A6F820B14FF0FF3007B0BDE8F08F8E
:10468000C820FFF753F900208DF81000F34A126894
:10469000D17BF24A5268107804AB0122FDF790F802
:1046A00010B14FF0FF30E8E7EC4A12685179EB4A5D
:1046B0005268107804AB0122FDF782F810B14FF078
:1046C000FF30DAE7E54A1268917CE44A52681078D4
:1046D00004AB0122FDF774F810B14FF0FF30CCE7C6
:1046E000DE4A1268D17DDD4A5268107804AB01229F
:1046F000FDF766F810B14FF0FF30BEE7D74A1268F9
:104700001179D64A5268107804AB0122FDF758F8A7
:1047100010B14FF0FF30B0E70C208DF81000CF4AF9
:1047200012681179CD4A5268107804AB0122FDF766
:1047300047F810B14FF0FF309FE70F20FFF7F6F872
:10474000C648806A407A8DF81000C44A1268917891
:10475000C24A5268107804AB0122FDF731F810B15B
:104760004FF0FF3089E7BD48806A007A8DF810006D
:10477000BA4A12685178B94A5268107804AB0122DB
:10478000FDF71EF810B14FF0FF3076E7B9F1000FDA
:1047900007D0B248806A807A40F0E0008DF81000BF
:1047A00004E0AE48806A807A8DF81000AB4A126847
:1047B0009179AA4A5268107804AB0122FDF700F8FB
:1047C00010B14FF0FF3058E7B9F1000F07D0A34800
:1047D000806AC07A40F0E0008DF8100003E0A04845
:1047E000C07A8DF810009D4A1268D1799B4A5268B0
:1047F000107804AB0122FCF7E3FF10B14FF0FF305B
:104800003BE7B9F1000F02D0C820FFF78FF8402036
:104810008DF81000914A12681179904A5268107808
:1048200004AB0122FCF7CCFF10B14FF0FF3024E7BE
:1048300078208DF81000894A12685179874A5268A9
:10484000107804AB0122FCF7BBFF10B14FF0FF3032
:1048500013E783498889FFF769F800208DF8100075
:104860007E4A126851797D4A5268107804AB012261
:10487000FCF7A6FF10B14FF0FF30FEE6774A126852
:10488000917A764A5268107804AB0222FCF7F2FE65
:1048900010B14FF0FF30F0E69DF811009DF81010B8
:1048A00040EA012B0C209BFBF0F0C6B20020A86070
:1048B00068602860A06060602060824665E0674AAA
:1048C0001268D17A654A5268107804AB0C22FCF762
:1048D000D1FE10B14FF0FF30CFE69DF811009DF8EA
:1048E000101040EA012000B2ADF808009DF8130056
:1048F0009DF8121040EA012000B2ADF80A009DF8C0
:1049000015009DF8141040EA012000B2ADF80C002B
:10491000BDF90810206808442060BDF90A106068DD
:1049200008446060BDF90C10A0680844A0609DF8C0
:1049300017009DF8161040EA012000B2ADF8000003
:104940009DF819009DF8181040EA012000B2ADF85A
:1049500002009DF81B009DF81A1040EA012000B2E9
:10496000ADF80400BDF90010286808442860BDF9BE
:104970000210686808446860BDF90410A86808441B
:10498000A8600AF1010000F0FF0AB24597DB344845
:10499000D0F800C02868C117090441EA1041070493
:1049A000624600233846FBF734FC32460023CDE94B
:1049B0000201FBF72EFC28602948D0F800C0686887
:1049C000C117090441EA1041070462460023384632
:1049D000FBF71FFC32460023CDE90201FBF719FC6F
:1049E00068601F48D0F800C0A868C117090441EAF0
:1049F00010410704624600233846FBF70AFC3246A2
:104A00000023CDE90201FBF704FCA8601448D0F8AC
:104A100004C02068C117090441EA10410704624636
:104A200000233846FBF7F5FB32460023CDE90201AF
:104A3000FBF7EFFB20600A48D0F804C06068C1179C
:104A4000090441EA10410704624600233846FBF797
:104A5000E0FB32460023CDE9020103E034000020F0
:104A600070760008FBF7D5FB60601148D0F804C0F1
:104A7000A068C117090441EA1041070462460023F7
:104A80003846FBF7C6FB32460023CDE90201FBF7AF
:104A9000C0FBA060A068002804DDA068A0F58030FD
:104AA000A06003E0A06800F58030A0600020E4E58D
:104AB000707600082DE9FC5F06460F4600253D494B
:104AC0004968087801AB03220D21FCF7D3FD10B132
:104AD0000720BDE8FC9F9DF8040000F01F008DF842
:104AE00004009DF8050000F01F008DF805009DF8FA
:104AF000060000F01F008DF80600002456E056F86E
:104B0000240057F82410A0EB010BBBF1000F01DBD0
:104B1000594601E0CBF10001084602F03FFB4FF09F
:104B20008F41009002F008FA814601A8005D68B349
:104B30002149086802F04AFB834659461F4802F0A3
:104B4000FBF9804604E01E49404602F087FB8046A0
:104B500001A8005D401EC0B201A908550028F2D18D
:104B60004146484602F0E8F983464FF07E5102F094
:104B70007DFC82462AF0004B0F488169584602F0BE
:104B800039FC12D20120A04005430EE00A48016919
:104B9000484602F02FFB05D307484169484602F01A
:104BA00029FC02D20120A0400543641C032CA6DB93
:104BB00028468EE7340000207076000800B04C458F
:104BC00054E3853F10B50446204600F00FF8034635
:104BD000E01C00F00BF843EAC00083B2A01D00F017
:104BE00005F843EA801083B2184610BD014691F9DA
:104BF0000020002A01DD00201EE091F90020002A9B
:104C000001DA042018E091F90120002A01DD0120D9
:104C100012E091F90120002A01DA05200CE091F957
:104C20000220002A01DD022006E091F90220002A7C
:104C300001DA062000E007207047000008B5FDF704
:104C40009BF946E02348006840B1234808235222DC
:104C5000042100903220FCF784FE07E01F4808235F
:104C60005222042100903220FCF77BFE1CA204217A
:104C70000120FDF732F81D491D48006802F0EEFAE8
:104C800006461A4902F058F9054602F04BFA044666
:104C90000323224606210220FCF7ECFF2E220A21E4
:104CA0000220FCF78BFF11491148006802F0D6FA88
:104CB000054602F037FA0A2190FBF1F201FB1204DB
:104CC000012322460B210220FCF7B2FF0A20FEF747
:104CD0002DFEB7E734012242140100209C0200207F
:104CE00042616C616E63655F436172000000204148
:104CF0009C0000207047000070B50446002624F098
:104D00000104184890F8240008B1002070BD15482F
:104D1000807A10B94FF0FF30F8E71248057C807AAE
:104D20002040104908740846007CA04202D04FF091
:104D3000FF3600E0002614B90A48007D18B10120B2
:104D400001F058F902E0002001F054F93CB100F004
:104D5000ABFC20B1034805744FF0FF30D6E7304676
:104D6000D4E70000340000202DE9F04F99B004464C
:104D70000D4616464FF07E574FF000084FF00009E1
:104D80004FF0000A12A813A918AB0EAACDE9001023
:104D900014A916A8FEF798FF18B1012019B0BDE8B4
:104DA000F08FBDF84C0000F4807000287ED00E9883
:104DB00002F0F4F983464FF09D4102F0BDF807463A
:104DC0000F9802F0EBF983464FF09D4102F0B4F8E2
:104DD0008046109802F0E2F983464FF09D4102F0C0
:104DE000ABF88146119802F0D9F983464FF09D4106
:104DF00002F0A2F8824639464FF0804002F02EFAC7
:104E00004946059002F02AFA414607904FF040408B
:104E100002F024FA5146059002F020FA0690079914
:104E200002F01CF8834601F0EDFFCDE90801FEF722
:104E300013FA4FF06632544BCDE90A0101F008FD38
:104E4000CDE90C0101F082FA206049464FF0804024
:104E500002F004FA4946029002F000FA414604903A
:104E60004FF0404002F0FAF94146029002F0F6F9A4
:104E70000390049902F0FAFA83464FF07E5101F054
:104E8000EDFF059001F0BEFFCDE9080139464FF076
:104E9000804002F0E3F94146039002F0DFF9494611
:104EA00004904FF0804002F0D9F900E068E05146EC
:104EB000039002F0D3F98346049901F0CFFF0590E7
:104EC00001F0A0FFCDE90601DDE90823FEF70CFCA7
:104ED0004FF066322C4BCDE90A0101F0B9FCCDE967
:104EE0000C0101F033FA28605146504602F0B6F941
:104EF00049460490484602F0B1F9414603904046C5
:104F000002F0ACF939460190384602F0A7F900905A
:104F1000019901F0A3FF0290039902F0A7FA8346DA
:104F2000049902F0A3FA059001F06CFFCDE90801A5
:104F30005146384602F092F949460490404602F044
:104F40008DF90390049901F089FF4FF0804105909D
:104F500002F084F9834601F055FFCDE90601DDE951
:104F60000823FEF7C1FB4FF06632074BCDE90A017B
:104F700001F06EFCCDE90C0101F0E8F9306001E0D0
:104F800002200BE7002009E766A64C4070B500241C
:104F9000FCF7EEF900F024F9002840D1782000F069
:104FA0002FFFC4B20CB1012070BD7820FFF7A4FE22
:104FB000C4B20CB10220F7E7642000F0D3FEC4B203
:104FC0000CB10320F0E7FEF773FEC4B20CB104206D
:104FD000EAE71548FFF7F6FD0546FFF7C3F8C4B248
:104FE0000CB10520E0E740F27310FEF709FDC4B2F2
:104FF0000CB10620D8E76420FEF7E4FFC4B20CB180
:105000000720D1E700F0ABFF04460CB10820CBE746
:10501000012000F0A3FDC4B21CB10920C4E70A209E
:10502000C2E70020C0E700006000002001461148F0
:10503000407A30B1012807D0022808D003280CD1CB
:1050400008E0022008700BE00420087008E0082047
:10505000087005E01020087002E04FF0FF30704744
:1050600000BF0448C07C18B108784006000E0870E4
:105070000020F4E73400002001461348407A30B1A4
:10508000012808D002280AD0032810D10BE04FF4E1
:10509000804008800EE041F69C7008800AE04FF4E2
:1050A0008050088006E04FF40060088002E04FF076
:1050B000FF30704700BF0448C07C10B10888401022
:1050C00008800020F5E70000340000200146024877
:1050D000007C0870002070473400002001460F4813
:1050E000007A30B1012807D0022809D003280FD157
:1050F0000AE0FA2008800EE04FF4FA7008800AE017
:105100004FF47A70088006E04FF4FA60088002E0FD
:105110000020088000BF00BF00207047340000203E
:1051200001460E48007A30B1012807D0022808D085
:1051300003280CD108E00A4808600BE00948086021
:1051400008E00948086005E00848086002E04FF000
:10515000FF30704700BF0020FBE700003400002054
:10516000000003430000834233330342333383415F
:1051700001461248C07A082817D2DFE800F0170469
:10518000070A0D101318BC20088013E06220088065
:1051900010E02A2008800DE0142008800AE00A2090
:1051A000088007E00520088004E000BF00BF002061
:1051B000088000BF00BF00207047000034000020BE
:1051C0000146064890F8240010B14FF0FF307047B8
:1051D0000248C08908800020F9E700003400002060
:1051E0001CB580208DF80000654A1268917C644AE5
:1051F000526810786B460122FCF7E2FA10B14FF0CA
:10520000FF301CBD6420FEF791FB00208DF80000EC
:105210005B4A1268917C5A4A526810786B460122A8
:10522000FCF7CEFA10B14FF0FF30EAE7544A1268AB
:10523000917D534A526810786B460622FCF71AFAA1
:1052400010B14FF0FF30DCE79DF80500C007400FBC
:105250009DF8031001F0010140EA41009DF80110A2
:1052600001F0010140EA010494B1012C03D10121B4
:105270004348C17431E0022C03D100214048C1747D
:105280002BE021463FA0FAF7E9FF4FF0FF30B8E7E7
:105290003B4A1268D1783A4A526810786B4601222C
:1052A000FCF7E8F910B14FF0FF30AAE79DF80000D5
:1052B00000F00F042CB93D48FAF7D0FF4FF0FF3053
:1052C0009FE7042C06D13AA0FAF7C8FF01212C4829
:1052D000C17402E000212A48C174FF21284881726C
:1052E000FF2027490872FF2125484172C1724FF6FD
:1052F000FF71C181FF21017481740121017380F864
:105300002210002180F823104175017516300160CC
:1053100041608160163880F8241080F82510C1841F
:105320004FF4FA6000F062FC10B14FF0FF3068E714
:10533000022000F02BFB10B14FF0FF3061E72A2074
:1053400000F0CEFC10B14FF0FF305AE7322000F0F1
:1053500009FD10B14FF0FF3053E70020FFF7CCFC00
:1053600010B14FF0FF304CE7002000F051FB10B1BE
:105370004FF0FF3045E7002000F042FD002040E7FD
:1053800034000020556E737570706F727465642000
:10539000736F6674776172652070726F6475637481
:1053A000207265762025642E0A000000A08900087E
:1053B00048616C662073656E736974697669747987
:1053C000207061727420666F756E642E0A00000092
:1053D0002DE9F04385B005460E469046994629488A
:1053E00090F8250020B14FF0FF3005B0BDE8F08304
:1053F00016B94FF0FF30F8E7002423E0281B1028EF
:1054000001DD102000E0281B87B232193946204602
:1054100000F05EFD10B14FF0FF30E6E701AA39461B
:10542000204600F001F910B14FF0FF30DDE73019F0
:105430003A4601A9FAF7F6FF10B16FF00100D4E780
:10544000E01984B2AC42D9DB4FEA28208DF8000085
:1054500008F0FF008DF801000A4A1268917E094A9F
:10546000526810786B460222FCF7AAF910B14FF08F
:10547000FF30BAE70121034880F82510A0F82690F4
:105480000020B2E73400002038B50446282C02DDA5
:105490004FF0FF3038BDDCB9002000F0EBFB0020FE
:1054A0008DF8000007208DF801002E4A1268917CCB
:1054B0002C4A526810786B460222FCF781F910B131
:1054C0004FF0FF30E6E70021264801750020E1E7B4
:1054D000012000F0CFFB20208DF80000012C06D128
:1054E00000208DF80100052000F0FAFB17E0052CE4
:1054F00006DC01208DF80100052000F0F1FB0EE034
:10550000142C06DC02208DF801000A2000F0E8FBD4
:1055100005E003208DF80100142000F0E1FB9DF868
:105520000100072101EB8010C0B28DF801000D4A87
:105530001268917C0B4A526810786B460222FCF785
:105540003FF910B14FF0FF30A4E708210548817200
:1055500000210173012101750020FFF7CDFB002020
:1055600098E7000034000020F8B504460F461646C0
:105570002C4890F8240010B94FF0FF30F8BD2948AE
:10558000807A10B94FF0FF30F8E7264A1268917A16
:10559000244A526810786B460222FCF76BF810B16F
:1055A0004FF0FF30EAE79DF801009DF8001040EA57
:1055B0000125A54203DA00203070401EDEE71948BD
:1055C00040684088B5EB600F17DD164A1268517CC1
:1055D000144A526810786B460122FCF74BF810B160
:1055E0004FF0FF30CAE79DF8000000F0100020B136
:1055F00000F05AF86FF00100C0E7E2B2094B1B68F7
:10560000D97A084B5B6818783B46FCF733F810B141
:105610004FF0FF30B2E795FBF4F0401E30700020F1
:10562000ACE7000034000020F8B504460D461646ED
:1056300016B94FF0FF30F8BD1A48807A10B94FF014
:10564000FF30F8E720128DF80000E0B28DF801007D
:105650009DF801002844134949684989884202DDC0
:105660004FF0FF30E7E70F4A1268117E0D4A52688B
:1056700010786B460222FCF7A3F810B14FF0FF3010
:10568000D9E7EAB2074B1B68597D064B5B6818786F
:105690003346FBF7EFFF10B14FF0FF30CBE70020B0
:1056A000C9E700003400002008B57048807A10B9BE
:1056B0004FF0FF3008BD002000906C4A1268D17B8B
:1056C0006A4A526810786B460122FCF779F810B1EB
:1056D0004FF0FF30EEE7654A12685179634A52682D
:1056E00010786B460122FCF76BF810B14FF0FF30D9
:1056F000E0E75E4A126811795C4A526810786B469E
:105700000122FCF75DF810B14FF0FF30D2E75748A7
:1057100090F82400002853D00C200090534A1268BF
:105720001179524A526810786B460122FCF748F80A
:1057300010B14FF0FF30BDE73220FEF7F7F8C02080
:1057400000904A48807A00F0010020B19DF80000E6
:1057500040F020000090454A12681179434A52688F
:1057600010786B460122FCF72BF810B14FF0FF3098
:10577000A0E73E48407C10B10220009001E00020EC
:1057800000903A4A1268D17B384A526810786B46CA
:105790000122FCF715F810B14FF0FF308AE7002026
:1057A0000090324A12685179304A526810786B463C
:1057B0000122FCF705F8002855D04FF0FF3079E7BB
:1057C00004200090294A12681179284A52681078FA
:1057D0006B460122FBF7F4FF10B14FF0FF3069E791
:1057E0002248807C20B92148807A00F0010010B95D
:1057F0004020009001E0602000901C4A126811795E
:105800001A4A526810786B460122FBF7D9FF10B193
:105810004FF0FF304EE73220FEF788F81348407C07
:1058200010B10120009001E0002000900F4A1268A2
:10583000D17B0E4A526810786B460122FBF7C0FFFD
:1058400010B14FF0FF3035E7084A12685179074A26
:1058500052681078054B10330122FBF7B1FF10B1ED
:105860004FF0FF3026E7002024E70000340000203E
:105870002DE9F04F8DB083460F4602200C90424830
:1058800090F8240020B1002000F068F9012600E023
:10589000002603A8FFF722FC05A8FFF7C7FB01A815
:1058A000FFF766FC02A8FFF78BFC374890F80AA0C8
:1058B00004A8FFF70BFC002407E0002239465846F5
:1058C000FEF7C2FE00B902E0641C022CF5DB00BF4B
:1058D000022C01D1002528E0002407E0012206A9BE
:1058E00009A8FEF7B1FE00B902E0641C022CF5DB4A
:1058F00000BF022C01D1002517E006A93846FDF7AC
:1059000057FC00F0FF0809A95846FFF7D3F800F04C
:10591000FF090025B9F1000F01D145F00105B8F1EB
:10592000000F01D145F0020500BFFF2016490872A3
:10593000FF2115484172C1724FF6FF71C181FF21ED
:105940008172017401210173BDF80C0000F04EF961
:105950009DF8140000F01AF8BDF8040000F0C0F93A
:10596000BDF8080000F0FEF9504600F049FA9DF835
:105970001000FFF7C1F916B1012000F0EFF828463A
:105980000DB0BDE8F08F00003400002038B50446AB
:105990001E48807A10B94FF0FF3038BD022C06D077
:1059A000042C07D0082C08D0102C0CD108E00020C3
:1059B00000900BE00820009008E01020009005E027
:1059C0001820009002E04FF0FF30E6E700BF0F48DC
:1059D000407A9DF80010B0EBE10F01D10020DCE728
:1059E0000A4A1268D179094A526810786B46012236
:1059F000FBF7E6FE10B14FF0FF30CEE79DF8000058
:105A0000C110024841720020C7E7000034000020A6
:105A100038B504465048807CA04201D1002038BDF2
:105A2000002C46D04C4A126811794B4A52681078C3
:105A30006B460122FBF71EFE10B14FF0FF30EEE780
:105A40009DF8000020F020000090434A1268117970
:105A5000414A526810786B460122FBF7B1FE10B143
:105A60004FF0FF30DBE70320FDF760FF02200090DE
:105A7000394890F8220020B19DF8000040F08000E5
:105A80000090354890F8230020B19DF8000040F0C8
:105A900030000090304A1268117D2F4A5268107809
:105AA0006B460122FBF78CFE002851D04FF0FF30EF
:105AB000B5E7294A12681179274A526810786B466F
:105AC0000122FBF7D7FD10B14FF0FF30A7E72248C6
:105AD000807A00F0010028B19DF8000040F020001D
:105AE000009004E09DF8000020F0200000901A4A89
:105AF00012681179184A526810786B460122FBF738
:105B00005FFE10B14FF0FF3089E70320FDF70EFF75
:105B1000114890F8220010B18020009001E0002090
:105B200000900D4890F8230020B19DF8000040F04F
:105B300030000090084A1268117D074A52681078B8
:105B40006B460122FBF73CFE10B14FF0FF3066E7D9
:105B500001488474002062E73400002038B5044610
:105B6000214890F82400A04201D1002038BD24B380
:105B70001D4890F8250010B94FF0FF30F6E70020DF
:105B800000F038FA0020FFF743FF1749C88C00F0F7
:105B9000E9F8002000901449496808786B46012212
:105BA0002321FBF70DFE01210F4880F8241001206E
:105BB00000F020FAFFF778FD13E0002000F01AFA59
:105BC0000948007C00900849496808786B46012222
:105BD0002321FBF7F5FD0021034880F82410FFF78F
:105BE00063FD0020C2E700003400002038B5044601
:105BF0001F48807A10B94FF0FF3038BDFA2C09D019
:105C0000B4F5FA7F09D0B4F57A7F09D0B4F5FA6F0C
:105C10000CD108E0002000900BE00820009008E084
:105C20001020009005E01820009002E04FF0FF30B7
:105C3000E3E700BF0E48007A9DF80010B0EBE10FDB
:105C400001D10020D9E70A4A12689179084A5268BE
:105C500010786B460122FBF7B3FD10B14FF0FF3017
:105C6000CBE79DF80000C010014908720020C4E78E
:105C70003400002038B50446184890F82300A042AC
:105C800001D1002038BD14B13020009001E0002087
:105C900000901248807C20B19DF8000040F0020086
:105CA00000900E4890F8220020B19DF8000040F0CE
:105CB00080000090094A1268117D084A52681078E5
:105CC0006B460122FBF77CFD10B14FF0FF30D9E7A6
:105CD000024880F823400020D4E700003400002070
:105CE00038B504461E48807A10B94FF0FF3038BDF1
:105CF000BC2C02DB0120009015E0622C02DB0220AC
:105D0000009010E02A2C02DB032000900BE0142C02
:105D100002DB0420009006E00A2C02DB0520009044
:105D200001E0062000900E48C07A9DF800108842DD
:105D300001D10020DBE70A4A12689178084A5268CC
:105D400010786B460122FBF73BFD10B14FF0FF309E
:105D5000CDE79DF800100248C1720020C7E700009F
:105D60003400002038B504462448807A10B94FF03A
:105D7000FF3038BD214890F8240010B14FF0FF30BB
:105D8000F7E71E48007D50B134B1282C04DCE0B2A6
:105D9000FFF77AFB0020ECE70020FFF775FB042CEF
:105DA00001DA042404E0B4F57A7F01DD4FF47A745B
:105DB0004FF47A7090FBF4F0401EC0B200900F4A8E
:105DC000126851780D4A526810786B460122FBF731
:105DD000F7FC10B14FF0FF30CBE79DF80000401CFE
:105DE0004FF47A7191FBF0F081B20448C181014611
:105DF000C9894810FFF774FF0020BAE7340000207B
:105E000038B5044604F0700010B10120009005E0A0
:105E100014B10020009001E0402000902B4A12684D
:105E2000917C2A4A526810786B460122FBF7C8FC25
:105E300020B1002125488172481E38BD9DF8000020
:105E400020F04001214801730020009004F0400040
:105E500020B99DF8000040F00400009004F02000FC
:105E600020B99DF8000040F00200009004F01000FE
:105E700020B99DF8000040F00100009004F00800F7
:105E800020B99DF8000040F0380000900F4A1268D9
:105E9000D17C0E4A526810786B460122FBF790FCC9
:105EA00020B1002109488172481EC6E724B1082CA0
:105EB00002D00020FFF7DEFE044884720021017545
:105EC0003220FDF733FD0020B7E70000340000204A
:105ED000F8B504460D46164616B94FF0FF30F8BD2A
:105EE0001A48807A10B94FF0FF30F8E720128DF889
:105EF0000000E0B28DF801009DF80100284413492C
:105F000049684989884202DD4FF0FF30E7E70F4AD0
:105F10001268117E0D4A526810786B460222FBF718
:105F20004FFC10B14FF0FF30D9E7EAB2074B1B68C6
:105F3000597D064B5B6818783346FBF741FC10B17E
:105F40004FF0FF30CBE70020C9E70000340000200D
:105F50000146002901DA484200E00846704770B562
:105F600088B002A905A8FFF783FC0446032C3ED1A4
:105F700001A8FFF7D5F8059801F010F90646019938
:105F800001F06CF9054601F0CDF80590069801F096
:105F900005F90646019901F061F9054601F0C2F8DC
:105FA0000690079801F0FAF80646019901F056F9B3
:105FB000054601F0B7F8079005A8FEF73BF86846DC
:105FC000FFF75AF8BDF80010029848430290BDF858
:105FD0000010039848430390BDF80010049848430C
:105FE000049002A8FDF756FF002008B070BD012004
:105FF000FBE7000038B50446214890F82400C0B102
:1060000014B10220009001E0002000901C4A1268A8
:10601000D17B1B4A526810786B460122FBF7D0FBFC
:1060200010B14FF0FF3038BD9DF800101448417496
:1060300023E01348807A10B94FF0FF30F3E724B122
:106040000F48407C08B10020EDE714B1012000901A
:1060500001E0002000900A4A1268D17B084A526889
:1060600010786B460122FBF7ABFB10B14FF0FF300D
:10607000D9E79DF80010024841740020D3E70000E2
:10608000340000202DE9F04106460F4600F0EAFCFE
:10609000041E0D4618BF0120284320F00040C0F127
:1060A0007F6000F1E040C00F0ED0301C18BF01200F
:1060B000384320F00040C0F17F6000F1E040C00FA5
:1060C00004BF0120FAF762FA20462946BDE8F081B4
:1060D00010B586B0044601210420FBF7A9FE01217A
:1060E0001020FBF7A5FE01214804FBF791FE0420D8
:1060F000ADF8140003208DF8160018208DF8170055
:1061000005A91A48FAF7AAFF0820ADF814000420E0
:106110008DF8170005A91548FAF7A0FF4FF40050B5
:10612000ADF8140004208DF8170005A91048FAF7FF
:1061300095FF01940020ADF80800ADF80A00ADF815
:106140000C00ADF810000C20ADF80E0001A90948B4
:10615000FCF7E6FE012240F225510648FCF7BAFEA4
:1061600001210448FCF780FE06B010BD0008014084
:10617000001001400044004010B586B004460121E3
:1061800044F20400FBF754FE4FF40070ADF8140025
:1061900003208DF8160018208DF8170005A91C485B
:1061A000FAF75CFF4FF48060ADF8140004208DF81E
:1061B000170005A91648FAF751FF25208DF80000B1
:1061C00003208DF801008DF8020001208DF80300F6
:1061D0006846FBF76FFB01940020ADF80800ADF8AE
:1061E0000A00ADF80C00ADF810000C20ADF80E0060
:1061F00001A90848FCF794FE012240F22551054808
:10620000FCF768FE01210348FCF72EFE06B010BD26
:1062100000080140003801402DE9FC5F82468B46B2
:106220003A4909683A4A12681144A1EB0A0000F0A1
:10623000B5FF384908603848006800F0E3FD0646BD
:10624000364A374B00F004FB044600F07FF8324931
:1062500008603048006800F0D5FD304A314BCDE988
:10626000000100F0F5FA06460F462B48006800F0E2
:10627000C9FD804632463B4600F09AF8044600F0DD
:1062800065F825490860084601682748006800F05D
:10629000E5FD2549086025492348006801F0AAF872
:1062A00002D222482049086021491F48006800F0B6
:1062B000A1FF02D21E481C4908601E4801681A4806
:1062C000006800F0CBFF04461B48016812480068D4
:1062D00000F0C4FF0546214600F0C0FD17490860E4
:1062E00017491848006800F085FF05D3164915487E
:1062F000006801F07FF802D200200B4908600F48C7
:10630000006800F00FFFBDE8FC9F0000FC000020CB
:1063100000010020F0000020F40000209A999999D3
:106320009999E93F9999C93FF800002000401C461F
:1063300000401CC68800002084000020EC000020E3
:1063400000008CC29C00002000008C4221F0004222
:10635000A2F16052B2F5801F01F0004328BFD2F1D4
:106360007F6C0BD95FEA001C43EAC20242EB50701B
:1063700018BF704728BF20F001007047B2F5801F9A
:10638000BCBF184670474FEA410C1CF5001F02D2F3
:10639000084601F02AB870B500F004FB000000893F
:1063A000FFF7F6BF4FF00040A0F5800070470000F7
:1063B00010B591EA030F48BF83F0004300F1408419
:1063C000841A71EB030C05D2121943EB0C03001B6A
:1063D00061EB0C01DFF824E14FEA1154A4EB135CEC
:1063E0001EEA430F18BF9EEA445F73D023EA0E03F0
:1063F000DCF1200E21EA045143F4801332D322FA57
:106400000CFE10EB0E0023FA0CFE41EB0E01CCF15A
:10641000200E03FA0EFE10EB0E0051F10001B1F553
:10642000801FCCF1200E32D201EB045112FA0EF291
:10643000BDE8104058BF7047401C38BF5FEA4202B9
:1064400018BF7047002814BF20F0010041F100017F
:106450004FEA410313F5001F38BF7047A1F1C04157
:1064600000F0EEBA012A43EB0302ACF1200CDCF1A0
:106470001F0E32BF4FF0000E23FA0CF310EB030097
:1064800041EB0451B4EB115FD0D0A1EB045101F505
:10649000801149085FEA300001EB04510ED350F13E
:1064A000000038BF12FA0EFE08D1BDE81040C9E75F
:1064B000401C38BF5FEA4202CAD1C3E7BDE81040C2
:1064C0004FEA410313F5001F38BF7047A1F1C041E7
:1064D00000F0B6BA9EEA445F08D011EA5E0FBDE84C
:1064E000104004BF01F0004100207047BDE810409B
:1064F00070B500F057FA00BF64FBBE3E0000E0FF3D
:1065000002494FF0000001F026B800BF0000F87FFC
:10651000491058BFC1F140415B1058BFC3F140431F
:106520008B42EFF3008070472DE9C04130B4DFF8B3
:10653000A0C23CEA111418BF3CEA131400F0EC802E
:1065400081EA03051CEA111444EAD57418BF1CEA59
:10655000131500F0C780A4EB05044FF0004545EA91
:10656000C12145EAC32341EA505143EA525304F1A1
:106570007F74994204F500344FEAC0204FEAC222EA
:1065800008BF904200F09C804FEA13650FF240165E
:10659000765D4FEA134506FB05F7C7F1807706FBEA
:1065A00007F74FEAD737A7FB03687642C8F580386C
:1065B000A7FB06CE38BFA8F1010807FB08E64FF09D
:1065C000000EA6FB028CE6FB03CEDCF1000CCEF144
:1065D000004E38BFAEF1010EA6FB0C584FF000077D
:1065E0004FF00005E6FB0E87A1FB08C6A0FB07CE17
:1065F00016EB0E0645F10005E1FB076515F1E04ECF
:106600007EBFA4F580345FEA46066D4116F180072F
:1066100045F100054FEA17274FEA066647EA056786
:10662000A6F1DE46B6F1805F4FEA15251FD9384640
:1066300024F0010C05EBC471BCF1FE6F01EB0C11F1
:1066400002D8F0BCBDE8008124425CBF01F5801E89
:106650009EEAC47F02D4F0BCBDE80081244238D455
:10666000F0BCA1F1C041BDE8004100F0E9B94FEA3A
:10667000D22242EA43524FEAD323A7FB02864FEAD3
:10668000D02040EA415007FB03661EEA0E0F4FEA96
:10669000D12105FB026658BFA6EB0056B6EB0056AB
:1066A0004FEA520E4EEAC37E18EB0E0E56EB530E17
:1066B000BDD518EB02085E417F1C55F10005B6E719
:1066C0004FF480154FF000074FF000064FF0000820
:1066D000ADE7F0BC4FF0000001F1C04101F0004116
:1066E000BDE8008111EA0C1F0CEA131500D00CE084
:1066F00013EA0C1F00F025804FF00000F0BC81EA87
:10670000030101F00041BDE80081F0BCBDE800419B
:1067100081EA030100F094B9F0BCBDE8004170B516
:1067200000F040F9097EFC3E00F007B881EA030161
:106730004FF0000001F00041704781EA030100F0D2
:106740007FB9F0BCBDE800414FF00000214970471F
:10675000FFFDFBF9F7F5F4F2F0EEEDEBE9E8E6E426
:10676000E3E1E0DEDDDBDAD8D7D5D4D3D1D0CFCDAD
:10677000CCCBCAC8C7C6C5C4C2C1C0BFBEBDBCBBE6
:10678000BAB9B8B7B6B5B4B3B2B1B0AFAEADACABE1
:10679000AAA9A8A8A7A6A5A4A3A3A2A1A09F9F9EBB
:1067A0009D9C9C9B9A99999897979695959493936D
:1067B000929191908F8F8E8E8D8C8C8B8B8A898904
:1067C0008888878786858584848383828281818087
:1067D0000000FF070000F87F51EA030C17D41CF5F6
:1067E000801F58BFBCF5801F00F10680994218BF7A
:1067F000704708BF9042704707D711F5801F58BFF8
:1068000013F5801F19D499427047894270471CF5CF
:10681000801F08D5BCF5801FF7D58B4218BF704785
:1068200008BF824270474FF4001C1CEB410F38BF79
:106830001CEB430F01D28B42704770B500F0B2F8E9
:10684000922449004FF000514FF08053FFF760BE93
:10685000DFF848C170B51CEA111E1EBF1CEA1315F3
:106860009EEA0C0F95EA0C0F00F06F8081EA03049A
:1068700023EA4C134EEAD47E21EA4C1141F48011F4
:1068800043F48013AE44A1FB024CA0FB0365AEF1C0
:106890007F7E361955EB0C05A1FB034C4CF1000330
:1068A000A0FB021C16EB0C06654153F100030942E4
:1068B00018BF46F0010613F4007F0BD14FEA0331F5
:1068C0004FEA0530340341EA155140EA16506FF0A3
:1068D00003020AE04FEAC3214FEAC520F40241EA6D
:1068E000555140EA56506FF0020202EB2E4201EB86
:1068F000025585EACE710AD05FEA440C18BF24F035
:10690000004450F1000041F1000120EAD47040F24F
:10691000FE7C624500D270BDA84214BF4FF0804497
:106920004FF04044002E08BF0024BEF1806FA8BF86
:10693000A1F1C041BDE8704080F282804FF00000BC
:1069400001F1C04101F0004170479EEA0C0F0CEAD2
:10695000131518BF95EA0C0F06D04FF0000081EA1E
:10696000030E0EF0004170BD00F01CF88900013EDE
:1069700000F007B800F009B84FEA430C5FEA5C5C2E
:1069800008D081EA030100F05BB84FEA410C5FEAEE
:106990005C5CF6D14FF00000014970470000FF0732
:1069A0000000F87F0EF1020E2EF0030E5EF8046B6D
:1069B000364205D4012A43EB030515F5001F12D812
:1069C000012841EB010C1CF5001F0CD80ED14FEA39
:1069D000D17C15F5001F0CEB4C0C0CF1020C08BF20
:1069E0004CEBD37C04E04FF0080C01E04FEAD37C81
:1069F0000CEB4C0526FA05F606F00706B6F1040C7A
:106A000006D20EEB860CBDE870404CF0010C6047DE
:106A1000DFE80CF0090B02024FF000414FF00000DC
:106A2000A1F5002170BD19461046012851EB010463
:106A300018BFD4F5001484BF002001F0004170BDE0
:106A40000808A0F500114FEA3101704791EA030FE1
:106A500010B581F000413FF5B3AC83F0004300F086
:106A6000EFB800002DE9F04101F5801CBCF5001FD6
:106A7000C0F2C3804FEA115C21EA0C510CF1FD0C0D
:106A800041F480115FEA5C0C0CF5C07C01D340003E
:106A900049413DA4890241EA905187028E0E0A0CB9
:106AA000A45D04FB04F602FB06F6C6F14046A4FB17
:106AB0000662F60D46EA422606FB06F4A4FB012315
:106AC0005242C3F1404338BF5B1EA6FB0242002482
:106AD000E6FB0324D20B42EA4446A6FB0623A1FBB5
:106AE00002E2A3FB07E4A4184FF0000252F10002F7
:106AF000E3FB01426442C2F1404E38BFAEF1010EE9
:106B0000A6FB04234FF00002E6FB0E32A2FB034675
:106B10004FF00004B61954F10004E2FB0264A1FB3B
:106B200006E6A4FB07E816EB08064FF0000858F14C
:106B30000008E4FB01687642C8F1405838BFA8F16C
:106B40000108A2FB06E4A3FB08E52D194FF00004A1
:106B500054F10004E2FB0854A1FB05E6A7FB04E89E
:106B600018EB06084FF0000656F10006E1FB04861C
:106B700018F1200556F10006A809A8F11B08B10973
:106B800008F03F08B8F10A0F40EA86601CD901EB13
:106B90000C51BDE8F08100BFFCF5EEE8E2DDD8D392
:106BA000CFCBC7C3C0BDB9B6B4B1AEACA9A7A5A37E
:106BB000A19F9D9B9A9896959392908F8D8C8B898F
:106BC0008887868584838281A0FB006800FB01F2B0
:106BD00008EB4208B8EB872807D5341858EB0104B6
:106BE000D5D5401C51F10001D1E7341A78EB0104EE
:106BF000CDD4401E71F10001C9E75FEA4C0C5FEA99
:106C00009C5C0DD105D34FF0000001F00041BDE8C0
:106C1000F081BDE8F04170B5FFF7C4FE6DDBFFBE4B
:106C2000BDE8F0414FF00000004970470000F87FD8
:106C300010B591EA030F48BF83F000433FF5C0ABA6
:106C4000841A71EB030C07D212198CF0004C43EB41
:106C50000C03001B61EB0C01DFF8A4E14FEA1154B7
:106C6000A4EB135C1EEA430F18BF9EEA445F00F0DA
:106C7000B08023EA6E03524221EA0451C3EB6E0353
:106C800038BF5B1EDCF1200E25D322FA0CFE10EB80
:106C90000E0043FA0CFE41EB0E01CCF1200E03FA7C
:106CA0000EFE10EB0E0051F10001CCF1200E29D4A4
:106CB00012FA0EF201EB0451BDE8104058BF7047C4
:106CC000401C1CBFB2F1004F704700280CBF491C8C
:106CD00020F00100704712EB020E43EB030218BFD5
:106CE0004FF0010E4EEA4202ACF1200CDCF11E0E18
:106CF00054D943FA0CFE10EB0E0051F1FF31CCF1E8
:106D00001E0ED5D50EF1010E12FA0EFE404141EBDA
:106D1000010101EB445C5FEA5C5C10D910EBDE70B2
:106D200001EB045138BFBEF1004FBDE8104018BF61
:106D3000704700280CBF491C20F00100704730D27A
:106D40004FEAD42C11F5001124F400641BD0B1FAE1
:106D500081F20B3AA41AA41ED2F12003914030FA1A
:106D600003F31943904001EBCC71002C01EB04516B
:106D7000BDE81040A8BF704701F1C0414FF00000CE
:106D800001F000417047B0FA80F310FA03F100D12E
:106D900010BDE41A173C4805C90AE4E701EB0451A9
:106DA00010BD491001EB0451BDE810404FEA30001E
:106DB00002E04FF0000170474A0008BF0042F8D0DF
:106DC000B2F5001F28BF704701F000414FF00000EE
:106DD00070479EEA445F07D011EA5E0FBDE810409D
:106DE00004BF002100207047BDE8104070B5FFF7D8
:106DF000D9FD00BF40DFF63E83F0004110467047EA
:106E00000000E0FF43004FEAD30C4FEA3C0C434044
:106E10001FBF40070CF1605113F0FE4F70471CF08C
:106E2000006F03D100200CF0004170470CF00043CC
:106E300043EA507010B540EACC0000F090FA00BF71
:106E4000000000924FEA0001FFF7FABD4FF0004149
:106E50004FF00000A1F500217047000090EA010FFB
:106E600048BF81F0004100F10883421A3CBF801AFC
:106E700089184FEAD0524FF07F4C1CEA410FA2EB29
:106E8000D15318BF9CEA026F00F03B804FF0004CDA
:106E90004CEA00204CEA012121FA03FC10EB0C0C17
:106EA0001ED202F1FF325FEA1C2040EBC25038BF15
:106EB00070471CF07F0F4FEA400C18BFBCF17F4FAA
:106EC00038BF7047C3F12003994008BF20F001008C
:106ED000BCF17F4F38BF7047A0F1C04000F085BAC9
:106EE0004FEA3C00000A40EBC25028BF1CF0FF0FE5
:106EF0004FEA400CE6D018BFBCF17F4F38BF704757
:106F0000EAE79CEA026F05D010EA5C0F08BF00F0C8
:106F10000040704710B500F022FA00BF64FBBE3E8F
:106F2000401058BFC0F14040491058BFC1F1404126
:106F30008142EFF3008070474FF47F0C1CEAD012BF
:106F40001EBF1CEAD11392EA0C0F93EA0C0F00F05B
:106F5000858090EA010F48BF42F4807240F4000C33
:106F600041F400002CF07F4120F07F4000B58142C9
:106F7000A2EB03020FF2081CACEB504EC0F1000074
:106F80009EF800E04FEA4E0E00FB0EFC38BF4900B1
:106F90004FEA2C1C02F5FA020CFB0EF34FEACE1E50
:106FA0004FEA112C4FEAC1210EEB635E42EB224205
:106FB0000EFB0CFC4FEA1C5300FB03114FEA112C93
:106FC0004FEA01310EFB0CFC4FEADC4C00FB0C11CC
:106FD000C14228BF09184CEB03335DF804EB10EBFA
:106FE000410143EBC250B2F57C0F38BF704729D541
:106FF00012F0F00F1CBF00F1C04000F000407047DD
:10700000008182838485868788898B8C8D8E8F9181
:107010009293959697999A9C9D9FA0A2A3A5A7A8A5
:10702000AAACAEB0B2B3B5B7B9BCBEC0C2C5C7C9D1
:10703000CCCED1D4D7D9DCDFE2E6E9ECF0F3F7FA35
:10704000FE0000004FEA400C0CF1807CBCF17E4F4A
:1070500028BF7047B0F1C04000F0C7B990EA010FF7
:107060000CEAD11348BF42F48072624538BF6345D1
:1070700007D213F47F0F16D080EA010000F0004021
:10708000704710B500F06BF9097EFC3E00F005B8C2
:1070900080EA010000F00040704780EA010000F043
:1070A000004000F0A2B912F47F0F04BF02487047FD
:1070B00080EA010000F099B90000C07F50EA010C9D
:1070C00000F113801CF5000F58BFBCF5000F01D470
:1070D0008842704707D710F5000F58BF11F5000F11
:1070E00015D488427047894270471CF5000F04D5BB
:1070F000BCF5000FF7D5814270474FF0807C1CEB48
:10710000400F38BF1CEB410F01D28142704710B5D0
:1071100000F025F9922449004FF000504FF08051C3
:10712000FFF7FEBE41000B0ED3F19E0208D950F4CA
:1071300000034FEA032323FA02F048BF404270479E
:1071400010B500F00CF900BF499224800020704770
:107150006FF0004282EA200070470000C10DD1F1BB
:107160009E0206DB4FEA002343F0004323FA02F0BD
:107170007047004207D54FEA4001B1F1FE4F02D2FD
:107180004FF00000704710B500F0E9F849922480F4
:10719000002070476FEA20007047000010F00041A7
:1071A00048BF4042B0FA80F310FA03F2C3F19D03E6
:1071B0000BD051EAC35101EB1220530638BF704780
:1071C00000F1010008BF20F001007047B0FA80F321
:1071D00010FA03F2C3F19D030AD0D90501EB122086
:1071E000530638BF704700F1010008BF20F00100CE
:1071F0007047000050EA010C00F113801CF5000FED
:1072000058BFBCF5000F01D48842704707D710F56E
:10721000000F58BF11F5000F15D4884270478942FE
:1072200070471CF5000F04D5BCF5000FF7D581425F
:1072300070474FF0807C1CEB400F38BF1CEB410FB8
:1072400001D28142704710B500F089F892244900BC
:107250004FF000504FF08051FFF762BE4FF47F0CAB
:107260001CEAD0121EBF1CEAD11392EA0C0F93EA5B
:107270000C0F00F0478090EA010F48BF42F4807283
:107280004FF0004C4CEA00204CEA012102EB0302D3
:10729000A0FB0113A2F50002002918BF43F001036F
:1072A0005B0028BF4FEA330342EB22425FEA132C14
:1072B0004CEBC2502EBFBCEB436FB2F57C0F704756
:1072C0004FEA036CBCF1004F08BF20F00100B2F59B
:1072D0007C0F38BF70470BD582F0FF0212F5803F5C
:1072E000C8BF704700F1C040D8BF00F000407047F1
:1072F00000F5000C5FEA4C0C48BF7047B0F1C0408D
:1073000000F073B890EA010F0CEAD11348BF42F4C1
:107310008072624538BF634504D280EA010000F004
:107320000040704710B500F01AF800BF8900013E18
:1073300000F007B800F009B85FEA410C5FEA1C6C86
:1073400008D080EA010000F050B85FEA400C5FEA24
:107350001C6CF6D14FF00040A0F5800070470EF194
:10736000020E2EF0030E5EF8044B244204D44FEAC2
:107370004102B2F17F4F11D84FEA4003B3F17F4F82
:107380000CD80ED14FEAD07CB2F17F4F0CEB4C0CF5
:107390000CF1020C08BF4CEBD17C04E04FF0080C60
:1073A00001E04FEAD17C0CEB4C0324FA03F404F027
:1073B0000704B4F1040C06D20EEB840CBDE81040B7
:1073C0004CF0010C6047DFE80CF0070802024FF0B8
:1073D0000040A0F5800010BD0846420018BFD2F161
:1073E000807288BF00F0004010BDFF2141EAD050FC
:1073F000C005704751EA000C00F113801CF5000F26
:1074000058BFBCF5000F01D48142704707D711F572
:10741000000F58BF10F5000F15D481427047894204
:1074200070471CF5000F04D5BCF5000FF7D5884256
:1074300070474FF0807C1CEB410F38BF1CEB400FB6
:1074400001D28842704780EA010081EA000180EAA7
:107450000100FFF7F8BE80F0004090EA010F7FF5D1
:1074600004AD81F0004100F008B8000090EA010F7F
:1074700048BF81F000413FF5F8AC421A04D882F0D1
:107480000042A0EB020011444FEAD0524FF07F4C73
:107490001CEA410FA2EBD15318BF9CEA026F4AD0FD
:1074A0004FF0004C4CEA00204CEA012121FA03FC89
:1074B000B0EB0C0C0FD412F0FE0F36D05FEA4C008C
:1074C0001DD5001240EBC25038BF70471CF03F0F73
:1074D00018BF70470BE0A2F101025FEA1C2040EBED
:1074E000C25038BF70471CF07F0F18BF7047C3F100
:1074F0002003994014BF401E20F00100704780080F
:107500004FEA122308BF7047B0FA80FCA2EB0C02CE
:10751000CCF1280C60FA0CF093EA122F04BF00EBB8
:10752000C25070474FEAC3707047130A5FEADC101D
:1075300008BF7047F6E79CEA026F04D010EA5C0FC0
:1075400008BF0020704710B5FFF709FF40DFF63E87
:1075500081F0004070470CF00F03092B08BF082092
:1075600000F059800A2B0BD0082B18BF704708BFBA
:107570001CF0400F0AD04FF000004FF000017047A0
:107580001CF0400F18BF4FF0004070471CF0100F68
:1075900008D020F0704300F07F4242EAD3014FEA66
:1075A0004370704700F0604021F07F4242EA0002E1
:1075B00001F07F4040EA727070474FF0FF0C4CF4CE
:1075C000E06C1CEA11531CBF9CEA030C9445C2BF3B
:1075D000DA4201EB02517047002B0DD0BCF1000FD5
:1075E0000FD0002A01F00041A4BF41F0E04141F07A
:1075F0007F614FF00000704701F000414FF0000044
:10760000704750EA01334FF09B0C18BF4CF0806C70
:107610007EF476AF70471CF4801F11D01CF4E02F6D
:1076200003D06FEACC31490070474FF04050EFF380
:10763000008222F0704242EA000282F30088704722
:107640004FF000007047000075191A0C6A231B1CCC
:107650001F207274433B4138393A6B6C376F0624F4
:107660006D6E70006800000476005401F7FD0001A3
:10767000830000000008000000010018320005002F
:10768000000020410000D242295C0F3E9A99993EA9
:107690003333733F295C0F3E00007000000000246C
:1076A000000000020003000000650054FFEF00002E
:1076B000FA80000B12820001030C30C30E8C8CE99F
:1076C00014D5400213710F8E3883F8833000F8838D
:1076D000258EF8833000F883FFFFFFFF0FFEA9D649
:1076E000240004001A8279A10000003CFFFF000082
:1076F0000010000038836FA2003E033040000000FD
:1077000002CAE3093E8000002000000000000000E3
:107710004000000060000000000C0000000C186E2B
:10772000000006920A16C0DFFFFF0256FD8CD377D9
:10773000FFE1C496E0C5BEAA00000000FFFF0B2BCE
:1077400000001657000003594000000000001DFA19
:1077500000026C1D000000003FFFDFEB003EB3B6EF
:10776000000D227800002F3C00000000001942B5F7
:10777000000039A20000B365D90E9FC91DCF4C345B
:1077800030000000500000003BB67AE800640000C2
:1077900000C8000000000000100000001000FA9275
:1077A0001000225E000D229F000100000032000048
:1077B000FF46000063D400001000000004D6000063
:1077C00004CC000004CC0000000010720000004057
:1077D0000000000000000000000600020005000795
:1077E0000000000000640000000000000000000530
:1077F0000005006400200000000000000000000000
:10780000000040000000030000000032F898000073
:10781000FF650000830F0000FF9BFC0000000000DC
:107820000000000000000000000000000000000058
:107830000000000000000000000000000000000048
:1078400000000000000010004000000000000006E2
:107850000000B26A000200000001FB830068000023
:1078600000D9FC007CF1FF830000000000650000EF
:10787000006403E800640028000000250000000008
:1078800016A000000000100000001000002F0000F3
:10789000000001F40000100000280000FFFF4581F7
:1078A000FFFFFA7200000000000000000044000525
:1078B0000005BAC6004778A20000000100000000E1
:1078C00000000600000000140000254D002F706D20
:1078D000000005AE000C02D0000000000000000017
:1078E0000000000000000000001B0000000000007D
:1078F000000000000000000000640000000800001C
:107900000000000000000000000000000000000077
:107910000000000000000000000000000000000067
:107920000000000000000000000000000000000057
:107930000000000000000000000000000000000047
:107940000000000000000000000000000000000037
:107950000000000000000000001B0000000000000C
:1079600000000000000E000E00000AC70004000026
:1079700000000032FFFFFF9C00000B2B0000000204
:107980000000000100000064FFE5000000000000AE
:1079900000000000000000000000000100000000E6
:1079A00000010000000000000001800000018000D4
:1079B00000018000002426D3000000000000000029
:1079C000000600100096003C0000000000000000CF
:1079D00000000000000000000C0A4E68CDCF7709BF
:1079E00050166759C619CE82000000000000000042
:1079F0000000000000000000000000000000000087
:107A000017D7840003000000000000000000000001
:107A1000C7938F9D1E1B1C19000000000000000072
:107A20000000000000000000000000000000000056
:107A3000020318850000400000000003000000035E
:107A400000000000000000004000000000000000F6
:107A50000000000000000000000000000000000026
:107A60000000000000000000000000000000000016
:107A7000000000000000000000000000677DDF7EC5
:107A800072902E554CF6E6880000000000000000C1
:107A90000000000000000000D8DCB4B8B0D8B9ABDA
:107AA000F3F8FAB3B7BB8E9EAEF132F51BF1B4B862
:107AB000B08097F1A9DFDFDFAADFDFDFF2AAC5CD53
:107AC000C7A90CC92C97F1A989264666B28999A93C
:107AD0002D557DB0B08AA896365676F1BAA3B4B2C9
:107AE00080C0B8A89711B28398BAA3F024084410B4
:107AF0006418B2B9B49883F1A329557DBAB5B1A37E
:107B00008393F0002850F5B2B6AA839328547CF1F1
:107B1000B9A3829361BAA2DADEDFDB819AB9AEF54E
:107B2000606870F1DABAA2DFD9BAA2FAB9A3829278
:107B3000DB31BAA2D9BAA2F8DF85A4D0C1BBAD832C
:107B4000C2C5C7B8A2DFDFDFBAA0DFDFDFD8D8F158
:107B5000B8AAB38DB4980D355DB2B6BAAF8C96198C
:107B60008F9FA70E161EB49AB8AA872C547CBAA46D
:107B7000B08AB691325676B28494A4C808CDD8B8EB
:107B8000B4B0F19982A82D557D98A80E161EA22C8E
:107B9000547C92A4F02C5078F184A898C4CDFCD8E1
:107BA0000DDBA8FC2DF3D9BAA6F8DABAA6DED8BA4E
:107BB000B2B68696A6D0F3C841DAA6C8F8D8B0B453
:107BC000B882A892F52C548898F135D9F418D8F1D8
:107BD000A2D0F8F9A884D9C7DFF8F883C5DADF693D
:107BE000DF83C1D8F40114F1A8824EA884F311D127
:107BF00082F5D992289788F109F41C1CD884A8F33F
:107C0000C0F9D1D99782F129F40DD8F3F9F9D1D976
:107C100082F4C203D8DEDF1AD8F1A2FAF9A8849858
:107C2000D9C7DFF8F8F883C7DADF69DFF883C3D88C
:107C3000F40114F198A8822EA884F311D182F5D909
:107C400092509788F109F41CD884A8F3C0F8F9D1B0
:107C5000D99782F149F40DD8F3F9F9D1D982F4C456
:107C600003D8DEDFD8F1AD8898CCA809F9D9829283
:107C7000A8F57CF1883ACF944A6E98DB6931DAAD89
:107C8000F2DEF9D88795A8F221D1DAA5F9F417D94F
:107C9000F1AE8ED0C0C3AE82C684C3A88595C8A5F8
:107CA00088F2C0F1F4010EF18E9EA8C63E56F5543E
:107CB000F18872F40115F19845856EF58E9E048861
:107CC000F142985A8E9E068869F4011CF1981E11A3
:107CD00008D0F504F11E970202983625DBF9D98504
:107CE000A5F3C1DA85A5F3DFD88595A8F309DAA550
:107CF000FAD88292A8F578F1881A849F268898216C
:107D0000DAF41DF3D8879F39D1AFD9DFDFFBF9F45F
:107D10000CF3D8FAD0F8DAF9F9D0DFD9F9D8F40BA6
:107D2000D8F3879F39D1AFD9DFDFF41DF3D8FAFC40
:107D3000A869F9F9AFD0DADEFAD9F88F9FA8F1CCAB
:107D4000F398DB45D9AFDFD0F8D8F18F9FA8CAF3FD
:107D50008809DAAF8FCBF8D8F2AD978D0CD9A5DFB3
:107D6000F9BAA6F3FAF412F2D8950DD1D9BAA6F35E
:107D7000FADAA5F2C1BAA6F3DFD8F1BAB2B686969E
:107D8000A6D0CAF349DAA6CBF8D8B0B4B8D8AD8437
:107D9000F2C0DFF18FCBC3A8B2B68696C8C1CBC301
:107DA000F3B0B48898A821DB718D9D71859521D998
:107DB000ADF2FAD88597A828D9F408D8F28D29DA37
:107DC000F405D9F285A4C2F2D8A88D9401D1D9F4D2
:107DD00011F2D88721D8F40AD8F28498A8C801D122
:107DE000D9F411D8F3A4C8BBAFD0F2DEF8F8F8F894
:107DF000F8F8F8F8D8F1B8F6B5B9B08A95A3DE3C32
:107E0000A3D9F8D85CA3D9F8D87CA3D9F8D8F8F9C5
:107E1000D1A5D9DFDAFAD8B18530F7D9DED8F83074
:107E2000ADDADED8F2B48C99A32D557DA083DFDFC7
:107E3000DFB591A0F629D9FBD8A0FC29D9FAD8A0A2
:107E4000D051D9F8D8FC51D9F9D879D9FBD8A0D0DC
:107E5000FC79D9FAD8A1F9F9F9F9F9A0DADFDFDF6D
:107E6000D8A1F8F8F8F8F8ACDEF8ADDE8393AC2CC6
:107E7000547CF1A8DFDFDFF69D2CDAA0DFD9FADB36
:107E80002DF8D8A850DAA0D0DED9D0F8F8F8DB5514
:107E9000F8D8A878DAA0D0DFD9D0FAF8F8F8F8DB6B
:107EA0007DF8D89CA88CF530DB38D9D0DEDFA0D0A7
:107EB000DEDFD8A848DB58D9DFD0DEA0DFD0DED89F
:107EC000A868DB70D9DFDFA0DFDFD8F1A888902CAD
:107ED000547C98A8D05C38D1DAF2AE8CDFF9D8B0F7
:107EE00087A8C1C1B188A8C6F9F9DA36D8A8F9DAE5
:107EF00036D8A8F9DA36D8A8F9DA36D8A8F9DA36B1
:107F0000D8F78D9DADF818DAF2AEDFD8F7ADFA30BC
:107F1000D9A4DEF9D8F2AEDEFAF983A7D9C3C5C772
:107F2000F1889BA77AADF7DEDFA4F8849408A797C1
:107F3000F300AEF29819A488C6A39488F632DFF253
:107F40008393DB09D9F2AADFD8D8AEF8F9D1DAF3F6
:107F5000A4DEA7F1889B7AD8F38494AE19F9DAAA43
:107F6000F1DFD8A881C0C3C5C7A39283F628ADDED0
:107F7000D9F8D8A350ADD9F8D8A378ADD9F8D8F8A6
:107F8000F9D1A1DADEC3C5C7D8A18194F818F2B03F
:107F900089ACC3C5C7F1D8B8B4B09786A8319B06E1
:107FA0009907AB9728889BF00C201440B0B4B8F028
:107FB000A88A9A285078B79BA829517924705944E7
:107FC0006938644831F1BBAB88002C547CF0B38B2A
:107FD000B8A804285078F1B088B49726A85998BB5F
:107FE000ABB38B02264666B0B8F08A9CA8295179BB
:107FF0008B2951798A2470598B2058718A446938A9
:108000008B3940688A6448318B30496088F1AC0014
:108010002C547CF08CA804285078F1889726A85915
:1080200098AC8C02264666F0899CA8295179247068
:1080300059446938644831A98809205970AB11380E
:108040004069A8193148608CA83C415C207C00F153
:1080500087981986A86E767EA999882D557DD8B106
:10806000B5B9A3DFDFDFAED0DFAAD0DEF2ABF8F91F
:10807000D9B087C4AAF1DFDFBBAFDFDFB9D8B1F178
:10808000A3978E60DFB084F2C8F8F9D9DED8938563
:10809000F14AB183A308B5839A0810B79F10D8F1AD
:1080A000B0BAAEB08AC2B2B68E9EF1FBD9F41DD87A
:1080B000F9D90CF1D8F8F8AD61D9AEFBD8F40CF1D0
:1080C000D8F8F8AD19D9AEFBDFD8F416F1D8F8AD71
:1080D0008D61D9F4F4ACF59C9C8DDF2BBAB6AEFA69
:1080E000F8F40BD8F1AED0F8AD51DAAEFAF8F1D819
:1080F000B9B1B6A3839C08B9B1839AB5AAC0FD30C3
:1081000083B79F10B58B93F20202D1ABDADED8F1C0
:10811000B080BAABC0C3B284C1C3D8B1B9F38BA32A
:1081200091B609B4D9ABDEB0879CB9A3DDF1B38BAE
:108130008B8B8B8BB087A3A3A3A3B28BB69BF2A32D
:10814000A3A3A3A3A3A3A3A3A3F1B087B59AA3F367
:108150009BA3A3DCBAACDFB9A3A3A3A3A3A3A3A34C
:10816000A3A3A3A3A3A3A3A3D8D8D8BBB3B7F1AAAF
:10817000F9DAFFD9809AAA28B48098A720B7978700
:10818000A86688F07951F1902C870CA781976293AB
:10819000F071716085940129517990A5F1284C6C9A
:1081A000870C95188578A38390284C6C886CD8F33D
:1081B000A28200F210A8921980A2F2D926D8F188E2
:1081C000A84DD948D896A83980D93CD89580A839E7
:1081D000A68698D92CDA87A72CD8A8899519A980C2
:1081E000D938D8A88939A980DA3CD8A82EA83990DE
:1081F000D90CD8A8953198D90CD8A809D9FFD8019D
:10820000DAFFD89539A9DA26FFD890A80D8999A860
:1082100010809821DA2ED88999A83180DA2ED8A832
:1082200086963180DA2ED8A8873180DA2ED8A882B7
:1082300092F34180F1D92ED8A882F31980F1D92E7A
:10824000D882ACF3C0A28022F1A62EA72EA9229834
:10825000A829DAACDEFFD8A2F22AF1A92E8292A8D0
:10826000F23180A696F1D900AC8C9C0C30ACDED0FB
:10827000DEFFD88C9CACD010ACDE8092A2F24C8297
:10828000A8F1CAF235F19688A6D900D8F1FF00000E
:1082900000000000A6FFFFFF4CFFFFFFF2FEFFFF04
:1082A0000000000088FFFFFF10FFFFFF000000003C
:1082B000000000000000000000000000000000F8C6
:1082C00000000000000000333000000000100C0629
:1082D000100C0600000000000000000040C07840C4
:1082E000C0784000043F04043F040400007088FC90
:1082F00008300000001820FF211E0000F008F000E8
:10830000E018000000211C031E211E0000F0088858
:10831000700000001E2123241927211010160E00C2
:10832000000000000000000000000000000000E06D
:108330001804020000000007182040000002041882
:10834000E00000000040201807000000404080F0DE
:10835000804040000202010F01020200000000F014
:10836000000000000101011F0101010000000000E8
:108370000000000080B0700000000000000000005D
:1083800000000000000101010101010100000000E6
:10839000000000000030300000000000000000007D
:1083A00080601804006018060100000000E010085A
:1083B0000810E000000F102020100F00001010F82F
:1083C000000000000020203F20200000007008086E
:1083D00008887000003028242221300000300888EE
:1083E000884830000018202020110E000000C02016
:1083F00010F8000000070424243F240000F8088837
:10840000880808000019212020110E0000E01088C3
:1084100088180000000F112020110E0000380808F5
:10842000C83808000000003F000000000070880805
:1084300008887000001C222121221C0000E0100886
:108440000810E0000000312222110F00000000C0DF
:10845000C00000000000003030000000000000807C
:10846000000000000000806000000000000080406C
:108470002010080000010204081020004040404085
:1084800040404000040404040404040000081020D8
:10849000408000000020100804020100007048081D
:1084A0000808F0000000003036010000C030C82885
:1084B000E810E0000718272423140B000000C03840
:1084C000E0000000203C23020227382008F88888BA
:1084D00088700000203F202020110E00C0300808C6
:1084E00008083800071820202010080008F808089D
:1084F0000810E000203F202020100F0008F8888896
:10850000E8081000203F20202320180008F8888861
:10851000E8081000203F200003000000C0300808D9
:108520000838000007182020221E020008F8080062
:108530000008F808203F210101213F20000808F829
:10854000080800000020203F20200000000008084C
:10855000F8080800C08080807F00000008F888C00C
:1085600028180800203F20012638200008F80800BD
:1085700000000000203F20202020300008F8F800F4
:10858000F8F80800203F003F003F200008F830C006
:108590000008F808203F200007183F00E0100808F6
:1085A0000810E0000F10202020100F0008F8080825
:1085B0000808F000203F210101010000E010080838
:1085C0000810E0000F18242438504F0008F888885D
:1085D00088887000203F2000030C3020007088083D
:1085E000080838000038202121221C00180808F84B
:1085F000080818000000203F2000000008F80800CC
:108600000008F808001F202020201F00087888009C
:1086100000C83808000007380E010000F80800F80C
:108620000008F800033C0700073C030008186880B6
:108630008068180820302C03032C30200838C8002C
:10864000C83808000000203F20000000100808087B
:10865000C83808002038262120201800000000FE1D
:10866000020202000000007F40404000000C30C0C9
:1086700000000000000000010638C00000020202F5
:10868000FE000000004040407F00000000000402A7
:1086900002020400000000000000000000000000D2
:1086A00000000000808080808080808000020204C2
:1086B00000000000000000000000000000008080BA
:1086C000808000000019242222223F2008F8008028
:1086D00080000000003F112020110E0000000080EB
:1086E00080800000000E112020201100000000807A
:1086F0008088F800000E112020103F2000008080AC
:1087000080800000001F222222221300008080F0BF
:10871000888888180020203F2020000000008080EA
:1087200080808000006B94949493600008F800802F
:1087300080800000203F210000203F20008098988A
:10874000000000000020203F2020000000000080EA
:108750009898000000C08080807F000008F800002A
:1087600080808000203F24022D302000000808F87F
:10877000000000000020203F20200000808080803A
:1087800080808000203F20003F20003F80800080CC
:1087900080800000203F210000203F2000008080DA
:1087A00080800000001F202020201F00808000808B
:1087B0008000000080FFA12020110E00000000803A
:1087C00080808000000E112020A0FF80808080002B
:1087D0008080800020203F21200001000000808058
:1087E000808080000033242424241900008080E04D
:1087F000808000000000001F20200000808000001A
:1088000000808000001F202020103F2080808000FA
:108810000080808000010E3008060100808000800A
:10882000008080800F300C030C300F00008080002F
:10883000808080000020312E0E312000808080005A
:108840000080808080818E7018060100008080800A
:10885000808080000021302C2221300000000000A8
:10886000807C020200000000003F40400000000049
:10887000FF00000000000000FF0000000002027C7A
:10888000800000000040403F0000000000060101A1
:1088900002020404000000000000000004000008C0
:1088A00000000000000000020001000010000000B5
:1088B000555555555555C53F7D6FEB0312D6D4BF61
:1088C0005544880E55C1C93F3B8F68B52882A4BF67
:1088D00088B20175E0EF493F09F7FD0DE13D023F28
:1088E0004B2D8A1C273A03C0C88A599CE52A0040B0
:1088F00059018D1B6C06E6BF82922EB1C5B8B33FFD
:108900004FBB610567ACDD3F182D4454FB21E93FA7
:108910009BF681D20B73EF3F182D4454FB21F93F96
:10892000E2652F227F2B7A3C075C143326A6813C1C
:10893000BDCBF07A8807703C075C143326A6913CC7
:10894000C4EB98999999C9BF711623FEC671BCBF33
:108950006D9A74AFF2B0B3BF9AFDDE522DDEADBF9B
:108960002F6C6A2C44B4A2BF0D5555555555D53FB3
:10897000FF8300922449C23F6E204CC5CD45B73FCE
:10898000513DD0A0660DB13FEB0D76244B7BA93F46
:1089900011DA22E33AAD903F000000000000000031
:1089A00050726F647563742049442072656164205D
:1089B0006173203020696E6469636174657320643B
:1089C00065766963652069732065697468657220DE
:1089D000696E636F6D70617469626C65206F72207F
:1089E000616E204D5055333035302E0A00000000A6
:1089F000108A000800000020C401000028010008BF
:108A0000888A0008C4010020BC0700008401000817
:108A1000E12D0102030404300906070809020406D7
:108A200008ACA24A041E291A1348761B08640401E4
:108A3000201A702432015AFF040911222643EC51F6
:108A4000B8BEA3A0C203870C422DC0C0C080BA1913
:108A5000013E7EFCF8F0E00EB1280803070F1F3F2F
:108A60007EFC20D808F8FC7F3F1F0F07402FE0F066
:108A7000F8FC7E3F202C1F3FFE42D9406C030301CF
:088A800060293E390E013400AB
:04000005080001D11D
:00000001FF
